8=FIX.4.2|9=183|35=D|49=Client|56=Trade|34=562|52=20120907-16:14:38.872|11=20120907-171406-1290161|1=TestAccount|63=0|21=1|111=0|55=MSFT|54=1|60=20120907-17:14:38.872|38=100000|40=1|15=USD|59=0|47=I|10=036|
8=FIX.4.2|9=183|35=D|49=Client|56=Trade|34=563|52=20120907-16:14:39.434|11=20120907-171438-8881761|1=TestAccount|63=0|21=1|111=0|55=MSFT|54=1|60=20120907-17:14:39.434|38=100000|40=1|15=USD|59=0|47=I|10=051|
8=FIX.4.2|9=183|35=D|49=Client|56=Trade|34=564|52=20120907-16:14:39.652|11=20120907-171439-4341645|1=TestAccount|63=0|21=1|111=0|55=MSFT|54=1|60=20120907-17:14:39.652|38=100000|40=1|15=USD|59=0|47=I|10=045|
8=FIX.4.2|9=183|35=D|49=Client|56=Trade|34=565|52=20120907-16:14:39.855|11=20120907-171439-6525673|1=TestAccount|63=0|21=1|111=0|55=MSFT|54=1|60=20120907-17:14:39.855|38=100000|40=1|15=USD|59=0|47=I|10=063|
8=FIX.4.2|9=183|35=D|49=Client|56=Trade|34=566|52=20120907-16:14:40.026|11=20120907-171439-8553699|1=TestAccount|63=0|21=1|111=0|55=MSFT|54=1|60=20120907-17:14:40.026|38=100000|40=1|15=USD|59=0|47=I|10=039|
8=FIX.4.2|9=183|35=D|49=Client|56=Trade|34=567|52=20120907-16:14:40.214|11=20120907-171440-0269721|1=TestAccount|63=0|21=1|111=0|55=MSFT|54=1|60=20120907-17:14:40.214|38=100000|40=1|15=USD|59=0|47=I|10=012|
8=FIX.4.2|9=183|35=D|49=Client|56=Trade|34=568|52=20120907-16:14:40.401|11=20120907-171440-2141745|1=TestAccount|63=0|21=1|111=0|55=MSFT|54=1|60=20120907-17:14:40.401|38=100000|40=1|15=USD|59=0|47=I|10=006|
8=FIX.4.2|9=183|35=D|49=Client|56=Trade|34=569|52=20120907-16:14:40.588|11=20120907-171440-4013769|1=TestAccount|63=0|21=1|111=0|55=MSFT|54=1|60=20120907-17:14:40.588|38=100000|40=1|15=USD|59=0|47=I|10=045|
8=FIX.4.2|9=183|35=D|49=Client|56=Trade|34=570|52=20120907-16:14:40.760|11=20120907-171440-5885793|1=TestAccount|63=0|21=1|111=0|55=MSFT|54=1|60=20120907-17:14:40.760|38=100000|40=1|15=USD|59=0|47=I|10=036|
8=FIX.4.2|9=183|35=D|49=Client|56=Trade|34=571|52=20120907-16:14:40.947|11=20120907-171440-7601815|1=TestAccount|63=0|21=1|111=0|55=MSFT|54=1|60=20120907-17:14:40.947|38=100000|40=1|15=USD|59=0|47=I|10=034|
8=FIX.4.2|9=183|35=D|49=Client|56=Trade|34=572|52=20120907-16:14:41.118|11=20120907-171440-9473839|1=TestAccount|63=0|21=1|111=0|55=MSFT|54=1|60=20120907-17:14:41.118|38=100000|40=1|15=USD|59=0|47=I|10=032|
8=FIX.4.2|9=183|35=D|49=Client|56=Trade|34=573|52=20120907-16:14:41.290|11=20120907-171441-1189861|1=TestAccount|63=0|21=1|111=0|55=MSFT|54=1|60=20120907-17:14:41.290|38=100000|40=1|15=USD|59=0|47=I|10=027|
8=FIX.4.2|9=183|35=D|49=Client|56=Trade|34=574|52=20120907-16:14:41.493|11=20120907-171441-3061885|1=TestAccount|63=0|21=1|111=0|55=MSFT|54=1|60=20120907-17:14:41.493|38=100000|40=1|15=USD|59=0|47=I|10=035|
8=FIX.4.2|9=183|35=D|49=Client|56=Trade|34=575|52=20120907-16:14:49.979|11=20120907-171441-4933909|1=TestAccount|63=0|21=1|111=0|55=MSFT|54=1|60=20120907-17:14:49.979|38=100000|40=1|15=USD|59=0|47=I|10=076|
8=FIX.4.2|9=183|35=D|49=Client|56=Trade|34=576|52=20120907-16:14:54.862|11=20120907-171449-9798997|1=TestAccount|63=0|21=1|111=0|55=MSFT|54=2|60=20120907-17:14:54.862|38=100000|40=1|15=USD|59=0|47=I|10=081|
8=FIX.4.2|9=183|35=D|49=Client|56=Trade|34=577|52=20120907-16:14:55.065|11=20120907-171454-8627623|1=TestAccount|63=0|21=1|111=0|55=MSFT|54=2|60=20120907-17:14:55.065|38=100000|40=1|15=USD|59=0|47=I|10=046|
8=FIX.4.2|9=183|35=D|49=Client|56=Trade|34=578|52=20120907-16:14:55.237|11=20120907-171455-0655649|1=TestAccount|63=0|21=1|111=0|55=MSFT|54=2|60=20120907-17:14:55.237|38=100000|40=1|15=USD|59=0|47=I|10=051|
8=FIX.4.2|9=183|35=D|49=Client|56=Trade|34=579|52=20120907-16:14:55.424|11=20120907-171455-2371671|1=TestAccount|63=0|21=1|111=0|55=MSFT|54=2|60=20120907-17:14:55.424|38=100000|40=1|15=USD|59=0|47=I|10=040|
8=FIX.4.2|9=183|35=D|49=Client|56=Trade|34=580|52=20120907-16:14:55.595|11=20120907-171455-4243695|1=TestAccount|63=0|21=1|111=0|55=MSFT|54=2|60=20120907-17:14:55.595|38=100000|40=1|15=USD|59=0|47=I|10=056|
8=FIX.4.2|9=183|35=D|49=Client|56=Trade|34=581|52=20120907-16:14:55.783|11=20120907-171455-5959717|1=TestAccount|63=0|21=1|111=0|55=MSFT|54=2|60=20120907-17:14:55.783|38=100000|40=1|15=USD|59=0|47=I|10=065|
8=FIX.4.2|9=183|35=D|49=Client|56=Trade|34=582|52=20120907-16:14:55.939|11=20120907-171455-7831741|1=TestAccount|63=0|21=1|111=0|55=MSFT|54=2|60=20120907-17:14:55.939|38=100000|40=1|15=USD|59=0|47=I|10=060|
8=FIX.4.2|9=183|35=D|49=Client|56=Trade|34=583|52=20120907-16:14:56.110|11=20120907-171455-9391761|1=TestAccount|63=0|21=1|111=0|55=MSFT|54=2|60=20120907-17:14:56.110|38=100000|40=1|15=USD|59=0|47=I|10=030|
8=FIX.4.2|9=183|35=D|49=Client|56=Trade|34=584|52=20120907-16:14:56.297|11=20120907-171456-1107783|1=TestAccount|63=0|21=1|111=0|55=MSFT|54=2|60=20120907-17:14:56.297|38=100000|40=1|15=USD|59=0|47=I|10=055|
8=FIX.4.2|9=183|35=D|49=Client|56=Trade|34=585|52=20120907-16:14:56.469|11=20120907-171456-2979807|1=TestAccount|63=0|21=1|111=0|55=MSFT|54=2|60=20120907-17:14:56.469|38=100000|40=1|15=USD|59=0|47=I|10=073|
8=FIX.4.2|9=183|35=D|49=Client|56=Trade|34=586|52=20120907-16:14:56.672|11=20120907-171456-4695829|1=TestAccount|63=0|21=1|111=0|55=MSFT|54=2|60=20120907-17:14:56.672|38=100000|40=1|15=USD|59=0|47=I|10=067|
8=FIX.4.2|9=183|35=D|49=Client|56=Trade|34=587|52=20120907-16:14:56.843|11=20120907-171456-6723855|1=TestAccount|63=0|21=1|111=0|55=MSFT|54=2|60=20120907-17:14:56.843|38=100000|40=1|15=USD|59=0|47=I|10=061|
8=FIX.4.2|9=183|35=D|49=Client|56=Trade|34=588|52=20120907-16:14:57.015|11=20120907-171456-8439877|1=TestAccount|63=0|21=1|111=0|55=MSFT|54=2|60=20120907-17:14:57.015|38=100000|40=1|15=USD|59=0|47=I|10=056|