8=FIX.4.2|9=190|35=D|49=Client|56=TradingGateway|34=4|52=20120601-09:36:26.635|11=20120601-103623-4844048|1=TestAccount|63=0|21=1|111=0|55=MSFT|54=1|60=20120601-10:36:26.635|38=100000|40=1|15=USD|59=0|47=I|10=072|
8=FIX.4.2|9=190|35=D|49=Client|56=TradingGateway|34=5|52=20120601-09:36:28.539|11=20120601-103626-6514687|1=TestAccount|63=0|21=1|111=0|55=MSFT|54=1|60=20120601-10:36:28.539|38=100000|40=1|15=USD|59=0|47=I|10=091|
8=FIX.4.2|9=190|35=D|49=Client|56=TradingGateway|34=6|52=20120601-09:36:28.944|11=20120601-103628-5392260|1=TestAccount|63=0|21=1|111=0|55=MSFT|54=1|60=20120601-10:36:28.944|38=100000|40=1|15=USD|59=0|47=I|10=084|
8=FIX.4.2|9=190|35=D|49=Client|56=TradingGateway|34=7|52=20120601-09:36:29.163|11=20120601-103628-9448598|1=TestAccount|63=0|21=1|111=0|55=MSFT|54=1|60=20120601-10:36:29.163|38=100000|40=1|15=USD|59=0|47=I|10=093|
8=FIX.4.2|9=190|35=D|49=Client|56=TradingGateway|34=8|52=20120601-09:36:29.350|11=20120601-103629-1632780|1=TestAccount|63=0|21=1|111=0|55=MSFT|54=1|60=20120601-10:36:29.350|38=100000|40=1|15=USD|59=0|47=I|10=071|
8=FIX.4.2|9=190|35=D|49=Client|56=TradingGateway|34=9|52=20120601-09:36:29.506|11=20120601-103629-3504936|1=TestAccount|63=0|21=1|111=0|55=MSFT|54=1|60=20120601-10:36:29.506|38=100000|40=1|15=USD|59=0|47=I|10=081|
8=FIX.4.2|9=191|35=D|49=Client|56=TradingGateway|34=10|52=20120601-09:36:29.678|11=20120601-103629-5065066|1=TestAccount|63=0|21=1|111=0|55=MSFT|54=1|60=20120601-10:36:29.678|38=100000|40=1|15=USD|59=0|47=I|10=140|
8=FIX.4.2|9=191|35=D|49=Client|56=TradingGateway|34=11|52=20120601-09:36:29.849|11=20120601-103629-6781209|1=TestAccount|63=0|21=1|111=0|55=MSFT|54=1|60=20120601-10:36:29.849|38=100000|40=1|15=USD|59=0|47=I|10=146|
8=FIX.4.2|9=191|35=D|49=Client|56=TradingGateway|34=12|52=20120601-09:36:30.036|11=20120601-103629-8497352|1=TestAccount|63=0|21=1|111=0|55=MSFT|54=1|60=20120601-10:36:30.036|38=100000|40=1|15=USD|59=0|47=I|10=112|
8=FIX.4.2|9=191|35=D|49=Client|56=TradingGateway|34=13|52=20120601-09:36:30.208|11=20120601-103630-0369508|1=TestAccount|63=0|21=1|111=0|55=MSFT|54=1|60=20120601-10:36:30.208|38=100000|40=1|15=USD|59=0|47=I|10=100|
8=FIX.4.2|9=191|35=D|49=Client|56=TradingGateway|34=14|52=20120601-09:36:30.395|11=20120601-103630-2085651|1=TestAccount|63=0|21=1|111=0|55=MSFT|54=1|60=20120601-10:36:30.395|38=100000|40=1|15=USD|59=0|47=I|10=111|
8=FIX.4.2|9=191|35=D|49=Client|56=TradingGateway|34=15|52=20120601-09:36:30.582|11=20120601-103630-3957807|1=TestAccount|63=0|21=1|111=0|55=MSFT|54=1|60=20120601-10:36:30.582|38=100000|40=1|15=USD|59=0|47=I|10=120|
8=FIX.4.2|9=191|35=D|49=Client|56=TradingGateway|34=16|52=20120601-09:36:30.770|11=20120601-103630-5829963|1=TestAccount|63=0|21=1|111=0|55=MSFT|54=1|60=20120601-10:36:30.770|38=100000|40=1|15=USD|59=0|47=I|10=122|
8=FIX.4.2|9=191|35=D|49=Client|56=TradingGateway|34=17|52=20120601-09:36:30.926|11=20120601-103630-7702119|1=TestAccount|63=0|21=1|111=0|55=MSFT|54=1|60=20120601-10:36:30.926|38=100000|40=1|15=USD|59=0|47=I|10=114|
8=FIX.4.2|9=191|35=D|49=Client|56=TradingGateway|34=18|52=20120601-09:36:31.113|11=20120601-103630-9262249|1=TestAccount|63=0|21=1|111=0|55=MSFT|54=1|60=20120601-10:36:31.113|38=100000|40=1|15=USD|59=0|47=I|10=100|
8=FIX.4.2|9=191|35=D|49=Client|56=TradingGateway|34=19|52=20120601-09:36:31.300|11=20120601-103631-1134405|1=TestAccount|63=0|21=1|111=0|55=MSFT|54=1|60=20120601-10:36:31.300|38=100000|40=1|15=USD|59=0|47=I|10=082|
8=FIX.4.2|9=191|35=D|49=Client|56=TradingGateway|34=20|52=20120601-09:36:31.487|11=20120601-103631-3006561|1=TestAccount|63=0|21=1|111=0|55=MSFT|54=1|60=20120601-10:36:31.487|38=100000|40=1|15=USD|59=0|47=I|10=109|
8=FIX.4.2|9=191|35=D|49=Client|56=TradingGateway|34=21|52=20120601-09:36:31.659|11=20120601-103631-4878717|1=TestAccount|63=0|21=1|111=0|55=MSFT|54=1|60=20120601-10:36:31.659|38=100000|40=1|15=USD|59=0|47=I|10=133|
8=FIX.4.2|9=191|35=D|49=Client|56=TradingGateway|34=22|52=20120601-09:36:31.831|11=20120601-103631-6594860|1=TestAccount|63=0|21=1|111=0|55=MSFT|54=1|60=20120601-10:36:31.831|38=100000|40=1|15=USD|59=0|47=I|10=114|
8=FIX.4.2|9=191|35=D|49=Client|56=TradingGateway|34=23|52=20120601-09:36:32.033|11=20120601-103631-8467016|1=TestAccount|63=0|21=1|111=0|55=MSFT|54=1|60=20120601-10:36:32.033|38=100000|40=1|15=USD|59=0|47=I|10=099|
8=FIX.4.2|9=191|35=D|49=Client|56=TradingGateway|34=24|52=20120601-09:36:32.236|11=20120601-103632-0339172|1=TestAccount|63=0|21=1|111=0|55=MSFT|54=1|60=20120601-10:36:32.236|38=100000|40=1|15=USD|59=0|47=I|10=104|
8=FIX.4.2|9=191|35=D|49=Client|56=TradingGateway|34=25|52=20120601-09:36:32.611|11=20120601-103632-2367341|1=TestAccount|63=0|21=1|111=0|55=MSFT|54=1|60=20120601-10:36:32.611|38=100000|40=1|15=USD|59=0|47=I|10=100|
8=FIX.4.2|9=191|35=D|49=Client|56=TradingGateway|34=26|52=20120601-09:36:32.798|11=20120601-103632-6111653|1=TestAccount|63=0|21=1|111=0|55=MSFT|54=1|60=20120601-10:36:32.798|38=100000|40=1|15=USD|59=0|47=I|10=130|
8=FIX.4.2|9=191|35=D|49=Client|56=TradingGateway|34=27|52=20120601-09:36:32.985|11=20120601-103632-7983809|1=TestAccount|63=0|21=1|111=0|55=MSFT|54=1|60=20120601-10:36:32.985|38=100000|40=1|15=USD|59=0|47=I|10=148|
8=FIX.4.2|9=191|35=D|49=Client|56=TradingGateway|34=28|52=20120601-09:36:33.172|11=20120601-103632-9855965|1=TestAccount|63=0|21=1|111=0|55=MSFT|54=1|60=20120601-10:36:33.172|38=100000|40=1|15=USD|59=0|47=I|10=130|
8=FIX.4.2|9=191|35=D|49=Client|56=TradingGateway|34=29|52=20120601-09:36:33.360|11=20120601-103633-1728121|1=TestAccount|63=0|21=1|111=0|55=MSFT|54=1|60=20120601-10:36:33.360|38=100000|40=1|15=USD|59=0|47=I|10=105|
8=FIX.4.2|9=191|35=D|49=Client|56=TradingGateway|34=30|52=20120601-09:36:33.531|11=20120601-103633-3600277|1=TestAccount|63=0|21=1|111=0|55=MSFT|54=1|60=20120601-10:36:33.531|38=100000|40=1|15=USD|59=0|47=I|10=100|
8=FIX.4.2|9=191|35=D|49=Client|56=TradingGateway|34=31|52=20120601-09:36:33.718|11=20120601-103633-5316420|1=TestAccount|63=0|21=1|111=0|55=MSFT|54=1|60=20120601-10:36:33.718|38=100000|40=1|15=USD|59=0|47=I|10=111|
8=FIX.4.2|9=191|35=D|49=Client|56=TradingGateway|34=32|52=20120601-09:36:43.766|11=20120601-103633-7188576|1=TestAccount|63=0|21=1|111=0|55=CSCO|54=2|60=20120601-10:36:43.766|38=100000|40=1|15=USD|59=0|47=I|10=124|
8=FIX.4.2|9=191|35=D|49=Client|56=TradingGateway|34=33|52=20120601-09:36:43.953|11=20120601-103643-7660948|1=TestAccount|63=0|21=1|111=0|55=CSCO|54=2|60=20120601-10:36:43.953|38=100000|40=1|15=USD|59=0|47=I|10=120|
8=FIX.4.2|9=191|35=D|49=Client|56=TradingGateway|34=34|52=20120601-09:36:44.140|11=20120601-103643-9533104|1=TestAccount|63=0|21=1|111=0|55=CSCO|54=2|60=20120601-10:36:44.140|38=100000|40=1|15=USD|59=0|47=I|10=084|
8=FIX.4.2|9=191|35=D|49=Client|56=TradingGateway|34=35|52=20120601-09:36:44.312|11=20120601-103644-1405260|1=TestAccount|63=0|21=1|111=0|55=CSCO|54=2|60=20120601-10:36:44.312|38=100000|40=1|15=USD|59=0|47=I|10=081|
8=FIX.4.2|9=191|35=D|49=Client|56=TradingGateway|34=36|52=20120601-09:36:44.483|11=20120601-103644-3121403|1=TestAccount|63=0|21=1|111=0|55=CSCO|54=2|60=20120601-10:36:44.483|38=100000|40=1|15=USD|59=0|47=I|10=096|
8=FIX.4.2|9=191|35=D|49=Client|56=TradingGateway|34=37|52=20120601-09:36:44.639|11=20120601-103644-4837546|1=TestAccount|63=0|21=1|111=0|55=CSCO|54=2|60=20120601-10:36:44.639|38=100000|40=1|15=USD|59=0|47=I|10=126|
8=FIX.4.2|9=191|35=D|49=Client|56=TradingGateway|34=38|52=20120601-09:36:44.811|11=20120601-103644-6553689|1=TestAccount|63=0|21=1|111=0|55=CSCO|54=2|60=20120601-10:36:44.811|38=100000|40=1|15=USD|59=0|47=I|10=116|
8=FIX.4.2|9=191|35=D|49=Client|56=TradingGateway|34=39|52=20120601-09:36:44.982|11=20120601-103644-8113819|1=TestAccount|63=0|21=1|111=0|55=CSCO|54=2|60=20120601-10:36:44.982|38=100000|40=1|15=USD|59=0|47=I|10=124|
8=FIX.4.2|9=191|35=D|49=Client|56=TradingGateway|34=40|52=20120601-09:36:45.154|11=20120601-103644-9829962|1=TestAccount|63=0|21=1|111=0|55=CSCO|54=2|60=20120601-10:36:45.154|38=100000|40=1|15=USD|59=0|47=I|10=114|
8=FIX.4.2|9=191|35=D|49=Client|56=TradingGateway|34=41|52=20120601-09:36:45.326|11=20120601-103645-1546105|1=TestAccount|63=0|21=1|111=0|55=CSCO|54=2|60=20120601-10:36:45.326|38=100000|40=1|15=USD|59=0|47=I|10=095|
8=FIX.4.2|9=191|35=D|49=Client|56=TradingGateway|34=42|52=20120601-09:36:45.497|11=20120601-103645-3262248|1=TestAccount|63=0|21=1|111=0|55=CSCO|54=2|60=20120601-10:36:45.497|38=100000|40=1|15=USD|59=0|47=I|10=119|
8=FIX.4.2|9=191|35=D|49=Client|56=TradingGateway|34=43|52=20120601-09:36:45.653|11=20120601-103645-4978391|1=TestAccount|63=0|21=1|111=0|55=CSCO|54=2|60=20120601-10:36:45.653|38=100000|40=1|15=USD|59=0|47=I|10=122|
8=FIX.4.2|9=191|35=D|49=Client|56=TradingGateway|34=44|52=20120601-09:36:45.825|11=20120601-103645-6538521|1=TestAccount|63=0|21=1|111=0|55=CSCO|54=2|60=20120601-10:36:45.825|38=100000|40=1|15=USD|59=0|47=I|10=114|
8=FIX.4.2|9=191|35=D|49=Client|56=TradingGateway|34=45|52=20120601-09:36:45.997|11=20120601-103645-8254664|1=TestAccount|63=0|21=1|111=0|55=CSCO|54=2|60=20120601-10:36:45.997|38=100000|40=1|15=USD|59=0|47=I|10=140|
8=FIX.4.2|9=191|35=D|49=Client|56=TradingGateway|34=48|52=20120807-14:21:34.874|11=20120807-152112-0705639|1=TestAccount|63=0|21=1|111=0|55=MSFT|54=1|60=20120807-15:21:34.874|38=100000|40=1|15=USD|59=0|47=I|10=145|
8=FIX.4.2|9=191|35=D|49=Client|56=TradingGateway|34=49|52=20120807-14:21:36.216|11=20120807-152134-8902916|1=TestAccount|63=0|21=1|111=0|55=MSFT|54=1|60=20120807-15:21:36.216|38=100000|40=1|15=USD|59=0|47=I|10=139|
8=FIX.4.2|9=191|35=D|49=Client|56=TradingGateway|34=50|52=20120807-14:21:36.590|11=20120807-152136-2161131|1=TestAccount|63=0|21=1|111=0|55=MSFT|54=1|60=20120807-15:21:36.590|38=100000|40=1|15=USD|59=0|47=I|10=123|
8=FIX.4.2|9=191|35=D|49=Client|56=TradingGateway|34=51|52=20120807-14:21:36.762|11=20120807-152136-5904627|1=TestAccount|63=0|21=1|111=0|55=MSFT|54=1|60=20120807-15:21:36.762|38=100000|40=1|15=USD|59=0|47=I|10=144|
8=FIX.4.2|9=191|35=D|49=Client|56=TradingGateway|34=52|52=20120807-14:21:36.933|11=20120807-152136-7620396|1=TestAccount|63=0|21=1|111=0|55=MSFT|54=1|60=20120807-15:21:36.933|38=100000|40=1|15=USD|59=0|47=I|10=145|
8=FIX.4.2|9=191|35=D|49=Client|56=TradingGateway|34=53|52=20120807-14:21:37.105|11=20120807-152136-9336165|1=TestAccount|63=0|21=1|111=0|55=MSFT|54=1|60=20120807-15:21:37.105|38=100000|40=1|15=USD|59=0|47=I|10=130|
8=FIX.4.2|9=191|35=D|49=Client|56=TradingGateway|34=54|52=20120807-14:21:37.276|11=20120807-152137-1051934|1=TestAccount|63=0|21=1|111=0|55=MSFT|54=1|60=20120807-15:21:37.276|38=100000|40=1|15=USD|59=0|47=I|10=140|
8=FIX.4.2|9=191|35=D|49=Client|56=TradingGateway|34=55|52=20120807-14:21:37.432|11=20120807-152137-2767703|1=TestAccount|63=0|21=1|111=0|55=MSFT|54=1|60=20120807-15:21:37.432|38=100000|40=1|15=USD|59=0|47=I|10=138|
8=FIX.4.2|9=191|35=D|49=Client|56=TradingGateway|34=56|52=20120807-14:21:37.588|11=20120807-152137-4327493|1=TestAccount|63=0|21=1|111=0|55=MSFT|54=1|60=20120807-15:21:37.588|38=100000|40=1|15=USD|59=0|47=I|10=163|
8=FIX.4.2|9=191|35=D|49=Client|56=TradingGateway|34=57|52=20120807-14:21:37.760|11=20120807-152137-5887311|1=TestAccount|63=0|21=1|111=0|55=MSFT|54=1|60=20120807-15:21:37.760|38=100000|40=1|15=USD|59=0|47=I|10=149|
8=FIX.4.2|9=191|35=D|49=Client|56=TradingGateway|34=58|52=20120807-14:21:37.931|11=20120807-152137-7603234|1=TestAccount|63=0|21=1|111=0|55=MSFT|54=1|60=20120807-15:21:37.931|38=100000|40=1|15=USD|59=0|47=I|10=142|
8=FIX.4.2|9=191|35=D|49=Client|56=TradingGateway|34=59|52=20120807-14:21:38.087|11=20120807-152137-9319157|1=TestAccount|63=0|21=1|111=0|55=MSFT|54=1|60=20120807-15:21:38.087|38=100000|40=1|15=USD|59=0|47=I|10=159|
8=FIX.4.2|9=191|35=D|49=Client|56=TradingGateway|34=60|52=20120807-14:21:38.259|11=20120807-152138-0879087|1=TestAccount|63=0|21=1|111=0|55=MSFT|54=1|60=20120807-15:21:38.259|38=100000|40=1|15=USD|59=0|47=I|10=158|
8=FIX.4.2|9=191|35=D|49=Client|56=TradingGateway|34=67|52=20120807-14:24:23.022|11=20120807-152420-3865392|1=TestAccount|63=0|21=1|111=0|55=MSFT|54=1|60=20120807-15:24:23.022|38=100000|40=1|15=USD|59=0|47=I|10=126|
8=FIX.4.2|9=191|35=D|49=Client|56=TradingGateway|34=68|52=20120807-14:24:24.675|11=20120807-152423-0225505|1=TestAccount|63=0|21=1|111=0|55=MSFT|54=1|60=20120807-15:24:24.675|38=100000|40=1|15=USD|59=0|47=I|10=143|
8=FIX.4.2|9=191|35=D|49=Client|56=TradingGateway|34=69|52=20120807-14:24:24.847|11=20120807-152424-7226998|1=TestAccount|63=0|21=1|111=0|55=MSFT|54=1|60=20120807-15:24:24.847|38=100000|40=1|15=USD|59=0|47=I|10=171|
8=FIX.4.2|9=191|35=D|49=Client|56=TradingGateway|34=70|52=20120807-14:24:25.019|11=20120807-152424-8474814|1=TestAccount|63=0|21=1|111=0|55=MSFT|54=1|60=20120807-15:24:25.019|38=100000|40=1|15=USD|59=0|47=I|10=140|
8=FIX.4.2|9=191|35=D|49=Client|56=TradingGateway|34=71|52=20120807-14:24:25.206|11=20120807-152425-0190561|1=TestAccount|63=0|21=1|111=0|55=MSFT|54=1|60=20120807-15:24:25.206|38=100000|40=1|15=USD|59=0|47=I|10=124|
8=FIX.4.2|9=191|35=D|49=Client|56=TradingGateway|34=72|52=20120807-14:24:25.362|11=20120807-152425-2062285|1=TestAccount|63=0|21=1|111=0|55=MSFT|54=1|60=20120807-15:24:25.362|38=100000|40=1|15=USD|59=0|47=I|10=134|
8=FIX.4.2|9=191|35=D|49=Client|56=TradingGateway|34=73|52=20120807-14:24:25.533|11=20120807-152425-3622055|1=TestAccount|63=0|21=1|111=0|55=MSFT|54=1|60=20120807-15:24:25.533|38=100000|40=1|15=USD|59=0|47=I|10=133|
8=FIX.4.2|9=191|35=D|49=Client|56=TradingGateway|34=74|52=20120807-14:24:25.689|11=20120807-152425-5337802|1=TestAccount|63=0|21=1|111=0|55=MSFT|54=1|60=20120807-15:24:25.689|38=100000|40=1|15=USD|59=0|47=I|10=163|
8=FIX.4.2|9=191|35=D|49=Client|56=TradingGateway|34=75|52=20120807-14:24:25.845|11=20120807-152425-6897572|1=TestAccount|63=0|21=1|111=0|55=MSFT|54=1|60=20120807-15:24:25.845|38=100000|40=1|15=USD|59=0|47=I|10=168|
8=FIX.4.2|9=191|35=D|49=Client|56=TradingGateway|34=85|52=20120807-14:29:19.673|11=20120807-152916-9282377|1=TestAccount|63=0|21=1|111=0|55=MSFT|54=1|60=20120807-15:29:19.673|38=100000|40=1|15=USD|59=0|47=I|10=182|
8=FIX.4.2|9=191|35=D|49=Client|56=TradingGateway|34=86|52=20120807-14:29:23.136|11=20120807-152919-6735385|1=TestAccount|63=0|21=1|111=0|55=MSFT|54=1|60=20120807-15:29:23.136|38=100000|40=1|15=USD|59=0|47=I|10=163|
8=FIX.4.2|9=191|35=D|49=Client|56=TradingGateway|34=87|52=20120807-14:29:23.635|11=20120807-152923-1363611|1=TestAccount|63=0|21=1|111=0|55=MSFT|54=1|60=20120807-15:29:23.635|38=100000|40=1|15=USD|59=0|47=I|10=151|
8=FIX.4.2|9=191|35=D|49=Client|56=TradingGateway|34=88|52=20120807-14:29:23.682|11=20120807-152923-6511050|1=TestAccount|63=0|21=1|111=0|55=MSFT|54=1|60=20120807-15:29:23.682|38=100000|40=1|15=USD|59=0|47=I|10=153|
8=FIX.4.2|9=191|35=D|49=Client|56=TradingGateway|34=89|52=20120807-14:29:23.713|11=20120807-152923-6823016|1=TestAccount|63=0|21=1|111=0|55=MSFT|54=1|60=20120807-15:29:23.713|38=100000|40=1|15=USD|59=0|47=I|10=152|
8=FIX.4.2|9=191|35=D|49=Client|56=TradingGateway|34=90|52=20120807-14:29:23.744|11=20120807-152923-7134982|1=TestAccount|63=0|21=1|111=0|55=MSFT|54=1|60=20120807-15:29:23.744|38=100000|40=1|15=USD|59=0|47=I|10=160|
8=FIX.4.2|9=191|35=D|49=Client|56=TradingGateway|34=91|52=20120807-14:29:23.775|11=20120807-152923-7446948|1=TestAccount|63=0|21=1|111=0|55=MSFT|54=1|60=20120807-15:29:23.775|38=100000|40=1|15=USD|59=0|47=I|10=177|
8=FIX.4.2|9=191|35=D|49=Client|56=TradingGateway|34=92|52=20120807-14:29:23.822|11=20120807-152923-7758914|1=TestAccount|63=0|21=1|111=0|55=MSFT|54=1|60=20120807-15:29:23.822|38=100000|40=1|15=USD|59=0|47=I|10=163|
8=FIX.4.2|9=191|35=D|49=Client|56=TradingGateway|34=93|52=20120807-14:29:23.838|11=20120807-152923-8226863|1=TestAccount|63=0|21=1|111=0|55=MSFT|54=1|60=20120807-15:29:23.838|38=100000|40=1|15=USD|59=0|47=I|10=172|
8=FIX.4.2|9=191|35=D|49=Client|56=TradingGateway|34=94|52=20120807-14:29:23.885|11=20120807-152923-8382846|1=TestAccount|63=0|21=1|111=0|55=MSFT|54=1|60=20120807-15:29:23.885|38=100000|40=1|15=USD|59=0|47=I|10=181|
8=FIX.4.2|9=191|35=D|49=Client|56=TradingGateway|34=95|52=20120807-14:29:23.916|11=20120807-152923-8850795|1=TestAccount|63=0|21=1|111=0|55=MSFT|54=1|60=20120807-15:29:23.916|38=100000|40=1|15=USD|59=0|47=I|10=175|
8=FIX.4.2|9=191|35=D|49=Client|56=TradingGateway|34=96|52=20120807-14:29:23.947|11=20120807-152923-9162761|1=TestAccount|63=0|21=1|111=0|55=MSFT|54=1|60=20120807-15:29:23.947|38=100000|40=1|15=USD|59=0|47=I|10=174|
8=FIX.4.2|9=191|35=D|49=Client|56=TradingGateway|34=97|52=20120807-14:29:23.978|11=20120807-152923-9474727|1=TestAccount|63=0|21=1|111=0|55=MSFT|54=1|60=20120807-15:29:23.978|38=100000|40=1|15=USD|59=0|47=I|10=191|
8=FIX.4.2|9=191|35=D|49=Client|56=TradingGateway|34=98|52=20120807-14:29:24.009|11=20120807-152923-9942676|1=TestAccount|63=0|21=1|111=0|55=MSFT|54=1|60=20120807-15:29:24.009|38=100000|40=1|15=USD|59=0|47=I|10=167|
8=FIX.4.2|9=191|35=D|49=Client|56=TradingGateway|34=99|52=20120807-14:29:24.056|11=20120807-152924-0098659|1=TestAccount|63=0|21=1|111=0|55=MSFT|54=1|60=20120807-15:29:24.056|38=100000|40=1|15=USD|59=0|47=I|10=167|
8=FIX.4.2|9=192|35=D|49=Client|56=TradingGateway|34=100|52=20120807-14:29:24.087|11=20120807-152924-0566608|1=TestAccount|63=0|21=1|111=0|55=MSFT|54=1|60=20120807-15:29:24.087|38=100000|40=1|15=USD|59=0|47=I|10=201|
8=FIX.4.2|9=192|35=D|49=Client|56=TradingGateway|34=101|52=20120807-14:29:24.119|11=20120807-152924-0878574|1=TestAccount|63=0|21=1|111=0|55=MSFT|54=1|60=20120807-15:29:24.119|38=100000|40=1|15=USD|59=0|47=I|10=202|
8=FIX.4.2|9=192|35=D|49=Client|56=TradingGateway|34=102|52=20120807-14:29:24.150|11=20120807-152924-1190540|1=TestAccount|63=0|21=1|111=0|55=MSFT|54=1|60=20120807-15:29:24.150|38=100000|40=1|15=USD|59=0|47=I|10=174|
8=FIX.4.2|9=192|35=D|49=Client|56=TradingGateway|34=103|52=20120807-14:29:24.181|11=20120807-152924-1502506|1=TestAccount|63=0|21=1|111=0|55=MSFT|54=1|60=20120807-15:29:24.181|38=100000|40=1|15=USD|59=0|47=I|10=182|
8=FIX.4.2|9=192|35=D|49=Client|56=TradingGateway|34=104|52=20120807-14:29:24.212|11=20120807-152924-1814472|1=TestAccount|63=0|21=1|111=0|55=MSFT|54=1|60=20120807-15:29:24.212|38=100000|40=1|15=USD|59=0|47=I|10=181|
8=FIX.4.2|9=192|35=D|49=Client|56=TradingGateway|34=105|52=20120807-14:29:24.259|11=20120807-152924-2126438|1=TestAccount|63=0|21=1|111=0|55=MSFT|54=1|60=20120807-15:29:24.259|38=100000|40=1|15=USD|59=0|47=I|10=203|
8=FIX.4.2|9=192|35=D|49=Client|56=TradingGateway|34=106|52=20120807-14:29:24.290|11=20120807-152924-2594387|1=TestAccount|63=0|21=1|111=0|55=MSFT|54=1|60=20120807-15:29:24.290|38=100000|40=1|15=USD|59=0|47=I|10=206|
8=FIX.4.2|9=192|35=D|49=Client|56=TradingGateway|34=107|52=20120807-14:29:24.321|11=20120807-152924-2906353|1=TestAccount|63=0|21=1|111=0|55=MSFT|54=1|60=20120807-15:29:24.321|38=100000|40=1|15=USD|59=0|47=I|10=187|
8=FIX.4.2|9=192|35=D|49=Client|56=TradingGateway|34=108|52=20120807-14:29:24.353|11=20120807-152924-3218319|1=TestAccount|63=0|21=1|111=0|55=MSFT|54=1|60=20120807-15:29:24.353|38=100000|40=1|15=USD|59=0|47=I|10=197|
8=FIX.4.2|9=192|35=D|49=Client|56=TradingGateway|34=109|52=20120807-14:29:24.384|11=20120807-152924-3530285|1=TestAccount|63=0|21=1|111=0|55=MSFT|54=1|60=20120807-15:29:24.384|38=100000|40=1|15=USD|59=0|47=I|10=205|
8=FIX.4.2|9=192|35=D|49=Client|56=TradingGateway|34=110|52=20120807-14:29:24.431|11=20120807-152924-3842251|1=TestAccount|63=0|21=1|111=0|55=MSFT|54=1|60=20120807-15:29:24.431|38=100000|40=1|15=USD|59=0|47=I|10=182|
8=FIX.4.2|9=192|35=D|49=Client|56=TradingGateway|34=111|52=20120807-14:29:24.462|11=20120807-152924-4310200|1=TestAccount|63=0|21=1|111=0|55=MSFT|54=1|60=20120807-15:29:24.462|38=100000|40=1|15=USD|59=0|47=I|10=176|
8=FIX.4.2|9=192|35=D|49=Client|56=TradingGateway|34=112|52=20120807-14:29:24.477|11=20120807-152924-4622166|1=TestAccount|63=0|21=1|111=0|55=MSFT|54=1|60=20120807-15:29:24.477|38=100000|40=1|15=USD|59=0|47=I|10=206|
8=FIX.4.2|9=192|35=D|49=Client|56=TradingGateway|34=113|52=20120807-14:29:24.524|11=20120807-152924-4778149|1=TestAccount|63=0|21=1|111=0|55=MSFT|54=1|60=20120807-15:29:24.524|38=100000|40=1|15=USD|59=0|47=I|10=206|
8=FIX.4.2|9=192|35=D|49=Client|56=TradingGateway|34=114|52=20120807-14:29:24.555|11=20120807-152924-5246098|1=TestAccount|63=0|21=1|111=0|55=MSFT|54=1|60=20120807-15:29:24.555|38=100000|40=1|15=USD|59=0|47=I|10=209|
8=FIX.4.2|9=192|35=D|49=Client|56=TradingGateway|34=115|52=20120807-14:29:24.587|11=20120807-152924-5558064|1=TestAccount|63=0|21=1|111=0|55=MSFT|54=1|60=20120807-15:29:24.587|38=100000|40=1|15=USD|59=0|47=I|10=219|
8=FIX.4.2|9=192|35=D|49=Client|56=TradingGateway|34=116|52=20120807-14:29:24.633|11=20120807-152924-5870030|1=TestAccount|63=0|21=1|111=0|55=MSFT|54=1|60=20120807-15:29:24.633|38=100000|40=1|15=USD|59=0|47=I|10=194|
8=FIX.4.2|9=192|35=D|49=Client|56=TradingGateway|34=117|52=20120807-14:29:24.649|11=20120807-152924-6337979|1=TestAccount|63=0|21=1|111=0|55=MSFT|54=1|60=20120807-15:29:24.649|38=100000|40=1|15=USD|59=0|47=I|10=230|
8=FIX.4.2|9=192|35=D|49=Client|56=TradingGateway|34=118|52=20120807-14:29:24.696|11=20120807-152924-6493962|1=TestAccount|63=0|21=1|111=0|55=MSFT|54=1|60=20120807-15:29:24.696|38=100000|40=1|15=USD|59=0|47=I|10=230|
8=FIX.4.2|9=192|35=D|49=Client|56=TradingGateway|34=119|52=20120807-14:29:24.727|11=20120807-152924-6961911|1=TestAccount|63=0|21=1|111=0|55=MSFT|54=1|60=20120807-15:29:24.727|38=100000|40=1|15=USD|59=0|47=I|10=215|
8=FIX.4.2|9=192|35=D|49=Client|56=TradingGateway|34=120|52=20120807-14:29:24.758|11=20120807-152924-7273877|1=TestAccount|63=0|21=1|111=0|55=MSFT|54=1|60=20120807-15:29:24.758|38=100000|40=1|15=USD|59=0|47=I|10=223|
8=FIX.4.2|9=192|35=D|49=Client|56=TradingGateway|34=121|52=20120807-14:29:24.789|11=20120807-152924-7585843|1=TestAccount|63=0|21=1|111=0|55=MSFT|54=1|60=20120807-15:29:24.789|38=100000|40=1|15=USD|59=0|47=I|10=231|
8=FIX.4.2|9=192|35=D|49=Client|56=TradingGateway|34=122|52=20120807-14:29:24.820|11=20120807-152924-7897809|1=TestAccount|63=0|21=1|111=0|55=MSFT|54=1|60=20120807-15:29:24.820|38=100000|40=1|15=USD|59=0|47=I|10=212|
8=FIX.4.2|9=192|35=D|49=Client|56=TradingGateway|34=123|52=20120807-14:29:24.852|11=20120807-152924-8209775|1=TestAccount|63=0|21=1|111=0|55=MSFT|54=1|60=20120807-15:29:24.852|38=100000|40=1|15=USD|59=0|47=I|10=213|
8=FIX.4.2|9=192|35=D|49=Client|56=TradingGateway|34=124|52=20120807-14:29:24.898|11=20120807-152924-8521741|1=TestAccount|63=0|21=1|111=0|55=MSFT|54=1|60=20120807-15:29:24.898|38=100000|40=1|15=USD|59=0|47=I|10=224|
8=FIX.4.2|9=192|35=D|49=Client|56=TradingGateway|34=125|52=20120807-14:29:24.930|11=20120807-152924-8989690|1=TestAccount|63=0|21=1|111=0|55=MSFT|54=1|60=20120807-15:29:24.930|38=100000|40=1|15=USD|59=0|47=I|10=220|
8=FIX.4.2|9=192|35=D|49=Client|56=TradingGateway|34=126|52=20120807-14:29:24.961|11=20120807-152924-9301656|1=TestAccount|63=0|21=1|111=0|55=MSFT|54=1|60=20120807-15:29:24.961|38=100000|40=1|15=USD|59=0|47=I|10=210|
8=FIX.4.2|9=192|35=D|49=Client|56=TradingGateway|34=127|52=20120807-14:29:24.992|11=20120807-152924-9613622|1=TestAccount|63=0|21=1|111=0|55=MSFT|54=1|60=20120807-15:29:24.992|38=100000|40=1|15=USD|59=0|47=I|10=218|
8=FIX.4.2|9=192|35=D|49=Client|56=TradingGateway|34=128|52=20120807-14:29:25.023|11=20120807-152924-9925588|1=TestAccount|63=0|21=1|111=0|55=MSFT|54=1|60=20120807-15:29:25.023|38=100000|40=1|15=USD|59=0|47=I|10=208|
8=FIX.4.2|9=192|35=D|49=Client|56=TradingGateway|34=129|52=20120807-14:29:25.070|11=20120807-152925-0237554|1=TestAccount|63=0|21=1|111=0|55=MSFT|54=1|60=20120807-15:29:25.070|38=100000|40=1|15=USD|59=0|47=I|10=194|
8=FIX.4.2|9=192|35=D|49=Client|56=TradingGateway|34=130|52=20120807-14:29:25.101|11=20120807-152925-0705503|1=TestAccount|63=0|21=1|111=0|55=MSFT|54=1|60=20120807-15:29:25.101|38=100000|40=1|15=USD|59=0|47=I|10=170|
8=FIX.4.2|9=192|35=D|49=Client|56=TradingGateway|34=131|52=20120807-14:29:25.132|11=20120807-152925-1017469|1=TestAccount|63=0|21=1|111=0|55=MSFT|54=1|60=20120807-15:29:25.132|38=100000|40=1|15=USD|59=0|47=I|10=187|
8=FIX.4.2|9=192|35=D|49=Client|56=TradingGateway|34=132|52=20120807-14:29:25.164|11=20120807-152925-1329435|1=TestAccount|63=0|21=1|111=0|55=MSFT|54=1|60=20120807-15:29:25.164|38=100000|40=1|15=USD|59=0|47=I|10=197|
8=FIX.4.2|9=192|35=D|49=Client|56=TradingGateway|34=133|52=20120807-14:29:25.195|11=20120807-152925-1641401|1=TestAccount|63=0|21=1|111=0|55=MSFT|54=1|60=20120807-15:29:25.195|38=100000|40=1|15=USD|59=0|47=I|10=196|
8=FIX.4.2|9=192|35=D|49=Client|56=TradingGateway|34=134|52=20120807-14:29:25.226|11=20120807-152925-1953367|1=TestAccount|63=0|21=1|111=0|55=MSFT|54=1|60=20120807-15:29:25.226|38=100000|40=1|15=USD|59=0|47=I|10=204|
8=FIX.4.2|9=192|35=D|49=Client|56=TradingGateway|34=135|52=20120807-14:29:25.257|11=20120807-152925-2265333|1=TestAccount|63=0|21=1|111=0|55=MSFT|54=1|60=20120807-15:29:25.257|38=100000|40=1|15=USD|59=0|47=I|10=203|
8=FIX.4.2|9=192|35=D|49=Client|56=TradingGateway|34=136|52=20120807-14:29:25.304|11=20120807-152925-2577299|1=TestAccount|63=0|21=1|111=0|55=MSFT|54=1|60=20120807-15:29:25.304|38=100000|40=1|15=USD|59=0|47=I|10=207|
8=FIX.4.2|9=192|35=D|49=Client|56=TradingGateway|34=137|52=20120807-14:29:25.335|11=20120807-152925-3045248|1=TestAccount|63=0|21=1|111=0|55=MSFT|54=1|60=20120807-15:29:25.335|38=100000|40=1|15=USD|59=0|47=I|10=201|
8=FIX.4.2|9=192|35=D|49=Client|56=TradingGateway|34=138|52=20120807-14:29:25.366|11=20120807-152925-3357214|1=TestAccount|63=0|21=1|111=0|55=MSFT|54=1|60=20120807-15:29:25.366|38=100000|40=1|15=USD|59=0|47=I|10=209|
8=FIX.4.2|9=192|35=D|49=Client|56=TradingGateway|34=139|52=20120807-14:29:25.413|11=20120807-152925-3669180|1=TestAccount|63=0|21=1|111=0|55=MSFT|54=1|60=20120807-15:29:25.413|38=100000|40=1|15=USD|59=0|47=I|10=204|
8=FIX.4.2|9=192|35=D|49=Client|56=TradingGateway|34=140|52=20120807-14:29:25.460|11=20120807-152925-4137129|1=TestAccount|63=0|21=1|111=0|55=MSFT|54=1|60=20120807-15:29:25.460|38=100000|40=1|15=USD|59=0|47=I|10=194|
8=FIX.4.2|9=192|35=D|49=Client|56=TradingGateway|34=141|52=20120807-14:29:25.522|11=20120807-152925-4605078|1=TestAccount|63=0|21=1|111=0|55=MSFT|54=1|60=20120807-15:29:25.522|38=100000|40=1|15=USD|59=0|47=I|10=196|
8=FIX.4.2|9=192|35=D|49=Client|56=TradingGateway|34=142|52=20120807-14:29:25.538|11=20120807-152925-5229010|1=TestAccount|63=0|21=1|111=0|55=MSFT|54=1|60=20120807-15:29:25.538|38=100000|40=1|15=USD|59=0|47=I|10=200|
8=FIX.4.2|9=192|35=D|49=Client|56=TradingGateway|34=143|52=20120807-14:29:25.569|11=20120807-152925-5384993|1=TestAccount|63=0|21=1|111=0|55=MSFT|54=1|60=20120807-15:29:25.569|38=100000|40=1|15=USD|59=0|47=I|10=231|
8=FIX.4.2|9=192|35=D|49=Client|56=TradingGateway|34=144|52=20120807-14:29:25.600|11=20120807-152925-5696959|1=TestAccount|63=0|21=1|111=0|55=MSFT|54=1|60=20120807-15:29:25.600|38=100000|40=1|15=USD|59=0|47=I|10=212|
8=FIX.4.2|9=192|35=D|49=Client|56=TradingGateway|34=145|52=20120807-14:29:25.647|11=20120807-152925-6008925|1=TestAccount|63=0|21=1|111=0|55=MSFT|54=1|60=20120807-15:29:25.632|38=100000|40=1|15=USD|59=0|47=I|10=210|
8=FIX.4.2|9=192|35=D|49=Client|56=TradingGateway|34=146|52=20120807-14:29:25.678|11=20120807-152925-6476874|1=TestAccount|63=0|21=1|111=0|55=MSFT|54=1|60=20120807-15:29:25.678|38=100000|40=1|15=USD|59=0|47=I|10=237|
8=FIX.4.2|9=192|35=D|49=Client|56=TradingGateway|34=147|52=20120807-14:29:25.710|11=20120807-152925-6788840|1=TestAccount|63=0|21=1|111=0|55=MSFT|54=1|60=20120807-15:29:25.710|38=100000|40=1|15=USD|59=0|47=I|10=211|
8=FIX.4.2|9=192|35=D|49=Client|56=TradingGateway|34=148|52=20120807-14:29:27.488|11=20120807-152925-7100806|1=TestAccount|63=0|21=1|111=0|55=MSFT|54=1|60=20120807-15:29:27.488|38=100000|40=1|15=USD|59=0|47=I|10=221|
8=FIX.4.2|9=192|35=D|49=Client|56=TradingGateway|34=149|52=20120807-14:29:27.987|11=20120807-152927-4882868|1=TestAccount|63=0|21=1|111=0|55=MSFT|54=1|60=20120807-15:29:27.987|38=100000|40=1|15=USD|59=0|47=I|10=254|
8=FIX.4.2|9=192|35=D|49=Client|56=TradingGateway|34=150|52=20120807-14:29:28.018|11=20120807-152927-9874324|1=TestAccount|63=0|21=1|111=0|55=MSFT|54=1|60=20120807-15:29:28.018|38=100000|40=1|15=USD|59=0|47=I|10=211|
8=FIX.4.2|9=192|35=D|49=Client|56=TradingGateway|34=151|52=20120807-14:29:28.049|11=20120807-152928-0186290|1=TestAccount|63=0|21=1|111=0|55=MSFT|54=1|60=20120807-15:29:28.049|38=100000|40=1|15=USD|59=0|47=I|10=210|
8=FIX.4.2|9=192|35=D|49=Client|56=TradingGateway|34=152|52=20120807-14:29:28.096|11=20120807-152928-0498256|1=TestAccount|63=0|21=1|111=0|55=MSFT|54=1|60=20120807-15:29:28.096|38=100000|40=1|15=USD|59=0|47=I|10=223|
8=FIX.4.2|9=192|35=D|49=Client|56=TradingGateway|34=153|52=20120807-14:29:28.127|11=20120807-152928-0966205|1=TestAccount|63=0|21=1|111=0|55=MSFT|54=1|60=20120807-15:29:28.127|38=100000|40=1|15=USD|59=0|47=I|10=208|
8=FIX.4.2|9=192|35=D|49=Client|56=TradingGateway|34=154|52=20120807-14:29:28.159|11=20120807-152928-1278171|1=TestAccount|63=0|21=1|111=0|55=MSFT|54=1|60=20120807-15:29:28.159|38=100000|40=1|15=USD|59=0|47=I|10=218|
8=FIX.4.2|9=192|35=D|49=Client|56=TradingGateway|34=155|52=20120807-14:29:28.190|11=20120807-152928-1590137|1=TestAccount|63=0|21=1|111=0|55=MSFT|54=1|60=20120807-15:29:28.190|38=100000|40=1|15=USD|59=0|47=I|10=208|
8=FIX.4.2|9=192|35=D|49=Client|56=TradingGateway|34=156|52=20120807-14:29:28.221|11=20120807-152928-1902103|1=TestAccount|63=0|21=1|111=0|55=MSFT|54=1|60=20120807-15:29:28.221|38=100000|40=1|15=USD|59=0|47=I|10=189|
8=FIX.4.2|9=192|35=D|49=Client|56=TradingGateway|34=157|52=20120807-14:29:28.252|11=20120807-152928-2214069|1=TestAccount|63=0|21=1|111=0|55=MSFT|54=1|60=20120807-15:29:28.252|38=100000|40=1|15=USD|59=0|47=I|10=206|
8=FIX.4.2|9=192|35=D|49=Client|56=TradingGateway|34=158|52=20120807-14:29:28.299|11=20120807-152928-2526035|1=TestAccount|63=0|21=1|111=0|55=MSFT|54=1|60=20120807-15:29:28.299|38=100000|40=1|15=USD|59=0|47=I|10=228|
8=FIX.4.2|9=192|35=D|49=Client|56=TradingGateway|34=159|52=20120807-14:29:28.330|11=20120807-152928-2993984|1=TestAccount|63=0|21=1|111=0|55=MSFT|54=1|60=20120807-15:29:28.330|38=100000|40=1|15=USD|59=0|47=I|10=222|
8=FIX.4.2|9=192|35=D|49=Client|56=TradingGateway|34=160|52=20120807-14:29:28.361|11=20120807-152928-3305950|1=TestAccount|63=0|21=1|111=0|55=MSFT|54=1|60=20120807-15:29:28.361|38=100000|40=1|15=USD|59=0|47=I|10=203|
8=FIX.4.2|9=192|35=D|49=Client|56=TradingGateway|34=161|52=20120807-14:29:28.392|11=20120807-152928-3617916|1=TestAccount|63=0|21=1|111=0|55=MSFT|54=1|60=20120807-15:29:28.392|38=100000|40=1|15=USD|59=0|47=I|10=220|
8=FIX.4.2|9=192|35=D|49=Client|56=TradingGateway|34=162|52=20120807-14:29:28.424|11=20120807-152928-3929882|1=TestAccount|63=0|21=1|111=0|55=MSFT|54=1|60=20120807-15:29:28.424|38=100000|40=1|15=USD|59=0|47=I|10=221|
8=FIX.4.2|9=192|35=D|49=Client|56=TradingGateway|34=163|52=20120807-14:29:28.455|11=20120807-152928-4241848|1=TestAccount|63=0|21=1|111=0|55=MSFT|54=1|60=20120807-15:29:28.455|38=100000|40=1|15=USD|59=0|47=I|10=220|
8=FIX.4.2|9=192|35=D|49=Client|56=TradingGateway|34=164|52=20120807-14:29:28.502|11=20120807-152928-4553814|1=TestAccount|63=0|21=1|111=0|55=MSFT|54=1|60=20120807-15:29:28.502|38=100000|40=1|15=USD|59=0|47=I|10=206|
8=FIX.4.2|9=192|35=D|49=Client|56=TradingGateway|34=165|52=20120807-14:29:28.533|11=20120807-152928-5021763|1=TestAccount|63=0|21=1|111=0|55=MSFT|54=1|60=20120807-15:29:28.533|38=100000|40=1|15=USD|59=0|47=I|10=209|
8=FIX.4.2|9=192|35=D|49=Client|56=TradingGateway|34=166|52=20120807-14:29:28.564|11=20120807-152928-5333729|1=TestAccount|63=0|21=1|111=0|55=MSFT|54=1|60=20120807-15:29:28.564|38=100000|40=1|15=USD|59=0|47=I|10=226|
8=FIX.4.2|9=192|35=D|49=Client|56=TradingGateway|34=167|52=20120807-14:29:28.595|11=20120807-152928-5645695|1=TestAccount|63=0|21=1|111=0|55=MSFT|54=1|60=20120807-15:29:28.595|38=100000|40=1|15=USD|59=0|47=I|10=243|
8=FIX.4.2|9=192|35=D|49=Client|56=TradingGateway|34=168|52=20120807-14:29:28.626|11=20120807-152928-5957661|1=TestAccount|63=0|21=1|111=0|55=MSFT|54=1|60=20120807-15:29:28.626|38=100000|40=1|15=USD|59=0|47=I|10=233|
8=FIX.4.2|9=192|35=D|49=Client|56=TradingGateway|34=169|52=20120807-14:29:28.658|11=20120807-152928-6425610|1=TestAccount|63=0|21=1|111=0|55=MSFT|54=1|60=20120807-15:29:28.658|38=100000|40=1|15=USD|59=0|47=I|10=229|
8=FIX.4.2|9=192|35=D|49=Client|56=TradingGateway|34=170|52=20120807-14:29:28.689|11=20120807-152928-6581593|1=TestAccount|63=0|21=1|111=0|55=MSFT|54=1|60=20120807-15:29:28.689|38=100000|40=1|15=USD|59=0|47=I|10=242|
8=FIX.4.2|9=192|35=D|49=Client|56=TradingGateway|34=171|52=20120807-14:29:28.736|11=20120807-152928-6893559|1=TestAccount|63=0|21=1|111=0|55=MSFT|54=1|60=20120807-15:29:28.736|38=100000|40=1|15=USD|59=0|47=I|10=237|
8=FIX.4.2|9=192|35=D|49=Client|56=TradingGateway|34=172|52=20120807-14:29:28.767|11=20120807-152928-7361508|1=TestAccount|63=0|21=1|111=0|55=MSFT|54=1|60=20120807-15:29:28.767|38=100000|40=1|15=USD|59=0|47=I|10=231|
8=FIX.4.2|9=192|35=D|49=Client|56=TradingGateway|34=173|52=20120807-14:29:28.798|11=20120807-152928-7673474|1=TestAccount|63=0|21=1|111=0|55=MSFT|54=1|60=20120807-15:29:28.798|38=100000|40=1|15=USD|59=0|47=I|10=248|
8=FIX.4.2|9=192|35=D|49=Client|56=TradingGateway|34=174|52=20120807-14:29:28.845|11=20120807-152928-7985440|1=TestAccount|63=0|21=1|111=0|55=MSFT|54=1|60=20120807-15:29:28.845|38=100000|40=1|15=USD|59=0|47=I|10=234|
8=FIX.4.2|9=192|35=D|49=Client|56=TradingGateway|34=175|52=20120807-14:29:28.860|11=20120807-152928-8453389|1=TestAccount|63=0|21=1|111=0|55=MSFT|54=1|60=20120807-15:29:28.860|38=100000|40=1|15=USD|59=0|47=I|10=232|
8=FIX.4.2|9=192|35=D|49=Client|56=TradingGateway|34=176|52=20120807-14:29:28.907|11=20120807-152928-8609372|1=TestAccount|63=0|21=1|111=0|55=MSFT|54=1|60=20120807-15:29:28.907|38=100000|40=1|15=USD|59=0|47=I|10=232|
8=FIX.4.2|9=192|35=D|49=Client|56=TradingGateway|34=177|52=20120807-14:29:28.938|11=20120807-152928-9077321|1=TestAccount|63=0|21=1|111=0|55=MSFT|54=1|60=20120807-15:29:28.938|38=100000|40=1|15=USD|59=0|47=I|10=235|
8=FIX.4.2|9=192|35=D|49=Client|56=TradingGateway|34=178|52=20120807-14:29:28.970|11=20120807-152928-9389287|1=TestAccount|63=0|21=1|111=0|55=MSFT|54=1|60=20120807-15:29:28.970|38=100000|40=1|15=USD|59=0|47=I|10=245|
8=FIX.4.2|9=192|35=D|49=Client|56=TradingGateway|34=179|52=20120807-14:29:29.001|11=20120807-152928-9701253|1=TestAccount|63=0|21=1|111=0|55=MSFT|54=1|60=20120807-15:29:29.001|38=100000|40=1|15=USD|59=0|47=I|10=199|
8=FIX.4.2|9=192|35=D|49=Client|56=TradingGateway|34=180|52=20120807-14:29:29.048|11=20120807-152929-0013219|1=TestAccount|63=0|21=1|111=0|55=MSFT|54=1|60=20120807-15:29:29.048|38=100000|40=1|15=USD|59=0|47=I|10=203|
8=FIX.4.2|9=192|35=D|49=Client|56=TradingGateway|34=181|52=20120807-14:29:29.063|11=20120807-152929-0481168|1=TestAccount|63=0|21=1|111=0|55=MSFT|54=1|60=20120807-15:29:29.063|38=100000|40=1|15=USD|59=0|47=I|10=210|
8=FIX.4.2|9=192|35=D|49=Client|56=TradingGateway|34=182|52=20120807-14:29:29.110|11=20120807-152929-0637151|1=TestAccount|63=0|21=1|111=0|55=MSFT|54=1|60=20120807-15:29:29.110|38=100000|40=1|15=USD|59=0|47=I|10=192|
8=FIX.4.2|9=192|35=D|49=Client|56=TradingGateway|34=183|52=20120807-14:29:29.141|11=20120807-152929-1105100|1=TestAccount|63=0|21=1|111=0|55=MSFT|54=1|60=20120807-15:29:29.141|38=100000|40=1|15=USD|59=0|47=I|10=186|
8=FIX.4.2|9=192|35=D|49=Client|56=TradingGateway|34=184|52=20120807-14:29:29.172|11=20120807-152929-1417066|1=TestAccount|63=0|21=1|111=0|55=MSFT|54=1|60=20120807-15:29:29.172|38=100000|40=1|15=USD|59=0|47=I|10=212|
8=FIX.4.2|9=192|35=D|49=Client|56=TradingGateway|34=185|52=20120807-14:29:29.204|11=20120807-152929-1729032|1=TestAccount|63=0|21=1|111=0|55=MSFT|54=1|60=20120807-15:29:29.204|38=100000|40=1|15=USD|59=0|47=I|10=204|
8=FIX.4.2|9=192|35=D|49=Client|56=TradingGateway|34=186|52=20120807-14:29:29.250|11=20120807-152929-2040998|1=TestAccount|63=0|21=1|111=0|55=MSFT|54=1|60=20120807-15:29:29.250|38=100000|40=1|15=USD|59=0|47=I|10=215|
8=FIX.4.2|9=192|35=D|49=Client|56=TradingGateway|34=187|52=20120807-14:29:29.266|11=20120807-152929-2508947|1=TestAccount|63=0|21=1|111=0|55=MSFT|54=1|60=20120807-15:29:29.266|38=100000|40=1|15=USD|59=0|47=I|10=233|
8=FIX.4.2|9=192|35=D|49=Client|56=TradingGateway|34=188|52=20120807-14:29:29.313|11=20120807-152929-2664930|1=TestAccount|63=0|21=1|111=0|55=MSFT|54=1|60=20120807-15:29:29.313|38=100000|40=1|15=USD|59=0|47=I|10=215|
8=FIX.4.2|9=192|35=D|49=Client|56=TradingGateway|34=189|52=20120807-14:29:29.344|11=20120807-152929-3132879|1=TestAccount|63=0|21=1|111=0|55=MSFT|54=1|60=20120807-15:29:29.344|38=100000|40=1|15=USD|59=0|47=I|10=227|
8=FIX.4.2|9=192|35=D|49=Client|56=TradingGateway|34=190|52=20120807-14:29:29.375|11=20120807-152929-3444845|1=TestAccount|63=0|21=1|111=0|55=MSFT|54=1|60=20120807-15:29:29.375|38=100000|40=1|15=USD|59=0|47=I|10=226|
8=FIX.4.2|9=192|35=D|49=Client|56=TradingGateway|34=191|52=20120807-14:29:29.406|11=20120807-152929-3756811|1=TestAccount|63=0|21=1|111=0|55=MSFT|54=1|60=20120807-15:29:29.406|38=100000|40=1|15=USD|59=0|47=I|10=216|
8=FIX.4.2|9=192|35=D|49=Client|56=TradingGateway|34=192|52=20120807-14:29:29.438|11=20120807-152929-4224760|1=TestAccount|63=0|21=1|111=0|55=MSFT|54=1|60=20120807-15:29:29.438|38=100000|40=1|15=USD|59=0|47=I|10=221|
8=FIX.4.2|9=192|35=D|49=Client|56=TradingGateway|34=193|52=20120807-14:29:29.484|11=20120807-152929-4380743|1=TestAccount|63=0|21=1|111=0|55=MSFT|54=1|60=20120807-15:29:29.484|38=100000|40=1|15=USD|59=0|47=I|10=228|
8=FIX.4.2|9=192|35=D|49=Client|56=TradingGateway|34=194|52=20120807-14:29:29.516|11=20120807-152929-4848692|1=TestAccount|63=0|21=1|111=0|55=MSFT|54=1|60=20120807-15:29:29.516|38=100000|40=1|15=USD|59=0|47=I|10=233|
8=FIX.4.2|9=192|35=D|49=Client|56=TradingGateway|34=195|52=20120807-14:29:29.547|11=20120807-152929-5160658|1=TestAccount|63=0|21=1|111=0|55=MSFT|54=1|60=20120807-15:29:29.547|38=100000|40=1|15=USD|59=0|47=I|10=232|
8=FIX.4.2|9=192|35=D|49=Client|56=TradingGateway|34=196|52=20120807-14:29:29.578|11=20120807-152929-5472624|1=TestAccount|63=0|21=1|111=0|55=MSFT|54=1|60=20120807-15:29:29.578|38=100000|40=1|15=USD|59=0|47=I|10=240|
8=FIX.4.2|9=192|35=D|49=Client|56=TradingGateway|34=197|52=20120807-14:29:29.625|11=20120807-152929-5784590|1=TestAccount|63=0|21=1|111=0|55=MSFT|54=1|60=20120807-15:29:29.625|38=100000|40=1|15=USD|59=0|47=I|10=235|
8=FIX.4.2|9=192|35=D|49=Client|56=TradingGateway|34=198|52=20120807-14:29:29.640|11=20120807-152929-6252539|1=TestAccount|63=0|21=1|111=0|55=MSFT|54=1|60=20120807-15:29:29.640|38=100000|40=1|15=USD|59=0|47=I|10=224|
8=FIX.4.2|9=192|35=D|49=Client|56=TradingGateway|34=199|52=20120807-14:29:29.687|11=20120807-152929-6408522|1=TestAccount|63=0|21=1|111=0|55=MSFT|54=1|60=20120807-15:29:29.687|38=100000|40=1|15=USD|59=0|47=I|10=242|
8=FIX.4.2|9=192|35=D|49=Client|56=TradingGateway|34=200|52=20120807-14:29:29.718|11=20120807-152929-6876471|1=TestAccount|63=0|21=1|111=0|55=MSFT|54=1|60=20120807-15:29:29.718|38=100000|40=1|15=USD|59=0|47=I|10=227|
8=FIX.4.2|9=192|35=D|49=Client|56=TradingGateway|34=201|52=20120807-14:29:29.750|11=20120807-152929-7188437|1=TestAccount|63=0|21=1|111=0|55=MSFT|54=1|60=20120807-15:29:29.750|38=100000|40=1|15=USD|59=0|47=I|10=219|
8=FIX.4.2|9=192|35=D|49=Client|56=TradingGateway|34=202|52=20120807-14:29:29.781|11=20120807-152929-7500403|1=TestAccount|63=0|21=1|111=0|55=MSFT|54=1|60=20120807-15:29:29.781|38=100000|40=1|15=USD|59=0|47=I|10=209|
8=FIX.4.2|9=192|35=D|49=Client|56=TradingGateway|34=203|52=20120807-14:29:29.828|11=20120807-152929-7812369|1=TestAccount|63=0|21=1|111=0|55=MSFT|54=1|60=20120807-15:29:29.828|38=100000|40=1|15=USD|59=0|47=I|10=231|
8=FIX.4.2|9=192|35=D|49=Client|56=TradingGateway|34=204|52=20120807-14:29:29.843|11=20120807-152929-8280318|1=TestAccount|63=0|21=1|111=0|55=MSFT|54=1|60=20120807-15:29:29.843|38=100000|40=1|15=USD|59=0|47=I|10=220|
8=FIX.4.2|9=192|35=D|49=Client|56=TradingGateway|34=205|52=20120807-14:29:29.890|11=20120807-152929-8436301|1=TestAccount|63=0|21=1|111=0|55=MSFT|54=1|60=20120807-15:29:29.890|38=100000|40=1|15=USD|59=0|47=I|10=220|
8=FIX.4.2|9=192|35=D|49=Client|56=TradingGateway|34=206|52=20120807-14:29:29.921|11=20120807-152929-8904250|1=TestAccount|63=0|21=1|111=0|55=MSFT|54=1|60=20120807-15:29:29.921|38=100000|40=1|15=USD|59=0|47=I|10=214|
8=FIX.4.2|9=192|35=D|49=Client|56=TradingGateway|34=207|52=20120807-14:29:29.952|11=20120807-152929-9216216|1=TestAccount|63=0|21=1|111=0|55=MSFT|54=1|60=20120807-15:29:29.952|38=100000|40=1|15=USD|59=0|47=I|10=222|
8=FIX.4.2|9=192|35=D|49=Client|56=TradingGateway|34=208|52=20120807-14:29:29.984|11=20120807-152929-9528182|1=TestAccount|63=0|21=1|111=0|55=MSFT|54=1|60=20120807-15:29:29.984|38=100000|40=1|15=USD|59=0|47=I|10=241|
8=FIX.4.2|9=192|35=D|49=Client|56=TradingGateway|34=209|52=20120807-14:29:30.030|11=20120807-152929-9840148|1=TestAccount|63=0|21=1|111=0|55=MSFT|54=1|60=20120807-15:29:30.030|38=100000|40=1|15=USD|59=0|47=I|10=189|
8=FIX.4.2|9=192|35=D|49=Client|56=TradingGateway|34=210|52=20120807-14:29:30.062|11=20120807-152930-0308097|1=TestAccount|63=0|21=1|111=0|55=MSFT|54=1|60=20120807-15:29:30.062|38=100000|40=1|15=USD|59=0|47=I|10=176|
8=FIX.4.2|9=192|35=D|49=Client|56=TradingGateway|34=211|52=20120807-14:29:30.093|11=20120807-152930-0620063|1=TestAccount|63=0|21=1|111=0|55=MSFT|54=1|60=20120807-15:29:30.093|38=100000|40=1|15=USD|59=0|47=I|10=175|
8=FIX.4.2|9=192|35=D|49=Client|56=TradingGateway|34=212|52=20120807-14:29:30.124|11=20120807-152930-0932029|1=TestAccount|63=0|21=1|111=0|55=MSFT|54=1|60=20120807-15:29:30.124|38=100000|40=1|15=USD|59=0|47=I|10=174|
8=FIX.4.2|9=192|35=D|49=Client|56=TradingGateway|34=213|52=20120807-14:29:30.155|11=20120807-152930-1243995|1=TestAccount|63=0|21=1|111=0|55=MSFT|54=1|60=20120807-15:29:30.155|38=100000|40=1|15=USD|59=0|47=I|10=191|
8=FIX.4.2|9=192|35=D|49=Client|56=TradingGateway|34=214|52=20120807-14:29:30.186|11=20120807-152930-1555961|1=TestAccount|63=0|21=1|111=0|55=MSFT|54=1|60=20120807-15:29:30.186|38=100000|40=1|15=USD|59=0|47=I|10=199|
8=FIX.4.2|9=192|35=D|49=Client|56=TradingGateway|34=215|52=20120807-14:29:30.217|11=20120807-152930-1867927|1=TestAccount|63=0|21=1|111=0|55=MSFT|54=1|60=20120807-15:29:30.217|38=100000|40=1|15=USD|59=0|47=I|10=198|
8=FIX.4.2|9=192|35=D|49=Client|56=TradingGateway|34=216|52=20120807-14:29:30.264|11=20120807-152930-2179893|1=TestAccount|63=0|21=1|111=0|55=MSFT|54=1|60=20120807-15:29:30.264|38=100000|40=1|15=USD|59=0|47=I|10=202|
8=FIX.4.2|9=192|35=D|49=Client|56=TradingGateway|34=217|52=20120807-14:29:30.295|11=20120807-152930-2647842|1=TestAccount|63=0|21=1|111=0|55=MSFT|54=1|60=20120807-15:29:30.295|38=100000|40=1|15=USD|59=0|47=I|10=205|
8=FIX.4.2|9=192|35=D|49=Client|56=TradingGateway|34=221|52=20120807-14:31:11.340|11=20120807-153104-3834300|1=TestAccount|63=0|21=1|111=0|55=MSFT|54=1|60=20120807-15:31:11.340|38=100000|40=1|15=USD|59=0|47=I|10=148|
8=FIX.4.2|9=192|35=D|49=Client|56=TradingGateway|34=222|52=20120807-14:31:13.414|11=20120807-153111-3401826|1=TestAccount|63=0|21=1|111=0|55=MSFT|54=1|60=20120807-15:31:13.414|38=100000|40=1|15=USD|59=0|47=I|10=158|
8=FIX.4.2|9=192|35=D|49=Client|56=TradingGateway|34=223|52=20120807-14:31:18.359|11=20120807-153113-4147299|1=TestAccount|63=0|21=1|111=0|55=MSFT|54=1|60=20120807-15:31:18.359|38=100000|40=1|15=USD|59=0|47=I|10=199|
8=FIX.4.2|9=192|35=D|49=Client|56=TradingGateway|34=224|52=20120807-14:31:24.816|11=20120807-153118-3593276|1=TestAccount|63=0|21=1|111=0|55=MSFT|54=1|60=20120807-15:31:24.816|38=100000|40=1|15=USD|59=0|47=I|10=194|
8=FIX.4.2|9=192|35=D|49=Client|56=TradingGateway|34=225|52=20120807-14:31:25.394|11=20120807-153124-8169410|1=TestAccount|63=0|21=1|111=0|55=MSFT|54=1|60=20120807-15:31:25.394|38=100000|40=1|15=USD|59=0|47=I|10=190|
8=FIX.4.2|9=192|35=D|49=Client|56=TradingGateway|34=230|52=20120807-14:33:29.351|11=20120807-153125-3940707|1=TestAccount|63=0|21=1|111=0|55=MSFT|54=1|60=20120807-15:33:29.351|38=100000|40=1|15=USD|59=0|47=I|10=186|
8=FIX.4.2|9=192|35=D|49=Client|56=TradingGateway|34=231|52=20120807-14:33:29.913|11=20120807-153329-3515098|1=TestAccount|63=0|21=1|111=0|55=MSFT|54=1|60=20120807-15:33:29.913|38=100000|40=1|15=USD|59=0|47=I|10=202|
8=FIX.4.2|9=192|35=D|49=Client|56=TradingGateway|34=232|52=20120807-14:33:30.115|11=20120807-153329-9130342|1=TestAccount|63=0|21=1|111=0|55=MSFT|54=1|60=20120807-15:33:30.115|38=100000|40=1|15=USD|59=0|47=I|10=166|
8=FIX.4.2|9=192|35=D|49=Client|56=TradingGateway|34=233|52=20120807-14:33:30.287|11=20120807-153330-1158069|1=TestAccount|63=0|21=1|111=0|55=MSFT|54=1|60=20120807-15:33:30.287|38=100000|40=1|15=USD|59=0|47=I|10=187|
8=FIX.4.2|9=192|35=D|49=Client|56=TradingGateway|34=234|52=20120807-14:33:30.458|11=20120807-153330-2873838|1=TestAccount|63=0|21=1|111=0|55=MSFT|54=1|60=20120807-15:33:30.458|38=100000|40=1|15=USD|59=0|47=I|10=197|
8=FIX.4.2|9=192|35=D|49=Client|56=TradingGateway|34=235|52=20120807-14:33:30.614|11=20120807-153330-4589607|1=TestAccount|63=0|21=1|111=0|55=MSFT|54=1|60=20120807-15:33:30.614|38=100000|40=1|15=USD|59=0|47=I|10=186|
8=FIX.4.2|9=192|35=D|49=Client|56=TradingGateway|34=236|52=20120807-14:33:30.802|11=20120807-153330-6149397|1=TestAccount|63=0|21=1|111=0|55=MSFT|54=1|60=20120807-15:33:30.802|38=100000|40=1|15=USD|59=0|47=I|10=185|
8=FIX.4.2|9=192|35=D|49=Client|56=TradingGateway|34=237|52=20120807-14:33:30.973|11=20120807-153330-8021145|1=TestAccount|63=0|21=1|111=0|55=MSFT|54=1|60=20120807-15:33:30.973|38=100000|40=1|15=USD|59=0|47=I|10=186|
8=FIX.4.2|9=192|35=D|49=Client|56=TradingGateway|34=238|52=20120807-14:33:31.129|11=20120807-153330-9736914|1=TestAccount|63=0|21=1|111=0|55=MSFT|54=1|60=20120807-15:33:31.129|38=100000|40=1|15=USD|59=0|47=I|10=193|
8=FIX.4.2|9=192|35=D|49=Client|56=TradingGateway|34=239|52=20120807-14:33:34.857|11=20120807-153331-1296704|1=TestAccount|63=0|21=1|111=0|55=MSFT|54=1|60=20120807-15:33:34.857|38=100000|40=1|15=USD|59=0|47=I|10=207|
8=FIX.4.2|9=192|35=D|49=Client|56=TradingGateway|34=240|52=20120807-14:33:35.231|11=20120807-153334-8575685|1=TestAccount|63=0|21=1|111=0|55=MSFT|54=1|60=20120807-15:33:35.231|38=100000|40=1|15=USD|59=0|47=I|10=191|
8=FIX.4.2|9=192|35=D|49=Client|56=TradingGateway|34=241|52=20120807-14:33:37.680|11=20120807-153335-2319181|1=TestAccount|63=0|21=1|111=0|55=MSFT|54=1|60=20120807-15:33:37.680|38=100000|40=1|15=USD|59=0|47=I|10=194|
8=FIX.4.2|9=192|35=D|49=Client|56=TradingGateway|34=242|52=20120807-14:33:38.179|11=20120807-153337-6807884|1=TestAccount|63=0|21=1|111=0|55=MSFT|54=1|60=20120807-15:33:38.179|38=100000|40=1|15=USD|59=0|47=I|10=221|
8=FIX.4.2|9=192|35=D|49=Client|56=TradingGateway|34=243|52=20120807-14:33:38.257|11=20120807-153338-1799281|1=TestAccount|63=0|21=1|111=0|55=MSFT|54=1|60=20120807-15:33:38.257|38=100000|40=1|15=USD|59=0|47=I|10=213|
8=FIX.4.2|9=192|35=D|49=Client|56=TradingGateway|34=244|52=20120807-14:33:38.320|11=20120807-153338-2579191|1=TestAccount|63=0|21=1|111=0|55=MSFT|54=1|60=20120807-15:33:38.320|38=100000|40=1|15=USD|59=0|47=I|10=193|
8=FIX.4.2|9=192|35=D|49=Client|56=TradingGateway|34=245|52=20120807-14:33:38.351|11=20120807-153338-3203119|1=TestAccount|63=0|21=1|111=0|55=MSFT|54=1|60=20120807-15:33:38.351|38=100000|40=1|15=USD|59=0|47=I|10=187|
8=FIX.4.2|9=192|35=D|49=Client|56=TradingGateway|34=246|52=20120807-14:33:38.429|11=20120807-153338-3515083|1=TestAccount|63=0|21=1|111=0|55=MSFT|54=1|60=20120807-15:33:38.429|38=100000|40=1|15=USD|59=0|47=I|10=206|
8=FIX.4.2|9=192|35=D|49=Client|56=TradingGateway|34=247|52=20120807-14:33:38.507|11=20120807-153338-4294993|1=TestAccount|63=0|21=1|111=0|55=MSFT|54=1|60=20120807-15:33:38.507|38=100000|40=1|15=USD|59=0|47=I|10=216|
8=FIX.4.2|9=192|35=D|49=Client|56=TradingGateway|34=248|52=20120807-14:33:38.523|11=20120807-153338-5230885|1=TestAccount|63=0|21=1|111=0|55=MSFT|54=1|60=20120807-15:33:38.523|38=100000|40=1|15=USD|59=0|47=I|10=204|
8=FIX.4.2|9=192|35=D|49=Client|56=TradingGateway|34=249|52=20120807-14:33:38.601|11=20120807-153338-5386867|1=TestAccount|63=0|21=1|111=0|55=MSFT|54=1|60=20120807-15:33:38.601|38=100000|40=1|15=USD|59=0|47=I|10=211|
8=FIX.4.2|9=192|35=D|49=Client|56=TradingGateway|34=250|52=20120807-14:33:38.616|11=20120807-153338-6166777|1=TestAccount|63=0|21=1|111=0|55=MSFT|54=1|60=20120807-15:33:38.616|38=100000|40=1|15=USD|59=0|47=I|10=212|
8=FIX.4.2|9=192|35=D|49=Client|56=TradingGateway|34=251|52=20120807-14:33:38.694|11=20120807-153338-6322759|1=TestAccount|63=0|21=1|111=0|55=MSFT|54=1|60=20120807-15:33:38.694|38=100000|40=1|15=USD|59=0|47=I|10=219|
8=FIX.4.2|9=192|35=D|49=Client|56=TradingGateway|34=252|52=20120807-14:33:38.772|11=20120807-153338-7102669|1=TestAccount|63=0|21=1|111=0|55=MSFT|54=1|60=20120807-15:33:38.772|38=100000|40=1|15=USD|59=0|47=I|10=211|
8=FIX.4.2|9=192|35=D|49=Client|56=TradingGateway|34=253|52=20120807-14:33:38.788|11=20120807-153338-7882579|1=TestAccount|63=0|21=1|111=0|55=MSFT|54=1|60=20120807-15:33:38.788|38=100000|40=1|15=USD|59=0|47=I|10=241|
8=FIX.4.2|9=192|35=D|49=Client|56=TradingGateway|34=254|52=20120807-14:33:38.866|11=20120807-153338-8038561|1=TestAccount|63=0|21=1|111=0|55=MSFT|54=1|60=20120807-15:33:38.866|38=100000|40=1|15=USD|59=0|47=I|10=221|
8=FIX.4.2|9=192|35=D|49=Client|56=TradingGateway|34=255|52=20120807-14:33:38.881|11=20120807-153338-8818471|1=TestAccount|63=0|21=1|111=0|55=MSFT|54=1|60=20120807-15:33:38.881|38=100000|40=1|15=USD|59=0|47=I|10=222|
8=FIX.4.2|9=192|35=D|49=Client|56=TradingGateway|34=256|52=20120807-14:33:38.959|11=20120807-153338-8974453|1=TestAccount|63=0|21=1|111=0|55=MSFT|54=1|60=20120807-15:33:38.959|38=100000|40=1|15=USD|59=0|47=I|10=238|
8=FIX.4.2|9=192|35=D|49=Client|56=TradingGateway|34=257|52=20120807-14:33:39.037|11=20120807-153338-9754363|1=TestAccount|63=0|21=1|111=0|55=MSFT|54=1|60=20120807-15:33:39.037|38=100000|40=1|15=USD|59=0|47=I|10=212|
8=FIX.4.2|9=192|35=D|49=Client|56=TradingGateway|34=258|52=20120807-14:33:39.053|11=20120807-153339-0534273|1=TestAccount|63=0|21=1|111=0|55=MSFT|54=1|60=20120807-15:33:39.053|38=100000|40=1|15=USD|59=0|47=I|10=197|
8=FIX.4.2|9=192|35=D|49=Client|56=TradingGateway|34=259|52=20120807-14:33:39.131|11=20120807-153339-0690255|1=TestAccount|63=0|21=1|111=0|55=MSFT|54=1|60=20120807-15:33:39.131|38=100000|40=1|15=USD|59=0|47=I|10=195|
8=FIX.4.2|9=192|35=D|49=Client|56=TradingGateway|34=260|52=20120807-14:33:39.209|11=20120807-153339-1470165|1=TestAccount|63=0|21=1|111=0|55=MSFT|54=1|60=20120807-15:33:39.209|38=100000|40=1|15=USD|59=0|47=I|10=196|
8=FIX.4.2|9=192|35=D|49=Client|56=TradingGateway|34=261|52=20120807-14:33:39.225|11=20120807-153339-2250075|1=TestAccount|63=0|21=1|111=0|55=MSFT|54=1|60=20120807-15:33:39.225|38=100000|40=1|15=USD|59=0|47=I|10=190|
8=FIX.4.2|9=192|35=D|49=Client|56=TradingGateway|34=262|52=20120807-14:33:39.302|11=20120807-153339-2406057|1=TestAccount|63=0|21=1|111=0|55=MSFT|54=1|60=20120807-15:33:39.302|38=100000|40=1|15=USD|59=0|47=I|10=186|
8=FIX.4.2|9=192|35=D|49=Client|56=TradingGateway|34=263|52=20120807-14:33:39.380|11=20120807-153339-3185967|1=TestAccount|63=0|21=1|111=0|55=MSFT|54=1|60=20120807-15:33:39.380|38=100000|40=1|15=USD|59=0|47=I|10=214|
8=FIX.4.2|9=192|35=D|49=Client|56=TradingGateway|34=264|52=20120807-14:33:39.396|11=20120807-153339-3965877|1=TestAccount|63=0|21=1|111=0|55=MSFT|54=1|60=20120807-15:33:39.396|38=100000|40=1|15=USD|59=0|47=I|10=235|
8=FIX.4.2|9=192|35=D|49=Client|56=TradingGateway|34=265|52=20120807-14:33:39.474|11=20120807-153339-4121859|1=TestAccount|63=0|21=1|111=0|55=MSFT|54=1|60=20120807-15:33:39.474|38=100000|40=1|15=USD|59=0|47=I|10=215|
8=FIX.4.2|9=192|35=D|49=Client|56=TradingGateway|34=266|52=20120807-14:33:39.490|11=20120807-153339-4901769|1=TestAccount|63=0|21=1|111=0|55=MSFT|54=1|60=20120807-15:33:39.490|38=100000|40=1|15=USD|59=0|47=I|10=218|
8=FIX.4.2|9=192|35=D|49=Client|56=TradingGateway|34=267|52=20120807-14:33:54.558|11=20120807-153353-0138163|1=TestAccount|63=0|21=1|111=0|55=MSFT|54=1|60=20120807-15:33:54.558|38=100000|40=1|15=USD|59=0|47=I|10=205|
8=FIX.4.2|9=192|35=D|49=Client|56=TradingGateway|34=268|52=20120807-14:33:55.010|11=20120807-153354-5580381|1=TestAccount|63=0|21=1|111=0|55=MSFT|54=1|60=20120807-15:33:55.010|38=100000|40=1|15=USD|59=0|47=I|10=183|
8=FIX.4.2|9=192|35=D|49=Client|56=TradingGateway|34=269|52=20120807-14:33:55.213|11=20120807-153355-0103859|1=TestAccount|63=0|21=1|111=0|55=MSFT|54=1|60=20120807-15:33:55.213|38=100000|40=1|15=USD|59=0|47=I|10=191|
8=FIX.4.2|9=192|35=D|49=Client|56=TradingGateway|34=270|52=20120807-14:33:56.336|11=20120807-153355-2131625|1=TestAccount|63=0|21=1|111=0|55=MSFT|54=1|60=20120807-15:33:56.336|38=100000|40=1|15=USD|59=0|47=I|10=191|
8=FIX.4.2|9=192|35=D|49=Client|56=TradingGateway|34=271|52=20120807-14:33:57.896|11=20120807-153356-3518311|1=TestAccount|63=0|21=1|111=0|55=MSFT|54=1|60=20120807-15:33:57.896|38=100000|40=1|15=USD|59=0|47=I|10=219|
8=FIX.4.2|9=192|35=D|49=Client|56=TradingGateway|34=272|52=20120807-14:33:58.395|11=20120807-153357-8960529|1=TestAccount|63=0|21=1|111=0|55=MSFT|54=1|60=20120807-15:33:58.395|38=100000|40=1|15=USD|59=0|47=I|10=228|
8=FIX.4.2|9=192|35=D|49=Client|56=TradingGateway|34=273|52=20120807-14:33:58.457|11=20120807-153358-3951953|1=TestAccount|63=0|21=1|111=0|55=MSFT|54=1|60=20120807-15:33:58.457|38=100000|40=1|15=USD|59=0|47=I|10=224|
8=FIX.4.2|9=192|35=D|49=Client|56=TradingGateway|34=274|52=20120807-14:33:58.535|11=20120807-153358-4731863|1=TestAccount|63=0|21=1|111=0|55=MSFT|54=1|60=20120807-15:33:58.535|38=100000|40=1|15=USD|59=0|47=I|10=216|
8=FIX.4.2|9=192|35=D|49=Client|56=TradingGateway|34=275|52=20120807-14:33:58.551|11=20120807-153358-5355791|1=TestAccount|63=0|21=1|111=0|55=MSFT|54=1|60=20120807-15:33:58.551|38=100000|40=1|15=USD|59=0|47=I|10=216|
8=FIX.4.2|9=192|35=D|49=Client|56=TradingGateway|34=276|52=20120807-14:33:58.629|11=20120807-153358-5511773|1=TestAccount|63=0|21=1|111=0|55=MSFT|54=1|60=20120807-15:33:58.629|38=100000|40=1|15=USD|59=0|47=I|10=223|
8=FIX.4.2|9=192|35=D|49=Client|56=TradingGateway|34=277|52=20120807-14:33:58.707|11=20120807-153358-6291683|1=TestAccount|63=0|21=1|111=0|55=MSFT|54=1|60=20120807-15:33:58.707|38=100000|40=1|15=USD|59=0|47=I|10=224|
8=FIX.4.2|9=192|35=D|49=Client|56=TradingGateway|34=278|52=20120807-14:33:58.722|11=20120807-153358-7227575|1=TestAccount|63=0|21=1|111=0|55=MSFT|54=1|60=20120807-15:33:58.722|38=100000|40=1|15=USD|59=0|47=I|10=219|
8=FIX.4.2|9=192|35=D|49=Client|56=TradingGateway|34=279|52=20120807-14:33:58.800|11=20120807-153358-7539539|1=TestAccount|63=0|21=1|111=0|55=MSFT|54=1|60=20120807-15:33:58.800|38=100000|40=1|15=USD|59=0|47=I|10=220|
8=FIX.4.2|9=192|35=D|49=Client|56=TradingGateway|34=280|52=20120807-14:33:58.878|11=20120807-153358-8163467|1=TestAccount|63=0|21=1|111=0|55=MSFT|54=1|60=20120807-15:33:58.878|38=100000|40=1|15=USD|59=0|47=I|10=236|
8=FIX.4.2|9=192|35=D|49=Client|56=TradingGateway|34=281|52=20120807-14:33:58.894|11=20120807-153358-8943377|1=TestAccount|63=0|21=1|111=0|55=MSFT|54=1|60=20120807-15:33:58.894|38=100000|40=1|15=USD|59=0|47=I|10=239|
8=FIX.4.2|9=192|35=D|49=Client|56=TradingGateway|34=282|52=20120807-14:33:58.972|11=20120807-153358-9099359|1=TestAccount|63=0|21=1|111=0|55=MSFT|54=1|60=20120807-15:33:58.972|38=100000|40=1|15=USD|59=0|47=I|10=237|
8=FIX.4.2|9=192|35=D|49=Client|56=TradingGateway|34=283|52=20120807-14:33:59.050|11=20120807-153358-9879269|1=TestAccount|63=0|21=1|111=0|55=MSFT|54=1|60=20120807-15:33:59.050|38=100000|40=1|15=USD|59=0|47=I|10=220|
8=FIX.4.2|9=192|35=D|49=Client|56=TradingGateway|34=284|52=20120807-14:33:59.112|11=20120807-153359-0659179|1=TestAccount|63=0|21=1|111=0|55=MSFT|54=1|60=20120807-15:33:59.112|38=100000|40=1|15=USD|59=0|47=I|10=207|
8=FIX.4.2|9=192|35=D|49=Client|56=TradingGateway|34=285|52=20120807-14:33:59.175|11=20120807-153359-1283107|1=TestAccount|63=0|21=1|111=0|55=MSFT|54=1|60=20120807-15:33:59.175|38=100000|40=1|15=USD|59=0|47=I|10=211|
8=FIX.4.2|9=192|35=D|49=Client|56=TradingGateway|34=286|52=20120807-14:33:59.253|11=20120807-153359-1751053|1=TestAccount|63=0|21=1|111=0|55=MSFT|54=1|60=20120807-15:33:59.253|38=100000|40=1|15=USD|59=0|47=I|10=206|
8=FIX.4.2|9=192|35=D|49=Client|56=TradingGateway|34=287|52=20120807-14:33:59.268|11=20120807-153359-2686945|1=TestAccount|63=0|21=1|111=0|55=MSFT|54=1|60=20120807-15:33:59.268|38=100000|40=1|15=USD|59=0|47=I|10=237|
8=FIX.4.2|9=192|35=D|49=Client|56=TradingGateway|34=288|52=20120807-14:33:59.346|11=20120807-153359-2842927|1=TestAccount|63=0|21=1|111=0|55=MSFT|54=1|60=20120807-15:33:59.346|38=100000|40=1|15=USD|59=0|47=I|10=226|
8=FIX.4.2|9=192|35=D|49=Client|56=TradingGateway|34=289|52=20120807-14:33:59.424|11=20120807-153359-3622837|1=TestAccount|63=0|21=1|111=0|55=MSFT|54=1|60=20120807-15:33:59.424|38=100000|40=1|15=USD|59=0|47=I|10=218|
8=FIX.4.2|9=192|35=D|49=Client|56=TradingGateway|34=290|52=20120807-14:33:59.440|11=20120807-153359-4402747|1=TestAccount|63=0|21=1|111=0|55=MSFT|54=1|60=20120807-15:33:59.440|38=100000|40=1|15=USD|59=0|47=I|10=203|
8=FIX.4.2|9=192|35=D|49=Client|56=TradingGateway|34=291|52=20120807-14:33:59.518|11=20120807-153359-4558729|1=TestAccount|63=0|21=1|111=0|55=MSFT|54=1|60=20120807-15:33:59.518|38=100000|40=1|15=USD|59=0|47=I|10=228|
8=FIX.4.2|9=192|35=D|49=Client|56=TradingGateway|34=292|52=20120807-14:33:59.580|11=20120807-153359-5338639|1=TestAccount|63=0|21=1|111=0|55=MSFT|54=1|60=20120807-15:33:59.580|38=100000|40=1|15=USD|59=0|47=I|10=224|
8=FIX.4.2|9=192|35=D|49=Client|56=TradingGateway|34=293|52=20120807-14:33:59.611|11=20120807-153359-6118549|1=TestAccount|63=0|21=1|111=0|55=MSFT|54=1|60=20120807-15:33:59.611|38=100000|40=1|15=USD|59=0|47=I|10=212|
8=FIX.4.2|9=192|35=D|49=Client|56=TradingGateway|34=294|52=20120807-14:33:59.689|11=20120807-153359-6274531|1=TestAccount|63=0|21=1|111=0|55=MSFT|54=1|60=20120807-15:33:59.689|38=100000|40=1|15=USD|59=0|47=I|10=237|
8=FIX.4.2|9=192|35=D|49=Client|56=TradingGateway|34=295|52=20120807-14:33:59.752|11=20120807-153359-7054441|1=TestAccount|63=0|21=1|111=0|55=MSFT|54=1|60=20120807-15:33:59.752|38=100000|40=1|15=USD|59=0|47=I|10=217|
8=FIX.4.2|9=192|35=D|49=Client|56=TradingGateway|34=296|52=20120807-14:33:59.830|11=20120807-153359-7678369|1=TestAccount|63=0|21=1|111=0|55=MSFT|54=1|60=20120807-15:33:59.830|38=100000|40=1|15=USD|59=0|47=I|10=233|
8=FIX.4.2|9=192|35=D|49=Client|56=TradingGateway|34=297|52=20120807-14:33:59.845|11=20120807-153359-8458279|1=TestAccount|63=0|21=1|111=0|55=MSFT|54=1|60=20120807-15:33:59.845|38=100000|40=1|15=USD|59=0|47=I|10=243|
8=FIX.4.2|9=192|35=D|49=Client|56=TradingGateway|34=298|52=20120807-14:33:59.923|11=20120807-153359-8614261|1=TestAccount|63=0|21=1|111=0|55=MSFT|54=1|60=20120807-15:33:59.923|38=100000|40=1|15=USD|59=0|47=I|10=223|
8=FIX.4.2|9=192|35=D|49=Client|56=TradingGateway|34=299|52=20120807-14:34:00.001|11=20120807-153359-9394171|1=TestAccount|63=0|21=1|111=0|55=MSFT|54=1|60=20120807-15:34:00.001|38=100000|40=1|15=USD|59=0|47=I|10=178|
8=FIX.4.2|9=192|35=D|49=Client|56=TradingGateway|34=300|52=20120807-14:34:00.017|11=20120807-153400-0174081|1=TestAccount|63=0|21=1|111=0|55=MSFT|54=1|60=20120807-15:34:00.017|38=100000|40=1|15=USD|59=0|47=I|10=149|
8=FIX.4.2|9=192|35=D|49=Client|56=TradingGateway|34=301|52=20120807-14:34:00.095|11=20120807-153400-0330063|1=TestAccount|63=0|21=1|111=0|55=MSFT|54=1|60=20120807-15:34:00.095|38=100000|40=1|15=USD|59=0|47=I|10=156|
8=FIX.4.2|9=192|35=D|49=Client|56=TradingGateway|34=302|52=20120807-14:34:00.110|11=20120807-153400-1109973|1=TestAccount|63=0|21=1|111=0|55=MSFT|54=1|60=20120807-15:34:00.110|38=100000|40=1|15=USD|59=0|47=I|10=148|
8=FIX.4.2|9=192|35=D|49=Client|56=TradingGateway|34=303|52=20120807-14:34:00.188|11=20120807-153400-1265955|1=TestAccount|63=0|21=1|111=0|55=MSFT|54=1|60=20120807-15:34:00.188|38=100000|40=1|15=USD|59=0|47=I|10=182|
8=FIX.4.2|9=192|35=D|49=Client|56=TradingGateway|34=304|52=20120807-14:34:00.266|11=20120807-153400-2045865|1=TestAccount|63=0|21=1|111=0|55=MSFT|54=1|60=20120807-15:34:00.266|38=100000|40=1|15=USD|59=0|47=I|10=174|
8=FIX.4.2|9=192|35=D|49=Client|56=TradingGateway|34=305|52=20120807-14:34:00.282|11=20120807-153400-2825775|1=TestAccount|63=0|21=1|111=0|55=MSFT|54=1|60=20120807-15:34:00.282|38=100000|40=1|15=USD|59=0|47=I|10=177|
8=FIX.4.2|9=192|35=D|49=Client|56=TradingGateway|34=306|52=20120807-14:34:00.360|11=20120807-153400-2981757|1=TestAccount|63=0|21=1|111=0|55=MSFT|54=1|60=20120807-15:34:00.360|38=100000|40=1|15=USD|59=0|47=I|10=175|
8=FIX.4.2|9=192|35=D|49=Client|56=TradingGateway|34=307|52=20120807-14:34:00.438|11=20120807-153400-3761667|1=TestAccount|63=0|21=1|111=0|55=MSFT|54=1|60=20120807-15:34:00.438|38=100000|40=1|15=USD|59=0|47=I|10=185|
8=FIX.4.2|9=192|35=D|49=Client|56=TradingGateway|34=308|52=20120807-14:34:00.454|11=20120807-153400-4541577|1=TestAccount|63=0|21=1|111=0|55=MSFT|54=1|60=20120807-15:34:00.454|38=100000|40=1|15=USD|59=0|47=I|10=179|
8=FIX.4.2|9=192|35=D|49=Client|56=TradingGateway|34=309|52=20120807-14:34:00.532|11=20120807-153400-4697559|1=TestAccount|63=0|21=1|111=0|55=MSFT|54=1|60=20120807-15:34:00.532|38=100000|40=1|15=USD|59=0|47=I|10=186|
8=FIX.4.2|9=192|35=D|49=Client|56=TradingGateway|34=310|52=20120807-14:34:00.610|11=20120807-153400-5477469|1=TestAccount|63=0|21=1|111=0|55=MSFT|54=1|60=20120807-15:34:00.610|38=100000|40=1|15=USD|59=0|47=I|10=169|
8=FIX.4.2|9=192|35=D|49=Client|56=TradingGateway|34=311|52=20120807-14:34:00.625|11=20120807-153400-6257379|1=TestAccount|63=0|21=1|111=0|55=MSFT|54=1|60=20120807-15:34:00.625|38=100000|40=1|15=USD|59=0|47=I|10=179|
8=FIX.4.2|9=192|35=D|49=Client|56=TradingGateway|34=312|52=20120807-14:34:00.703|11=20120807-153400-6413361|1=TestAccount|63=0|21=1|111=0|55=MSFT|54=1|60=20120807-15:34:00.703|38=100000|40=1|15=USD|59=0|47=I|10=159|
8=FIX.4.2|9=192|35=D|49=Client|56=TradingGateway|34=313|52=20120807-14:34:00.719|11=20120807-153400-7193271|1=TestAccount|63=0|21=1|111=0|55=MSFT|54=1|60=20120807-15:34:00.719|38=100000|40=1|15=USD|59=0|47=I|10=180|
8=FIX.4.2|9=192|35=D|49=Client|56=TradingGateway|34=314|52=20120807-14:34:00.797|11=20120807-153400-7505235|1=TestAccount|63=0|21=1|111=0|55=MSFT|54=1|60=20120807-15:34:00.797|38=100000|40=1|15=USD|59=0|47=I|10=190|
8=FIX.4.2|9=192|35=D|49=Client|56=TradingGateway|34=315|52=20120807-14:34:00.875|11=20120807-153400-8129163|1=TestAccount|63=0|21=1|111=0|55=MSFT|54=1|60=20120807-15:34:00.875|38=100000|40=1|15=USD|59=0|47=I|10=188|
8=FIX.4.2|9=192|35=D|49=Client|56=TradingGateway|34=316|52=20120807-14:34:00.890|11=20120807-153400-8909073|1=TestAccount|63=0|21=1|111=0|55=MSFT|54=1|60=20120807-15:34:00.890|38=100000|40=1|15=USD|59=0|47=I|10=189|
8=FIX.4.2|9=192|35=D|49=Client|56=TradingGateway|34=317|52=20120807-14:34:00.968|11=20120807-153400-9065055|1=TestAccount|63=0|21=1|111=0|55=MSFT|54=1|60=20120807-15:34:00.968|38=100000|40=1|15=USD|59=0|47=I|10=196|
8=FIX.4.2|9=192|35=D|49=Client|56=TradingGateway|34=318|52=20120807-14:34:01.046|11=20120807-153400-9844965|1=TestAccount|63=0|21=1|111=0|55=MSFT|54=1|60=20120807-15:34:01.046|38=100000|40=1|15=USD|59=0|47=I|10=188|
8=FIX.4.2|9=192|35=D|49=Client|56=TradingGateway|34=319|52=20120807-14:34:01.062|11=20120807-153401-0624875|1=TestAccount|63=0|21=1|111=0|55=MSFT|54=1|60=20120807-15:34:01.062|38=100000|40=1|15=USD|59=0|47=I|10=173|
8=FIX.4.2|9=192|35=D|49=Client|56=TradingGateway|34=320|52=20120807-14:34:01.140|11=20120807-153401-0780857|1=TestAccount|63=0|21=1|111=0|55=MSFT|54=1|60=20120807-15:34:01.140|38=100000|40=1|15=USD|59=0|47=I|10=162|
8=FIX.4.2|9=192|35=D|49=Client|56=TradingGateway|34=321|52=20120807-14:34:01.218|11=20120807-153401-1404785|1=TestAccount|63=0|21=1|111=0|55=MSFT|54=1|60=20120807-15:34:01.218|38=100000|40=1|15=USD|59=0|47=I|10=169|
8=FIX.4.2|9=192|35=D|49=Client|56=TradingGateway|34=322|52=20120807-14:34:01.234|11=20120807-153401-2184695|1=TestAccount|63=0|21=1|111=0|55=MSFT|54=1|60=20120807-15:34:01.234|38=100000|40=1|15=USD|59=0|47=I|10=172|
8=FIX.4.2|9=192|35=D|49=Client|56=TradingGateway|34=323|52=20120807-14:34:01.312|11=20120807-153401-2340677|1=TestAccount|63=0|21=1|111=0|55=MSFT|54=1|60=20120807-15:34:01.312|38=100000|40=1|15=USD|59=0|47=I|10=161|
8=FIX.4.2|9=192|35=D|49=Client|56=TradingGateway|34=324|52=20120807-14:34:01.343|11=20120807-153401-3276569|1=TestAccount|63=0|21=1|111=0|55=MSFT|54=1|60=20120807-15:34:01.343|38=100000|40=1|15=USD|59=0|47=I|10=179|
8=FIX.4.2|9=192|35=D|49=Client|56=TradingGateway|34=325|52=20120807-14:34:01.405|11=20120807-153401-3588533|1=TestAccount|63=0|21=1|111=0|55=MSFT|54=1|60=20120807-15:34:01.405|38=100000|40=1|15=USD|59=0|47=I|10=175|
8=FIX.4.2|9=192|35=D|49=Client|56=TradingGateway|34=326|52=20120807-14:34:01.483|11=20120807-153401-4212461|1=TestAccount|63=0|21=1|111=0|55=MSFT|54=1|60=20120807-15:34:01.483|38=100000|40=1|15=USD|59=0|47=I|10=173|
8=FIX.4.2|9=192|35=D|49=Client|56=TradingGateway|34=327|52=20120807-14:34:01.499|11=20120807-153401-4992371|1=TestAccount|63=0|21=1|111=0|55=MSFT|54=1|60=20120807-15:34:01.499|38=100000|40=1|15=USD|59=0|47=I|10=203|
8=FIX.4.2|9=192|35=D|49=Client|56=TradingGateway|34=328|52=20120807-14:34:01.577|11=20120807-153401-5304335|1=TestAccount|63=0|21=1|111=0|55=MSFT|54=1|60=20120807-15:34:01.577|38=100000|40=1|15=USD|59=0|47=I|10=186|
8=FIX.4.2|9=192|35=D|49=Client|56=TradingGateway|34=329|52=20120807-14:34:01.655|11=20120807-153401-5772281|1=TestAccount|63=0|21=1|111=0|55=MSFT|54=1|60=20120807-15:34:01.655|38=100000|40=1|15=USD|59=0|47=I|10=190|
8=FIX.4.2|9=192|35=D|49=Client|56=TradingGateway|34=330|52=20120807-14:34:01.670|11=20120807-153401-6552191|1=TestAccount|63=0|21=1|111=0|55=MSFT|54=1|60=20120807-15:34:01.670|38=100000|40=1|15=USD|59=0|47=I|10=173|
8=FIX.4.2|9=192|35=D|49=Client|56=TradingGateway|34=331|52=20120807-14:34:01.764|11=20120807-153401-6708173|1=TestAccount|63=0|21=1|111=0|55=MSFT|54=1|60=20120807-15:34:01.764|38=100000|40=1|15=USD|59=0|47=I|10=185|
8=FIX.4.2|9=192|35=D|49=Client|56=TradingGateway|34=332|52=20120807-14:34:01.780|11=20120807-153401-7800047|1=TestAccount|63=0|21=1|111=0|55=MSFT|54=1|60=20120807-15:34:01.780|38=100000|40=1|15=USD|59=0|47=I|10=176|
8=FIX.4.2|9=192|35=D|49=Client|56=TradingGateway|34=333|52=20120807-14:34:01.842|11=20120807-153401-7956029|1=TestAccount|63=0|21=1|111=0|55=MSFT|54=1|60=20120807-15:34:01.842|38=100000|40=1|15=USD|59=0|47=I|10=187|
8=FIX.4.2|9=192|35=D|49=Client|56=TradingGateway|34=334|52=20120807-14:34:01.920|11=20120807-153401-8735939|1=TestAccount|63=0|21=1|111=0|55=MSFT|54=1|60=20120807-15:34:01.920|38=100000|40=1|15=USD|59=0|47=I|10=188|
8=FIX.4.2|9=192|35=D|49=Client|56=TradingGateway|34=335|52=20120807-14:34:01.951|11=20120807-153401-9359867|1=TestAccount|63=0|21=1|111=0|55=MSFT|54=1|60=20120807-15:34:01.951|38=100000|40=1|15=USD|59=0|47=I|10=200|
8=FIX.4.2|9=192|35=D|49=Client|56=TradingGateway|34=336|52=20120807-14:34:02.013|11=20120807-153401-9671831|1=TestAccount|63=0|21=1|111=0|55=MSFT|54=1|60=20120807-15:34:02.013|38=100000|40=1|15=USD|59=0|47=I|10=169|
8=FIX.4.2|9=192|35=D|49=Client|56=TradingGateway|34=337|52=20120807-14:34:02.091|11=20120807-153402-0451741|1=TestAccount|63=0|21=1|111=0|55=MSFT|54=1|60=20120807-15:34:02.091|38=100000|40=1|15=USD|59=0|47=I|10=170|
8=FIX.4.2|9=192|35=D|49=Client|56=TradingGateway|34=338|52=20120807-14:34:02.123|11=20120807-153402-1231651|1=TestAccount|63=0|21=1|111=0|55=MSFT|54=1|60=20120807-15:34:02.123|38=100000|40=1|15=USD|59=0|47=I|10=160|
8=FIX.4.2|9=192|35=D|49=Client|56=TradingGateway|34=339|52=20120807-14:34:02.185|11=20120807-153402-1387633|1=TestAccount|63=0|21=1|111=0|55=MSFT|54=1|60=20120807-15:34:02.185|38=100000|40=1|15=USD|59=0|47=I|10=189|
8=FIX.4.2|9=192|35=D|49=Client|56=TradingGateway|34=340|52=20120807-14:34:02.263|11=20120807-153402-2011561|1=TestAccount|63=0|21=1|111=0|55=MSFT|54=1|60=20120807-15:34:02.263|38=100000|40=1|15=USD|59=0|47=I|10=160|
8=FIX.4.2|9=192|35=D|49=Client|56=TradingGateway|34=341|52=20120807-14:34:02.294|11=20120807-153402-2791471|1=TestAccount|63=0|21=1|111=0|55=MSFT|54=1|60=20120807-15:34:02.294|38=100000|40=1|15=USD|59=0|47=I|10=184|
8=FIX.4.2|9=192|35=D|49=Client|56=TradingGateway|34=342|52=20120807-14:34:02.357|11=20120807-153402-3103435|1=TestAccount|63=0|21=1|111=0|55=MSFT|54=1|60=20120807-15:34:02.357|38=100000|40=1|15=USD|59=0|47=I|10=173|
8=FIX.4.2|9=192|35=D|49=Client|56=TradingGateway|34=343|52=20120807-14:34:02.388|11=20120807-153402-3883345|1=TestAccount|63=0|21=1|111=0|55=MSFT|54=1|60=20120807-15:34:02.388|38=100000|40=1|15=USD|59=0|47=I|10=197|
8=FIX.4.2|9=192|35=D|49=Client|56=TradingGateway|34=344|52=20120807-14:34:02.466|11=20120807-153402-4039327|1=TestAccount|63=0|21=1|111=0|55=MSFT|54=1|60=20120807-15:34:02.466|38=100000|40=1|15=USD|59=0|47=I|10=186|
8=FIX.4.2|9=192|35=D|49=Client|56=TradingGateway|34=345|52=20120807-14:34:02.544|11=20120807-153402-4819237|1=TestAccount|63=0|21=1|111=0|55=MSFT|54=1|60=20120807-15:34:02.544|38=100000|40=1|15=USD|59=0|47=I|10=187|
8=FIX.4.2|9=192|35=D|49=Client|56=TradingGateway|34=346|52=20120807-14:34:02.559|11=20120807-153402-5599147|1=TestAccount|63=0|21=1|111=0|55=MSFT|54=1|60=20120807-15:34:02.559|38=100000|40=1|15=USD|59=0|47=I|10=206|
8=FIX.4.2|9=192|35=D|49=Client|56=TradingGateway|34=347|52=20120807-14:34:02.637|11=20120807-153402-5755129|1=TestAccount|63=0|21=1|111=0|55=MSFT|54=1|60=20120807-15:34:02.637|38=100000|40=1|15=USD|59=0|47=I|10=195|
8=FIX.4.2|9=192|35=D|49=Client|56=TradingGateway|34=348|52=20120807-14:34:02.653|11=20120807-153402-6535039|1=TestAccount|63=0|21=1|111=0|55=MSFT|54=1|60=20120807-15:34:02.653|38=100000|40=1|15=USD|59=0|47=I|10=189|
8=FIX.4.2|9=192|35=D|49=Client|56=TradingGateway|34=349|52=20120807-14:34:02.731|11=20120807-153402-6691021|1=TestAccount|63=0|21=1|111=0|55=MSFT|54=1|60=20120807-15:34:02.731|38=100000|40=1|15=USD|59=0|47=I|10=178|
8=FIX.4.2|9=192|35=D|49=Client|56=TradingGateway|34=350|52=20120807-14:34:02.809|11=20120807-153402-7470931|1=TestAccount|63=0|21=1|111=0|55=MSFT|54=1|60=20120807-15:34:02.809|38=100000|40=1|15=USD|59=0|47=I|10=188|
8=FIX.4.2|9=192|35=D|49=Client|56=TradingGateway|34=351|52=20120807-14:34:02.825|11=20120807-153402-8250841|1=TestAccount|63=0|21=1|111=0|55=MSFT|54=1|60=20120807-15:34:02.825|38=100000|40=1|15=USD|59=0|47=I|10=182|
8=FIX.4.2|9=192|35=D|49=Client|56=TradingGateway|34=352|52=20120807-14:34:02.903|11=20120807-153402-8406823|1=TestAccount|63=0|21=1|111=0|55=MSFT|54=1|60=20120807-15:34:02.903|38=100000|40=1|15=USD|59=0|47=I|10=180|
8=FIX.4.2|9=192|35=D|49=Client|56=TradingGateway|34=353|52=20120807-14:34:02.981|11=20120807-153402-9186733|1=TestAccount|63=0|21=1|111=0|55=MSFT|54=1|60=20120807-15:34:02.981|38=100000|40=1|15=USD|59=0|47=I|10=199|
8=FIX.4.2|9=192|35=D|49=Client|56=TradingGateway|34=354|52=20120807-14:34:02.996|11=20120807-153402-9966643|1=TestAccount|63=0|21=1|111=0|55=MSFT|54=1|60=20120807-15:34:02.996|38=100000|40=1|15=USD|59=0|47=I|10=218|
8=FIX.4.2|9=192|35=D|49=Client|56=TradingGateway|34=355|52=20120807-14:34:03.074|11=20120807-153403-0122625|1=TestAccount|63=0|21=1|111=0|55=MSFT|54=1|60=20120807-15:34:03.074|38=100000|40=1|15=USD|59=0|47=I|10=171|
8=FIX.4.2|9=192|35=D|49=Client|56=TradingGateway|34=356|52=20120807-14:34:03.152|11=20120807-153403-0902535|1=TestAccount|63=0|21=1|111=0|55=MSFT|54=1|60=20120807-15:34:03.152|38=100000|40=1|15=USD|59=0|47=I|10=172|
8=FIX.4.2|9=192|35=D|49=Client|56=TradingGateway|34=357|52=20120807-14:34:03.168|11=20120807-153403-1682445|1=TestAccount|63=0|21=1|111=0|55=MSFT|54=1|60=20120807-15:34:03.168|38=100000|40=1|15=USD|59=0|47=I|10=193|
8=FIX.4.2|9=192|35=D|49=Client|56=TradingGateway|34=358|52=20120807-14:34:03.246|11=20120807-153403-1838427|1=TestAccount|63=0|21=1|111=0|55=MSFT|54=1|60=20120807-15:34:03.246|38=100000|40=1|15=USD|59=0|47=I|10=191|
8=FIX.4.2|9=192|35=D|49=Client|56=TradingGateway|34=359|52=20120807-14:34:03.324|11=20120807-153403-2618337|1=TestAccount|63=0|21=1|111=0|55=MSFT|54=1|60=20120807-15:34:03.324|38=100000|40=1|15=USD|59=0|47=I|10=183|
8=FIX.4.2|9=192|35=D|49=Client|56=TradingGateway|34=360|52=20120807-14:34:03.339|11=20120807-153403-3398247|1=TestAccount|63=0|21=1|111=0|55=MSFT|54=1|60=20120807-15:34:03.339|38=100000|40=1|15=USD|59=0|47=I|10=193|
8=FIX.4.2|9=192|35=D|49=Client|56=TradingGateway|34=361|52=20120807-14:34:03.417|11=20120807-153403-3554229|1=TestAccount|63=0|21=1|111=0|55=MSFT|54=1|60=20120807-15:34:03.417|38=100000|40=1|15=USD|59=0|47=I|10=182|
8=FIX.4.2|9=192|35=D|49=Client|56=TradingGateway|34=362|52=20120807-14:34:03.433|11=20120807-153403-4334139|1=TestAccount|63=0|21=1|111=0|55=MSFT|54=1|60=20120807-15:34:03.433|38=100000|40=1|15=USD|59=0|47=I|10=176|
8=FIX.4.2|9=192|35=D|49=Client|56=TradingGateway|34=363|52=20120807-14:34:03.511|11=20120807-153403-4490121|1=TestAccount|63=0|21=1|111=0|55=MSFT|54=1|60=20120807-15:34:03.511|38=100000|40=1|15=USD|59=0|47=I|10=165|
8=FIX.4.2|9=192|35=D|49=Client|56=TradingGateway|34=364|52=20120807-14:34:03.527|11=20120807-153403-5270031|1=TestAccount|63=0|21=1|111=0|55=MSFT|54=1|60=20120807-15:34:03.527|38=100000|40=1|15=USD|59=0|47=I|10=177|
8=FIX.4.2|9=192|35=D|49=Client|56=TradingGateway|34=365|52=20120807-14:34:03.604|11=20120807-153403-5426013|1=TestAccount|63=0|21=1|111=0|55=MSFT|54=1|60=20120807-15:34:03.604|38=100000|40=1|15=USD|59=0|47=I|10=173|
8=FIX.4.2|9=192|35=D|49=Client|56=TradingGateway|34=366|52=20120807-14:34:03.714|11=20120807-153403-6205923|1=TestAccount|63=0|21=1|111=0|55=MSFT|54=1|60=20120807-15:34:03.714|38=100000|40=1|15=USD|59=0|47=I|10=184|
8=FIX.4.2|9=192|35=D|49=Client|56=TradingGateway|34=367|52=20120807-14:34:03.792|11=20120807-153403-7297797|1=TestAccount|63=0|21=1|111=0|55=MSFT|54=1|60=20120807-15:34:03.792|38=100000|40=1|15=USD|59=0|47=I|10=218|
8=FIX.4.2|9=192|35=D|49=Client|56=TradingGateway|34=368|52=20120807-14:34:03.807|11=20120807-153403-7921725|1=TestAccount|63=0|21=1|111=0|55=MSFT|54=1|60=20120807-15:34:03.807|38=100000|40=1|15=USD|59=0|47=I|10=198|
8=FIX.4.2|9=192|35=D|49=Client|56=TradingGateway|34=369|52=20120807-14:34:03.885|11=20120807-153403-8077707|1=TestAccount|63=0|21=1|111=0|55=MSFT|54=1|60=20120807-15:34:03.885|38=100000|40=1|15=USD|59=0|47=I|10=214|
8=FIX.4.2|9=192|35=D|49=Client|56=TradingGateway|34=370|52=20120807-14:34:03.948|11=20120807-153403-8857617|1=TestAccount|63=0|21=1|111=0|55=MSFT|54=1|60=20120807-15:34:03.948|38=100000|40=1|15=USD|59=0|47=I|10=212|
8=FIX.4.2|9=192|35=D|49=Client|56=TradingGateway|34=371|52=20120807-14:34:03.963|11=20120807-153403-9481545|1=TestAccount|63=0|21=1|111=0|55=MSFT|54=1|60=20120807-15:34:03.963|38=100000|40=1|15=USD|59=0|47=I|10=201|
8=FIX.4.2|9=192|35=D|49=Client|56=TradingGateway|34=372|52=20120807-14:34:04.041|11=20120807-153403-9637527|1=TestAccount|63=0|21=1|111=0|55=MSFT|54=1|60=20120807-15:34:04.041|38=100000|40=1|15=USD|59=0|47=I|10=181|
8=FIX.4.2|9=192|35=D|49=Client|56=TradingGateway|34=373|52=20120807-14:34:04.119|11=20120807-153404-0417437|1=TestAccount|63=0|21=1|111=0|55=MSFT|54=1|60=20120807-15:34:04.119|38=100000|40=1|15=USD|59=0|47=I|10=182|
8=FIX.4.2|9=192|35=D|49=Client|56=TradingGateway|34=374|52=20120807-14:34:04.135|11=20120807-153404-1197347|1=TestAccount|63=0|21=1|111=0|55=MSFT|54=1|60=20120807-15:34:04.135|38=100000|40=1|15=USD|59=0|47=I|10=185|
8=FIX.4.2|9=192|35=D|49=Client|56=TradingGateway|34=375|52=20120807-14:34:04.228|11=20120807-153404-1353329|1=TestAccount|63=0|21=1|111=0|55=MSFT|54=1|60=20120807-15:34:04.228|38=100000|40=1|15=USD|59=0|47=I|10=186|
8=FIX.4.2|9=192|35=D|49=Client|56=TradingGateway|34=376|52=20120807-14:34:04.244|11=20120807-153404-2445203|1=TestAccount|63=0|21=1|111=0|55=MSFT|54=1|60=20120807-15:34:04.244|38=100000|40=1|15=USD|59=0|47=I|10=177|
8=FIX.4.2|9=192|35=D|49=Client|56=TradingGateway|34=377|52=20120807-14:34:04.322|11=20120807-153404-2601185|1=TestAccount|63=0|21=1|111=0|55=MSFT|54=1|60=20120807-15:34:04.322|38=100000|40=1|15=USD|59=0|47=I|10=175|
8=FIX.4.2|9=192|35=D|49=Client|56=TradingGateway|34=378|52=20120807-14:34:04.400|11=20120807-153404-3381095|1=TestAccount|63=0|21=1|111=0|55=MSFT|54=1|60=20120807-15:34:04.400|38=100000|40=1|15=USD|59=0|47=I|10=176|
8=FIX.4.2|9=192|35=D|49=Client|56=TradingGateway|34=379|52=20120807-14:34:04.416|11=20120807-153404-4161005|1=TestAccount|63=0|21=1|111=0|55=MSFT|54=1|60=20120807-15:34:04.416|38=100000|40=1|15=USD|59=0|47=I|10=179|
8=FIX.4.2|9=192|35=D|49=Client|56=TradingGateway|34=380|52=20120807-14:34:04.494|11=20120807-153404-4316987|1=TestAccount|63=0|21=1|111=0|55=MSFT|54=1|60=20120807-15:34:04.494|38=100000|40=1|15=USD|59=0|47=I|10=204|
8=FIX.4.2|9=192|35=D|49=Client|56=TradingGateway|34=381|52=20120807-14:34:04.572|11=20120807-153404-5096897|1=TestAccount|63=0|21=1|111=0|55=MSFT|54=1|60=20120807-15:34:04.572|38=100000|40=1|15=USD|59=0|47=I|10=205|
8=FIX.4.2|9=192|35=D|49=Client|56=TradingGateway|34=382|52=20120807-14:34:04.587|11=20120807-153404-5876807|1=TestAccount|63=0|21=1|111=0|55=MSFT|54=1|60=20120807-15:34:04.587|38=100000|40=1|15=USD|59=0|47=I|10=215|
8=FIX.4.2|9=192|35=D|49=Client|56=TradingGateway|34=383|52=20120807-14:34:04.665|11=20120807-153404-6032789|1=TestAccount|63=0|21=1|111=0|55=MSFT|54=1|60=20120807-15:34:04.665|38=100000|40=1|15=USD|59=0|47=I|10=204|
8=FIX.4.2|9=192|35=D|49=Client|56=TradingGateway|34=384|52=20120807-14:34:04.743|11=20120807-153404-6812699|1=TestAccount|63=0|21=1|111=0|55=MSFT|54=1|60=20120807-15:34:04.743|38=100000|40=1|15=USD|59=0|47=I|10=205|
8=FIX.4.2|9=192|35=D|49=Client|56=TradingGateway|34=385|52=20120807-14:34:04.759|11=20120807-153404-7592609|1=TestAccount|63=0|21=1|111=0|55=MSFT|54=1|60=20120807-15:34:04.759|38=100000|40=1|15=USD|59=0|47=I|10=217|
8=FIX.4.2|9=192|35=D|49=Client|56=TradingGateway|34=386|52=20120807-14:34:04.837|11=20120807-153404-7748591|1=TestAccount|63=0|21=1|111=0|55=MSFT|54=1|60=20120807-15:34:04.837|38=100000|40=1|15=USD|59=0|47=I|10=215|
8=FIX.4.2|9=192|35=D|49=Client|56=TradingGateway|34=387|52=20120807-14:34:04.852|11=20120807-153404-8528501|1=TestAccount|63=0|21=1|111=0|55=MSFT|54=1|60=20120807-15:34:04.852|38=100000|40=1|15=USD|59=0|47=I|10=198|
8=FIX.4.2|9=192|35=D|49=Client|56=TradingGateway|34=388|52=20120807-14:34:04.930|11=20120807-153404-8684483|1=TestAccount|63=0|21=1|111=0|55=MSFT|54=1|60=20120807-15:34:04.930|38=100000|40=1|15=USD|59=0|47=I|10=205|
8=FIX.4.2|9=192|35=D|49=Client|56=TradingGateway|34=389|52=20120807-14:34:05.008|11=20120807-153404-9464393|1=TestAccount|63=0|21=1|111=0|55=MSFT|54=1|60=20120807-15:34:05.008|38=100000|40=1|15=USD|59=0|47=I|10=197|
8=FIX.4.2|9=192|35=D|49=Client|56=TradingGateway|34=390|52=20120807-14:34:05.024|11=20120807-153405-0244303|1=TestAccount|63=0|21=1|111=0|55=MSFT|54=1|60=20120807-15:34:05.024|38=100000|40=1|15=USD|59=0|47=I|10=164|
8=FIX.4.2|9=192|35=D|49=Client|56=TradingGateway|34=391|52=20120807-14:34:05.102|11=20120807-153405-0400285|1=TestAccount|63=0|21=1|111=0|55=MSFT|54=1|60=20120807-15:34:05.102|38=100000|40=1|15=USD|59=0|47=I|10=162|
8=FIX.4.2|9=192|35=D|49=Client|56=TradingGateway|34=392|52=20120807-14:34:05.180|11=20120807-153405-1180195|1=TestAccount|63=0|21=1|111=0|55=MSFT|54=1|60=20120807-15:34:05.180|38=100000|40=1|15=USD|59=0|47=I|10=181|
8=FIX.4.2|9=192|35=D|49=Client|56=TradingGateway|34=393|52=20120807-14:34:05.196|11=20120807-153405-1804123|1=TestAccount|63=0|21=1|111=0|55=MSFT|54=1|60=20120807-15:34:05.180|38=100000|40=1|15=USD|59=0|47=I|10=183|
8=FIX.4.2|9=192|35=D|49=Client|56=TradingGateway|34=394|52=20120807-14:34:05.258|11=20120807-153405-1960105|1=TestAccount|63=0|21=1|111=0|55=MSFT|54=1|60=20120807-15:34:05.258|38=100000|40=1|15=USD|59=0|47=I|10=192|
8=FIX.4.2|9=192|35=D|49=Client|56=TradingGateway|34=395|52=20120807-14:34:05.351|11=20120807-153405-2584033|1=TestAccount|63=0|21=1|111=0|55=MSFT|54=1|60=20120807-15:34:05.351|38=100000|40=1|15=USD|59=0|47=I|10=184|
8=FIX.4.2|9=192|35=D|49=Client|56=TradingGateway|34=396|52=20120807-14:34:05.367|11=20120807-153405-3675907|1=TestAccount|63=0|21=1|111=0|55=MSFT|54=1|60=20120807-15:34:05.367|38=100000|40=1|15=USD|59=0|47=I|10=211|
8=FIX.4.2|9=192|35=D|49=Client|56=TradingGateway|34=397|52=20120807-14:34:05.445|11=20120807-153405-3831889|1=TestAccount|63=0|21=1|111=0|55=MSFT|54=1|60=20120807-15:34:05.445|38=100000|40=1|15=USD|59=0|47=I|10=209|
8=FIX.4.2|9=192|35=D|49=Client|56=TradingGateway|34=398|52=20120807-14:34:05.461|11=20120807-153405-4611799|1=TestAccount|63=0|21=1|111=0|55=MSFT|54=1|60=20120807-15:34:05.461|38=100000|40=1|15=USD|59=0|47=I|10=203|
8=FIX.4.2|9=192|35=D|49=Client|56=TradingGateway|34=399|52=20120807-14:34:05.539|11=20120807-153405-4767781|1=TestAccount|63=0|21=1|111=0|55=MSFT|54=1|60=20120807-15:34:05.539|38=100000|40=1|15=USD|59=0|47=I|10=219|
8=FIX.4.2|9=192|35=D|49=Client|56=TradingGateway|34=400|52=20120807-14:34:05.617|11=20120807-153405-5547691|1=TestAccount|63=0|21=1|111=0|55=MSFT|54=1|60=20120807-15:34:05.617|38=100000|40=1|15=USD|59=0|47=I|10=193|
8=FIX.4.2|9=192|35=D|49=Client|56=TradingGateway|34=401|52=20120807-14:34:05.632|11=20120807-153405-6327601|1=TestAccount|63=0|21=1|111=0|55=MSFT|54=1|60=20120807-15:34:05.632|38=100000|40=1|15=USD|59=0|47=I|10=176|
8=FIX.4.2|9=192|35=D|49=Client|56=TradingGateway|34=402|52=20120807-14:34:05.710|11=20120807-153405-6483583|1=TestAccount|63=0|21=1|111=0|55=MSFT|54=1|60=20120807-15:34:05.710|38=100000|40=1|15=USD|59=0|47=I|10=183|
8=FIX.4.2|9=192|35=D|49=Client|56=TradingGateway|34=403|52=20120807-14:34:05.788|11=20120807-153405-7263493|1=TestAccount|63=0|21=1|111=0|55=MSFT|54=1|60=20120807-15:34:05.788|38=100000|40=1|15=USD|59=0|47=I|10=211|
8=FIX.4.2|9=192|35=D|49=Client|56=TradingGateway|34=404|52=20120807-14:34:05.804|11=20120807-153405-8043403|1=TestAccount|63=0|21=1|111=0|55=MSFT|54=1|60=20120807-15:34:05.804|38=100000|40=1|15=USD|59=0|47=I|10=178|
8=FIX.4.2|9=192|35=D|49=Client|56=TradingGateway|34=405|52=20120807-14:34:05.882|11=20120807-153405-8199385|1=TestAccount|63=0|21=1|111=0|55=MSFT|54=1|60=20120807-15:34:05.882|38=100000|40=1|15=USD|59=0|47=I|10=212|
8=FIX.4.2|9=192|35=D|49=Client|56=TradingGateway|34=406|52=20120807-14:34:05.897|11=20120807-153405-8979295|1=TestAccount|63=0|21=1|111=0|55=MSFT|54=1|60=20120807-15:34:05.897|38=100000|40=1|15=USD|59=0|47=I|10=231|
8=FIX.4.2|9=192|35=D|49=Client|56=TradingGateway|34=407|52=20120807-14:34:05.975|11=20120807-153405-9135277|1=TestAccount|63=0|21=1|111=0|55=MSFT|54=1|60=20120807-15:34:05.975|38=100000|40=1|15=USD|59=0|47=I|10=211|
8=FIX.4.2|9=192|35=D|49=Client|56=TradingGateway|34=408|52=20120807-14:34:06.053|11=20120807-153405-9915187|1=TestAccount|63=0|21=1|111=0|55=MSFT|54=1|60=20120807-15:34:06.053|38=100000|40=1|15=USD|59=0|47=I|10=194|
8=FIX.4.2|9=192|35=D|49=Client|56=TradingGateway|34=409|52=20120807-14:34:06.069|11=20120807-153406-0695097|1=TestAccount|63=0|21=1|111=0|55=MSFT|54=1|60=20120807-15:34:06.069|38=100000|40=1|15=USD|59=0|47=I|10=206|
8=FIX.4.2|9=192|35=D|49=Client|56=TradingGateway|34=410|52=20120807-14:34:06.147|11=20120807-153406-0851079|1=TestAccount|63=0|21=1|111=0|55=MSFT|54=1|60=20120807-15:34:06.147|38=100000|40=1|15=USD|59=0|47=I|10=186|
8=FIX.4.2|9=192|35=D|49=Client|56=TradingGateway|34=411|52=20120807-14:34:06.178|11=20120807-153406-1786971|1=TestAccount|63=0|21=1|111=0|55=MSFT|54=1|60=20120807-15:34:06.178|38=100000|40=1|15=USD|59=0|47=I|10=204|
8=FIX.4.2|9=192|35=D|49=Client|56=TradingGateway|34=412|52=20120807-14:34:06.256|11=20120807-153406-1942953|1=TestAccount|63=0|21=1|111=0|55=MSFT|54=1|60=20120807-15:34:06.256|38=100000|40=1|15=USD|59=0|47=I|10=193|
8=FIX.4.2|9=192|35=D|49=Client|56=TradingGateway|34=413|52=20120807-14:34:06.319|11=20120807-153406-2722863|1=TestAccount|63=0|21=1|111=0|55=MSFT|54=1|60=20120807-15:34:06.319|38=100000|40=1|15=USD|59=0|47=I|10=191|
8=FIX.4.2|9=192|35=D|49=Client|56=TradingGateway|34=414|52=20120807-14:34:06.350|11=20120807-153406-3502773|1=TestAccount|63=0|21=1|111=0|55=MSFT|54=1|60=20120807-15:34:06.350|38=100000|40=1|15=USD|59=0|47=I|10=179|
8=FIX.4.2|9=192|35=D|49=Client|56=TradingGateway|34=415|52=20120807-14:34:06.428|11=20120807-153406-3658755|1=TestAccount|63=0|21=1|111=0|55=MSFT|54=1|60=20120807-15:34:06.428|38=100000|40=1|15=USD|59=0|47=I|10=204|
8=FIX.4.2|9=192|35=D|49=Client|56=TradingGateway|34=416|52=20120807-14:34:06.506|11=20120807-153406-4438665|1=TestAccount|63=0|21=1|111=0|55=MSFT|54=1|60=20120807-15:34:06.506|38=100000|40=1|15=USD|59=0|47=I|10=196|
8=FIX.4.2|9=192|35=D|49=Client|56=TradingGateway|34=417|52=20120807-14:34:06.521|11=20120807-153406-5218575|1=TestAccount|63=0|21=1|111=0|55=MSFT|54=1|60=20120807-15:34:06.521|38=100000|40=1|15=USD|59=0|47=I|10=188|
8=FIX.4.2|9=192|35=D|49=Client|56=TradingGateway|34=418|52=20120807-14:34:06.584|11=20120807-153406-5374557|1=TestAccount|63=0|21=1|111=0|55=MSFT|54=1|60=20120807-15:34:06.584|38=100000|40=1|15=USD|59=0|47=I|10=210|
8=FIX.4.2|9=192|35=D|49=Client|56=TradingGateway|34=419|52=20120807-14:34:06.615|11=20120807-153406-6154467|1=TestAccount|63=0|21=1|111=0|55=MSFT|54=1|60=20120807-15:34:06.615|38=100000|40=1|15=USD|59=0|47=I|10=198|
8=FIX.4.2|9=192|35=D|49=Client|56=TradingGateway|34=420|52=20120807-14:34:06.693|11=20120807-153406-6310449|1=TestAccount|63=0|21=1|111=0|55=MSFT|54=1|60=20120807-15:34:06.693|38=100000|40=1|15=USD|59=0|47=I|10=196|
8=FIX.4.2|9=192|35=D|49=Client|56=TradingGateway|34=421|52=20120807-14:34:06.755|11=20120807-153406-7090359|1=TestAccount|63=0|21=1|111=0|55=MSFT|54=1|60=20120807-15:34:06.755|38=100000|40=1|15=USD|59=0|47=I|10=201|
8=FIX.4.2|9=192|35=D|49=Client|56=TradingGateway|34=422|52=20120807-14:34:06.787|11=20120807-153406-7870269|1=TestAccount|63=0|21=1|111=0|55=MSFT|54=1|60=20120807-15:34:06.787|38=100000|40=1|15=USD|59=0|47=I|10=218|
8=FIX.4.2|9=192|35=D|49=Client|56=TradingGateway|34=423|52=20120807-14:34:06.865|11=20120807-153406-8026251|1=TestAccount|63=0|21=1|111=0|55=MSFT|54=1|60=20120807-15:34:06.865|38=100000|40=1|15=USD|59=0|47=I|10=198|
8=FIX.4.2|9=192|35=D|49=Client|56=TradingGateway|34=424|52=20120807-14:34:06.927|11=20120807-153406-8806161|1=TestAccount|63=0|21=1|111=0|55=MSFT|54=1|60=20120807-15:34:06.927|38=100000|40=1|15=USD|59=0|47=I|10=203|
8=FIX.4.2|9=192|35=D|49=Client|56=TradingGateway|34=425|52=20120807-14:34:06.943|11=20120807-153406-9430089|1=TestAccount|63=0|21=1|111=0|55=MSFT|54=1|60=20120807-15:34:06.943|38=100000|40=1|15=USD|59=0|47=I|10=203|
8=FIX.4.2|9=192|35=D|49=Client|56=TradingGateway|34=426|52=20120807-14:34:07.036|11=20120807-153406-9742053|1=TestAccount|63=0|21=1|111=0|55=MSFT|54=1|60=20120807-15:34:07.036|38=100000|40=1|15=USD|59=0|47=I|10=189|
8=FIX.4.2|9=192|35=D|49=Client|56=TradingGateway|34=427|52=20120807-14:34:07.098|11=20120807-153407-0521963|1=TestAccount|63=0|21=1|111=0|55=MSFT|54=1|60=20120807-15:34:07.098|38=100000|40=1|15=USD|59=0|47=I|10=203|
8=FIX.4.2|9=192|35=D|49=Client|56=TradingGateway|34=428|52=20120807-14:34:07.114|11=20120807-153407-1145891|1=TestAccount|63=0|21=1|111=0|55=MSFT|54=1|60=20120807-15:34:07.114|38=100000|40=1|15=USD|59=0|47=I|10=185|
8=FIX.4.2|9=192|35=D|49=Client|56=TradingGateway|34=429|52=20120807-14:34:07.192|11=20120807-153407-1301873|1=TestAccount|63=0|21=1|111=0|55=MSFT|54=1|60=20120807-15:34:07.192|38=100000|40=1|15=USD|59=0|47=I|10=192|
8=FIX.4.2|9=192|35=D|49=Client|56=TradingGateway|34=430|52=20120807-14:34:07.270|11=20120807-153407-2081783|1=TestAccount|63=0|21=1|111=0|55=MSFT|54=1|60=20120807-15:34:07.270|38=100000|40=1|15=USD|59=0|47=I|10=184|
8=FIX.4.2|9=192|35=D|49=Client|56=TradingGateway|34=431|52=20120807-14:34:07.286|11=20120807-153407-2861693|1=TestAccount|63=0|21=1|111=0|55=MSFT|54=1|60=20120807-15:34:07.286|38=100000|40=1|15=USD|59=0|47=I|10=205|
8=FIX.4.2|9=192|35=D|49=Client|56=TradingGateway|34=432|52=20120807-14:34:07.364|11=20120807-153407-3017675|1=TestAccount|63=0|21=1|111=0|55=MSFT|54=1|60=20120807-15:34:07.364|38=100000|40=1|15=USD|59=0|47=I|10=194|
8=FIX.4.2|9=192|35=D|49=Client|56=TradingGateway|34=433|52=20120807-14:34:07.442|11=20120807-153407-3797585|1=TestAccount|63=0|21=1|111=0|55=MSFT|54=1|60=20120807-15:34:07.442|38=100000|40=1|15=USD|59=0|47=I|10=204|
8=FIX.4.2|9=192|35=D|49=Client|56=TradingGateway|34=434|52=20120807-14:34:07.457|11=20120807-153407-4577495|1=TestAccount|63=0|21=1|111=0|55=MSFT|54=1|60=20120807-15:34:07.457|38=100000|40=1|15=USD|59=0|47=I|10=214|
8=FIX.4.2|9=192|35=D|49=Client|56=TradingGateway|34=435|52=20120807-14:34:07.535|11=20120807-153407-4733477|1=TestAccount|63=0|21=1|111=0|55=MSFT|54=1|60=20120807-15:34:07.535|38=100000|40=1|15=USD|59=0|47=I|10=203|
8=FIX.4.2|9=192|35=D|49=Client|56=TradingGateway|34=436|52=20120807-14:34:07.613|11=20120807-153407-5513387|1=TestAccount|63=0|21=1|111=0|55=MSFT|54=1|60=20120807-15:34:07.613|38=100000|40=1|15=USD|59=0|47=I|10=195|
8=FIX.4.2|9=192|35=D|49=Client|56=TradingGateway|34=437|52=20120807-14:34:07.629|11=20120807-153407-6293297|1=TestAccount|63=0|21=1|111=0|55=MSFT|54=1|60=20120807-15:34:07.629|38=100000|40=1|15=USD|59=0|47=I|10=216|
8=FIX.4.2|9=192|35=D|49=Client|56=TradingGateway|34=438|52=20120807-14:34:07.707|11=20120807-153407-6449279|1=TestAccount|63=0|21=1|111=0|55=MSFT|54=1|60=20120807-15:34:07.707|38=100000|40=1|15=USD|59=0|47=I|10=214|
8=FIX.4.2|9=192|35=D|49=Client|56=TradingGateway|34=439|52=20120807-14:34:07.785|11=20120807-153407-7229189|1=TestAccount|63=0|21=1|111=0|55=MSFT|54=1|60=20120807-15:34:07.785|38=100000|40=1|15=USD|59=0|47=I|10=224|
8=FIX.4.2|9=192|35=D|49=Client|56=TradingGateway|34=440|52=20120807-14:34:07.800|11=20120807-153407-8009099|1=TestAccount|63=0|21=1|111=0|55=MSFT|54=1|60=20120807-15:34:07.800|38=100000|40=1|15=USD|59=0|47=I|10=189|
8=FIX.4.2|9=192|35=D|49=Client|56=TradingGateway|34=441|52=20120807-14:34:07.878|11=20120807-153407-8165081|1=TestAccount|63=0|21=1|111=0|55=MSFT|54=1|60=20120807-15:34:07.878|38=100000|40=1|15=USD|59=0|47=I|10=214|
8=FIX.4.2|9=192|35=D|49=Client|56=TradingGateway|34=442|52=20120807-14:34:07.956|11=20120807-153407-8944991|1=TestAccount|63=0|21=1|111=0|55=MSFT|54=1|60=20120807-15:34:07.956|38=100000|40=1|15=USD|59=0|47=I|10=224|
8=FIX.4.2|9=192|35=D|49=Client|56=TradingGateway|34=443|52=20120807-14:34:07.972|11=20120807-153407-9724901|1=TestAccount|63=0|21=1|111=0|55=MSFT|54=1|60=20120807-15:34:07.972|38=100000|40=1|15=USD|59=0|47=I|10=209|
8=FIX.4.2|9=192|35=D|49=Client|56=TradingGateway|34=444|52=20120807-14:34:08.034|11=20120807-153407-9880883|1=TestAccount|63=0|21=1|111=0|55=MSFT|54=1|60=20120807-15:34:08.034|38=100000|40=1|15=USD|59=0|47=I|10=202|
8=FIX.4.2|9=192|35=D|49=Client|56=TradingGateway|34=445|52=20120807-14:34:08.112|11=20120807-153408-0504811|1=TestAccount|63=0|21=1|111=0|55=MSFT|54=1|60=20120807-15:34:08.112|38=100000|40=1|15=USD|59=0|47=I|10=173|
8=FIX.4.2|9=192|35=D|49=Client|56=TradingGateway|34=446|52=20120807-14:34:08.144|11=20120807-153408-1440703|1=TestAccount|63=0|21=1|111=0|55=MSFT|54=1|60=20120807-15:34:08.144|38=100000|40=1|15=USD|59=0|47=I|10=184|
8=FIX.4.2|9=192|35=D|49=Client|56=TradingGateway|34=447|52=20120807-14:34:08.206|11=20120807-153408-1596685|1=TestAccount|63=0|21=1|111=0|55=MSFT|54=1|60=20120807-15:34:08.206|38=100000|40=1|15=USD|59=0|47=I|10=204|
8=FIX.4.2|9=192|35=D|49=Client|56=TradingGateway|34=448|52=20120807-14:34:08.284|11=20120807-153408-2220613|1=TestAccount|63=0|21=1|111=0|55=MSFT|54=1|60=20120807-15:34:08.284|38=100000|40=1|15=USD|59=0|47=I|10=193|
8=FIX.4.2|9=192|35=D|49=Client|56=TradingGateway|34=449|52=20120807-14:34:08.300|11=20120807-153408-3000523|1=TestAccount|63=0|21=1|111=0|55=MSFT|54=1|60=20120807-15:34:08.300|38=100000|40=1|15=USD|59=0|47=I|10=169|
8=FIX.4.2|9=192|35=D|49=Client|56=TradingGateway|34=450|52=20120807-14:34:08.378|11=20120807-153408-3156505|1=TestAccount|63=0|21=1|111=0|55=MSFT|54=1|60=20120807-15:34:08.378|38=100000|40=1|15=USD|59=0|47=I|10=203|
8=FIX.4.2|9=192|35=D|49=Client|56=TradingGateway|34=451|52=20120807-14:34:08.456|11=20120807-153408-3936415|1=TestAccount|63=0|21=1|111=0|55=MSFT|54=1|60=20120807-15:34:08.456|38=100000|40=1|15=USD|59=0|47=I|10=204|
8=FIX.4.2|9=192|35=D|49=Client|56=TradingGateway|34=452|52=20120807-14:34:08.471|11=20120807-153408-4716325|1=TestAccount|63=0|21=1|111=0|55=MSFT|54=1|60=20120807-15:34:08.471|38=100000|40=1|15=USD|59=0|47=I|10=196|
8=FIX.4.2|9=192|35=D|49=Client|56=TradingGateway|34=453|52=20120807-14:34:08.549|11=20120807-153408-4872307|1=TestAccount|63=0|21=1|111=0|55=MSFT|54=1|60=20120807-15:34:08.549|38=100000|40=1|15=USD|59=0|47=I|10=212|
8=FIX.4.2|9=192|35=D|49=Client|56=TradingGateway|34=454|52=20120807-14:34:08.627|11=20120807-153408-5652217|1=TestAccount|63=0|21=1|111=0|55=MSFT|54=1|60=20120807-15:34:08.627|38=100000|40=1|15=USD|59=0|47=I|10=204|
8=FIX.4.2|9=192|35=D|49=Client|56=TradingGateway|34=455|52=20120807-14:34:08.643|11=20120807-153408-6432127|1=TestAccount|63=0|21=1|111=0|55=MSFT|54=1|60=20120807-15:34:08.643|38=100000|40=1|15=USD|59=0|47=I|10=198|
8=FIX.4.2|9=192|35=D|49=Client|56=TradingGateway|34=457|52=20120807-14:34:42.678|11=20120807-153429-9503539|1=TestAccount|63=0|21=1|111=0|55=MSFT|54=1|60=20120807-15:34:42.678|38=100000|40=1|15=USD|59=0|47=I|10=224|
8=FIX.4.2|9=192|35=D|49=Client|56=TradingGateway|34=458|52=20120807-14:34:43.177|11=20120807-153442-6780497|1=TestAccount|63=0|21=1|111=0|55=MSFT|54=1|60=20120807-15:34:43.177|38=100000|40=1|15=USD|59=0|47=I|10=217|
8=FIX.4.2|9=192|35=D|49=Client|56=TradingGateway|34=459|52=20120807-14:34:43.255|11=20120807-153443-1771473|1=TestAccount|63=0|21=1|111=0|55=MSFT|54=1|60=20120807-15:34:43.255|38=100000|40=1|15=USD|59=0|47=I|10=202|
8=FIX.4.2|9=192|35=D|49=Client|56=TradingGateway|34=460|52=20120807-14:34:43.333|11=20120807-153443-2551313|1=TestAccount|63=0|21=1|111=0|55=MSFT|54=1|60=20120807-15:34:43.333|38=100000|40=1|15=USD|59=0|47=I|10=178|
8=FIX.4.2|9=192|35=D|49=Client|56=TradingGateway|34=461|52=20120807-14:34:43.395|11=20120807-153443-3331153|1=TestAccount|63=0|21=1|111=0|55=MSFT|54=1|60=20120807-15:34:43.395|38=100000|40=1|15=USD|59=0|47=I|10=194|
8=FIX.4.2|9=192|35=D|49=Client|56=TradingGateway|34=462|52=20120807-14:34:43.473|11=20120807-153443-3955025|1=TestAccount|63=0|21=1|111=0|55=MSFT|54=1|60=20120807-15:34:43.473|38=100000|40=1|15=USD|59=0|47=I|10=199|
8=FIX.4.2|9=192|35=D|49=Client|56=TradingGateway|34=463|52=20120807-14:34:43.489|11=20120807-153443-4890833|1=TestAccount|63=0|21=1|111=0|55=MSFT|54=1|60=20120807-15:34:43.489|38=100000|40=1|15=USD|59=0|47=I|10=220|
8=FIX.4.2|9=192|35=D|49=Client|56=TradingGateway|34=464|52=20120807-14:34:43.567|11=20120807-153443-5046801|1=TestAccount|63=0|21=1|111=0|55=MSFT|54=1|60=20120807-15:34:43.567|38=100000|40=1|15=USD|59=0|47=I|10=204|
8=FIX.4.2|9=192|35=D|49=Client|56=TradingGateway|34=465|52=20120807-14:34:43.645|11=20120807-153443-5826641|1=TestAccount|63=0|21=1|111=0|55=MSFT|54=1|60=20120807-15:34:43.645|38=100000|40=1|15=USD|59=0|47=I|10=207|
8=FIX.4.2|9=192|35=D|49=Client|56=TradingGateway|34=466|52=20120807-14:34:43.660|11=20120807-153443-6606481|1=TestAccount|63=0|21=1|111=0|55=MSFT|54=1|60=20120807-15:34:43.660|38=100000|40=1|15=USD|59=0|47=I|10=201|
8=FIX.4.2|9=192|35=D|49=Client|56=TradingGateway|34=467|52=20120807-14:34:54.001|11=20120807-153451-1159185|1=TestAccount|63=0|21=1|111=0|55=MSFT|54=1|60=20120807-15:34:54.001|38=100000|40=1|15=USD|59=0|47=I|10=182|
8=FIX.4.2|9=192|35=D|49=Client|56=TradingGateway|34=468|52=20120807-14:34:54.516|11=20120807-153454-0169233|1=TestAccount|63=0|21=1|111=0|55=MSFT|54=1|60=20120807-15:34:54.516|38=100000|40=1|15=USD|59=0|47=I|10=202|
8=FIX.4.2|9=192|35=D|49=Client|56=TradingGateway|34=469|52=20120807-14:34:54.578|11=20120807-153454-5160209|1=TestAccount|63=0|21=1|111=0|55=MSFT|54=1|60=20120807-15:34:54.578|38=100000|40=1|15=USD|59=0|47=I|10=218|
8=FIX.4.2|9=192|35=D|49=Client|56=TradingGateway|34=470|52=20120807-14:34:54.656|11=20120807-153454-5784081|1=TestAccount|63=0|21=1|111=0|55=MSFT|54=1|60=20120807-15:34:54.656|38=100000|40=1|15=USD|59=0|47=I|10=214|
8=FIX.4.2|9=192|35=D|49=Client|56=TradingGateway|34=471|52=20120807-14:34:54.718|11=20120807-153454-6563921|1=TestAccount|63=0|21=1|111=0|55=MSFT|54=1|60=20120807-15:34:54.718|38=100000|40=1|15=USD|59=0|47=I|10=212|
8=FIX.4.2|9=192|35=D|49=Client|56=TradingGateway|34=472|52=20120807-14:34:54.796|11=20120807-153454-7187793|1=TestAccount|63=0|21=1|111=0|55=MSFT|54=1|60=20120807-15:34:54.796|38=100000|40=1|15=USD|59=0|47=I|10=235|
8=FIX.4.2|9=192|35=D|49=Client|56=TradingGateway|34=473|52=20120807-14:34:54.812|11=20120807-153454-8123601|1=TestAccount|63=0|21=1|111=0|55=MSFT|54=1|60=20120807-15:34:54.812|38=100000|40=1|15=USD|59=0|47=I|10=193|
8=FIX.4.2|9=192|35=D|49=Client|56=TradingGateway|34=474|52=20120807-14:34:54.890|11=20120807-153454-8279569|1=TestAccount|63=0|21=1|111=0|55=MSFT|54=1|60=20120807-15:34:54.890|38=100000|40=1|15=USD|59=0|47=I|10=231|
8=FIX.4.2|9=192|35=D|49=Client|56=TradingGateway|34=475|52=20120807-14:34:54.968|11=20120807-153454-9059409|1=TestAccount|63=0|21=1|111=0|55=MSFT|54=1|60=20120807-15:34:54.968|38=100000|40=1|15=USD|59=0|47=I|10=234|
8=FIX.4.2|9=192|35=D|49=Client|56=TradingGateway|34=476|52=20120807-14:34:55.046|11=20120807-153454-9839249|1=TestAccount|63=0|21=1|111=0|55=MSFT|54=1|60=20120807-15:34:55.046|38=100000|40=1|15=USD|59=0|47=I|10=219|
8=FIX.4.2|9=192|35=D|49=Client|56=TradingGateway|34=477|52=20120807-14:34:55.061|11=20120807-153455-0463121|1=TestAccount|63=0|21=1|111=0|55=MSFT|54=1|60=20120807-15:34:55.061|38=100000|40=1|15=USD|59=0|47=I|10=188|
8=FIX.4.2|9=192|35=D|49=Client|56=TradingGateway|34=478|52=20120807-14:34:55.139|11=20120807-153455-0619089|1=TestAccount|63=0|21=1|111=0|55=MSFT|54=1|60=20120807-15:34:55.139|38=100000|40=1|15=USD|59=0|47=I|10=217|
8=FIX.4.2|9=192|35=D|49=Client|56=TradingGateway|34=479|52=20120807-14:34:55.202|11=20120807-153455-1554897|1=TestAccount|63=0|21=1|111=0|55=MSFT|54=1|60=20120807-15:34:55.202|38=100000|40=1|15=USD|59=0|47=I|10=206|
8=FIX.4.2|9=192|35=D|49=Client|56=TradingGateway|34=480|52=20120807-14:34:55.217|11=20120807-153455-2178769|1=TestAccount|63=0|21=1|111=0|55=MSFT|54=1|60=20120807-15:34:55.217|38=100000|40=1|15=USD|59=0|47=I|10=211|
8=FIX.4.2|9=192|35=D|49=Client|56=TradingGateway|34=481|52=20120807-14:34:55.295|11=20120807-153455-2334737|1=TestAccount|63=0|21=1|111=0|55=MSFT|54=1|60=20120807-15:34:55.295|38=100000|40=1|15=USD|59=0|47=I|10=213|
8=FIX.4.2|9=192|35=D|49=Client|56=TradingGateway|34=482|52=20120807-14:34:55.373|11=20120807-153455-3114577|1=TestAccount|63=0|21=1|111=0|55=MSFT|54=1|60=20120807-15:34:55.373|38=100000|40=1|15=USD|59=0|47=I|10=207|
8=FIX.4.2|9=192|35=D|49=Client|56=TradingGateway|34=483|52=20120807-14:34:55.389|11=20120807-153455-3894417|1=TestAccount|63=0|21=1|111=0|55=MSFT|54=1|60=20120807-15:34:55.389|38=100000|40=1|15=USD|59=0|47=I|10=230|
8=FIX.4.2|9=192|35=D|49=Client|56=TradingGateway|34=484|52=20120807-14:34:55.467|11=20120807-153455-4050385|1=TestAccount|63=0|21=1|111=0|55=MSFT|54=1|60=20120807-15:34:55.467|38=100000|40=1|15=USD|59=0|47=I|10=214|
8=FIX.4.2|9=192|35=D|49=Client|56=TradingGateway|34=485|52=20120807-14:34:55.545|11=20120807-153455-4830225|1=TestAccount|63=0|21=1|111=0|55=MSFT|54=1|60=20120807-15:34:55.545|38=100000|40=1|15=USD|59=0|47=I|10=208|
8=FIX.4.2|9=192|35=D|49=Client|56=TradingGateway|34=486|52=20120807-14:34:55.561|11=20120807-153455-5610065|1=TestAccount|63=0|21=1|111=0|55=MSFT|54=1|60=20120807-15:34:55.561|38=100000|40=1|15=USD|59=0|47=I|10=204|
8=FIX.4.2|9=192|35=D|49=Client|56=TradingGateway|34=487|52=20120807-14:34:55.638|11=20120807-153455-5766033|1=TestAccount|63=0|21=1|111=0|55=MSFT|54=1|60=20120807-15:34:55.638|38=100000|40=1|15=USD|59=0|47=I|10=222|
8=FIX.4.2|9=192|35=D|49=Client|56=TradingGateway|34=488|52=20120807-14:34:55.701|11=20120807-153455-6545873|1=TestAccount|63=0|21=1|111=0|55=MSFT|54=1|60=20120807-15:34:55.701|38=100000|40=1|15=USD|59=0|47=I|10=213|
8=FIX.4.2|9=192|35=D|49=Client|56=TradingGateway|34=489|52=20120807-14:34:55.779|11=20120807-153455-7325713|1=TestAccount|63=0|21=1|111=0|55=MSFT|54=1|60=20120807-15:34:55.779|38=100000|40=1|15=USD|59=0|47=I|10=234|
8=FIX.4.2|9=192|35=D|49=Client|56=TradingGateway|34=490|52=20120807-14:34:55.794|11=20120807-153455-7949585|1=TestAccount|63=0|21=1|111=0|55=MSFT|54=1|60=20120807-15:34:55.794|38=100000|40=1|15=USD|59=0|47=I|10=239|
8=FIX.4.2|9=192|35=D|49=Client|56=TradingGateway|34=491|52=20120807-14:34:55.872|11=20120807-153455-8105553|1=TestAccount|63=0|21=1|111=0|55=MSFT|54=1|60=20120807-15:34:55.872|38=100000|40=1|15=USD|59=0|47=I|10=214|
