8=FIX.4.2|9=190|35=D|49=Client|56=TradingGateway|34=4|52=20120601-09:36:26.635|11=20120601-103623-4844048|1=TestAccount|63=0|21=1|111=0|55=MSFT|54=1|60=20120601-10:36:26.635|38=100000|40=1|15=USD|59=0|47=I|10=072|