8=FIX.4.2|9=257|35=8|49=TradingGateway|56=Client|34=4|52=20120601-09:36:26.713|37=OrderID_103626|11=20120601-103623-4844048|17=ExecID_1|20=0|150=0|39=0|1=TestAccount|63=0|55=MSFT|54=1|38=100000|40=1|15=USD|59=0|32=0|31=0|151=100000|14=0|6=0|60=20120601-10:36:26|21=1|111=0|10=073|
8=FIX.4.2|9=270|35=8|49=TradingGateway|56=Client|34=5|52=20120601-09:36:26.713|37=OrderID_103626|11=20120601-103623-4844048|17=ExecID_2|20=0|150=2|39=2|1=TestAccount|63=0|55=MSFT|54=1|38=100000|40=1|15=USD|59=0|32=100000|31=100.5|151=0|14=100000|6=100.5|60=20120601-10:36:26|21=1|111=0|10=195|
8=FIX.4.2|9=257|35=8|49=TradingGateway|56=Client|34=6|52=20120601-09:36:28.554|37=OrderID_103628|11=20120601-103626-6514687|17=ExecID_3|20=0|150=0|39=0|1=TestAccount|63=0|55=MSFT|54=1|38=100000|40=1|15=USD|59=0|32=0|31=0|151=100000|14=0|6=0|60=20120601-10:36:28|21=1|111=0|10=094|
8=FIX.4.2|9=266|35=8|49=TradingGateway|56=Client|34=7|52=20120601-09:36:28.554|37=OrderID_103628|11=20120601-103626-6514687|17=ExecID_4|20=0|150=2|39=2|1=TestAccount|63=0|55=MSFT|54=1|38=100000|40=1|15=USD|59=0|32=100000|31=100|151=0|14=100000|6=100|60=20120601-10:36:28|21=1|111=0|10=023|
8=FIX.4.2|9=257|35=8|49=TradingGateway|56=Client|34=8|52=20120601-09:36:28.976|37=OrderID_103628|11=20120601-103628-5392260|17=ExecID_5|20=0|150=0|39=0|1=TestAccount|63=0|55=MSFT|54=1|38=100000|40=1|15=USD|59=0|32=0|31=0|151=100000|14=0|6=0|60=20120601-10:36:28|21=1|111=0|10=098|
8=FIX.4.2|9=266|35=8|49=TradingGateway|56=Client|34=9|52=20120601-09:36:28.976|37=OrderID_103628|11=20120601-103628-5392260|17=ExecID_6|20=0|150=2|39=2|1=TestAccount|63=0|55=MSFT|54=1|38=100000|40=1|15=USD|59=0|32=100000|31=100|151=0|14=100000|6=100|60=20120601-10:36:28|21=1|111=0|10=027|
8=FIX.4.2|9=258|35=8|49=TradingGateway|56=Client|34=10|52=20120601-09:36:29.178|37=OrderID_103629|11=20120601-103628-9448598|17=ExecID_7|20=0|150=0|39=0|1=TestAccount|63=0|55=MSFT|54=1|38=100000|40=1|15=USD|59=0|32=0|31=0|151=100000|14=0|6=0|60=20120601-10:36:29|21=1|111=0|10=159|
8=FIX.4.2|9=267|35=8|49=TradingGateway|56=Client|34=11|52=20120601-09:36:29.178|37=OrderID_103629|11=20120601-103628-9448598|17=ExecID_8|20=0|150=2|39=2|1=TestAccount|63=0|55=MSFT|54=1|38=100000|40=1|15=USD|59=0|32=100000|31=100|151=0|14=100000|6=100|60=20120601-10:36:29|21=1|111=0|10=088|
8=FIX.4.2|9=258|35=8|49=TradingGateway|56=Client|34=12|52=20120601-09:36:29.366|37=OrderID_103629|11=20120601-103629-1632780|17=ExecID_9|20=0|150=0|39=0|1=TestAccount|63=0|55=MSFT|54=1|38=100000|40=1|15=USD|59=0|32=0|31=0|151=100000|14=0|6=0|60=20120601-10:36:29|21=1|111=0|10=143|
8=FIX.4.2|9=272|35=8|49=TradingGateway|56=Client|34=13|52=20120601-09:36:29.366|37=OrderID_103629|11=20120601-103629-1632780|17=ExecID_10|20=0|150=2|39=2|1=TestAccount|63=0|55=MSFT|54=1|38=100000|40=1|15=USD|59=0|32=100000|31=101.5|151=0|14=100000|6=101.5|60=20120601-10:36:29|21=1|111=0|10=051|
8=FIX.4.2|9=259|35=8|49=TradingGateway|56=Client|34=14|52=20120601-09:36:29.522|37=OrderID_103629|11=20120601-103629-3504936|17=ExecID_11|20=0|150=0|39=0|1=TestAccount|63=0|55=MSFT|54=1|38=100000|40=1|15=USD|59=0|32=0|31=0|151=100000|14=0|6=0|60=20120601-10:36:29|21=1|111=0|10=184|
8=FIX.4.2|9=272|35=8|49=TradingGateway|56=Client|34=15|52=20120601-09:36:29.522|37=OrderID_103629|11=20120601-103629-3504936|17=ExecID_12|20=0|150=2|39=2|1=TestAccount|63=0|55=MSFT|54=1|38=100000|40=1|15=USD|59=0|32=100000|31=100.5|151=0|14=100000|6=100.5|60=20120601-10:36:29|21=1|111=0|10=050|
8=FIX.4.2|9=259|35=8|49=TradingGateway|56=Client|34=16|52=20120601-09:36:29.693|37=OrderID_103629|11=20120601-103629-5065066|17=ExecID_13|20=0|150=0|39=0|1=TestAccount|63=0|55=MSFT|54=1|38=100000|40=1|15=USD|59=0|32=0|31=0|151=100000|14=0|6=0|60=20120601-10:36:29|21=1|111=0|10=195|
8=FIX.4.2|9=268|35=8|49=TradingGateway|56=Client|34=17|52=20120601-09:36:29.693|37=OrderID_103629|11=20120601-103629-5065066|17=ExecID_14|20=0|150=2|39=2|1=TestAccount|63=0|55=MSFT|54=1|38=100000|40=1|15=USD|59=0|32=100000|31=101|151=0|14=100000|6=101|60=20120601-10:36:29|21=1|111=0|10=126|
8=FIX.4.2|9=259|35=8|49=TradingGateway|56=Client|34=18|52=20120601-09:36:29.865|37=OrderID_103629|11=20120601-103629-6781209|17=ExecID_15|20=0|150=0|39=0|1=TestAccount|63=0|55=MSFT|54=1|38=100000|40=1|15=USD|59=0|32=0|31=0|151=100000|14=0|6=0|60=20120601-10:36:29|21=1|111=0|10=205|
8=FIX.4.2|9=268|35=8|49=TradingGateway|56=Client|34=19|52=20120601-09:36:29.865|37=OrderID_103629|11=20120601-103629-6781209|17=ExecID_16|20=0|150=2|39=2|1=TestAccount|63=0|55=MSFT|54=1|38=100000|40=1|15=USD|59=0|32=100000|31=101|151=0|14=100000|6=101|60=20120601-10:36:29|21=1|111=0|10=136|
8=FIX.4.2|9=259|35=8|49=TradingGateway|56=Client|34=20|52=20120601-09:36:30.068|37=OrderID_103630|11=20120601-103629-8497352|17=ExecID_17|20=0|150=0|39=0|1=TestAccount|63=0|55=MSFT|54=1|38=100000|40=1|15=USD|59=0|32=0|31=0|151=100000|14=0|6=0|60=20120601-10:36:30|21=1|111=0|10=176|
8=FIX.4.2|9=268|35=8|49=TradingGateway|56=Client|34=21|52=20120601-09:36:30.068|37=OrderID_103630|11=20120601-103629-8497352|17=ExecID_18|20=0|150=2|39=2|1=TestAccount|63=0|55=MSFT|54=1|38=100000|40=1|15=USD|59=0|32=100000|31=101|151=0|14=100000|6=101|60=20120601-10:36:30|21=1|111=0|10=107|
8=FIX.4.2|9=259|35=8|49=TradingGateway|56=Client|34=22|52=20120601-09:36:30.224|37=OrderID_103630|11=20120601-103630-0369508|17=ExecID_19|20=0|150=0|39=0|1=TestAccount|63=0|55=MSFT|54=1|38=100000|40=1|15=USD|59=0|32=0|31=0|151=100000|14=0|6=0|60=20120601-10:36:30|21=1|111=0|10=159|
8=FIX.4.2|9=268|35=8|49=TradingGateway|56=Client|34=23|52=20120601-09:36:30.224|37=OrderID_103630|11=20120601-103630-0369508|17=ExecID_20|20=0|150=2|39=2|1=TestAccount|63=0|55=MSFT|54=1|38=100000|40=1|15=USD|59=0|32=100000|31=102|151=0|14=100000|6=102|60=20120601-10:36:30|21=1|111=0|10=083|
8=FIX.4.2|9=259|35=8|49=TradingGateway|56=Client|34=24|52=20120601-09:36:30.411|37=OrderID_103630|11=20120601-103630-2085651|17=ExecID_21|20=0|150=0|39=0|1=TestAccount|63=0|55=MSFT|54=1|38=100000|40=1|15=USD|59=0|32=0|31=0|151=100000|14=0|6=0|60=20120601-10:36:30|21=1|111=0|10=148|
8=FIX.4.2|9=272|35=8|49=TradingGateway|56=Client|34=25|52=20120601-09:36:30.411|37=OrderID_103630|11=20120601-103630-2085651|17=ExecID_22|20=0|150=2|39=2|1=TestAccount|63=0|55=MSFT|54=1|38=100000|40=1|15=USD|59=0|32=100000|31=101.5|151=0|14=100000|6=101.5|60=20120601-10:36:30|21=1|111=0|10=016|
8=FIX.4.2|9=259|35=8|49=TradingGateway|56=Client|34=26|52=20120601-09:36:30.598|37=OrderID_103630|11=20120601-103630-3957807|17=ExecID_23|20=0|150=0|39=0|1=TestAccount|63=0|55=MSFT|54=1|38=100000|40=1|15=USD|59=0|32=0|31=0|151=100000|14=0|6=0|60=20120601-10:36:30|21=1|111=0|10=180|
8=FIX.4.2|9=268|35=8|49=TradingGateway|56=Client|34=27|52=20120601-09:36:30.598|37=OrderID_103630|11=20120601-103630-3957807|17=ExecID_24|20=0|150=2|39=2|1=TestAccount|63=0|55=MSFT|54=1|38=100000|40=1|15=USD|59=0|32=100000|31=101|151=0|14=100000|6=101|60=20120601-10:36:30|21=1|111=0|10=111|
8=FIX.4.2|9=259|35=8|49=TradingGateway|56=Client|34=28|52=20120601-09:36:30.785|37=OrderID_103630|11=20120601-103630-5829963|17=ExecID_25|20=0|150=0|39=0|1=TestAccount|63=0|55=MSFT|54=1|38=100000|40=1|15=USD|59=0|32=0|31=0|151=100000|14=0|6=0|60=20120601-10:36:30|21=1|111=0|10=185|
8=FIX.4.2|9=268|35=8|49=TradingGateway|56=Client|34=29|52=20120601-09:36:30.785|37=OrderID_103630|11=20120601-103630-5829963|17=ExecID_26|20=0|150=2|39=2|1=TestAccount|63=0|55=MSFT|54=1|38=100000|40=1|15=USD|59=0|32=100000|31=100|151=0|14=100000|6=100|60=20120601-10:36:30|21=1|111=0|10=114|
8=FIX.4.2|9=259|35=8|49=TradingGateway|56=Client|34=30|52=20120601-09:36:30.941|37=OrderID_103630|11=20120601-103630-7702119|17=ExecID_27|20=0|150=0|39=0|1=TestAccount|63=0|55=MSFT|54=1|38=100000|40=1|15=USD|59=0|32=0|31=0|151=100000|14=0|6=0|60=20120601-10:36:30|21=1|111=0|10=159|
8=FIX.4.2|9=268|35=8|49=TradingGateway|56=Client|34=31|52=20120601-09:36:30.941|37=OrderID_103630|11=20120601-103630-7702119|17=ExecID_28|20=0|150=2|39=2|1=TestAccount|63=0|55=MSFT|54=1|38=100000|40=1|15=USD|59=0|32=100000|31=101|151=0|14=100000|6=101|60=20120601-10:36:30|21=1|111=0|10=090|
8=FIX.4.2|9=259|35=8|49=TradingGateway|56=Client|34=32|52=20120601-09:36:31.129|37=OrderID_103631|11=20120601-103630-9262249|17=ExecID_29|20=0|150=0|39=0|1=TestAccount|63=0|55=MSFT|54=1|38=100000|40=1|15=USD|59=0|32=0|31=0|151=100000|14=0|6=0|60=20120601-10:36:31|21=1|111=0|10=171|
8=FIX.4.2|9=272|35=8|49=TradingGateway|56=Client|34=33|52=20120601-09:36:31.129|37=OrderID_103631|11=20120601-103630-9262249|17=ExecID_30|20=0|150=2|39=2|1=TestAccount|63=0|55=MSFT|54=1|38=100000|40=1|15=USD|59=0|32=100000|31=101.5|151=0|14=100000|6=101.5|60=20120601-10:36:31|21=1|111=0|10=030|
8=FIX.4.2|9=259|35=8|49=TradingGateway|56=Client|34=34|52=20120601-09:36:31.316|37=OrderID_103631|11=20120601-103631-1134405|17=ExecID_31|20=0|150=0|39=0|1=TestAccount|63=0|55=MSFT|54=1|38=100000|40=1|15=USD|59=0|32=0|31=0|151=100000|14=0|6=0|60=20120601-10:36:31|21=1|111=0|10=149|
8=FIX.4.2|9=268|35=8|49=TradingGateway|56=Client|34=35|52=20120601-09:36:31.316|37=OrderID_103631|11=20120601-103631-1134405|17=ExecID_32|20=0|150=2|39=2|1=TestAccount|63=0|55=MSFT|54=1|38=100000|40=1|15=USD|59=0|32=100000|31=101|151=0|14=100000|6=101|60=20120601-10:36:31|21=1|111=0|10=080|
8=FIX.4.2|9=259|35=8|49=TradingGateway|56=Client|34=36|52=20120601-09:36:31.503|37=OrderID_103631|11=20120601-103631-3006561|17=ExecID_33|20=0|150=0|39=0|1=TestAccount|63=0|55=MSFT|54=1|38=100000|40=1|15=USD|59=0|32=0|31=0|151=100000|14=0|6=0|60=20120601-10:36:31|21=1|111=0|10=154|
8=FIX.4.2|9=272|35=8|49=TradingGateway|56=Client|34=37|52=20120601-09:36:31.503|37=OrderID_103631|11=20120601-103631-3006561|17=ExecID_34|20=0|150=2|39=2|1=TestAccount|63=0|55=MSFT|54=1|38=100000|40=1|15=USD|59=0|32=100000|31=100.5|151=0|14=100000|6=100.5|60=20120601-10:36:31|21=1|111=0|10=020|
8=FIX.4.2|9=259|35=8|49=TradingGateway|56=Client|34=38|52=20120601-09:36:31.675|37=OrderID_103631|11=20120601-103631-4878717|17=ExecID_35|20=0|150=0|39=0|1=TestAccount|63=0|55=MSFT|54=1|38=100000|40=1|15=USD|59=0|32=0|31=0|151=100000|14=0|6=0|60=20120601-10:36:31|21=1|111=0|10=189|
8=FIX.4.2|9=268|35=8|49=TradingGateway|56=Client|34=39|52=20120601-09:36:31.675|37=OrderID_103631|11=20120601-103631-4878717|17=ExecID_36|20=0|150=2|39=2|1=TestAccount|63=0|55=MSFT|54=1|38=100000|40=1|15=USD|59=0|32=100000|31=100|151=0|14=100000|6=100|60=20120601-10:36:31|21=1|111=0|10=118|
8=FIX.4.2|9=259|35=8|49=TradingGateway|56=Client|34=40|52=20120601-09:36:31.862|37=OrderID_103631|11=20120601-103631-6594860|17=ExecID_37|20=0|150=0|39=0|1=TestAccount|63=0|55=MSFT|54=1|38=100000|40=1|15=USD|59=0|32=0|31=0|151=100000|14=0|6=0|60=20120601-10:36:31|21=1|111=0|10=178|
8=FIX.4.2|9=272|35=8|49=TradingGateway|56=Client|34=41|52=20120601-09:36:31.862|37=OrderID_103631|11=20120601-103631-6594860|17=ExecID_38|20=0|150=2|39=2|1=TestAccount|63=0|55=MSFT|54=1|38=100000|40=1|15=USD|59=0|32=100000|31=101.5|151=0|14=100000|6=101.5|60=20120601-10:36:31|21=1|111=0|10=046|
8=FIX.4.2|9=259|35=8|49=TradingGateway|56=Client|34=42|52=20120601-09:36:32.033|37=OrderID_103632|11=20120601-103631-8467016|17=ExecID_39|20=0|150=0|39=0|1=TestAccount|63=0|55=MSFT|54=1|38=100000|40=1|15=USD|59=0|32=0|31=0|151=100000|14=0|6=0|60=20120601-10:36:32|21=1|111=0|10=169|
8=FIX.4.2|9=268|35=8|49=TradingGateway|56=Client|34=43|52=20120601-09:36:32.033|37=OrderID_103632|11=20120601-103631-8467016|17=ExecID_40|20=0|150=2|39=2|1=TestAccount|63=0|55=MSFT|54=1|38=100000|40=1|15=USD|59=0|32=100000|31=100|151=0|14=100000|6=100|60=20120601-10:36:32|21=1|111=0|10=089|
8=FIX.4.2|9=259|35=8|49=TradingGateway|56=Client|34=44|52=20120601-09:36:32.252|37=OrderID_103632|11=20120601-103632-0339172|17=ExecID_41|20=0|150=0|39=0|1=TestAccount|63=0|55=MSFT|54=1|38=100000|40=1|15=USD|59=0|32=0|31=0|151=100000|14=0|6=0|60=20120601-10:36:32|21=1|111=0|10=161|
8=FIX.4.2|9=268|35=8|49=TradingGateway|56=Client|34=45|52=20120601-09:36:32.252|37=OrderID_103632|11=20120601-103632-0339172|17=ExecID_42|20=0|150=2|39=2|1=TestAccount|63=0|55=MSFT|54=1|38=100000|40=1|15=USD|59=0|32=100000|31=101|151=0|14=100000|6=101|60=20120601-10:36:32|21=1|111=0|10=092|
8=FIX.4.2|9=259|35=8|49=TradingGateway|56=Client|34=46|52=20120601-09:36:32.626|37=OrderID_103632|11=20120601-103632-2367341|17=ExecID_43|20=0|150=0|39=0|1=TestAccount|63=0|55=MSFT|54=1|38=100000|40=1|15=USD|59=0|32=0|31=0|151=100000|14=0|6=0|60=20120601-10:36:32|21=1|111=0|10=171|
8=FIX.4.2|9=272|35=8|49=TradingGateway|56=Client|34=47|52=20120601-09:36:32.626|37=OrderID_103632|11=20120601-103632-2367341|17=ExecID_44|20=0|150=2|39=2|1=TestAccount|63=0|55=MSFT|54=1|38=100000|40=1|15=USD|59=0|32=100000|31=101.5|151=0|14=100000|6=101.5|60=20120601-10:36:32|21=1|111=0|10=039|
8=FIX.4.2|9=259|35=8|49=TradingGateway|56=Client|34=48|52=20120601-09:36:32.813|37=OrderID_103632|11=20120601-103632-6111653|17=ExecID_45|20=0|150=0|39=0|1=TestAccount|63=0|55=MSFT|54=1|38=100000|40=1|15=USD|59=0|32=0|31=0|151=100000|14=0|6=0|60=20120601-10:36:32|21=1|111=0|10=170|
8=FIX.4.2|9=268|35=8|49=TradingGateway|56=Client|34=49|52=20120601-09:36:32.813|37=OrderID_103632|11=20120601-103632-6111653|17=ExecID_46|20=0|150=2|39=2|1=TestAccount|63=0|55=MSFT|54=1|38=100000|40=1|15=USD|59=0|32=100000|31=101|151=0|14=100000|6=101|60=20120601-10:36:32|21=1|111=0|10=101|
8=FIX.4.2|9=259|35=8|49=TradingGateway|56=Client|34=50|52=20120601-09:36:33.001|37=OrderID_103633|11=20120601-103632-7983809|17=ExecID_47|20=0|150=0|39=0|1=TestAccount|63=0|55=MSFT|54=1|38=100000|40=1|15=USD|59=0|32=0|31=0|151=100000|14=0|6=0|60=20120601-10:36:33|21=1|111=0|10=178|
8=FIX.4.2|9=272|35=8|49=TradingGateway|56=Client|34=51|52=20120601-09:36:33.001|37=OrderID_103633|11=20120601-103632-7983809|17=ExecID_48|20=0|150=2|39=2|1=TestAccount|63=0|55=MSFT|54=1|38=100000|40=1|15=USD|59=0|32=100000|31=101.5|151=0|14=100000|6=101.5|60=20120601-10:36:33|21=1|111=0|10=046|
8=FIX.4.2|9=259|35=8|49=TradingGateway|56=Client|34=52|52=20120601-09:36:33.188|37=OrderID_103633|11=20120601-103632-9855965|17=ExecID_49|20=0|150=0|39=0|1=TestAccount|63=0|55=MSFT|54=1|38=100000|40=1|15=USD|59=0|32=0|31=0|151=100000|14=0|6=0|60=20120601-10:36:33|21=1|111=0|10=201|
8=FIX.4.2|9=268|35=8|49=TradingGateway|56=Client|34=53|52=20120601-09:36:33.188|37=OrderID_103633|11=20120601-103632-9855965|17=ExecID_50|20=0|150=2|39=2|1=TestAccount|63=0|55=MSFT|54=1|38=100000|40=1|15=USD|59=0|32=100000|31=101|151=0|14=100000|6=101|60=20120601-10:36:33|21=1|111=0|10=123|
8=FIX.4.2|9=259|35=8|49=TradingGateway|56=Client|34=54|52=20120601-09:36:33.375|37=OrderID_103633|11=20120601-103633-1728121|17=ExecID_51|20=0|150=0|39=0|1=TestAccount|63=0|55=MSFT|54=1|38=100000|40=1|15=USD|59=0|32=0|31=0|151=100000|14=0|6=0|60=20120601-10:36:33|21=1|111=0|10=170|
8=FIX.4.2|9=272|35=8|49=TradingGateway|56=Client|34=55|52=20120601-09:36:33.375|37=OrderID_103633|11=20120601-103633-1728121|17=ExecID_52|20=0|150=2|39=2|1=TestAccount|63=0|55=MSFT|54=1|38=100000|40=1|15=USD|59=0|32=100000|31=100.5|151=0|14=100000|6=100.5|60=20120601-10:36:33|21=1|111=0|10=036|
8=FIX.4.2|9=259|35=8|49=TradingGateway|56=Client|34=56|52=20120601-09:36:33.547|37=OrderID_103633|11=20120601-103633-3600277|17=ExecID_53|20=0|150=0|39=0|1=TestAccount|63=0|55=MSFT|54=1|38=100000|40=1|15=USD|59=0|32=0|31=0|151=100000|14=0|6=0|60=20120601-10:36:33|21=1|111=0|10=178|
8=FIX.4.2|9=268|35=8|49=TradingGateway|56=Client|34=57|52=20120601-09:36:33.547|37=OrderID_103633|11=20120601-103633-3600277|17=ExecID_54|20=0|150=2|39=2|1=TestAccount|63=0|55=MSFT|54=1|38=100000|40=1|15=USD|59=0|32=100000|31=100|151=0|14=100000|6=100|60=20120601-10:36:33|21=1|111=0|10=107|
8=FIX.4.2|9=259|35=8|49=TradingGateway|56=Client|34=58|52=20120601-09:36:33.734|37=OrderID_103633|11=20120601-103633-5316420|17=ExecID_55|20=0|150=0|39=0|1=TestAccount|63=0|55=MSFT|54=1|38=100000|40=1|15=USD|59=0|32=0|31=0|151=100000|14=0|6=0|60=20120601-10:36:33|21=1|111=0|10=176|
8=FIX.4.2|9=272|35=8|49=TradingGateway|56=Client|34=59|52=20120601-09:36:33.734|37=OrderID_103633|11=20120601-103633-5316420|17=ExecID_56|20=0|150=2|39=2|1=TestAccount|63=0|55=MSFT|54=1|38=100000|40=1|15=USD|59=0|32=100000|31=101.5|151=0|14=100000|6=101.5|60=20120601-10:36:33|21=1|111=0|10=044|
8=FIX.4.2|9=259|35=8|49=TradingGateway|56=Client|34=60|52=20120601-09:36:43.781|37=OrderID_103643|11=20120601-103633-7188576|17=ExecID_57|20=0|150=0|39=0|1=TestAccount|63=0|55=CSCO|54=2|38=100000|40=1|15=USD|59=0|32=0|31=0|151=100000|14=0|6=0|60=20120601-10:36:43|21=1|111=0|10=180|
8=FIX.4.2|9=268|35=8|49=TradingGateway|56=Client|34=61|52=20120601-09:36:43.797|37=OrderID_103643|11=20120601-103633-7188576|17=ExecID_58|20=0|150=2|39=2|1=TestAccount|63=0|55=CSCO|54=2|38=100000|40=1|15=USD|59=0|32=100000|31=102|151=0|14=100000|6=102|60=20120601-10:36:43|21=1|111=0|10=120|
8=FIX.4.2|9=259|35=8|49=TradingGateway|56=Client|34=62|52=20120601-09:36:43.968|37=OrderID_103643|11=20120601-103643-7660948|17=ExecID_59|20=0|150=0|39=0|1=TestAccount|63=0|55=CSCO|54=2|38=100000|40=1|15=USD|59=0|32=0|31=0|151=100000|14=0|6=0|60=20120601-10:36:43|21=1|111=0|10=190|
8=FIX.4.2|9=272|35=8|49=TradingGateway|56=Client|34=63|52=20120601-09:36:43.968|37=OrderID_103643|11=20120601-103643-7660948|17=ExecID_60|20=0|150=2|39=2|1=TestAccount|63=0|55=CSCO|54=2|38=100000|40=1|15=USD|59=0|32=100000|31=100.5|151=0|14=100000|6=100.5|60=20120601-10:36:43|21=1|111=0|10=047|
8=FIX.4.2|9=259|35=8|49=TradingGateway|56=Client|34=64|52=20120601-09:36:44.156|37=OrderID_103644|11=20120601-103643-9533104|17=ExecID_61|20=0|150=0|39=0|1=TestAccount|63=0|55=CSCO|54=2|38=100000|40=1|15=USD|59=0|32=0|31=0|151=100000|14=0|6=0|60=20120601-10:36:44|21=1|111=0|10=162|
8=FIX.4.2|9=268|35=8|49=TradingGateway|56=Client|34=65|52=20120601-09:36:44.156|37=OrderID_103644|11=20120601-103643-9533104|17=ExecID_62|20=0|150=2|39=2|1=TestAccount|63=0|55=CSCO|54=2|38=100000|40=1|15=USD|59=0|32=100000|31=102|151=0|14=100000|6=102|60=20120601-10:36:44|21=1|111=0|10=095|
8=FIX.4.2|9=259|35=8|49=TradingGateway|56=Client|34=66|52=20120601-09:36:44.327|37=OrderID_103644|11=20120601-103644-1405260|17=ExecID_63|20=0|150=0|39=0|1=TestAccount|63=0|55=CSCO|54=2|38=100000|40=1|15=USD|59=0|32=0|31=0|151=100000|14=0|6=0|60=20120601-10:36:44|21=1|111=0|10=160|
8=FIX.4.2|9=272|35=8|49=TradingGateway|56=Client|34=67|52=20120601-09:36:44.327|37=OrderID_103644|11=20120601-103644-1405260|17=ExecID_64|20=0|150=2|39=2|1=TestAccount|63=0|55=CSCO|54=2|38=100000|40=1|15=USD|59=0|32=100000|31=100.5|151=0|14=100000|6=100.5|60=20120601-10:36:44|21=1|111=0|10=026|
8=FIX.4.2|9=259|35=8|49=TradingGateway|56=Client|34=68|52=20120601-09:36:44.499|37=OrderID_103644|11=20120601-103644-3121403|17=ExecID_65|20=0|150=0|39=0|1=TestAccount|63=0|55=CSCO|54=2|38=100000|40=1|15=USD|59=0|32=0|31=0|151=100000|14=0|6=0|60=20120601-10:36:44|21=1|111=0|10=170|
8=FIX.4.2|9=268|35=8|49=TradingGateway|56=Client|34=69|52=20120601-09:36:44.499|37=OrderID_103644|11=20120601-103644-3121403|17=ExecID_66|20=0|150=2|39=2|1=TestAccount|63=0|55=CSCO|54=2|38=100000|40=1|15=USD|59=0|32=100000|31=100|151=0|14=100000|6=100|60=20120601-10:36:44|21=1|111=0|10=099|
8=FIX.4.2|9=259|35=8|49=TradingGateway|56=Client|34=70|52=20120601-09:36:44.670|37=OrderID_103644|11=20120601-103644-4837546|17=ExecID_67|20=0|150=0|39=0|1=TestAccount|63=0|55=CSCO|54=2|38=100000|40=1|15=USD|59=0|32=0|31=0|151=100000|14=0|6=0|60=20120601-10:36:44|21=1|111=0|10=179|
8=FIX.4.2|9=268|35=8|49=TradingGateway|56=Client|34=71|52=20120601-09:36:44.670|37=OrderID_103644|11=20120601-103644-4837546|17=ExecID_68|20=0|150=2|39=2|1=TestAccount|63=0|55=CSCO|54=2|38=100000|40=1|15=USD|59=0|32=100000|31=102|151=0|14=100000|6=102|60=20120601-10:36:44|21=1|111=0|10=112|
8=FIX.4.2|9=259|35=8|49=TradingGateway|56=Client|34=72|52=20120601-09:36:44.826|37=OrderID_103644|11=20120601-103644-6553689|17=ExecID_69|20=0|150=0|39=0|1=TestAccount|63=0|55=CSCO|54=2|38=100000|40=1|15=USD|59=0|32=0|31=0|151=100000|14=0|6=0|60=20120601-10:36:44|21=1|111=0|10=191|
8=FIX.4.2|9=268|35=8|49=TradingGateway|56=Client|34=73|52=20120601-09:36:44.826|37=OrderID_103644|11=20120601-103644-6553689|17=ExecID_70|20=0|150=2|39=2|1=TestAccount|63=0|55=CSCO|54=2|38=100000|40=1|15=USD|59=0|32=100000|31=101|151=0|14=100000|6=101|60=20120601-10:36:44|21=1|111=0|10=113|
8=FIX.4.2|9=259|35=8|49=TradingGateway|56=Client|34=74|52=20120601-09:36:44.998|37=OrderID_103644|11=20120601-103644-8113819|17=ExecID_71|20=0|150=0|39=0|1=TestAccount|63=0|55=CSCO|54=2|38=100000|40=1|15=USD|59=0|32=0|31=0|151=100000|14=0|6=0|60=20120601-10:36:44|21=1|111=0|10=185|
8=FIX.4.2|9=272|35=8|49=TradingGateway|56=Client|34=75|52=20120601-09:36:44.998|37=OrderID_103644|11=20120601-103644-8113819|17=ExecID_72|20=0|150=2|39=2|1=TestAccount|63=0|55=CSCO|54=2|38=100000|40=1|15=USD|59=0|32=100000|31=101.5|151=0|14=100000|6=101.5|60=20120601-10:36:44|21=1|111=0|10=053|
8=FIX.4.2|9=259|35=8|49=TradingGateway|56=Client|34=76|52=20120601-09:36:45.170|37=OrderID_103645|11=20120601-103644-9829962|17=ExecID_73|20=0|150=0|39=0|1=TestAccount|63=0|55=CSCO|54=2|38=100000|40=1|15=USD|59=0|32=0|31=0|151=100000|14=0|6=0|60=20120601-10:36:45|21=1|111=0|10=188|
8=FIX.4.2|9=272|35=8|49=TradingGateway|56=Client|34=77|52=20120601-09:36:45.170|37=OrderID_103645|11=20120601-103644-9829962|17=ExecID_74|20=0|150=2|39=2|1=TestAccount|63=0|55=CSCO|54=2|38=100000|40=1|15=USD|59=0|32=100000|31=101.5|151=0|14=100000|6=101.5|60=20120601-10:36:45|21=1|111=0|10=056|
8=FIX.4.2|9=259|35=8|49=TradingGateway|56=Client|34=78|52=20120601-09:36:45.341|37=OrderID_103645|11=20120601-103645-1546105|17=ExecID_75|20=0|150=0|39=0|1=TestAccount|63=0|55=CSCO|54=2|38=100000|40=1|15=USD|59=0|32=0|31=0|151=100000|14=0|6=0|60=20120601-10:36:45|21=1|111=0|10=170|
8=FIX.4.2|9=268|35=8|49=TradingGateway|56=Client|34=79|52=20120601-09:36:45.341|37=OrderID_103645|11=20120601-103645-1546105|17=ExecID_76|20=0|150=2|39=2|1=TestAccount|63=0|55=CSCO|54=2|38=100000|40=1|15=USD|59=0|32=100000|31=102|151=0|14=100000|6=102|60=20120601-10:36:45|21=1|111=0|10=103|
8=FIX.4.2|9=259|35=8|49=TradingGateway|56=Client|34=80|52=20120601-09:36:45.513|37=OrderID_103645|11=20120601-103645-3262248|17=ExecID_77|20=0|150=0|39=0|1=TestAccount|63=0|55=CSCO|54=2|38=100000|40=1|15=USD|59=0|32=0|31=0|151=100000|14=0|6=0|60=20120601-10:36:45|21=1|111=0|10=171|
8=FIX.4.2|9=272|35=8|49=TradingGateway|56=Client|34=81|52=20120601-09:36:45.513|37=OrderID_103645|11=20120601-103645-3262248|17=ExecID_78|20=0|150=2|39=2|1=TestAccount|63=0|55=CSCO|54=2|38=100000|40=1|15=USD|59=0|32=100000|31=101.5|151=0|14=100000|6=101.5|60=20120601-10:36:45|21=1|111=0|10=039|
8=FIX.4.2|9=259|35=8|49=TradingGateway|56=Client|34=82|52=20120601-09:36:45.669|37=OrderID_103645|11=20120601-103645-4978391|17=ExecID_79|20=0|150=0|39=0|1=TestAccount|63=0|55=CSCO|54=2|38=100000|40=1|15=USD|59=0|32=0|31=0|151=100000|14=0|6=0|60=20120601-10:36:45|21=1|111=0|10=201|
8=FIX.4.2|9=272|35=8|49=TradingGateway|56=Client|34=83|52=20120601-09:36:45.669|37=OrderID_103645|11=20120601-103645-4978391|17=ExecID_80|20=0|150=2|39=2|1=TestAccount|63=0|55=CSCO|54=2|38=100000|40=1|15=USD|59=0|32=100000|31=100.5|151=0|14=100000|6=100.5|60=20120601-10:36:45|21=1|111=0|10=058|
8=FIX.4.2|9=259|35=8|49=TradingGateway|56=Client|34=84|52=20120601-09:36:45.841|37=OrderID_103645|11=20120601-103645-6538521|17=ExecID_81|20=0|150=0|39=0|1=TestAccount|63=0|55=CSCO|54=2|38=100000|40=1|15=USD|59=0|32=0|31=0|151=100000|14=0|6=0|60=20120601-10:36:45|21=1|111=0|10=177|
8=FIX.4.2|9=272|35=8|49=TradingGateway|56=Client|34=85|52=20120601-09:36:45.841|37=OrderID_103645|11=20120601-103645-6538521|17=ExecID_82|20=0|150=2|39=2|1=TestAccount|63=0|55=CSCO|54=2|38=100000|40=1|15=USD|59=0|32=100000|31=100.5|151=0|14=100000|6=100.5|60=20120601-10:36:45|21=1|111=0|10=043|
8=FIX.4.2|9=259|35=8|49=TradingGateway|56=Client|34=86|52=20120601-09:36:46.012|37=OrderID_103646|11=20120601-103645-8254664|17=ExecID_83|20=0|150=0|39=0|1=TestAccount|63=0|55=CSCO|54=2|38=100000|40=1|15=USD|59=0|32=0|31=0|151=100000|14=0|6=0|60=20120601-10:36:46|21=1|111=0|10=179|
8=FIX.4.2|9=268|35=8|49=TradingGateway|56=Client|34=87|52=20120601-09:36:46.012|37=OrderID_103646|11=20120601-103645-8254664|17=ExecID_84|20=0|150=2|39=2|1=TestAccount|63=0|55=CSCO|54=2|38=100000|40=1|15=USD|59=0|32=100000|31=101|151=0|14=100000|6=101|60=20120601-10:36:46|21=1|111=0|10=110|
8=FIX.4.2|9=258|35=8|49=TradingGateway|56=Client|34=90|52=20120807-14:21:34.921|37=OrderID_152134|11=20120807-152112-0705639|17=ExecID_1|20=0|150=0|39=0|1=TestAccount|63=0|55=MSFT|54=1|38=100000|40=1|15=USD|59=0|32=0|31=0|151=100000|14=0|6=0|60=20120807-15:21:34|21=1|111=0|10=132|
8=FIX.4.2|9=267|35=8|49=TradingGateway|56=Client|34=91|52=20120807-14:21:34.921|37=OrderID_152134|11=20120807-152112-0705639|17=ExecID_2|20=0|150=2|39=2|1=TestAccount|63=0|55=MSFT|54=1|38=100000|40=1|15=USD|59=0|32=100000|31=102|151=0|14=100000|6=102|60=20120807-15:21:34|21=1|111=0|10=065|
8=FIX.4.2|9=258|35=8|49=TradingGateway|56=Client|34=92|52=20120807-14:21:36.247|37=OrderID_152136|11=20120807-152134-8902916|17=ExecID_3|20=0|150=0|39=0|1=TestAccount|63=0|55=MSFT|54=1|38=100000|40=1|15=USD|59=0|32=0|31=0|151=100000|14=0|6=0|60=20120807-15:21:36|21=1|111=0|10=152|
8=FIX.4.2|9=271|35=8|49=TradingGateway|56=Client|34=93|52=20120807-14:21:36.247|37=OrderID_152136|11=20120807-152134-8902916|17=ExecID_4|20=0|150=2|39=2|1=TestAccount|63=0|55=MSFT|54=1|38=100000|40=1|15=USD|59=0|32=100000|31=101.5|151=0|14=100000|6=101.5|60=20120807-15:21:36|21=1|111=0|10=020|
8=FIX.4.2|9=258|35=8|49=TradingGateway|56=Client|34=94|52=20120807-14:21:36.606|37=OrderID_152136|11=20120807-152136-2161131|17=ExecID_5|20=0|150=0|39=0|1=TestAccount|63=0|55=MSFT|54=1|38=100000|40=1|15=USD|59=0|32=0|31=0|151=100000|14=0|6=0|60=20120807-15:21:36|21=1|111=0|10=137|
8=FIX.4.2|9=271|35=8|49=TradingGateway|56=Client|34=95|52=20120807-14:21:36.606|37=OrderID_152136|11=20120807-152136-2161131|17=ExecID_6|20=0|150=2|39=2|1=TestAccount|63=0|55=MSFT|54=1|38=100000|40=1|15=USD|59=0|32=100000|31=100.5|151=0|14=100000|6=100.5|60=20120807-15:21:36|21=1|111=0|10=003|
8=FIX.4.2|9=258|35=8|49=TradingGateway|56=Client|34=96|52=20120807-14:21:36.777|37=OrderID_152136|11=20120807-152136-5904627|17=ExecID_7|20=0|150=0|39=0|1=TestAccount|63=0|55=MSFT|54=1|38=100000|40=1|15=USD|59=0|32=0|31=0|151=100000|14=0|6=0|60=20120807-15:21:36|21=1|111=0|10=168|
8=FIX.4.2|9=267|35=8|49=TradingGateway|56=Client|34=97|52=20120807-14:21:36.777|37=OrderID_152136|11=20120807-152136-5904627|17=ExecID_8|20=0|150=2|39=2|1=TestAccount|63=0|55=MSFT|54=1|38=100000|40=1|15=USD|59=0|32=100000|31=100|151=0|14=100000|6=100|60=20120807-15:21:36|21=1|111=0|10=097|
8=FIX.4.2|9=258|35=8|49=TradingGateway|56=Client|34=98|52=20120807-14:21:36.949|37=OrderID_152136|11=20120807-152136-7620396|17=ExecID_9|20=0|150=0|39=0|1=TestAccount|63=0|55=MSFT|54=1|38=100000|40=1|15=USD|59=0|32=0|31=0|151=100000|14=0|6=0|60=20120807-15:21:36|21=1|111=0|10=173|
8=FIX.4.2|9=268|35=8|49=TradingGateway|56=Client|34=99|52=20120807-14:21:36.949|37=OrderID_152136|11=20120807-152136-7620396|17=ExecID_10|20=0|150=2|39=2|1=TestAccount|63=0|55=MSFT|54=1|38=100000|40=1|15=USD|59=0|32=100000|31=101|151=0|14=100000|6=101|60=20120807-15:21:36|21=1|111=0|10=144|
8=FIX.4.2|9=260|35=8|49=TradingGateway|56=Client|34=100|52=20120807-14:21:37.120|37=OrderID_152137|11=20120807-152136-9336165|17=ExecID_11|20=0|150=0|39=0|1=TestAccount|63=0|55=MSFT|54=1|38=100000|40=1|15=USD|59=0|32=0|31=0|151=100000|14=0|6=0|60=20120807-15:21:37|21=1|111=0|10=223|
8=FIX.4.2|9=273|35=8|49=TradingGateway|56=Client|34=101|52=20120807-14:21:37.120|37=OrderID_152137|11=20120807-152136-9336165|17=ExecID_12|20=0|150=2|39=2|1=TestAccount|63=0|55=MSFT|54=1|38=100000|40=1|15=USD|59=0|32=100000|31=100.5|151=0|14=100000|6=100.5|60=20120807-15:21:37|21=1|111=0|10=098|
8=FIX.4.2|9=260|35=8|49=TradingGateway|56=Client|34=102|52=20120807-14:21:37.292|37=OrderID_152137|11=20120807-152137-1051934|17=ExecID_13|20=0|150=0|39=0|1=TestAccount|63=0|55=MSFT|54=1|38=100000|40=1|15=USD|59=0|32=0|31=0|151=100000|14=0|6=0|60=20120807-15:21:37|21=1|111=0|10=228|
8=FIX.4.2|9=269|35=8|49=TradingGateway|56=Client|34=103|52=20120807-14:21:37.292|37=OrderID_152137|11=20120807-152137-1051934|17=ExecID_14|20=0|150=2|39=2|1=TestAccount|63=0|55=MSFT|54=1|38=100000|40=1|15=USD|59=0|32=100000|31=101|151=0|14=100000|6=101|60=20120807-15:21:37|21=1|111=0|10=168|
8=FIX.4.2|9=260|35=8|49=TradingGateway|56=Client|34=104|52=20120807-14:21:37.448|37=OrderID_152137|11=20120807-152137-2767703|17=ExecID_15|20=0|150=0|39=0|1=TestAccount|63=0|55=MSFT|54=1|38=100000|40=1|15=USD|59=0|32=0|31=0|151=100000|14=0|6=0|60=20120807-15:21:37|21=1|111=0|10=244|
8=FIX.4.2|9=269|35=8|49=TradingGateway|56=Client|34=105|52=20120807-14:21:37.448|37=OrderID_152137|11=20120807-152137-2767703|17=ExecID_16|20=0|150=2|39=2|1=TestAccount|63=0|55=MSFT|54=1|38=100000|40=1|15=USD|59=0|32=100000|31=100|151=0|14=100000|6=100|60=20120807-15:21:37|21=1|111=0|10=182|
8=FIX.4.2|9=260|35=8|49=TradingGateway|56=Client|34=106|52=20120807-14:21:37.604|37=OrderID_152137|11=20120807-152137-4327493|17=ExecID_17|20=0|150=0|39=0|1=TestAccount|63=0|55=MSFT|54=1|38=100000|40=1|15=USD|59=0|32=0|31=0|151=100000|14=0|6=0|60=20120807-15:21:37|21=1|111=0|10=242|
8=FIX.4.2|9=269|35=8|49=TradingGateway|56=Client|34=107|52=20120807-14:21:37.604|37=OrderID_152137|11=20120807-152137-4327493|17=ExecID_18|20=0|150=2|39=2|1=TestAccount|63=0|55=MSFT|54=1|38=100000|40=1|15=USD|59=0|32=100000|31=101|151=0|14=100000|6=101|60=20120807-15:21:37|21=1|111=0|10=182|
8=FIX.4.2|9=260|35=8|49=TradingGateway|56=Client|34=108|52=20120807-14:21:37.775|37=OrderID_152137|11=20120807-152137-5887311|17=ExecID_19|20=0|150=0|39=0|1=TestAccount|63=0|55=MSFT|54=1|38=100000|40=1|15=USD|59=0|32=0|31=0|151=100000|14=0|6=0|60=20120807-15:21:37|21=1|111=0|10=000|
8=FIX.4.2|9=269|35=8|49=TradingGateway|56=Client|34=109|52=20120807-14:21:37.775|37=OrderID_152137|11=20120807-152137-5887311|17=ExecID_20|20=0|150=2|39=2|1=TestAccount|63=0|55=MSFT|54=1|38=100000|40=1|15=USD|59=0|32=100000|31=101|151=0|14=100000|6=101|60=20120807-15:21:37|21=1|111=0|10=187|
8=FIX.4.2|9=260|35=8|49=TradingGateway|56=Client|34=110|52=20120807-14:21:37.947|37=OrderID_152137|11=20120807-152137-7603234|17=ExecID_21|20=0|150=0|39=0|1=TestAccount|63=0|55=MSFT|54=1|38=100000|40=1|15=USD|59=0|32=0|31=0|151=100000|14=0|6=0|60=20120807-15:21:37|21=1|111=0|10=235|
8=FIX.4.2|9=273|35=8|49=TradingGateway|56=Client|34=111|52=20120807-14:21:37.947|37=OrderID_152137|11=20120807-152137-7603234|17=ExecID_22|20=0|150=2|39=2|1=TestAccount|63=0|55=MSFT|54=1|38=100000|40=1|15=USD|59=0|32=100000|31=100.5|151=0|14=100000|6=100.5|60=20120807-15:21:37|21=1|111=0|10=110|
8=FIX.4.2|9=260|35=8|49=TradingGateway|56=Client|34=112|52=20120807-14:21:38.103|37=OrderID_152138|11=20120807-152137-9319157|17=ExecID_23|20=0|150=0|39=0|1=TestAccount|63=0|55=MSFT|54=1|38=100000|40=1|15=USD|59=0|32=0|31=0|151=100000|14=0|6=0|60=20120807-15:21:38|21=1|111=0|10=236|
8=FIX.4.2|9=273|35=8|49=TradingGateway|56=Client|34=113|52=20120807-14:21:38.103|37=OrderID_152138|11=20120807-152137-9319157|17=ExecID_24|20=0|150=2|39=2|1=TestAccount|63=0|55=MSFT|54=1|38=100000|40=1|15=USD|59=0|32=100000|31=101.5|151=0|14=100000|6=101.5|60=20120807-15:21:38|21=1|111=0|10=113|
8=FIX.4.2|9=260|35=8|49=TradingGateway|56=Client|34=114|52=20120807-14:21:38.275|37=OrderID_152138|11=20120807-152138-0879087|17=ExecID_25|20=0|150=0|39=0|1=TestAccount|63=0|55=MSFT|54=1|38=100000|40=1|15=USD|59=0|32=0|31=0|151=100000|14=0|6=0|60=20120807-15:21:38|21=1|111=0|10=255|
8=FIX.4.2|9=273|35=8|49=TradingGateway|56=Client|34=115|52=20120807-14:21:38.275|37=OrderID_152138|11=20120807-152138-0879087|17=ExecID_26|20=0|150=2|39=2|1=TestAccount|63=0|55=MSFT|54=1|38=100000|40=1|15=USD|59=0|32=100000|31=100.5|151=0|14=100000|6=100.5|60=20120807-15:21:38|21=1|111=0|10=130|
8=FIX.4.2|9=259|35=8|49=TradingGateway|56=Client|34=122|52=20120807-14:24:23.069|37=OrderID_152423|11=20120807-152420-3865392|17=ExecID_1|20=0|150=0|39=0|1=TestAccount|63=0|55=MSFT|54=1|38=100000|40=1|15=USD|59=0|32=0|31=0|151=100000|14=0|6=0|60=20120807-15:24:23|21=1|111=0|10=191|
8=FIX.4.2|9=272|35=8|49=TradingGateway|56=Client|34=123|52=20120807-14:24:23.084|37=OrderID_152423|11=20120807-152420-3865392|17=ExecID_2|20=0|150=2|39=2|1=TestAccount|63=0|55=MSFT|54=1|38=100000|40=1|15=USD|59=0|32=100000|31=101.5|151=0|14=100000|6=101.5|60=20120807-15:24:23|21=1|111=0|10=056|
8=FIX.4.2|9=259|35=8|49=TradingGateway|56=Client|34=124|52=20120807-14:24:24.691|37=OrderID_152424|11=20120807-152423-0225505|17=ExecID_3|20=0|150=0|39=0|1=TestAccount|63=0|55=MSFT|54=1|38=100000|40=1|15=USD|59=0|32=0|31=0|151=100000|14=0|6=0|60=20120807-15:24:24|21=1|111=0|10=185|
8=FIX.4.2|9=268|35=8|49=TradingGateway|56=Client|34=125|52=20120807-14:24:24.707|37=OrderID_152424|11=20120807-152423-0225505|17=ExecID_4|20=0|150=2|39=2|1=TestAccount|63=0|55=MSFT|54=1|38=100000|40=1|15=USD|59=0|32=100000|31=101|151=0|14=100000|6=101|60=20120807-15:24:24|21=1|111=0|10=114|
8=FIX.4.2|9=259|35=8|49=TradingGateway|56=Client|34=126|52=20120807-14:24:24.878|37=OrderID_152424|11=20120807-152424-7226998|17=ExecID_5|20=0|150=0|39=0|1=TestAccount|63=0|55=MSFT|54=1|38=100000|40=1|15=USD|59=0|32=0|31=0|151=100000|14=0|6=0|60=20120807-15:24:24|21=1|111=0|10=221|
8=FIX.4.2|9=272|35=8|49=TradingGateway|56=Client|34=127|52=20120807-14:24:24.894|37=OrderID_152424|11=20120807-152424-7226998|17=ExecID_6|20=0|150=2|39=2|1=TestAccount|63=0|55=MSFT|54=1|38=100000|40=1|15=USD|59=0|32=100000|31=100.5|151=0|14=100000|6=100.5|60=20120807-15:24:24|21=1|111=0|10=085|
8=FIX.4.2|9=259|35=8|49=TradingGateway|56=Client|34=128|52=20120807-14:24:25.050|37=OrderID_152425|11=20120807-152424-8474814|17=ExecID_7|20=0|150=0|39=0|1=TestAccount|63=0|55=MSFT|54=1|38=100000|40=1|15=USD|59=0|32=0|31=0|151=100000|14=0|6=0|60=20120807-15:24:25|21=1|111=0|10=203|
8=FIX.4.2|9=268|35=8|49=TradingGateway|56=Client|34=129|52=20120807-14:24:25.065|37=OrderID_152425|11=20120807-152424-8474814|17=ExecID_8|20=0|150=2|39=2|1=TestAccount|63=0|55=MSFT|54=1|38=100000|40=1|15=USD|59=0|32=100000|31=100|151=0|14=100000|6=100|60=20120807-15:24:25|21=1|111=0|10=138|
8=FIX.4.2|9=259|35=8|49=TradingGateway|56=Client|34=130|52=20120807-14:24:25.237|37=OrderID_152425|11=20120807-152425-0190561|17=ExecID_9|20=0|150=0|39=0|1=TestAccount|63=0|55=MSFT|54=1|38=100000|40=1|15=USD|59=0|32=0|31=0|151=100000|14=0|6=0|60=20120807-15:24:25|21=1|111=0|10=192|
8=FIX.4.2|9=273|35=8|49=TradingGateway|56=Client|34=131|52=20120807-14:24:25.253|37=OrderID_152425|11=20120807-152425-0190561|17=ExecID_10|20=0|150=2|39=2|1=TestAccount|63=0|55=MSFT|54=1|38=100000|40=1|15=USD|59=0|32=100000|31=101.5|151=0|14=100000|6=101.5|60=20120807-15:24:25|21=1|111=0|10=098|
8=FIX.4.2|9=260|35=8|49=TradingGateway|56=Client|34=132|52=20120807-14:24:25.393|37=OrderID_152425|11=20120807-152425-2062285|17=ExecID_11|20=0|150=0|39=0|1=TestAccount|63=0|55=MSFT|54=1|38=100000|40=1|15=USD|59=0|32=0|31=0|151=100000|14=0|6=0|60=20120807-15:24:25|21=1|111=0|10=233|
8=FIX.4.2|9=273|35=8|49=TradingGateway|56=Client|34=133|52=20120807-14:24:25.408|37=OrderID_152425|11=20120807-152425-2062285|17=ExecID_12|20=0|150=2|39=2|1=TestAccount|63=0|55=MSFT|54=1|38=100000|40=1|15=USD|59=0|32=100000|31=100.5|151=0|14=100000|6=100.5|60=20120807-15:24:25|21=1|111=0|10=105|
8=FIX.4.2|9=260|35=8|49=TradingGateway|56=Client|34=134|52=20120807-14:24:25.580|37=OrderID_152425|11=20120807-152425-3622055|17=ExecID_13|20=0|150=0|39=0|1=TestAccount|63=0|55=MSFT|54=1|38=100000|40=1|15=USD|59=0|32=0|31=0|151=100000|14=0|6=0|60=20120807-15:24:25|21=1|111=0|10=233|
8=FIX.4.2|9=269|35=8|49=TradingGateway|56=Client|34=135|52=20120807-14:24:25.580|37=OrderID_152425|11=20120807-152425-3622055|17=ExecID_14|20=0|150=2|39=2|1=TestAccount|63=0|55=MSFT|54=1|38=100000|40=1|15=USD|59=0|32=100000|31=102|151=0|14=100000|6=102|60=20120807-15:24:25|21=1|111=0|10=175|
8=FIX.4.2|9=260|35=8|49=TradingGateway|56=Client|34=136|52=20120807-14:24:25.720|37=OrderID_152425|11=20120807-152425-5337802|17=ExecID_15|20=0|150=0|39=0|1=TestAccount|63=0|55=MSFT|54=1|38=100000|40=1|15=USD|59=0|32=0|31=0|151=100000|14=0|6=0|60=20120807-15:24:25|21=1|111=0|10=238|
8=FIX.4.2|9=273|35=8|49=TradingGateway|56=Client|34=137|52=20120807-14:24:25.736|37=OrderID_152425|11=20120807-152425-5337802|17=ExecID_16|20=0|150=2|39=2|1=TestAccount|63=0|55=MSFT|54=1|38=100000|40=1|15=USD|59=0|32=100000|31=100.5|151=0|14=100000|6=100.5|60=20120807-15:24:25|21=1|111=0|10=120|
8=FIX.4.2|9=260|35=8|49=TradingGateway|56=Client|34=138|52=20120807-14:24:25.892|37=OrderID_152425|11=20120807-152425-6897572|17=ExecID_17|20=0|150=0|39=0|1=TestAccount|63=0|55=MSFT|54=1|38=100000|40=1|15=USD|59=0|32=0|31=0|151=100000|14=0|6=0|60=20120807-15:24:25|21=1|111=0|10=012|
8=FIX.4.2|9=269|35=8|49=TradingGateway|56=Client|34=139|52=20120807-14:24:25.908|37=OrderID_152425|11=20120807-152425-6897572|17=ExecID_18|20=0|150=2|39=2|1=TestAccount|63=0|55=MSFT|54=1|38=100000|40=1|15=USD|59=0|32=100000|31=102|151=0|14=100000|6=102|60=20120807-15:24:25|21=1|111=0|10=208|
8=FIX.4.2|9=260|35=8|49=TradingGateway|56=Client|34=149|52=20120807-14:29:19.689|37=OrderID_152919|11=20120807-152916-9282377|17=ExecID_19|20=0|150=0|39=0|1=TestAccount|63=0|55=MSFT|54=1|38=100000|40=1|15=USD|59=0|32=0|31=0|151=100000|14=0|6=0|60=20120807-15:29:19|21=1|111=0|10=043|
8=FIX.4.2|9=273|35=8|49=TradingGateway|56=Client|34=150|52=20120807-14:29:19.689|37=OrderID_152919|11=20120807-152916-9282377|17=ExecID_20|20=0|150=2|39=2|1=TestAccount|63=0|55=MSFT|54=1|38=100000|40=1|15=USD|59=0|32=100000|31=100.5|151=0|14=100000|6=100.5|60=20120807-15:29:19|21=1|111=0|10=156|
8=FIX.4.2|9=260|35=8|49=TradingGateway|56=Client|34=151|52=20120807-14:29:23.151|37=OrderID_152923|11=20120807-152919-6735385|17=ExecID_21|20=0|150=0|39=0|1=TestAccount|63=0|55=MSFT|54=1|38=100000|40=1|15=USD|59=0|32=0|31=0|151=100000|14=0|6=0|60=20120807-15:29:23|21=1|111=0|10=000|
8=FIX.4.2|9=273|35=8|49=TradingGateway|56=Client|34=152|52=20120807-14:29:23.167|37=OrderID_152923|11=20120807-152919-6735385|17=ExecID_22|20=0|150=2|39=2|1=TestAccount|63=0|55=MSFT|54=1|38=100000|40=1|15=USD|59=0|32=100000|31=100.5|151=0|14=100000|6=100.5|60=20120807-15:29:23|21=1|111=0|10=138|
8=FIX.4.2|9=260|35=8|49=TradingGateway|56=Client|34=153|52=20120807-14:29:23.651|37=OrderID_152923|11=20120807-152923-1363611|17=ExecID_23|20=0|150=0|39=0|1=TestAccount|63=0|55=MSFT|54=1|38=100000|40=1|15=USD|59=0|32=0|31=0|151=100000|14=0|6=0|60=20120807-15:29:23|21=1|111=0|10=244|
8=FIX.4.2|9=269|35=8|49=TradingGateway|56=Client|34=154|52=20120807-14:29:23.666|37=OrderID_152923|11=20120807-152923-1363611|17=ExecID_24|20=0|150=2|39=2|1=TestAccount|63=0|55=MSFT|54=1|38=100000|40=1|15=USD|59=0|32=100000|31=100|151=0|14=100000|6=100|60=20120807-15:29:23|21=1|111=0|10=188|
8=FIX.4.2|9=260|35=8|49=TradingGateway|56=Client|34=155|52=20120807-14:29:23.697|37=OrderID_152923|11=20120807-152923-6511050|17=ExecID_25|20=0|150=0|39=0|1=TestAccount|63=0|55=MSFT|54=1|38=100000|40=1|15=USD|59=0|32=0|31=0|151=100000|14=0|6=0|60=20120807-15:29:23|21=1|111=0|10=255|
8=FIX.4.2|9=269|35=8|49=TradingGateway|56=Client|34=156|52=20120807-14:29:23.713|37=OrderID_152923|11=20120807-152923-6511050|17=ExecID_26|20=0|150=2|39=2|1=TestAccount|63=0|55=MSFT|54=1|38=100000|40=1|15=USD|59=0|32=100000|31=101|151=0|14=100000|6=101|60=20120807-15:29:23|21=1|111=0|10=184|
8=FIX.4.2|9=260|35=8|49=TradingGateway|56=Client|34=157|52=20120807-14:29:23.729|37=OrderID_152923|11=20120807-152923-6823016|17=ExecID_27|20=0|150=0|39=0|1=TestAccount|63=0|55=MSFT|54=1|38=100000|40=1|15=USD|59=0|32=0|31=0|151=100000|14=0|6=0|60=20120807-15:29:23|21=1|111=0|10=007|
8=FIX.4.2|9=273|35=8|49=TradingGateway|56=Client|34=158|52=20120807-14:29:23.744|37=OrderID_152923|11=20120807-152923-6823016|17=ExecID_28|20=0|150=2|39=2|1=TestAccount|63=0|55=MSFT|54=1|38=100000|40=1|15=USD|59=0|32=100000|31=101.5|151=0|14=100000|6=101.5|60=20120807-15:29:23|21=1|111=0|10=137|
8=FIX.4.2|9=260|35=8|49=TradingGateway|56=Client|34=159|52=20120807-14:29:23.760|37=OrderID_152923|11=20120807-152923-7134982|17=ExecID_29|20=0|150=0|39=0|1=TestAccount|63=0|55=MSFT|54=1|38=100000|40=1|15=USD|59=0|32=0|31=0|151=100000|14=0|6=0|60=20120807-15:29:23|21=1|111=0|10=014|
8=FIX.4.2|9=269|35=8|49=TradingGateway|56=Client|34=160|52=20120807-14:29:23.775|37=OrderID_152923|11=20120807-152923-7134982|17=ExecID_30|20=0|150=2|39=2|1=TestAccount|63=0|55=MSFT|54=1|38=100000|40=1|15=USD|59=0|32=100000|31=102|151=0|14=100000|6=102|60=20120807-15:29:23|21=1|111=0|10=200|
8=FIX.4.2|9=260|35=8|49=TradingGateway|56=Client|34=161|52=20120807-14:29:23.807|37=OrderID_152923|11=20120807-152923-7446948|17=ExecID_31|20=0|150=0|39=0|1=TestAccount|63=0|55=MSFT|54=1|38=100000|40=1|15=USD|59=0|32=0|31=0|151=100000|14=0|6=0|60=20120807-15:29:23|21=1|111=0|10=010|
8=FIX.4.2|9=269|35=8|49=TradingGateway|56=Client|34=162|52=20120807-14:29:23.822|37=OrderID_152923|11=20120807-152923-7446948|17=ExecID_32|20=0|150=2|39=2|1=TestAccount|63=0|55=MSFT|54=1|38=100000|40=1|15=USD|59=0|32=100000|31=101|151=0|14=100000|6=101|60=20120807-15:29:23|21=1|111=0|10=203|
8=FIX.4.2|9=260|35=8|49=TradingGateway|56=Client|34=163|52=20120807-14:29:23.838|37=OrderID_152923|11=20120807-152923-7758914|17=ExecID_33|20=0|150=0|39=0|1=TestAccount|63=0|55=MSFT|54=1|38=100000|40=1|15=USD|59=0|32=0|31=0|151=100000|14=0|6=0|60=20120807-15:29:23|21=1|111=0|10=017|
8=FIX.4.2|9=273|35=8|49=TradingGateway|56=Client|34=164|52=20120807-14:29:23.853|37=OrderID_152923|11=20120807-152923-7758914|17=ExecID_34|20=0|150=2|39=2|1=TestAccount|63=0|55=MSFT|54=1|38=100000|40=1|15=USD|59=0|32=100000|31=101.5|151=0|14=100000|6=101.5|60=20120807-15:29:23|21=1|111=0|10=147|
8=FIX.4.2|9=260|35=8|49=TradingGateway|56=Client|34=165|52=20120807-14:29:23.885|37=OrderID_152923|11=20120807-152923-8226863|17=ExecID_35|20=0|150=0|39=0|1=TestAccount|63=0|55=MSFT|54=1|38=100000|40=1|15=USD|59=0|32=0|31=0|151=100000|14=0|6=0|60=20120807-15:29:23|21=1|111=0|10=017|
8=FIX.4.2|9=273|35=8|49=TradingGateway|56=Client|34=166|52=20120807-14:29:23.885|37=OrderID_152923|11=20120807-152923-8226863|17=ExecID_36|20=0|150=2|39=2|1=TestAccount|63=0|55=MSFT|54=1|38=100000|40=1|15=USD|59=0|32=100000|31=100.5|151=0|14=100000|6=100.5|60=20120807-15:29:23|21=1|111=0|10=148|
8=FIX.4.2|9=260|35=8|49=TradingGateway|56=Client|34=167|52=20120807-14:29:23.916|37=OrderID_152923|11=20120807-152923-8382846|17=ExecID_37|20=0|150=0|39=0|1=TestAccount|63=0|55=MSFT|54=1|38=100000|40=1|15=USD|59=0|32=0|31=0|151=100000|14=0|6=0|60=20120807-15:29:23|21=1|111=0|10=020|
8=FIX.4.2|9=269|35=8|49=TradingGateway|56=Client|34=168|52=20120807-14:29:23.931|37=OrderID_152923|11=20120807-152923-8382846|17=ExecID_38|20=0|150=2|39=2|1=TestAccount|63=0|55=MSFT|54=1|38=100000|40=1|15=USD|59=0|32=100000|31=101|151=0|14=100000|6=101|60=20120807-15:29:23|21=1|111=0|10=213|
8=FIX.4.2|9=260|35=8|49=TradingGateway|56=Client|34=169|52=20120807-14:29:23.947|37=OrderID_152923|11=20120807-152923-8850795|17=ExecID_39|20=0|150=0|39=0|1=TestAccount|63=0|55=MSFT|54=1|38=100000|40=1|15=USD|59=0|32=0|31=0|151=100000|14=0|6=0|60=20120807-15:29:23|21=1|111=0|10=031|
8=FIX.4.2|9=273|35=8|49=TradingGateway|56=Client|34=170|52=20120807-14:29:23.963|37=OrderID_152923|11=20120807-152923-8850795|17=ExecID_40|20=0|150=2|39=2|1=TestAccount|63=0|55=MSFT|54=1|38=100000|40=1|15=USD|59=0|32=100000|31=100.5|151=0|14=100000|6=100.5|60=20120807-15:29:23|21=1|111=0|10=142|
8=FIX.4.2|9=260|35=8|49=TradingGateway|56=Client|34=171|52=20120807-14:29:23.994|37=OrderID_152923|11=20120807-152923-9162761|17=ExecID_41|20=0|150=0|39=0|1=TestAccount|63=0|55=MSFT|54=1|38=100000|40=1|15=USD|59=0|32=0|31=0|151=100000|14=0|6=0|60=20120807-15:29:23|21=1|111=0|10=009|
8=FIX.4.2|9=273|35=8|49=TradingGateway|56=Client|34=172|52=20120807-14:29:23.994|37=OrderID_152923|11=20120807-152923-9162761|17=ExecID_42|20=0|150=2|39=2|1=TestAccount|63=0|55=MSFT|54=1|38=100000|40=1|15=USD|59=0|32=100000|31=100.5|151=0|14=100000|6=100.5|60=20120807-15:29:23|21=1|111=0|10=140|
8=FIX.4.2|9=260|35=8|49=TradingGateway|56=Client|34=173|52=20120807-14:29:24.025|37=OrderID_152924|11=20120807-152923-9474727|17=ExecID_43|20=0|150=0|39=0|1=TestAccount|63=0|55=MSFT|54=1|38=100000|40=1|15=USD|59=0|32=0|31=0|151=100000|14=0|6=0|60=20120807-15:29:24|21=1|111=0|10=009|
8=FIX.4.2|9=269|35=8|49=TradingGateway|56=Client|34=174|52=20120807-14:29:24.041|37=OrderID_152924|11=20120807-152923-9474727|17=ExecID_44|20=0|150=2|39=2|1=TestAccount|63=0|55=MSFT|54=1|38=100000|40=1|15=USD|59=0|32=100000|31=102|151=0|14=100000|6=102|60=20120807-15:29:24|21=1|111=0|10=205|
8=FIX.4.2|9=260|35=8|49=TradingGateway|56=Client|34=175|52=20120807-14:29:24.056|37=OrderID_152924|11=20120807-152923-9942676|17=ExecID_45|20=0|150=0|39=0|1=TestAccount|63=0|55=MSFT|54=1|38=100000|40=1|15=USD|59=0|32=0|31=0|151=100000|14=0|6=0|60=20120807-15:29:24|21=1|111=0|10=020|
8=FIX.4.2|9=273|35=8|49=TradingGateway|56=Client|34=176|52=20120807-14:29:24.072|37=OrderID_152924|11=20120807-152923-9942676|17=ExecID_46|20=0|150=2|39=2|1=TestAccount|63=0|55=MSFT|54=1|38=100000|40=1|15=USD|59=0|32=100000|31=100.5|151=0|14=100000|6=100.5|60=20120807-15:29:24|21=1|111=0|10=149|
8=FIX.4.2|9=260|35=8|49=TradingGateway|56=Client|34=177|52=20120807-14:29:24.103|37=OrderID_152924|11=20120807-152924-0098659|17=ExecID_47|20=0|150=0|39=0|1=TestAccount|63=0|55=MSFT|54=1|38=100000|40=1|15=USD|59=0|32=0|31=0|151=100000|14=0|6=0|60=20120807-15:29:24|21=1|111=0|10=012|
8=FIX.4.2|9=273|35=8|49=TradingGateway|56=Client|34=178|52=20120807-14:29:24.103|37=OrderID_152924|11=20120807-152924-0098659|17=ExecID_48|20=0|150=2|39=2|1=TestAccount|63=0|55=MSFT|54=1|38=100000|40=1|15=USD|59=0|32=100000|31=101.5|151=0|14=100000|6=101.5|60=20120807-15:29:24|21=1|111=0|10=145|
8=FIX.4.2|9=260|35=8|49=TradingGateway|56=Client|34=179|52=20120807-14:29:24.134|37=OrderID_152924|11=20120807-152924-0566608|17=ExecID_49|20=0|150=0|39=0|1=TestAccount|63=0|55=MSFT|54=1|38=100000|40=1|15=USD|59=0|32=0|31=0|151=100000|14=0|6=0|60=20120807-15:29:24|21=1|111=0|10=014|
8=FIX.4.2|9=269|35=8|49=TradingGateway|56=Client|34=180|52=20120807-14:29:24.150|37=OrderID_152924|11=20120807-152924-0566608|17=ExecID_50|20=0|150=2|39=2|1=TestAccount|63=0|55=MSFT|54=1|38=100000|40=1|15=USD|59=0|32=100000|31=102|151=0|14=100000|6=102|60=20120807-15:29:24|21=1|111=0|10=192|
8=FIX.4.2|9=260|35=8|49=TradingGateway|56=Client|34=181|52=20120807-14:29:24.165|37=OrderID_152924|11=20120807-152924-0878574|17=ExecID_51|20=0|150=0|39=0|1=TestAccount|63=0|55=MSFT|54=1|38=100000|40=1|15=USD|59=0|32=0|31=0|151=100000|14=0|6=0|60=20120807-15:29:24|21=1|111=0|10=012|
8=FIX.4.2|9=269|35=8|49=TradingGateway|56=Client|34=182|52=20120807-14:29:24.181|37=OrderID_152924|11=20120807-152924-0878574|17=ExecID_52|20=0|150=2|39=2|1=TestAccount|63=0|55=MSFT|54=1|38=100000|40=1|15=USD|59=0|32=100000|31=100|151=0|14=100000|6=100|60=20120807-15:29:24|21=1|111=0|10=204|
8=FIX.4.2|9=260|35=8|49=TradingGateway|56=Client|34=183|52=20120807-14:29:24.212|37=OrderID_152924|11=20120807-152924-1190540|17=ExecID_53|20=0|150=0|39=0|1=TestAccount|63=0|55=MSFT|54=1|38=100000|40=1|15=USD|59=0|32=0|31=0|151=100000|14=0|6=0|60=20120807-15:29:24|21=1|111=0|10=246|
8=FIX.4.2|9=273|35=8|49=TradingGateway|56=Client|34=184|52=20120807-14:29:24.212|37=OrderID_152924|11=20120807-152924-1190540|17=ExecID_54|20=0|150=2|39=2|1=TestAccount|63=0|55=MSFT|54=1|38=100000|40=1|15=USD|59=0|32=100000|31=101.5|151=0|14=100000|6=101.5|60=20120807-15:29:24|21=1|111=0|10=123|
8=FIX.4.2|9=260|35=8|49=TradingGateway|56=Client|34=185|52=20120807-14:29:24.243|37=OrderID_152924|11=20120807-152924-1502506|17=ExecID_55|20=0|150=0|39=0|1=TestAccount|63=0|55=MSFT|54=1|38=100000|40=1|15=USD|59=0|32=0|31=0|151=100000|14=0|6=0|60=20120807-15:29:24|21=1|111=0|10=253|
8=FIX.4.2|9=273|35=8|49=TradingGateway|56=Client|34=186|52=20120807-14:29:24.259|37=OrderID_152924|11=20120807-152924-1502506|17=ExecID_56|20=0|150=2|39=2|1=TestAccount|63=0|55=MSFT|54=1|38=100000|40=1|15=USD|59=0|32=100000|31=101.5|151=0|14=100000|6=101.5|60=20120807-15:29:24|21=1|111=0|10=137|
8=FIX.4.2|9=260|35=8|49=TradingGateway|56=Client|34=187|52=20120807-14:29:24.275|37=OrderID_152924|11=20120807-152924-1814472|17=ExecID_57|20=0|150=0|39=0|1=TestAccount|63=0|55=MSFT|54=1|38=100000|40=1|15=USD|59=0|32=0|31=0|151=100000|14=0|6=0|60=20120807-15:29:24|21=1|111=0|10=014|
8=FIX.4.2|9=269|35=8|49=TradingGateway|56=Client|34=188|52=20120807-14:29:24.290|37=OrderID_152924|11=20120807-152924-1814472|17=ExecID_58|20=0|150=2|39=2|1=TestAccount|63=0|55=MSFT|54=1|38=100000|40=1|15=USD|59=0|32=100000|31=100|151=0|14=100000|6=100|60=20120807-15:29:24|21=1|111=0|10=205|
8=FIX.4.2|9=260|35=8|49=TradingGateway|56=Client|34=189|52=20120807-14:29:24.306|37=OrderID_152924|11=20120807-152924-2126438|17=ExecID_59|20=0|150=0|39=0|1=TestAccount|63=0|55=MSFT|54=1|38=100000|40=1|15=USD|59=0|32=0|31=0|151=100000|14=0|6=0|60=20120807-15:29:24|21=1|111=0|10=012|
8=FIX.4.2|9=273|35=8|49=TradingGateway|56=Client|34=190|52=20120807-14:29:24.321|37=OrderID_152924|11=20120807-152924-2126438|17=ExecID_60|20=0|150=2|39=2|1=TestAccount|63=0|55=MSFT|54=1|38=100000|40=1|15=USD|59=0|32=100000|31=100.5|151=0|14=100000|6=100.5|60=20120807-15:29:24|21=1|111=0|10=122|
8=FIX.4.2|9=260|35=8|49=TradingGateway|56=Client|34=191|52=20120807-14:29:24.353|37=OrderID_152924|11=20120807-152924-2594387|17=ExecID_61|20=0|150=0|39=0|1=TestAccount|63=0|55=MSFT|54=1|38=100000|40=1|15=USD|59=0|32=0|31=0|151=100000|14=0|6=0|60=20120807-15:29:24|21=1|111=0|10=012|
8=FIX.4.2|9=273|35=8|49=TradingGateway|56=Client|34=192|52=20120807-14:29:24.368|37=OrderID_152924|11=20120807-152924-2594387|17=ExecID_62|20=0|150=2|39=2|1=TestAccount|63=0|55=MSFT|54=1|38=100000|40=1|15=USD|59=0|32=100000|31=101.5|151=0|14=100000|6=101.5|60=20120807-15:29:24|21=1|111=0|10=151|
8=FIX.4.2|9=260|35=8|49=TradingGateway|56=Client|34=193|52=20120807-14:29:24.384|37=OrderID_152924|11=20120807-152924-2906353|17=ExecID_63|20=0|150=0|39=0|1=TestAccount|63=0|55=MSFT|54=1|38=100000|40=1|15=USD|59=0|32=0|31=0|151=100000|14=0|6=0|60=20120807-15:29:24|21=1|111=0|10=010|
8=FIX.4.2|9=269|35=8|49=TradingGateway|56=Client|34=194|52=20120807-14:29:24.399|37=OrderID_152924|11=20120807-152924-2906353|17=ExecID_64|20=0|150=2|39=2|1=TestAccount|63=0|55=MSFT|54=1|38=100000|40=1|15=USD|59=0|32=100000|31=102|151=0|14=100000|6=102|60=20120807-15:29:24|21=1|111=0|10=214|
8=FIX.4.2|9=260|35=8|49=TradingGateway|56=Client|34=195|52=20120807-14:29:24.431|37=OrderID_152924|11=20120807-152924-3218319|17=ExecID_65|20=0|150=0|39=0|1=TestAccount|63=0|55=MSFT|54=1|38=100000|40=1|15=USD|59=0|32=0|31=0|151=100000|14=0|6=0|60=20120807-15:29:24|21=1|111=0|10=006|
8=FIX.4.2|9=269|35=8|49=TradingGateway|56=Client|34=196|52=20120807-14:29:24.431|37=OrderID_152924|11=20120807-152924-3218319|17=ExecID_66|20=0|150=2|39=2|1=TestAccount|63=0|55=MSFT|54=1|38=100000|40=1|15=USD|59=0|32=100000|31=101|151=0|14=100000|6=101|60=20120807-15:29:24|21=1|111=0|10=202|
8=FIX.4.2|9=260|35=8|49=TradingGateway|56=Client|34=197|52=20120807-14:29:24.462|37=OrderID_152924|11=20120807-152924-3530285|17=ExecID_67|20=0|150=0|39=0|1=TestAccount|63=0|55=MSFT|54=1|38=100000|40=1|15=USD|59=0|32=0|31=0|151=100000|14=0|6=0|60=20120807-15:29:24|21=1|111=0|10=013|
8=FIX.4.2|9=273|35=8|49=TradingGateway|56=Client|34=198|52=20120807-14:29:24.477|37=OrderID_152924|11=20120807-152924-3530285|17=ExecID_68|20=0|150=2|39=2|1=TestAccount|63=0|55=MSFT|54=1|38=100000|40=1|15=USD|59=0|32=100000|31=101.5|151=0|14=100000|6=101.5|60=20120807-15:29:24|21=1|111=0|10=152|
8=FIX.4.2|9=260|35=8|49=TradingGateway|56=Client|34=199|52=20120807-14:29:24.493|37=OrderID_152924|11=20120807-152924-3842251|17=ExecID_69|20=0|150=0|39=0|1=TestAccount|63=0|55=MSFT|54=1|38=100000|40=1|15=USD|59=0|32=0|31=0|151=100000|14=0|6=0|60=20120807-15:29:24|21=1|111=0|10=020|
8=FIX.4.2|9=269|35=8|49=TradingGateway|56=Client|34=200|52=20120807-14:29:24.509|37=OrderID_152924|11=20120807-152924-3842251|17=ExecID_70|20=0|150=2|39=2|1=TestAccount|63=0|55=MSFT|54=1|38=100000|40=1|15=USD|59=0|32=100000|31=101|151=0|14=100000|6=101|60=20120807-15:29:24|21=1|111=0|10=187|
8=FIX.4.2|9=260|35=8|49=TradingGateway|56=Client|34=201|52=20120807-14:29:24.540|37=OrderID_152924|11=20120807-152924-4310200|17=ExecID_71|20=0|150=0|39=0|1=TestAccount|63=0|55=MSFT|54=1|38=100000|40=1|15=USD|59=0|32=0|31=0|151=100000|14=0|6=0|60=20120807-15:29:24|21=1|111=0|10=231|
8=FIX.4.2|9=269|35=8|49=TradingGateway|56=Client|34=202|52=20120807-14:29:24.540|37=OrderID_152924|11=20120807-152924-4310200|17=ExecID_72|20=0|150=2|39=2|1=TestAccount|63=0|55=MSFT|54=1|38=100000|40=1|15=USD|59=0|32=100000|31=101|151=0|14=100000|6=101|60=20120807-15:29:24|21=1|111=0|10=171|
8=FIX.4.2|9=260|35=8|49=TradingGateway|56=Client|34=203|52=20120807-14:29:24.571|37=OrderID_152924|11=20120807-152924-4622166|17=ExecID_73|20=0|150=0|39=0|1=TestAccount|63=0|55=MSFT|54=1|38=100000|40=1|15=USD|59=0|32=0|31=0|151=100000|14=0|6=0|60=20120807-15:29:24|21=1|111=0|10=000|
8=FIX.4.2|9=273|35=8|49=TradingGateway|56=Client|34=204|52=20120807-14:29:24.587|37=OrderID_152924|11=20120807-152924-4622166|17=ExecID_74|20=0|150=2|39=2|1=TestAccount|63=0|55=MSFT|54=1|38=100000|40=1|15=USD|59=0|32=100000|31=100.5|151=0|14=100000|6=100.5|60=20120807-15:29:24|21=1|111=0|10=138|
8=FIX.4.2|9=260|35=8|49=TradingGateway|56=Client|34=205|52=20120807-14:29:24.602|37=OrderID_152924|11=20120807-152924-4778149|17=ExecID_75|20=0|150=0|39=0|1=TestAccount|63=0|55=MSFT|54=1|38=100000|40=1|15=USD|59=0|32=0|31=0|151=100000|14=0|6=0|60=20120807-15:29:24|21=1|111=0|10=012|
8=FIX.4.2|9=273|35=8|49=TradingGateway|56=Client|34=206|52=20120807-14:29:24.618|37=OrderID_152924|11=20120807-152924-4778149|17=ExecID_76|20=0|150=2|39=2|1=TestAccount|63=0|55=MSFT|54=1|38=100000|40=1|15=USD|59=0|32=100000|31=100.5|151=0|14=100000|6=100.5|60=20120807-15:29:24|21=1|111=0|10=150|
8=FIX.4.2|9=260|35=8|49=TradingGateway|56=Client|34=207|52=20120807-14:29:24.649|37=OrderID_152924|11=20120807-152924-5246098|17=ExecID_77|20=0|150=0|39=0|1=TestAccount|63=0|55=MSFT|54=1|38=100000|40=1|15=USD|59=0|32=0|31=0|151=100000|14=0|6=0|60=20120807-15:29:24|21=1|111=0|10=021|
8=FIX.4.2|9=269|35=8|49=TradingGateway|56=Client|34=208|52=20120807-14:29:24.649|37=OrderID_152924|11=20120807-152924-5246098|17=ExecID_78|20=0|150=2|39=2|1=TestAccount|63=0|55=MSFT|54=1|38=100000|40=1|15=USD|59=0|32=100000|31=102|151=0|14=100000|6=102|60=20120807-15:29:24|21=1|111=0|10=219|
8=FIX.4.2|9=260|35=8|49=TradingGateway|56=Client|34=209|52=20120807-14:29:24.680|37=OrderID_152924|11=20120807-152924-5558064|17=ExecID_79|20=0|150=0|39=0|1=TestAccount|63=0|55=MSFT|54=1|38=100000|40=1|15=USD|59=0|32=0|31=0|151=100000|14=0|6=0|60=20120807-15:29:24|21=1|111=0|10=019|
8=FIX.4.2|9=269|35=8|49=TradingGateway|56=Client|34=210|52=20120807-14:29:24.696|37=OrderID_152924|11=20120807-152924-5558064|17=ExecID_80|20=0|150=2|39=2|1=TestAccount|63=0|55=MSFT|54=1|38=100000|40=1|15=USD|59=0|32=100000|31=100|151=0|14=100000|6=100|60=20120807-15:29:24|21=1|111=0|10=202|
8=FIX.4.2|9=260|35=8|49=TradingGateway|56=Client|34=211|52=20120807-14:29:24.711|37=OrderID_152924|11=20120807-152924-5870030|17=ExecID_81|20=0|150=0|39=0|1=TestAccount|63=0|55=MSFT|54=1|38=100000|40=1|15=USD|59=0|32=0|31=0|151=100000|14=0|6=0|60=20120807-15:29:24|21=1|111=0|10=246|
8=FIX.4.2|9=273|35=8|49=TradingGateway|56=Client|34=212|52=20120807-14:29:24.727|37=OrderID_152924|11=20120807-152924-5870030|17=ExecID_82|20=0|150=2|39=2|1=TestAccount|63=0|55=MSFT|54=1|38=100000|40=1|15=USD|59=0|32=100000|31=100.5|151=0|14=100000|6=100.5|60=20120807-15:29:24|21=1|111=0|10=128|
8=FIX.4.2|9=260|35=8|49=TradingGateway|56=Client|34=213|52=20120807-14:29:24.758|37=OrderID_152924|11=20120807-152924-6337979|17=ExecID_83|20=0|150=0|39=0|1=TestAccount|63=0|55=MSFT|54=1|38=100000|40=1|15=USD|59=0|32=0|31=0|151=100000|14=0|6=0|60=20120807-15:29:24|21=1|111=0|10=026|
8=FIX.4.2|9=273|35=8|49=TradingGateway|56=Client|34=214|52=20120807-14:29:24.758|37=OrderID_152924|11=20120807-152924-6337979|17=ExecID_84|20=0|150=2|39=2|1=TestAccount|63=0|55=MSFT|54=1|38=100000|40=1|15=USD|59=0|32=100000|31=101.5|151=0|14=100000|6=101.5|60=20120807-15:29:24|21=1|111=0|10=159|
8=FIX.4.2|9=260|35=8|49=TradingGateway|56=Client|34=215|52=20120807-14:29:24.789|37=OrderID_152924|11=20120807-152924-6493962|17=ExecID_85|20=0|150=0|39=0|1=TestAccount|63=0|55=MSFT|54=1|38=100000|40=1|15=USD|59=0|32=0|31=0|151=100000|14=0|6=0|60=20120807-15:29:24|21=1|111=0|10=029|
8=FIX.4.2|9=269|35=8|49=TradingGateway|56=Client|34=216|52=20120807-14:29:24.805|37=OrderID_152924|11=20120807-152924-6493962|17=ExecID_86|20=0|150=2|39=2|1=TestAccount|63=0|55=MSFT|54=1|38=100000|40=1|15=USD|59=0|32=100000|31=100|151=0|14=100000|6=100|60=20120807-15:29:24|21=1|111=0|10=212|
8=FIX.4.2|9=260|35=8|49=TradingGateway|56=Client|34=217|52=20120807-14:29:24.820|37=OrderID_152924|11=20120807-152924-6961911|17=ExecID_87|20=0|150=0|39=0|1=TestAccount|63=0|55=MSFT|54=1|38=100000|40=1|15=USD|59=0|32=0|31=0|151=100000|14=0|6=0|60=20120807-15:29:24|21=1|111=0|10=013|
8=FIX.4.2|9=273|35=8|49=TradingGateway|56=Client|34=218|52=20120807-14:29:24.836|37=OrderID_152924|11=20120807-152924-6961911|17=ExecID_88|20=0|150=2|39=2|1=TestAccount|63=0|55=MSFT|54=1|38=100000|40=1|15=USD|59=0|32=100000|31=100.5|151=0|14=100000|6=100.5|60=20120807-15:29:24|21=1|111=0|10=151|
8=FIX.4.2|9=260|35=8|49=TradingGateway|56=Client|34=219|52=20120807-14:29:24.867|37=OrderID_152924|11=20120807-152924-7273877|17=ExecID_89|20=0|150=0|39=0|1=TestAccount|63=0|55=MSFT|54=1|38=100000|40=1|15=USD|59=0|32=0|31=0|151=100000|14=0|6=0|60=20120807-15:29:24|21=1|111=0|10=036|
8=FIX.4.2|9=273|35=8|49=TradingGateway|56=Client|34=220|52=20120807-14:29:24.867|37=OrderID_152924|11=20120807-152924-7273877|17=ExecID_90|20=0|150=2|39=2|1=TestAccount|63=0|55=MSFT|54=1|38=100000|40=1|15=USD|59=0|32=100000|31=101.5|151=0|14=100000|6=101.5|60=20120807-15:29:24|21=1|111=0|10=151|
8=FIX.4.2|9=260|35=8|49=TradingGateway|56=Client|34=221|52=20120807-14:29:24.898|37=OrderID_152924|11=20120807-152924-7585843|17=ExecID_91|20=0|150=0|39=0|1=TestAccount|63=0|55=MSFT|54=1|38=100000|40=1|15=USD|59=0|32=0|31=0|151=100000|14=0|6=0|60=20120807-15:29:24|21=1|111=0|10=025|
8=FIX.4.2|9=269|35=8|49=TradingGateway|56=Client|34=222|52=20120807-14:29:24.914|37=OrderID_152924|11=20120807-152924-7585843|17=ExecID_92|20=0|150=2|39=2|1=TestAccount|63=0|55=MSFT|54=1|38=100000|40=1|15=USD|59=0|32=100000|31=100|151=0|14=100000|6=100|60=20120807-15:29:24|21=1|111=0|10=208|
8=FIX.4.2|9=260|35=8|49=TradingGateway|56=Client|34=223|52=20120807-14:29:24.930|37=OrderID_152924|11=20120807-152924-7897809|17=ExecID_93|20=0|150=0|39=0|1=TestAccount|63=0|55=MSFT|54=1|38=100000|40=1|15=USD|59=0|32=0|31=0|151=100000|14=0|6=0|60=20120807-15:29:24|21=1|111=0|10=024|
8=FIX.4.2|9=273|35=8|49=TradingGateway|56=Client|34=224|52=20120807-14:29:24.945|37=OrderID_152924|11=20120807-152924-7897809|17=ExecID_94|20=0|150=2|39=2|1=TestAccount|63=0|55=MSFT|54=1|38=100000|40=1|15=USD|59=0|32=100000|31=100.5|151=0|14=100000|6=100.5|60=20120807-15:29:24|21=1|111=0|10=161|
8=FIX.4.2|9=260|35=8|49=TradingGateway|56=Client|34=225|52=20120807-14:29:24.961|37=OrderID_152924|11=20120807-152924-8209775|17=ExecID_95|20=0|150=0|39=0|1=TestAccount|63=0|55=MSFT|54=1|38=100000|40=1|15=USD|59=0|32=0|31=0|151=100000|14=0|6=0|60=20120807-15:29:24|21=1|111=0|10=022|
8=FIX.4.2|9=269|35=8|49=TradingGateway|56=Client|34=226|52=20120807-14:29:24.976|37=OrderID_152924|11=20120807-152924-8209775|17=ExecID_96|20=0|150=2|39=2|1=TestAccount|63=0|55=MSFT|54=1|38=100000|40=1|15=USD|59=0|32=100000|31=102|151=0|14=100000|6=102|60=20120807-15:29:24|21=1|111=0|10=226|
8=FIX.4.2|9=260|35=8|49=TradingGateway|56=Client|34=227|52=20120807-14:29:25.008|37=OrderID_152925|11=20120807-152924-8521741|17=ExecID_97|20=0|150=0|39=0|1=TestAccount|63=0|55=MSFT|54=1|38=100000|40=1|15=USD|59=0|32=0|31=0|151=100000|14=0|6=0|60=20120807-15:29:25|21=1|111=0|10=011|
8=FIX.4.2|9=269|35=8|49=TradingGateway|56=Client|34=228|52=20120807-14:29:25.023|37=OrderID_152925|11=20120807-152924-8521741|17=ExecID_98|20=0|150=2|39=2|1=TestAccount|63=0|55=MSFT|54=1|38=100000|40=1|15=USD|59=0|32=100000|31=102|151=0|14=100000|6=102|60=20120807-15:29:25|21=1|111=0|10=206|
8=FIX.4.2|9=260|35=8|49=TradingGateway|56=Client|34=229|52=20120807-14:29:25.039|37=OrderID_152925|11=20120807-152924-8989690|17=ExecID_99|20=0|150=0|39=0|1=TestAccount|63=0|55=MSFT|54=1|38=100000|40=1|15=USD|59=0|32=0|31=0|151=100000|14=0|6=0|60=20120807-15:29:25|21=1|111=0|10=040|
8=FIX.4.2|9=274|35=8|49=TradingGateway|56=Client|34=230|52=20120807-14:29:25.054|37=OrderID_152925|11=20120807-152924-8989690|17=ExecID_100|20=0|150=2|39=2|1=TestAccount|63=0|55=MSFT|54=1|38=100000|40=1|15=USD|59=0|32=100000|31=101.5|151=0|14=100000|6=101.5|60=20120807-15:29:25|21=1|111=0|10=192|
8=FIX.4.2|9=261|35=8|49=TradingGateway|56=Client|34=231|52=20120807-14:29:25.086|37=OrderID_152925|11=20120807-152924-9301656|17=ExecID_101|20=0|150=0|39=0|1=TestAccount|63=0|55=MSFT|54=1|38=100000|40=1|15=USD|59=0|32=0|31=0|151=100000|14=0|6=0|60=20120807-15:29:25|21=1|111=0|10=049|
8=FIX.4.2|9=274|35=8|49=TradingGateway|56=Client|34=232|52=20120807-14:29:25.101|37=OrderID_152925|11=20120807-152924-9301656|17=ExecID_102|20=0|150=2|39=2|1=TestAccount|63=0|55=MSFT|54=1|38=100000|40=1|15=USD|59=0|32=100000|31=101.5|151=0|14=100000|6=101.5|60=20120807-15:29:25|21=1|111=0|10=170|
8=FIX.4.2|9=261|35=8|49=TradingGateway|56=Client|34=233|52=20120807-14:29:25.117|37=OrderID_152925|11=20120807-152924-9613622|17=ExecID_103|20=0|150=0|39=0|1=TestAccount|63=0|55=MSFT|54=1|38=100000|40=1|15=USD|59=0|32=0|31=0|151=100000|14=0|6=0|60=20120807-15:29:25|21=1|111=0|10=047|
8=FIX.4.2|9=270|35=8|49=TradingGateway|56=Client|34=234|52=20120807-14:29:25.132|37=OrderID_152925|11=20120807-152924-9613622|17=ExecID_104|20=0|150=2|39=2|1=TestAccount|63=0|55=MSFT|54=1|38=100000|40=1|15=USD|59=0|32=100000|31=101|151=0|14=100000|6=101|60=20120807-15:29:25|21=1|111=0|10=231|
8=FIX.4.2|9=261|35=8|49=TradingGateway|56=Client|34=235|52=20120807-14:29:25.148|37=OrderID_152925|11=20120807-152924-9925588|17=ExecID_105|20=0|150=0|39=0|1=TestAccount|63=0|55=MSFT|54=1|38=100000|40=1|15=USD|59=0|32=0|31=0|151=100000|14=0|6=0|60=20120807-15:29:25|21=1|111=0|10=072|
8=FIX.4.2|9=270|35=8|49=TradingGateway|56=Client|34=236|52=20120807-14:29:25.164|37=OrderID_152925|11=20120807-152924-9925588|17=ExecID_106|20=0|150=2|39=2|1=TestAccount|63=0|55=MSFT|54=1|38=100000|40=1|15=USD|59=0|32=100000|31=101|151=0|14=100000|6=101|60=20120807-15:29:25|21=1|111=0|10=001|
8=FIX.4.2|9=261|35=8|49=TradingGateway|56=Client|34=237|52=20120807-14:29:25.195|37=OrderID_152925|11=20120807-152925-0237554|17=ExecID_107|20=0|150=0|39=0|1=TestAccount|63=0|55=MSFT|54=1|38=100000|40=1|15=USD|59=0|32=0|31=0|151=100000|14=0|6=0|60=20120807-15:29:25|21=1|111=0|10=059|
8=FIX.4.2|9=274|35=8|49=TradingGateway|56=Client|34=238|52=20120807-14:29:25.210|37=OrderID_152925|11=20120807-152925-0237554|17=ExecID_108|20=0|150=2|39=2|1=TestAccount|63=0|55=MSFT|54=1|38=100000|40=1|15=USD|59=0|32=100000|31=100.5|151=0|14=100000|6=100.5|60=20120807-15:29:25|21=1|111=0|10=178|
8=FIX.4.2|9=261|35=8|49=TradingGateway|56=Client|34=239|52=20120807-14:29:25.226|37=OrderID_152925|11=20120807-152925-0705503|17=ExecID_109|20=0|150=0|39=0|1=TestAccount|63=0|55=MSFT|54=1|38=100000|40=1|15=USD|59=0|32=0|31=0|151=100000|14=0|6=0|60=20120807-15:29:25|21=1|111=0|10=052|
8=FIX.4.2|9=274|35=8|49=TradingGateway|56=Client|34=240|52=20120807-14:29:25.242|37=OrderID_152925|11=20120807-152925-0705503|17=ExecID_110|20=0|150=2|39=2|1=TestAccount|63=0|55=MSFT|54=1|38=100000|40=1|15=USD|59=0|32=100000|31=100.5|151=0|14=100000|6=100.5|60=20120807-15:29:25|21=1|111=0|10=163|
8=FIX.4.2|9=261|35=8|49=TradingGateway|56=Client|34=241|52=20120807-14:29:25.257|37=OrderID_152925|11=20120807-152925-1017469|17=ExecID_111|20=0|150=0|39=0|1=TestAccount|63=0|55=MSFT|54=1|38=100000|40=1|15=USD|59=0|32=0|31=0|151=100000|14=0|6=0|60=20120807-15:29:25|21=1|111=0|10=050|
8=FIX.4.2|9=270|35=8|49=TradingGateway|56=Client|34=242|52=20120807-14:29:25.273|37=OrderID_152925|11=20120807-152925-1017469|17=ExecID_112|20=0|150=2|39=2|1=TestAccount|63=0|55=MSFT|54=1|38=100000|40=1|15=USD|59=0|32=100000|31=101|151=0|14=100000|6=101|60=20120807-15:29:25|21=1|111=0|10=235|
8=FIX.4.2|9=261|35=8|49=TradingGateway|56=Client|34=243|52=20120807-14:29:25.304|37=OrderID_152925|11=20120807-152925-1329435|17=ExecID_113|20=0|150=0|39=0|1=TestAccount|63=0|55=MSFT|54=1|38=100000|40=1|15=USD|59=0|32=0|31=0|151=100000|14=0|6=0|60=20120807-15:29:25|21=1|111=0|10=046|
8=FIX.4.2|9=270|35=8|49=TradingGateway|56=Client|34=244|52=20120807-14:29:25.304|37=OrderID_152925|11=20120807-152925-1329435|17=ExecID_114|20=0|150=2|39=2|1=TestAccount|63=0|55=MSFT|54=1|38=100000|40=1|15=USD|59=0|32=100000|31=100|151=0|14=100000|6=100|60=20120807-15:29:25|21=1|111=0|10=231|
8=FIX.4.2|9=261|35=8|49=TradingGateway|56=Client|34=245|52=20120807-14:29:25.335|37=OrderID_152925|11=20120807-152925-1641401|17=ExecID_115|20=0|150=0|39=0|1=TestAccount|63=0|55=MSFT|54=1|38=100000|40=1|15=USD|59=0|32=0|31=0|151=100000|14=0|6=0|60=20120807-15:29:25|21=1|111=0|10=044|
8=FIX.4.2|9=274|35=8|49=TradingGateway|56=Client|34=246|52=20120807-14:29:25.351|37=OrderID_152925|11=20120807-152925-1641401|17=ExecID_116|20=0|150=2|39=2|1=TestAccount|63=0|55=MSFT|54=1|38=100000|40=1|15=USD|59=0|32=100000|31=100.5|151=0|14=100000|6=100.5|60=20120807-15:29:25|21=1|111=0|10=173|
8=FIX.4.2|9=261|35=8|49=TradingGateway|56=Client|34=247|52=20120807-14:29:25.366|37=OrderID_152925|11=20120807-152925-1953367|17=ExecID_117|20=0|150=0|39=0|1=TestAccount|63=0|55=MSFT|54=1|38=100000|40=1|15=USD|59=0|32=0|31=0|151=100000|14=0|6=0|60=20120807-15:29:25|21=1|111=0|10=069|
8=FIX.4.2|9=270|35=8|49=TradingGateway|56=Client|34=248|52=20120807-14:29:25.382|37=OrderID_152925|11=20120807-152925-1953367|17=ExecID_118|20=0|150=2|39=2|1=TestAccount|63=0|55=MSFT|54=1|38=100000|40=1|15=USD|59=0|32=100000|31=101|151=0|14=100000|6=101|60=20120807-15:29:25|21=1|111=0|10=254|
8=FIX.4.2|9=261|35=8|49=TradingGateway|56=Client|34=249|52=20120807-14:29:25.413|37=OrderID_152925|11=20120807-152925-2265333|17=ExecID_119|20=0|150=0|39=0|1=TestAccount|63=0|55=MSFT|54=1|38=100000|40=1|15=USD|59=0|32=0|31=0|151=100000|14=0|6=0|60=20120807-15:29:25|21=1|111=0|10=056|
8=FIX.4.2|9=270|35=8|49=TradingGateway|56=Client|34=250|52=20120807-14:29:25.413|37=OrderID_152925|11=20120807-152925-2265333|17=ExecID_120|20=0|150=2|39=2|1=TestAccount|63=0|55=MSFT|54=1|38=100000|40=1|15=USD|59=0|32=100000|31=100|151=0|14=100000|6=100|60=20120807-15:29:25|21=1|111=0|10=223|
8=FIX.4.2|9=261|35=8|49=TradingGateway|56=Client|34=251|52=20120807-14:29:25.538|37=OrderID_152925|11=20120807-152925-2577299|17=ExecID_121|20=0|150=0|39=0|1=TestAccount|63=0|55=MSFT|54=1|38=100000|40=1|15=USD|59=0|32=0|31=0|151=100000|14=0|6=0|60=20120807-15:29:25|21=1|111=0|10=067|
8=FIX.4.2|9=274|35=8|49=TradingGateway|56=Client|34=252|52=20120807-14:29:25.554|37=OrderID_152925|11=20120807-152925-2577299|17=ExecID_122|20=0|150=2|39=2|1=TestAccount|63=0|55=MSFT|54=1|38=100000|40=1|15=USD|59=0|32=100000|31=100.5|151=0|14=100000|6=100.5|60=20120807-15:29:25|21=1|111=0|10=196|
8=FIX.4.2|9=261|35=8|49=TradingGateway|56=Client|34=253|52=20120807-14:29:25.569|37=OrderID_152925|11=20120807-152925-3045248|17=ExecID_123|20=0|150=0|39=0|1=TestAccount|63=0|55=MSFT|54=1|38=100000|40=1|15=USD|59=0|32=0|31=0|151=100000|14=0|6=0|60=20120807-15:29:25|21=1|111=0|10=060|
8=FIX.4.2|9=270|35=8|49=TradingGateway|56=Client|34=254|52=20120807-14:29:25.585|37=OrderID_152925|11=20120807-152925-3045248|17=ExecID_124|20=0|150=2|39=2|1=TestAccount|63=0|55=MSFT|54=1|38=100000|40=1|15=USD|59=0|32=100000|31=101|151=0|14=100000|6=101|60=20120807-15:29:25|21=1|111=0|10=245|
8=FIX.4.2|9=261|35=8|49=TradingGateway|56=Client|34=255|52=20120807-14:29:25.616|37=OrderID_152925|11=20120807-152925-3357214|17=ExecID_125|20=0|150=0|39=0|1=TestAccount|63=0|55=MSFT|54=1|38=100000|40=1|15=USD|59=0|32=0|31=0|151=100000|14=0|6=0|60=20120807-15:29:25|21=1|111=0|10=056|
8=FIX.4.2|9=270|35=8|49=TradingGateway|56=Client|34=256|52=20120807-14:29:25.616|37=OrderID_152925|11=20120807-152925-3357214|17=ExecID_126|20=0|150=2|39=2|1=TestAccount|63=0|55=MSFT|54=1|38=100000|40=1|15=USD|59=0|32=100000|31=100|151=0|14=100000|6=100|60=20120807-15:29:25|21=1|111=0|10=241|
8=FIX.4.2|9=261|35=8|49=TradingGateway|56=Client|34=257|52=20120807-14:29:25.647|37=OrderID_152925|11=20120807-152925-3669180|17=ExecID_127|20=0|150=0|39=0|1=TestAccount|63=0|55=MSFT|54=1|38=100000|40=1|15=USD|59=0|32=0|31=0|151=100000|14=0|6=0|60=20120807-15:29:25|21=1|111=0|10=072|
8=FIX.4.2|9=274|35=8|49=TradingGateway|56=Client|34=258|52=20120807-14:29:25.663|37=OrderID_152925|11=20120807-152925-3669180|17=ExecID_128|20=0|150=2|39=2|1=TestAccount|63=0|55=MSFT|54=1|38=100000|40=1|15=USD|59=0|32=100000|31=100.5|151=0|14=100000|6=100.5|60=20120807-15:29:25|21=1|111=0|10=201|
8=FIX.4.2|9=261|35=8|49=TradingGateway|56=Client|34=259|52=20120807-14:29:25.678|37=OrderID_152925|11=20120807-152925-4137129|17=ExecID_129|20=0|150=0|39=0|1=TestAccount|63=0|55=MSFT|54=1|38=100000|40=1|15=USD|59=0|32=0|31=0|151=100000|14=0|6=0|60=20120807-15:29:25|21=1|111=0|10=074|
8=FIX.4.2|9=270|35=8|49=TradingGateway|56=Client|34=260|52=20120807-14:29:25.694|37=OrderID_152925|11=20120807-152925-4137129|17=ExecID_130|20=0|150=2|39=2|1=TestAccount|63=0|55=MSFT|54=1|38=100000|40=1|15=USD|59=0|32=100000|31=101|151=0|14=100000|6=101|60=20120807-15:29:25|21=1|111=0|10=241|
8=FIX.4.2|9=261|35=8|49=TradingGateway|56=Client|34=261|52=20120807-14:29:25.725|37=OrderID_152925|11=20120807-152925-4605078|17=ExecID_131|20=0|150=0|39=0|1=TestAccount|63=0|55=MSFT|54=1|38=100000|40=1|15=USD|59=0|32=0|31=0|151=100000|14=0|6=0|60=20120807-15:29:25|21=1|111=0|10=056|
8=FIX.4.2|9=270|35=8|49=TradingGateway|56=Client|34=262|52=20120807-14:29:25.725|37=OrderID_152925|11=20120807-152925-4605078|17=ExecID_132|20=0|150=2|39=2|1=TestAccount|63=0|55=MSFT|54=1|38=100000|40=1|15=USD|59=0|32=100000|31=100|151=0|14=100000|6=100|60=20120807-15:29:25|21=1|111=0|10=241|
8=FIX.4.2|9=261|35=8|49=TradingGateway|56=Client|34=263|52=20120807-14:29:25.756|37=OrderID_152925|11=20120807-152925-5229010|17=ExecID_133|20=0|150=0|39=0|1=TestAccount|63=0|55=MSFT|54=1|38=100000|40=1|15=USD|59=0|32=0|31=0|151=100000|14=0|6=0|60=20120807-15:29:25|21=1|111=0|10=053|
8=FIX.4.2|9=274|35=8|49=TradingGateway|56=Client|34=264|52=20120807-14:29:25.772|37=OrderID_152925|11=20120807-152925-5229010|17=ExecID_134|20=0|150=2|39=2|1=TestAccount|63=0|55=MSFT|54=1|38=100000|40=1|15=USD|59=0|32=100000|31=100.5|151=0|14=100000|6=100.5|60=20120807-15:29:25|21=1|111=0|10=182|
8=FIX.4.2|9=261|35=8|49=TradingGateway|56=Client|34=265|52=20120807-14:29:25.788|37=OrderID_152925|11=20120807-152925-5384993|17=ExecID_135|20=0|150=0|39=0|1=TestAccount|63=0|55=MSFT|54=1|38=100000|40=1|15=USD|59=0|32=0|31=0|151=100000|14=0|6=0|60=20120807-15:29:25|21=1|111=0|10=084|
8=FIX.4.2|9=270|35=8|49=TradingGateway|56=Client|34=266|52=20120807-14:29:25.803|37=OrderID_152925|11=20120807-152925-5384993|17=ExecID_136|20=0|150=2|39=2|1=TestAccount|63=0|55=MSFT|54=1|38=100000|40=1|15=USD|59=0|32=100000|31=101|151=0|14=100000|6=101|60=20120807-15:29:25|21=1|111=0|10=003|
8=FIX.4.2|9=261|35=8|49=TradingGateway|56=Client|34=267|52=20120807-14:29:25.819|37=OrderID_152925|11=20120807-152925-5696959|17=ExecID_137|20=0|150=0|39=0|1=TestAccount|63=0|55=MSFT|54=1|38=100000|40=1|15=USD|59=0|32=0|31=0|151=100000|14=0|6=0|60=20120807-15:29:25|21=1|111=0|10=091|
8=FIX.4.2|9=274|35=8|49=TradingGateway|56=Client|34=268|52=20120807-14:29:25.834|37=OrderID_152925|11=20120807-152925-5696959|17=ExecID_138|20=0|150=2|39=2|1=TestAccount|63=0|55=MSFT|54=1|38=100000|40=1|15=USD|59=0|32=100000|31=100.5|151=0|14=100000|6=100.5|60=20120807-15:29:25|21=1|111=0|10=219|
8=FIX.4.2|9=261|35=8|49=TradingGateway|56=Client|34=269|52=20120807-14:29:25.866|37=OrderID_152925|11=20120807-152925-6008925|17=ExecID_139|20=0|150=0|39=0|1=TestAccount|63=0|55=MSFT|54=1|38=100000|40=1|15=USD|59=0|32=0|31=0|151=100000|14=0|6=0|60=20120807-15:29:25|21=1|111=0|10=078|
8=FIX.4.2|9=274|35=8|49=TradingGateway|56=Client|34=270|52=20120807-14:29:25.866|37=OrderID_152925|11=20120807-152925-6008925|17=ExecID_140|20=0|150=2|39=2|1=TestAccount|63=0|55=MSFT|54=1|38=100000|40=1|15=USD|59=0|32=100000|31=100.5|151=0|14=100000|6=100.5|60=20120807-15:29:25|21=1|111=0|10=191|
8=FIX.4.2|9=261|35=8|49=TradingGateway|56=Client|34=271|52=20120807-14:29:25.959|37=OrderID_152925|11=20120807-152925-6476874|17=ExecID_141|20=0|150=0|39=0|1=TestAccount|63=0|55=MSFT|54=1|38=100000|40=1|15=USD|59=0|32=0|31=0|151=100000|14=0|6=0|60=20120807-15:29:25|21=1|111=0|10=079|
8=FIX.4.2|9=274|35=8|49=TradingGateway|56=Client|34=272|52=20120807-14:29:25.975|37=OrderID_152925|11=20120807-152925-6476874|17=ExecID_142|20=0|150=2|39=2|1=TestAccount|63=0|55=MSFT|54=1|38=100000|40=1|15=USD|59=0|32=100000|31=100.5|151=0|14=100000|6=100.5|60=20120807-15:29:25|21=1|111=0|10=208|
8=FIX.4.2|9=261|35=8|49=TradingGateway|56=Client|34=273|52=20120807-14:29:25.990|37=OrderID_152925|11=20120807-152925-6788840|17=ExecID_143|20=0|150=0|39=0|1=TestAccount|63=0|55=MSFT|54=1|38=100000|40=1|15=USD|59=0|32=0|31=0|151=100000|14=0|6=0|60=20120807-15:29:25|21=1|111=0|10=077|
8=FIX.4.2|9=270|35=8|49=TradingGateway|56=Client|34=274|52=20120807-14:29:26.006|37=OrderID_152925|11=20120807-152925-6788840|17=ExecID_144|20=0|150=2|39=2|1=TestAccount|63=0|55=MSFT|54=1|38=100000|40=1|15=USD|59=0|32=100000|31=101|151=0|14=100000|6=101|60=20120807-15:29:25|21=1|111=0|10=253|
8=FIX.4.2|9=261|35=8|49=TradingGateway|56=Client|34=275|52=20120807-14:29:27.503|37=OrderID_152927|11=20120807-152925-7100806|17=ExecID_145|20=0|150=0|39=0|1=TestAccount|63=0|55=MSFT|54=1|38=100000|40=1|15=USD|59=0|32=0|31=0|151=100000|14=0|6=0|60=20120807-15:29:27|21=1|111=0|10=058|
8=FIX.4.2|9=270|35=8|49=TradingGateway|56=Client|34=276|52=20120807-14:29:27.503|37=OrderID_152927|11=20120807-152925-7100806|17=ExecID_146|20=0|150=2|39=2|1=TestAccount|63=0|55=MSFT|54=1|38=100000|40=1|15=USD|59=0|32=100000|31=102|151=0|14=100000|6=102|60=20120807-15:29:27|21=1|111=0|10=247|
8=FIX.4.2|9=261|35=8|49=TradingGateway|56=Client|34=277|52=20120807-14:29:28.003|37=OrderID_152927|11=20120807-152927-4882868|17=ExecID_147|20=0|150=0|39=0|1=TestAccount|63=0|55=MSFT|54=1|38=100000|40=1|15=USD|59=0|32=0|31=0|151=100000|14=0|6=0|60=20120807-15:29:28|21=1|111=0|10=083|
8=FIX.4.2|9=274|35=8|49=TradingGateway|56=Client|34=278|52=20120807-14:29:28.003|37=OrderID_152927|11=20120807-152927-4882868|17=ExecID_148|20=0|150=2|39=2|1=TestAccount|63=0|55=MSFT|54=1|38=100000|40=1|15=USD|59=0|32=100000|31=100.5|151=0|14=100000|6=100.5|60=20120807-15:29:28|21=1|111=0|10=214|
8=FIX.4.2|9=261|35=8|49=TradingGateway|56=Client|34=279|52=20120807-14:29:28.034|37=OrderID_152928|11=20120807-152927-9874324|17=ExecID_149|20=0|150=0|39=0|1=TestAccount|63=0|55=MSFT|54=1|38=100000|40=1|15=USD|59=0|32=0|31=0|151=100000|14=0|6=0|60=20120807-15:29:28|21=1|111=0|10=085|
8=FIX.4.2|9=274|35=8|49=TradingGateway|56=Client|34=280|52=20120807-14:29:28.049|37=OrderID_152928|11=20120807-152927-9874324|17=ExecID_150|20=0|150=2|39=2|1=TestAccount|63=0|55=MSFT|54=1|38=100000|40=1|15=USD|59=0|32=100000|31=100.5|151=0|14=100000|6=100.5|60=20120807-15:29:28|21=1|111=0|10=204|
8=FIX.4.2|9=261|35=8|49=TradingGateway|56=Client|34=281|52=20120807-14:29:28.065|37=OrderID_152928|11=20120807-152928-0186290|17=ExecID_151|20=0|150=0|39=0|1=TestAccount|63=0|55=MSFT|54=1|38=100000|40=1|15=USD|59=0|32=0|31=0|151=100000|14=0|6=0|60=20120807-15:29:28|21=1|111=0|10=065|
8=FIX.4.2|9=270|35=8|49=TradingGateway|56=Client|34=282|52=20120807-14:29:28.081|37=OrderID_152928|11=20120807-152928-0186290|17=ExecID_152|20=0|150=2|39=2|1=TestAccount|63=0|55=MSFT|54=1|38=100000|40=1|15=USD|59=0|32=100000|31=101|151=0|14=100000|6=101|60=20120807-15:29:28|21=1|111=0|10=250|
8=FIX.4.2|9=261|35=8|49=TradingGateway|56=Client|34=283|52=20120807-14:29:28.096|37=OrderID_152928|11=20120807-152928-0498256|17=ExecID_153|20=0|150=0|39=0|1=TestAccount|63=0|55=MSFT|54=1|38=100000|40=1|15=USD|59=0|32=0|31=0|151=100000|14=0|6=0|60=20120807-15:29:28|21=1|111=0|10=081|
8=FIX.4.2|9=274|35=8|49=TradingGateway|56=Client|34=284|52=20120807-14:29:28.112|37=OrderID_152928|11=20120807-152928-0498256|17=ExecID_154|20=0|150=2|39=2|1=TestAccount|63=0|55=MSFT|54=1|38=100000|40=1|15=USD|59=0|32=100000|31=101.5|151=0|14=100000|6=101.5|60=20120807-15:29:28|21=1|111=0|10=203|
8=FIX.4.2|9=261|35=8|49=TradingGateway|56=Client|34=285|52=20120807-14:29:28.143|37=OrderID_152928|11=20120807-152928-0966205|17=ExecID_155|20=0|150=0|39=0|1=TestAccount|63=0|55=MSFT|54=1|38=100000|40=1|15=USD|59=0|32=0|31=0|151=100000|14=0|6=0|60=20120807-15:29:28|21=1|111=0|10=072|
8=FIX.4.2|9=274|35=8|49=TradingGateway|56=Client|34=286|52=20120807-14:29:28.159|37=OrderID_152928|11=20120807-152928-0966205|17=ExecID_156|20=0|150=2|39=2|1=TestAccount|63=0|55=MSFT|54=1|38=100000|40=1|15=USD|59=0|32=100000|31=100.5|151=0|14=100000|6=100.5|60=20120807-15:29:28|21=1|111=0|10=210|
8=FIX.4.2|9=261|35=8|49=TradingGateway|56=Client|34=287|52=20120807-14:29:28.174|37=OrderID_152928|11=20120807-152928-1278171|17=ExecID_157|20=0|150=0|39=0|1=TestAccount|63=0|55=MSFT|54=1|38=100000|40=1|15=USD|59=0|32=0|31=0|151=100000|14=0|6=0|60=20120807-15:29:28|21=1|111=0|10=079|
8=FIX.4.2|9=270|35=8|49=TradingGateway|56=Client|34=288|52=20120807-14:29:28.190|37=OrderID_152928|11=20120807-152928-1278171|17=ExecID_158|20=0|150=2|39=2|1=TestAccount|63=0|55=MSFT|54=1|38=100000|40=1|15=USD|59=0|32=100000|31=101|151=0|14=100000|6=101|60=20120807-15:29:28|21=1|111=0|10=008|
8=FIX.4.2|9=261|35=8|49=TradingGateway|56=Client|34=289|52=20120807-14:29:28.205|37=OrderID_152928|11=20120807-152928-1590137|17=ExecID_159|20=0|150=0|39=0|1=TestAccount|63=0|55=MSFT|54=1|38=100000|40=1|15=USD|59=0|32=0|31=0|151=100000|14=0|6=0|60=20120807-15:29:28|21=1|111=0|10=077|
8=FIX.4.2|9=274|35=8|49=TradingGateway|56=Client|34=290|52=20120807-14:29:28.221|37=OrderID_152928|11=20120807-152928-1590137|17=ExecID_160|20=0|150=2|39=2|1=TestAccount|63=0|55=MSFT|54=1|38=100000|40=1|15=USD|59=0|32=100000|31=101.5|151=0|14=100000|6=101.5|60=20120807-15:29:28|21=1|111=0|10=190|
8=FIX.4.2|9=261|35=8|49=TradingGateway|56=Client|34=291|52=20120807-14:29:28.237|37=OrderID_152928|11=20120807-152928-1902103|17=ExecID_161|20=0|150=0|39=0|1=TestAccount|63=0|55=MSFT|54=1|38=100000|40=1|15=USD|59=0|32=0|31=0|151=100000|14=0|6=0|60=20120807-15:29:28|21=1|111=0|10=058|
8=FIX.4.2|9=270|35=8|49=TradingGateway|56=Client|34=292|52=20120807-14:29:28.252|37=OrderID_152928|11=20120807-152928-1902103|17=ExecID_162|20=0|150=2|39=2|1=TestAccount|63=0|55=MSFT|54=1|38=100000|40=1|15=USD|59=0|32=100000|31=101|151=0|14=100000|6=101|60=20120807-15:29:28|21=1|111=0|10=242|
8=FIX.4.2|9=261|35=8|49=TradingGateway|56=Client|34=293|52=20120807-14:29:28.283|37=OrderID_152928|11=20120807-152928-2214069|17=ExecID_163|20=0|150=0|39=0|1=TestAccount|63=0|55=MSFT|54=1|38=100000|40=1|15=USD|59=0|32=0|31=0|151=100000|14=0|6=0|60=20120807-15:29:28|21=1|111=0|10=071|
8=FIX.4.2|9=270|35=8|49=TradingGateway|56=Client|34=294|52=20120807-14:29:28.299|37=OrderID_152928|11=20120807-152928-2214069|17=ExecID_164|20=0|150=2|39=2|1=TestAccount|63=0|55=MSFT|54=1|38=100000|40=1|15=USD|59=0|32=100000|31=101|151=0|14=100000|6=101|60=20120807-15:29:28|21=1|111=0|10=009|
8=FIX.4.2|9=261|35=8|49=TradingGateway|56=Client|34=295|52=20120807-14:29:28.314|37=OrderID_152928|11=20120807-152928-2526035|17=ExecID_165|20=0|150=0|39=0|1=TestAccount|63=0|55=MSFT|54=1|38=100000|40=1|15=USD|59=0|32=0|31=0|151=100000|14=0|6=0|60=20120807-15:29:28|21=1|111=0|10=069|
8=FIX.4.2|9=274|35=8|49=TradingGateway|56=Client|34=296|52=20120807-14:29:28.330|37=OrderID_152928|11=20120807-152928-2526035|17=ExecID_166|20=0|150=2|39=2|1=TestAccount|63=0|55=MSFT|54=1|38=100000|40=1|15=USD|59=0|32=100000|31=100.5|151=0|14=100000|6=100.5|60=20120807-15:29:28|21=1|111=0|10=198|
8=FIX.4.2|9=261|35=8|49=TradingGateway|56=Client|34=297|52=20120807-14:29:28.361|37=OrderID_152928|11=20120807-152928-2993984|17=ExecID_167|20=0|150=0|39=0|1=TestAccount|63=0|55=MSFT|54=1|38=100000|40=1|15=USD|59=0|32=0|31=0|151=100000|14=0|6=0|60=20120807-15:29:28|21=1|111=0|10=096|
8=FIX.4.2|9=274|35=8|49=TradingGateway|56=Client|34=298|52=20120807-14:29:28.361|37=OrderID_152928|11=20120807-152928-2993984|17=ExecID_168|20=0|150=2|39=2|1=TestAccount|63=0|55=MSFT|54=1|38=100000|40=1|15=USD|59=0|32=100000|31=100.5|151=0|14=100000|6=100.5|60=20120807-15:29:28|21=1|111=0|10=227|
8=FIX.4.2|9=261|35=8|49=TradingGateway|56=Client|34=299|52=20120807-14:29:28.392|37=OrderID_152928|11=20120807-152928-3305950|17=ExecID_169|20=0|150=0|39=0|1=TestAccount|63=0|55=MSFT|54=1|38=100000|40=1|15=USD|59=0|32=0|31=0|151=100000|14=0|6=0|60=20120807-15:29:28|21=1|111=0|10=085|
8=FIX.4.2|9=270|35=8|49=TradingGateway|56=Client|34=300|52=20120807-14:29:28.408|37=OrderID_152928|11=20120807-152928-3305950|17=ExecID_170|20=0|150=2|39=2|1=TestAccount|63=0|55=MSFT|54=1|38=100000|40=1|15=USD|59=0|32=100000|31=102|151=0|14=100000|6=102|60=20120807-15:29:28|21=1|111=0|10=245|
8=FIX.4.2|9=261|35=8|49=TradingGateway|56=Client|34=301|52=20120807-14:29:28.424|37=OrderID_152928|11=20120807-152928-3617916|17=ExecID_171|20=0|150=0|39=0|1=TestAccount|63=0|55=MSFT|54=1|38=100000|40=1|15=USD|59=0|32=0|31=0|151=100000|14=0|6=0|60=20120807-15:29:28|21=1|111=0|10=066|
8=FIX.4.2|9=270|35=8|49=TradingGateway|56=Client|34=302|52=20120807-14:29:28.439|37=OrderID_152928|11=20120807-152928-3617916|17=ExecID_172|20=0|150=2|39=2|1=TestAccount|63=0|55=MSFT|54=1|38=100000|40=1|15=USD|59=0|32=100000|31=100|151=0|14=100000|6=100|60=20120807-15:29:28|21=1|111=0|10=001|
8=FIX.4.2|9=261|35=8|49=TradingGateway|56=Client|34=303|52=20120807-14:29:28.470|37=OrderID_152928|11=20120807-152928-3929882|17=ExecID_173|20=0|150=0|39=0|1=TestAccount|63=0|55=MSFT|54=1|38=100000|40=1|15=USD|59=0|32=0|31=0|151=100000|14=0|6=0|60=20120807-15:29:28|21=1|111=0|10=079|
8=FIX.4.2|9=274|35=8|49=TradingGateway|56=Client|34=304|52=20120807-14:29:28.470|37=OrderID_152928|11=20120807-152928-3929882|17=ExecID_174|20=0|150=2|39=2|1=TestAccount|63=0|55=MSFT|54=1|38=100000|40=1|15=USD|59=0|32=100000|31=101.5|151=0|14=100000|6=101.5|60=20120807-15:29:28|21=1|111=0|10=212|
8=FIX.4.2|9=261|35=8|49=TradingGateway|56=Client|34=305|52=20120807-14:29:28.502|37=OrderID_152928|11=20120807-152928-4241848|17=ExecID_175|20=0|150=0|39=0|1=TestAccount|63=0|55=MSFT|54=1|38=100000|40=1|15=USD|59=0|32=0|31=0|151=100000|14=0|6=0|60=20120807-15:29:28|21=1|111=0|10=069|
8=FIX.4.2|9=274|35=8|49=TradingGateway|56=Client|34=306|52=20120807-14:29:28.502|37=OrderID_152928|11=20120807-152928-4241848|17=ExecID_176|20=0|150=2|39=2|1=TestAccount|63=0|55=MSFT|54=1|38=100000|40=1|15=USD|59=0|32=100000|31=101.5|151=0|14=100000|6=101.5|60=20120807-15:29:28|21=1|111=0|10=202|
8=FIX.4.2|9=261|35=8|49=TradingGateway|56=Client|34=307|52=20120807-14:29:28.533|37=OrderID_152928|11=20120807-152928-4553814|17=ExecID_177|20=0|150=0|39=0|1=TestAccount|63=0|55=MSFT|54=1|38=100000|40=1|15=USD|59=0|32=0|31=0|151=100000|14=0|6=0|60=20120807-15:29:28|21=1|111=0|10=076|
8=FIX.4.2|9=270|35=8|49=TradingGateway|56=Client|34=308|52=20120807-14:29:28.548|37=OrderID_152928|11=20120807-152928-4553814|17=ExecID_178|20=0|150=2|39=2|1=TestAccount|63=0|55=MSFT|54=1|38=100000|40=1|15=USD|59=0|32=100000|31=100|151=0|14=100000|6=100|60=20120807-15:29:28|21=1|111=0|10=011|
8=FIX.4.2|9=261|35=8|49=TradingGateway|56=Client|34=309|52=20120807-14:29:28.564|37=OrderID_152928|11=20120807-152928-5021763|17=ExecID_179|20=0|150=0|39=0|1=TestAccount|63=0|55=MSFT|54=1|38=100000|40=1|15=USD|59=0|32=0|31=0|151=100000|14=0|6=0|60=20120807-15:29:28|21=1|111=0|10=078|
8=FIX.4.2|9=274|35=8|49=TradingGateway|56=Client|34=310|52=20120807-14:29:28.580|37=OrderID_152928|11=20120807-152928-5021763|17=ExecID_180|20=0|150=2|39=2|1=TestAccount|63=0|55=MSFT|54=1|38=100000|40=1|15=USD|59=0|32=100000|31=100.5|151=0|14=100000|6=100.5|60=20120807-15:29:28|21=1|111=0|10=189|
8=FIX.4.2|9=261|35=8|49=TradingGateway|56=Client|34=311|52=20120807-14:29:28.595|37=OrderID_152928|11=20120807-152928-5333729|17=ExecID_181|20=0|150=0|39=0|1=TestAccount|63=0|55=MSFT|54=1|38=100000|40=1|15=USD|59=0|32=0|31=0|151=100000|14=0|6=0|60=20120807-15:29:28|21=1|111=0|10=076|
8=FIX.4.2|9=270|35=8|49=TradingGateway|56=Client|34=312|52=20120807-14:29:28.611|37=OrderID_152928|11=20120807-152928-5333729|17=ExecID_182|20=0|150=2|39=2|1=TestAccount|63=0|55=MSFT|54=1|38=100000|40=1|15=USD|59=0|32=100000|31=101|151=0|14=100000|6=101|60=20120807-15:29:28|21=1|111=0|10=252|
8=FIX.4.2|9=261|35=8|49=TradingGateway|56=Client|34=313|52=20120807-14:29:28.642|37=OrderID_152928|11=20120807-152928-5645695|17=ExecID_183|20=0|150=0|39=0|1=TestAccount|63=0|55=MSFT|54=1|38=100000|40=1|15=USD|59=0|32=0|31=0|151=100000|14=0|6=0|60=20120807-15:29:28|21=1|111=0|10=081|
8=FIX.4.2|9=270|35=8|49=TradingGateway|56=Client|34=314|52=20120807-14:29:28.642|37=OrderID_152928|11=20120807-152928-5645695|17=ExecID_184|20=0|150=2|39=2|1=TestAccount|63=0|55=MSFT|54=1|38=100000|40=1|15=USD|59=0|32=100000|31=102|151=0|14=100000|6=102|60=20120807-15:29:28|21=1|111=0|10=014|
8=FIX.4.2|9=261|35=8|49=TradingGateway|56=Client|34=315|52=20120807-14:29:28.673|37=OrderID_152928|11=20120807-152928-5957661|17=ExecID_185|20=0|150=0|39=0|1=TestAccount|63=0|55=MSFT|54=1|38=100000|40=1|15=USD|59=0|32=0|31=0|151=100000|14=0|6=0|60=20120807-15:29:28|21=1|111=0|10=088|
8=FIX.4.2|9=274|35=8|49=TradingGateway|56=Client|34=316|52=20120807-14:29:28.689|37=OrderID_152928|11=20120807-152928-5957661|17=ExecID_186|20=0|150=2|39=2|1=TestAccount|63=0|55=MSFT|54=1|38=100000|40=1|15=USD|59=0|32=100000|31=100.5|151=0|14=100000|6=100.5|60=20120807-15:29:28|21=1|111=0|10=226|
8=FIX.4.2|9=261|35=8|49=TradingGateway|56=Client|34=317|52=20120807-14:29:28.704|37=OrderID_152928|11=20120807-152928-6425610|17=ExecID_187|20=0|150=0|39=0|1=TestAccount|63=0|55=MSFT|54=1|38=100000|40=1|15=USD|59=0|32=0|31=0|151=100000|14=0|6=0|60=20120807-15:29:28|21=1|111=0|10=072|
8=FIX.4.2|9=270|35=8|49=TradingGateway|56=Client|34=318|52=20120807-14:29:28.720|37=OrderID_152928|11=20120807-152928-6425610|17=ExecID_188|20=0|150=2|39=2|1=TestAccount|63=0|55=MSFT|54=1|38=100000|40=1|15=USD|59=0|32=100000|31=102|151=0|14=100000|6=102|60=20120807-15:29:28|21=1|111=0|10=003|
8=FIX.4.2|9=261|35=8|49=TradingGateway|56=Client|34=319|52=20120807-14:29:28.751|37=OrderID_152928|11=20120807-152928-6581593|17=ExecID_189|20=0|150=0|39=0|1=TestAccount|63=0|55=MSFT|54=1|38=100000|40=1|15=USD|59=0|32=0|31=0|151=100000|14=0|6=0|60=20120807-15:29:28|21=1|111=0|10=091|
8=FIX.4.2|9=270|35=8|49=TradingGateway|56=Client|34=320|52=20120807-14:29:28.751|37=OrderID_152928|11=20120807-152928-6581593|17=ExecID_190|20=0|150=2|39=2|1=TestAccount|63=0|55=MSFT|54=1|38=100000|40=1|15=USD|59=0|32=100000|31=102|151=0|14=100000|6=102|60=20120807-15:29:28|21=1|111=0|10=006|
8=FIX.4.2|9=261|35=8|49=TradingGateway|56=Client|34=321|52=20120807-14:29:28.782|37=OrderID_152928|11=20120807-152928-6893559|17=ExecID_191|20=0|150=0|39=0|1=TestAccount|63=0|55=MSFT|54=1|38=100000|40=1|15=USD|59=0|32=0|31=0|151=100000|14=0|6=0|60=20120807-15:29:28|21=1|111=0|10=089|
8=FIX.4.2|9=274|35=8|49=TradingGateway|56=Client|34=322|52=20120807-14:29:28.798|37=OrderID_152928|11=20120807-152928-6893559|17=ExecID_192|20=0|150=2|39=2|1=TestAccount|63=0|55=MSFT|54=1|38=100000|40=1|15=USD|59=0|32=100000|31=101.5|151=0|14=100000|6=101.5|60=20120807-15:29:28|21=1|111=0|10=229|
8=FIX.4.2|9=261|35=8|49=TradingGateway|56=Client|34=323|52=20120807-14:29:28.814|37=OrderID_152928|11=20120807-152928-7361508|17=ExecID_193|20=0|150=0|39=0|1=TestAccount|63=0|55=MSFT|54=1|38=100000|40=1|15=USD|59=0|32=0|31=0|151=100000|14=0|6=0|60=20120807-15:29:28|21=1|111=0|10=074|
8=FIX.4.2|9=274|35=8|49=TradingGateway|56=Client|34=324|52=20120807-14:29:28.829|37=OrderID_152928|11=20120807-152928-7361508|17=ExecID_194|20=0|150=2|39=2|1=TestAccount|63=0|55=MSFT|54=1|38=100000|40=1|15=USD|59=0|32=100000|31=101.5|151=0|14=100000|6=101.5|60=20120807-15:29:28|21=1|111=0|10=213|
8=FIX.4.2|9=261|35=8|49=TradingGateway|56=Client|34=325|52=20120807-14:29:28.860|37=OrderID_152928|11=20120807-152928-7673474|17=ExecID_195|20=0|150=0|39=0|1=TestAccount|63=0|55=MSFT|54=1|38=100000|40=1|15=USD|59=0|32=0|31=0|151=100000|14=0|6=0|60=20120807-15:29:28|21=1|111=0|10=087|
8=FIX.4.2|9=270|35=8|49=TradingGateway|56=Client|34=326|52=20120807-14:29:28.860|37=OrderID_152928|11=20120807-152928-7673474|17=ExecID_196|20=0|150=2|39=2|1=TestAccount|63=0|55=MSFT|54=1|38=100000|40=1|15=USD|59=0|32=100000|31=101|151=0|14=100000|6=101|60=20120807-15:29:28|21=1|111=0|10=018|
8=FIX.4.2|9=261|35=8|49=TradingGateway|56=Client|34=327|52=20120807-14:29:28.892|37=OrderID_152928|11=20120807-152928-7985440|17=ExecID_197|20=0|150=0|39=0|1=TestAccount|63=0|55=MSFT|54=1|38=100000|40=1|15=USD|59=0|32=0|31=0|151=100000|14=0|6=0|60=20120807-15:29:28|21=1|111=0|10=095|
8=FIX.4.2|9=270|35=8|49=TradingGateway|56=Client|34=328|52=20120807-14:29:28.907|37=OrderID_152928|11=20120807-152928-7985440|17=ExecID_198|20=0|150=2|39=2|1=TestAccount|63=0|55=MSFT|54=1|38=100000|40=1|15=USD|59=0|32=100000|31=101|151=0|14=100000|6=101|60=20120807-15:29:28|21=1|111=0|10=023|
8=FIX.4.2|9=261|35=8|49=TradingGateway|56=Client|34=329|52=20120807-14:29:28.923|37=OrderID_152928|11=20120807-152928-8453389|17=ExecID_199|20=0|150=0|39=0|1=TestAccount|63=0|55=MSFT|54=1|38=100000|40=1|15=USD|59=0|32=0|31=0|151=100000|14=0|6=0|60=20120807-15:29:28|21=1|111=0|10=097|
8=FIX.4.2|9=274|35=8|49=TradingGateway|56=Client|34=330|52=20120807-14:29:28.938|37=OrderID_152928|11=20120807-152928-8453389|17=ExecID_200|20=0|150=2|39=2|1=TestAccount|63=0|55=MSFT|54=1|38=100000|40=1|15=USD|59=0|32=100000|31=101.5|151=0|14=100000|6=101.5|60=20120807-15:29:28|21=1|111=0|10=209|
8=FIX.4.2|9=261|35=8|49=TradingGateway|56=Client|34=331|52=20120807-14:29:28.954|37=OrderID_152928|11=20120807-152928-8609372|17=ExecID_201|20=0|150=0|39=0|1=TestAccount|63=0|55=MSFT|54=1|38=100000|40=1|15=USD|59=0|32=0|31=0|151=100000|14=0|6=0|60=20120807-15:29:28|21=1|111=0|10=073|
8=FIX.4.2|9=270|35=8|49=TradingGateway|56=Client|34=332|52=20120807-14:29:28.970|37=OrderID_152928|11=20120807-152928-8609372|17=ExecID_202|20=0|150=2|39=2|1=TestAccount|63=0|55=MSFT|54=1|38=100000|40=1|15=USD|59=0|32=100000|31=102|151=0|14=100000|6=102|60=20120807-15:29:28|21=1|111=0|10=004|
8=FIX.4.2|9=261|35=8|49=TradingGateway|56=Client|34=333|52=20120807-14:29:29.001|37=OrderID_152929|11=20120807-152928-9077321|17=ExecID_203|20=0|150=0|39=0|1=TestAccount|63=0|55=MSFT|54=1|38=100000|40=1|15=USD|59=0|32=0|31=0|151=100000|14=0|6=0|60=20120807-15:29:29|21=1|111=0|10=057|
8=FIX.4.2|9=270|35=8|49=TradingGateway|56=Client|34=334|52=20120807-14:29:29.016|37=OrderID_152929|11=20120807-152928-9077321|17=ExecID_204|20=0|150=2|39=2|1=TestAccount|63=0|55=MSFT|54=1|38=100000|40=1|15=USD|59=0|32=100000|31=101|151=0|14=100000|6=101|60=20120807-15:29:29|21=1|111=0|10=250|
8=FIX.4.2|9=261|35=8|49=TradingGateway|56=Client|34=335|52=20120807-14:29:29.032|37=OrderID_152929|11=20120807-152928-9389287|17=ExecID_205|20=0|150=0|39=0|1=TestAccount|63=0|55=MSFT|54=1|38=100000|40=1|15=USD|59=0|32=0|31=0|151=100000|14=0|6=0|60=20120807-15:29:29|21=1|111=0|10=082|
8=FIX.4.2|9=274|35=8|49=TradingGateway|56=Client|34=336|52=20120807-14:29:29.048|37=OrderID_152929|11=20120807-152928-9389287|17=ExecID_206|20=0|150=2|39=2|1=TestAccount|63=0|55=MSFT|54=1|38=100000|40=1|15=USD|59=0|32=100000|31=101.5|151=0|14=100000|6=101.5|60=20120807-15:29:29|21=1|111=0|10=222|
8=FIX.4.2|9=261|35=8|49=TradingGateway|56=Client|34=337|52=20120807-14:29:29.063|37=OrderID_152929|11=20120807-152928-9701253|17=ExecID_207|20=0|150=0|39=0|1=TestAccount|63=0|55=MSFT|54=1|38=100000|40=1|15=USD|59=0|32=0|31=0|151=100000|14=0|6=0|60=20120807-15:29:29|21=1|111=0|10=071|
8=FIX.4.2|9=270|35=8|49=TradingGateway|56=Client|34=338|52=20120807-14:29:29.079|37=OrderID_152929|11=20120807-152928-9701253|17=ExecID_208|20=0|150=2|39=2|1=TestAccount|63=0|55=MSFT|54=1|38=100000|40=1|15=USD|59=0|32=100000|31=102|151=0|14=100000|6=102|60=20120807-15:29:29|21=1|111=0|10=011|
8=FIX.4.2|9=261|35=8|49=TradingGateway|56=Client|34=339|52=20120807-14:29:29.110|37=OrderID_152929|11=20120807-152929-0013219|17=ExecID_209|20=0|150=0|39=0|1=TestAccount|63=0|55=MSFT|54=1|38=100000|40=1|15=USD|59=0|32=0|31=0|151=100000|14=0|6=0|60=20120807-15:29:29|21=1|111=0|10=058|
8=FIX.4.2|9=270|35=8|49=TradingGateway|56=Client|34=340|52=20120807-14:29:29.110|37=OrderID_152929|11=20120807-152929-0013219|17=ExecID_210|20=0|150=2|39=2|1=TestAccount|63=0|55=MSFT|54=1|38=100000|40=1|15=USD|59=0|32=100000|31=101|151=0|14=100000|6=101|60=20120807-15:29:29|21=1|111=0|10=227|
8=FIX.4.2|9=261|35=8|49=TradingGateway|56=Client|34=341|52=20120807-14:29:29.141|37=OrderID_152929|11=20120807-152929-0481168|17=ExecID_211|20=0|150=0|39=0|1=TestAccount|63=0|55=MSFT|54=1|38=100000|40=1|15=USD|59=0|32=0|31=0|151=100000|14=0|6=0|60=20120807-15:29:29|21=1|111=0|10=060|
8=FIX.4.2|9=274|35=8|49=TradingGateway|56=Client|34=342|52=20120807-14:29:29.157|37=OrderID_152929|11=20120807-152929-0481168|17=ExecID_212|20=0|150=2|39=2|1=TestAccount|63=0|55=MSFT|54=1|38=100000|40=1|15=USD|59=0|32=100000|31=101.5|151=0|14=100000|6=101.5|60=20120807-15:29:29|21=1|111=0|10=200|
8=FIX.4.2|9=261|35=8|49=TradingGateway|56=Client|34=343|52=20120807-14:29:29.172|37=OrderID_152929|11=20120807-152929-0637151|17=ExecID_213|20=0|150=0|39=0|1=TestAccount|63=0|55=MSFT|54=1|38=100000|40=1|15=USD|59=0|32=0|31=0|151=100000|14=0|6=0|60=20120807-15:29:29|21=1|111=0|10=063|
8=FIX.4.2|9=270|35=8|49=TradingGateway|56=Client|34=344|52=20120807-14:29:29.188|37=OrderID_152929|11=20120807-152929-0637151|17=ExecID_214|20=0|150=2|39=2|1=TestAccount|63=0|55=MSFT|54=1|38=100000|40=1|15=USD|59=0|32=100000|31=101|151=0|14=100000|6=101|60=20120807-15:29:29|21=1|111=0|10=001|
8=FIX.4.2|9=261|35=8|49=TradingGateway|56=Client|34=345|52=20120807-14:29:29.204|37=OrderID_152929|11=20120807-152929-1105100|17=ExecID_215|20=0|150=0|39=0|1=TestAccount|63=0|55=MSFT|54=1|38=100000|40=1|15=USD|59=0|32=0|31=0|151=100000|14=0|6=0|60=20120807-15:29:29|21=1|111=0|10=048|
8=FIX.4.2|9=270|35=8|49=TradingGateway|56=Client|34=346|52=20120807-14:29:29.219|37=OrderID_152929|11=20120807-152929-1105100|17=ExecID_216|20=0|150=2|39=2|1=TestAccount|63=0|55=MSFT|54=1|38=100000|40=1|15=USD|59=0|32=100000|31=101|151=0|14=100000|6=101|60=20120807-15:29:29|21=1|111=0|10=241|
8=FIX.4.2|9=261|35=8|49=TradingGateway|56=Client|34=347|52=20120807-14:29:29.250|37=OrderID_152929|11=20120807-152929-1417066|17=ExecID_217|20=0|150=0|39=0|1=TestAccount|63=0|55=MSFT|54=1|38=100000|40=1|15=USD|59=0|32=0|31=0|151=100000|14=0|6=0|60=20120807-15:29:29|21=1|111=0|10=070|
8=FIX.4.2|9=274|35=8|49=TradingGateway|56=Client|34=348|52=20120807-14:29:29.266|37=OrderID_152929|11=20120807-152929-1417066|17=ExecID_218|20=0|150=2|39=2|1=TestAccount|63=0|55=MSFT|54=1|38=100000|40=1|15=USD|59=0|32=100000|31=100.5|151=0|14=100000|6=100.5|60=20120807-15:29:29|21=1|111=0|10=208|
8=FIX.4.2|9=261|35=8|49=TradingGateway|56=Client|34=349|52=20120807-14:29:29.282|37=OrderID_152929|11=20120807-152929-1729032|17=ExecID_219|20=0|150=0|39=0|1=TestAccount|63=0|55=MSFT|54=1|38=100000|40=1|15=USD|59=0|32=0|31=0|151=100000|14=0|6=0|60=20120807-15:29:29|21=1|111=0|10=078|
8=FIX.4.2|9=274|35=8|49=TradingGateway|56=Client|34=350|52=20120807-14:29:29.297|37=OrderID_152929|11=20120807-152929-1729032|17=ExecID_220|20=0|150=2|39=2|1=TestAccount|63=0|55=MSFT|54=1|38=100000|40=1|15=USD|59=0|32=100000|31=100.5|151=0|14=100000|6=100.5|60=20120807-15:29:29|21=1|111=0|10=197|
8=FIX.4.2|9=261|35=8|49=TradingGateway|56=Client|34=351|52=20120807-14:29:29.313|37=OrderID_152929|11=20120807-152929-2040998|17=ExecID_221|20=0|150=0|39=0|1=TestAccount|63=0|55=MSFT|54=1|38=100000|40=1|15=USD|59=0|32=0|31=0|151=100000|14=0|6=0|60=20120807-15:29:29|21=1|111=0|10=067|
8=FIX.4.2|9=270|35=8|49=TradingGateway|56=Client|34=352|52=20120807-14:29:29.328|37=OrderID_152929|11=20120807-152929-2040998|17=ExecID_222|20=0|150=2|39=2|1=TestAccount|63=0|55=MSFT|54=1|38=100000|40=1|15=USD|59=0|32=100000|31=101|151=0|14=100000|6=101|60=20120807-15:29:29|21=1|111=0|10=004|
8=FIX.4.2|9=261|35=8|49=TradingGateway|56=Client|34=353|52=20120807-14:29:29.360|37=OrderID_152929|11=20120807-152929-2508947|17=ExecID_223|20=0|150=0|39=0|1=TestAccount|63=0|55=MSFT|54=1|38=100000|40=1|15=USD|59=0|32=0|31=0|151=100000|14=0|6=0|60=20120807-15:29:29|21=1|111=0|10=076|
8=FIX.4.2|9=270|35=8|49=TradingGateway|56=Client|34=354|52=20120807-14:29:29.360|37=OrderID_152929|11=20120807-152929-2508947|17=ExecID_224|20=0|150=2|39=2|1=TestAccount|63=0|55=MSFT|54=1|38=100000|40=1|15=USD|59=0|32=100000|31=100|151=0|14=100000|6=100|60=20120807-15:29:29|21=1|111=0|10=005|
8=FIX.4.2|9=261|35=8|49=TradingGateway|56=Client|34=355|52=20120807-14:29:29.391|37=OrderID_152929|11=20120807-152929-2664930|17=ExecID_225|20=0|150=0|39=0|1=TestAccount|63=0|55=MSFT|54=1|38=100000|40=1|15=USD|59=0|32=0|31=0|151=100000|14=0|6=0|60=20120807-15:29:29|21=1|111=0|10=079|
8=FIX.4.2|9=274|35=8|49=TradingGateway|56=Client|34=356|52=20120807-14:29:29.406|37=OrderID_152929|11=20120807-152929-2664930|17=ExecID_226|20=0|150=2|39=2|1=TestAccount|63=0|55=MSFT|54=1|38=100000|40=1|15=USD|59=0|32=100000|31=100.5|151=0|14=100000|6=100.5|60=20120807-15:29:29|21=1|111=0|10=207|
8=FIX.4.2|9=261|35=8|49=TradingGateway|56=Client|34=357|52=20120807-14:29:29.422|37=OrderID_152929|11=20120807-152929-3132879|17=ExecID_227|20=0|150=0|39=0|1=TestAccount|63=0|55=MSFT|54=1|38=100000|40=1|15=USD|59=0|32=0|31=0|151=100000|14=0|6=0|60=20120807-15:29:29|21=1|111=0|10=081|
8=FIX.4.2|9=270|35=8|49=TradingGateway|56=Client|34=358|52=20120807-14:29:29.438|37=OrderID_152929|11=20120807-152929-3132879|17=ExecID_228|20=0|150=2|39=2|1=TestAccount|63=0|55=MSFT|54=1|38=100000|40=1|15=USD|59=0|32=100000|31=101|151=0|14=100000|6=101|60=20120807-15:29:29|21=1|111=0|10=019|
8=FIX.4.2|9=261|35=8|49=TradingGateway|56=Client|34=359|52=20120807-14:29:29.469|37=OrderID_152929|11=20120807-152929-3444845|17=ExecID_229|20=0|150=0|39=0|1=TestAccount|63=0|55=MSFT|54=1|38=100000|40=1|15=USD|59=0|32=0|31=0|151=100000|14=0|6=0|60=20120807-15:29:29|21=1|111=0|10=095|
8=FIX.4.2|9=270|35=8|49=TradingGateway|56=Client|34=360|52=20120807-14:29:29.484|37=OrderID_152929|11=20120807-152929-3444845|17=ExecID_230|20=0|150=2|39=2|1=TestAccount|63=0|55=MSFT|54=1|38=100000|40=1|15=USD|59=0|32=100000|31=100|151=0|14=100000|6=100|60=20120807-15:29:29|21=1|111=0|10=003|
8=FIX.4.2|9=261|35=8|49=TradingGateway|56=Client|34=361|52=20120807-14:29:29.500|37=OrderID_152929|11=20120807-152929-3756811|17=ExecID_231|20=0|150=0|39=0|1=TestAccount|63=0|55=MSFT|54=1|38=100000|40=1|15=USD|59=0|32=0|31=0|151=100000|14=0|6=0|60=20120807-15:29:29|21=1|111=0|10=066|
8=FIX.4.2|9=274|35=8|49=TradingGateway|56=Client|34=362|52=20120807-14:29:29.516|37=OrderID_152929|11=20120807-152929-3756811|17=ExecID_232|20=0|150=2|39=2|1=TestAccount|63=0|55=MSFT|54=1|38=100000|40=1|15=USD|59=0|32=100000|31=100.5|151=0|14=100000|6=100.5|60=20120807-15:29:29|21=1|111=0|10=204|
8=FIX.4.2|9=261|35=8|49=TradingGateway|56=Client|34=363|52=20120807-14:29:29.531|37=OrderID_152929|11=20120807-152929-4224760|17=ExecID_233|20=0|150=0|39=0|1=TestAccount|63=0|55=MSFT|54=1|38=100000|40=1|15=USD|59=0|32=0|31=0|151=100000|14=0|6=0|60=20120807-15:29:29|21=1|111=0|10=068|
8=FIX.4.2|9=270|35=8|49=TradingGateway|56=Client|34=364|52=20120807-14:29:29.547|37=OrderID_152929|11=20120807-152929-4224760|17=ExecID_234|20=0|150=2|39=2|1=TestAccount|63=0|55=MSFT|54=1|38=100000|40=1|15=USD|59=0|32=100000|31=101|151=0|14=100000|6=101|60=20120807-15:29:29|21=1|111=0|10=006|
8=FIX.4.2|9=261|35=8|49=TradingGateway|56=Client|34=365|52=20120807-14:29:29.562|37=OrderID_152929|11=20120807-152929-4380743|17=ExecID_235|20=0|150=0|39=0|1=TestAccount|63=0|55=MSFT|54=1|38=100000|40=1|15=USD|59=0|32=0|31=0|151=100000|14=0|6=0|60=20120807-15:29:29|21=1|111=0|10=080|
