8=FIX.4.2|9=250|35=8|49=Trading|56=Client|34=2|52=20120909-13:22:01.175|37=OrderID_142201|11=20120909-142159-4597031|17=ExecID_1|20=0|150=0|39=0|1=TestAccount|63=0|55=MSFT|54=1|38=100000|40=1|15=USD|59=0|32=0|31=0|151=100000|14=0|6=0|60=20120909-14:22:01|21=1|111=0|10=116|
8=FIX.4.2|9=265|35=8|49=Trading|56=Client|34=3|52=20120909-13:22:01.191|37=OrderID_142201|11=20120909-142159-4597031|17=ExecID_2|20=0|150=1|39=1|1=TestAccount|63=0|55=MSFT|54=1|38=100000|40=1|15=USD|59=0|32=50000|31=100.5|151=50000|14=50000|6=100.5|60=20120909-14:22:01|21=1|111=0|10=098|
8=FIX.4.2|9=250|35=8|49=Trading|56=Client|34=5|52=20120909-13:22:58.832|37=OrderID_142258|11=20120909-142201-1288817|17=ExecID_3|20=0|150=0|39=0|1=TestAccount|63=0|55=MSFT|54=1|38=100000|40=1|15=USD|59=0|32=0|31=0|151=100000|14=0|6=0|60=20120909-14:22:58|21=1|111=0|10=151|
8=FIX.4.2|9=265|35=8|49=Trading|56=Client|34=6|52=20120909-13:22:58.832|37=OrderID_142258|11=20120909-142201-1288817|17=ExecID_4|20=0|150=1|39=1|1=TestAccount|63=0|55=MSFT|54=1|38=100000|40=1|15=USD|59=0|32=50000|31=100.5|151=50000|14=50000|6=100.5|60=20120909-14:22:58|21=1|111=0|10=135|
8=FIX.4.2|9=250|35=8|49=Trading|56=Client|34=7|52=20120909-13:22:59.409|37=OrderID_142259|11=20120909-142258-8170669|17=ExecID_5|20=0|150=0|39=0|1=TestAccount|63=0|55=MSFT|54=1|38=100000|40=1|15=USD|59=0|32=0|31=0|151=100000|14=0|6=0|60=20120909-14:22:59|21=1|111=0|10=172|
8=FIX.4.2|9=265|35=8|49=Trading|56=Client|34=8|52=20120909-13:22:59.409|37=OrderID_142259|11=20120909-142258-8170669|17=ExecID_6|20=0|150=1|39=1|1=TestAccount|63=0|55=MSFT|54=1|38=100000|40=1|15=USD|59=0|32=50000|31=100.5|151=50000|14=50000|6=100.5|60=20120909-14:22:59|21=1|111=0|10=156|
8=FIX.4.2|9=250|35=8|49=Trading|56=Client|34=9|52=20120909-13:22:59.581|37=OrderID_142259|11=20120909-142259-3942669|17=ExecID_7|20=0|150=0|39=0|1=TestAccount|63=0|55=MSFT|54=1|38=100000|40=1|15=USD|59=0|32=0|31=0|151=100000|14=0|6=0|60=20120909-14:22:59|21=1|111=0|10=180|
8=FIX.4.2|9=262|35=8|49=Trading|56=Client|34=10|52=20120909-13:22:59.581|37=OrderID_142259|11=20120909-142259-3942669|17=ExecID_8|20=0|150=1|39=1|1=TestAccount|63=0|55=MSFT|54=1|38=100000|40=1|15=USD|59=0|32=50000|31=101|151=50000|14=50000|6=101|60=20120909-14:22:59|21=1|111=0|10=004|
8=FIX.4.2|9=251|35=8|49=Trading|56=Client|34=11|52=20120909-13:22:59.768|37=OrderID_142259|11=20120909-142259-5658669|17=ExecID_9|20=0|150=0|39=0|1=TestAccount|63=0|55=MSFT|54=1|38=100000|40=1|15=USD|59=0|32=0|31=0|151=100000|14=0|6=0|60=20120909-14:22:59|21=1|111=0|10=237|
8=FIX.4.2|9=267|35=8|49=Trading|56=Client|34=12|52=20120909-13:22:59.768|37=OrderID_142259|11=20120909-142259-5658669|17=ExecID_10|20=0|150=1|39=1|1=TestAccount|63=0|55=MSFT|54=1|38=100000|40=1|15=USD|59=0|32=50000|31=100.5|151=50000|14=50000|6=100.5|60=20120909-14:22:59|21=1|111=0|10=005|
8=FIX.4.2|9=252|35=8|49=Trading|56=Client|34=13|52=20120909-13:22:59.971|37=OrderID_142259|11=20120909-142259-7686669|17=ExecID_11|20=0|150=0|39=0|1=TestAccount|63=0|55=MSFT|54=1|38=100000|40=1|15=USD|59=0|32=0|31=0|151=100000|14=0|6=0|60=20120909-14:22:59|21=1|111=0|10=024|
8=FIX.4.2|9=267|35=8|49=Trading|56=Client|34=14|52=20120909-13:22:59.971|37=OrderID_142259|11=20120909-142259-7686669|17=ExecID_12|20=0|150=1|39=1|1=TestAccount|63=0|55=MSFT|54=1|38=100000|40=1|15=USD|59=0|32=50000|31=100.5|151=50000|14=50000|6=100.5|60=20120909-14:22:59|21=1|111=0|10=008|
8=FIX.4.2|9=252|35=8|49=Trading|56=Client|34=15|52=20120909-13:23:00.127|37=OrderID_142300|11=20120909-142259-9558669|17=ExecID_13|20=0|150=0|39=0|1=TestAccount|63=0|55=MSFT|54=1|38=100000|40=1|15=USD|59=0|32=0|31=0|151=100000|14=0|6=0|60=20120909-14:23:00|21=1|111=0|10=238|
8=FIX.4.2|9=267|35=8|49=Trading|56=Client|34=16|52=20120909-13:23:00.127|37=OrderID_142300|11=20120909-142259-9558669|17=ExecID_14|20=0|150=1|39=1|1=TestAccount|63=0|55=MSFT|54=1|38=100000|40=1|15=USD|59=0|32=50000|31=101.5|151=50000|14=50000|6=101.5|60=20120909-14:23:00|21=1|111=0|10=224|
8=FIX.4.2|9=252|35=8|49=Trading|56=Client|34=17|52=20120909-13:23:00.314|37=OrderID_142300|11=20120909-142300-1274669|17=ExecID_15|20=0|150=0|39=0|1=TestAccount|63=0|55=MSFT|54=1|38=100000|40=1|15=USD|59=0|32=0|31=0|151=100000|14=0|6=0|60=20120909-14:23:00|21=1|111=0|10=214|
8=FIX.4.2|9=263|35=8|49=Trading|56=Client|34=18|52=20120909-13:23:00.314|37=OrderID_142300|11=20120909-142300-1274669|17=ExecID_16|20=0|150=1|39=1|1=TestAccount|63=0|55=MSFT|54=1|38=100000|40=1|15=USD|59=0|32=50000|31=101|151=50000|14=50000|6=101|60=20120909-14:23:00|21=1|111=0|10=254|
8=FIX.4.2|9=252|35=8|49=Trading|56=Client|34=19|52=20120909-13:23:00.501|37=OrderID_142300|11=20120909-142300-2990669|17=ExecID_17|20=0|150=0|39=0|1=TestAccount|63=0|55=MSFT|54=1|38=100000|40=1|15=USD|59=0|32=0|31=0|151=100000|14=0|6=0|60=20120909-14:23:00|21=1|111=0|10=222|
8=FIX.4.2|9=267|35=8|49=Trading|56=Client|34=20|52=20120909-13:23:00.501|37=OrderID_142300|11=20120909-142300-2990669|17=ExecID_18|20=0|150=1|39=1|1=TestAccount|63=0|55=MSFT|54=1|38=100000|40=1|15=USD|59=0|32=50000|31=101.5|151=50000|14=50000|6=101.5|60=20120909-14:23:00|21=1|111=0|10=199|
8=FIX.4.2|9=252|35=8|49=Trading|56=Client|34=21|52=20120909-13:23:00.704|37=OrderID_142300|11=20120909-142300-4862669|17=ExecID_19|20=0|150=0|39=0|1=TestAccount|63=0|55=MSFT|54=1|38=100000|40=1|15=USD|59=0|32=0|31=0|151=100000|14=0|6=0|60=20120909-14:23:00|21=1|111=0|10=222|
8=FIX.4.2|9=267|35=8|49=Trading|56=Client|34=22|52=20120909-13:23:00.704|37=OrderID_142300|11=20120909-142300-4862669|17=ExecID_20|20=0|150=1|39=1|1=TestAccount|63=0|55=MSFT|54=1|38=100000|40=1|15=USD|59=0|32=50000|31=100.5|151=50000|14=50000|6=100.5|60=20120909-14:23:00|21=1|111=0|10=197|
8=FIX.4.2|9=252|35=8|49=Trading|56=Client|34=23|52=20120909-13:23:00.891|37=OrderID_142300|11=20120909-142300-6890669|17=ExecID_21|20=0|150=0|39=0|1=TestAccount|63=0|55=MSFT|54=1|38=100000|40=1|15=USD|59=0|32=0|31=0|151=100000|14=0|6=0|60=20120909-14:23:00|21=1|111=0|10=227|
8=FIX.4.2|9=263|35=8|49=Trading|56=Client|34=24|52=20120909-13:23:00.891|37=OrderID_142300|11=20120909-142300-6890669|17=ExecID_22|20=0|150=1|39=1|1=TestAccount|63=0|55=MSFT|54=1|38=100000|40=1|15=USD|59=0|32=50000|31=101|151=50000|14=50000|6=101|60=20120909-14:23:00|21=1|111=0|10=011|
8=FIX.4.2|9=252|35=8|49=Trading|56=Client|34=25|52=20120909-13:23:01.063|37=OrderID_142301|11=20120909-142300-8762669|17=ExecID_23|20=0|150=0|39=0|1=TestAccount|63=0|55=MSFT|54=1|38=100000|40=1|15=USD|59=0|32=0|31=0|151=100000|14=0|6=0|60=20120909-14:23:01|21=1|111=0|10=225|
8=FIX.4.2|9=267|35=8|49=Trading|56=Client|34=26|52=20120909-13:23:01.063|37=OrderID_142301|11=20120909-142300-8762669|17=ExecID_24|20=0|150=1|39=1|1=TestAccount|63=0|55=MSFT|54=1|38=100000|40=1|15=USD|59=0|32=50000|31=101.5|151=50000|14=50000|6=101.5|60=20120909-14:23:01|21=1|111=0|10=211|
8=FIX.4.2|9=252|35=8|49=Trading|56=Client|34=27|52=20120909-13:23:01.266|37=OrderID_142301|11=20120909-142301-0478669|17=ExecID_25|20=0|150=0|39=0|1=TestAccount|63=0|55=MSFT|54=1|38=100000|40=1|15=USD|59=0|32=0|31=0|151=100000|14=0|6=0|60=20120909-14:23:01|21=1|111=0|10=231|
8=FIX.4.2|9=267|35=8|49=Trading|56=Client|34=28|52=20120909-13:23:01.266|37=OrderID_142301|11=20120909-142301-0478669|17=ExecID_26|20=0|150=1|39=1|1=TestAccount|63=0|55=MSFT|54=1|38=100000|40=1|15=USD|59=0|32=50000|31=101.5|151=50000|14=50000|6=101.5|60=20120909-14:23:01|21=1|111=0|10=217|
8=FIX.4.2|9=252|35=8|49=Trading|56=Client|34=29|52=20120909-13:23:01.453|37=OrderID_142301|11=20120909-142301-2506669|17=ExecID_27|20=0|150=0|39=0|1=TestAccount|63=0|55=MSFT|54=1|38=100000|40=1|15=USD|59=0|32=0|31=0|151=100000|14=0|6=0|60=20120909-14:23:01|21=1|111=0|10=227|
8=FIX.4.2|9=263|35=8|49=Trading|56=Client|34=30|52=20120909-13:23:01.453|37=OrderID_142301|11=20120909-142301-2506669|17=ExecID_28|20=0|150=1|39=1|1=TestAccount|63=0|55=MSFT|54=1|38=100000|40=1|15=USD|59=0|32=50000|31=101|151=50000|14=50000|6=101|60=20120909-14:23:01|21=1|111=0|10=002|
8=FIX.4.2|9=252|35=8|49=Trading|56=Client|34=31|52=20120909-13:23:01.640|37=OrderID_142301|11=20120909-142301-4378669|17=ExecID_29|20=0|150=0|39=0|1=TestAccount|63=0|55=MSFT|54=1|38=100000|40=1|15=USD|59=0|32=0|31=0|151=100000|14=0|6=0|60=20120909-14:23:01|21=1|111=0|10=229|
8=FIX.4.2|9=267|35=8|49=Trading|56=Client|34=32|52=20120909-13:23:01.640|37=OrderID_142301|11=20120909-142301-4378669|17=ExecID_30|20=0|150=1|39=1|1=TestAccount|63=0|55=MSFT|54=1|38=100000|40=1|15=USD|59=0|32=50000|31=100.5|151=50000|14=50000|6=100.5|60=20120909-14:23:01|21=1|111=0|10=204|
8=FIX.4.2|9=252|35=8|49=Trading|56=Client|34=33|52=20120909-13:23:01.843|37=OrderID_142301|11=20120909-142301-6250669|17=ExecID_31|20=0|150=0|39=0|1=TestAccount|63=0|55=MSFT|54=1|38=100000|40=1|15=USD|59=0|32=0|31=0|151=100000|14=0|6=0|60=20120909-14:23:01|21=1|111=0|10=220|
8=FIX.4.2|9=267|35=8|49=Trading|56=Client|34=34|52=20120909-13:23:01.843|37=OrderID_142301|11=20120909-142301-6250669|17=ExecID_32|20=0|150=1|39=1|1=TestAccount|63=0|55=MSFT|54=1|38=100000|40=1|15=USD|59=0|32=50000|31=100.5|151=50000|14=50000|6=100.5|60=20120909-14:23:01|21=1|111=0|10=204|
8=FIX.4.2|9=252|35=8|49=Trading|56=Client|34=35|52=20120909-13:23:02.061|37=OrderID_142302|11=20120909-142301-8278669|17=ExecID_33|20=0|150=0|39=0|1=TestAccount|63=0|55=MSFT|54=1|38=100000|40=1|15=USD|59=0|32=0|31=0|151=100000|14=0|6=0|60=20120909-14:23:02|21=1|111=0|10=231|
8=FIX.4.2|9=267|35=8|49=Trading|56=Client|34=36|52=20120909-13:23:02.061|37=OrderID_142302|11=20120909-142301-8278669|17=ExecID_34|20=0|150=1|39=1|1=TestAccount|63=0|55=MSFT|54=1|38=100000|40=1|15=USD|59=0|32=50000|31=101.5|151=50000|14=50000|6=101.5|60=20120909-14:23:02|21=1|111=0|10=217|
8=FIX.4.2|9=252|35=8|49=Trading|56=Client|34=37|52=20120909-13:23:02.264|37=OrderID_142302|11=20120909-142302-0462669|17=ExecID_35|20=0|150=0|39=0|1=TestAccount|63=0|55=MSFT|54=1|38=100000|40=1|15=USD|59=0|32=0|31=0|151=100000|14=0|6=0|60=20120909-14:23:02|21=1|111=0|10=228|
8=FIX.4.2|9=267|35=8|49=Trading|56=Client|34=38|52=20120909-13:23:02.264|37=OrderID_142302|11=20120909-142302-0462669|17=ExecID_36|20=0|150=1|39=1|1=TestAccount|63=0|55=MSFT|54=1|38=100000|40=1|15=USD|59=0|32=50000|31=100.5|151=50000|14=50000|6=100.5|60=20120909-14:23:02|21=1|111=0|10=212|
8=FIX.4.2|9=252|35=8|49=Trading|56=Client|34=39|52=20120909-13:23:02.436|37=OrderID_142302|11=20120909-142302-2490669|17=ExecID_37|20=0|150=0|39=0|1=TestAccount|63=0|55=MSFT|54=1|38=100000|40=1|15=USD|59=0|32=0|31=0|151=100000|14=0|6=0|60=20120909-14:23:02|21=1|111=0|10=236|
8=FIX.4.2|9=263|35=8|49=Trading|56=Client|34=40|52=20120909-13:23:02.436|37=OrderID_142302|11=20120909-142302-2490669|17=ExecID_38|20=0|150=1|39=1|1=TestAccount|63=0|55=MSFT|54=1|38=100000|40=1|15=USD|59=0|32=50000|31=100|151=50000|14=50000|6=100|60=20120909-14:23:02|21=1|111=0|10=009|
8=FIX.4.2|9=252|35=8|49=Trading|56=Client|34=41|52=20120909-13:23:02.623|37=OrderID_142302|11=20120909-142302-4206669|17=ExecID_39|20=0|150=0|39=0|1=TestAccount|63=0|55=MSFT|54=1|38=100000|40=1|15=USD|59=0|32=0|31=0|151=100000|14=0|6=0|60=20120909-14:23:02|21=1|111=0|10=226|
8=FIX.4.2|9=267|35=8|49=Trading|56=Client|34=42|52=20120909-13:23:02.623|37=OrderID_142302|11=20120909-142302-4206669|17=ExecID_40|20=0|150=1|39=1|1=TestAccount|63=0|55=MSFT|54=1|38=100000|40=1|15=USD|59=0|32=50000|31=101.5|151=50000|14=50000|6=101.5|60=20120909-14:23:02|21=1|111=0|10=203|
8=FIX.4.2|9=252|35=8|49=Trading|56=Client|34=43|52=20120909-13:23:02.795|37=OrderID_142302|11=20120909-142302-6078669|17=ExecID_41|20=0|150=0|39=0|1=TestAccount|63=0|55=MSFT|54=1|38=100000|40=1|15=USD|59=0|32=0|31=0|151=100000|14=0|6=0|60=20120909-14:23:02|21=1|111=0|10=240|
8=FIX.4.2|9=267|35=8|49=Trading|56=Client|34=44|52=20120909-13:23:02.795|37=OrderID_142302|11=20120909-142302-6078669|17=ExecID_42|20=0|150=1|39=1|1=TestAccount|63=0|55=MSFT|54=1|38=100000|40=1|15=USD|59=0|32=50000|31=101.5|151=50000|14=50000|6=101.5|60=20120909-14:23:02|21=1|111=0|10=226|
8=FIX.4.2|9=252|35=8|49=Trading|56=Client|34=45|52=20120909-13:23:02.997|37=OrderID_142302|11=20120909-142302-7950669|17=ExecID_43|20=0|150=0|39=0|1=TestAccount|63=0|55=MSFT|54=1|38=100000|40=1|15=USD|59=0|32=0|31=0|151=100000|14=0|6=0|60=20120909-14:23:02|21=1|111=0|10=248|
8=FIX.4.2|9=267|35=8|49=Trading|56=Client|34=46|52=20120909-13:23:02.997|37=OrderID_142302|11=20120909-142302-7950669|17=ExecID_44|20=0|150=1|39=1|1=TestAccount|63=0|55=MSFT|54=1|38=100000|40=1|15=USD|59=0|32=50000|31=101.5|151=50000|14=50000|6=101.5|60=20120909-14:23:02|21=1|111=0|10=234|
8=FIX.4.2|9=252|35=8|49=Trading|56=Client|34=47|52=20120909-13:23:21.624|37=OrderID_142321|11=20120909-142302-9978669|17=ExecID_45|20=0|150=0|39=0|1=TestAccount|63=0|55=MSFT|54=1|38=100000|40=1|15=USD|59=0|32=0|31=0|151=100000|14=0|6=0|60=20120909-14:23:21|21=1|111=0|10=254|
8=FIX.4.2|9=263|35=8|49=Trading|56=Client|34=48|52=20120909-13:23:21.624|37=OrderID_142321|11=20120909-142302-9978669|17=ExecID_46|20=0|150=1|39=1|1=TestAccount|63=0|55=MSFT|54=1|38=100000|40=1|15=USD|59=0|32=50000|31=101|151=50000|14=50000|6=101|60=20120909-14:23:21|21=1|111=0|10=038|
8=FIX.4.2|9=252|35=8|49=Trading|56=Client|34=49|52=20120909-13:23:22.123|37=OrderID_142322|11=20120909-142321-6084318|17=ExecID_47|20=0|150=0|39=0|1=TestAccount|63=0|55=MSFT|54=1|38=100000|40=1|15=USD|59=0|32=0|31=0|151=100000|14=0|6=0|60=20120909-14:23:22|21=1|111=0|10=232|
8=FIX.4.2|9=263|35=8|49=Trading|56=Client|34=50|52=20120909-13:23:22.123|37=OrderID_142322|11=20120909-142321-6084318|17=ExecID_48|20=0|150=1|39=1|1=TestAccount|63=0|55=MSFT|54=1|38=100000|40=1|15=USD|59=0|32=50000|31=100|151=50000|14=50000|6=100|60=20120909-14:23:22|21=1|111=0|10=005|
8=FIX.4.2|9=252|35=8|49=Trading|56=Client|34=51|52=20120909-13:23:22.341|37=OrderID_142322|11=20120909-142322-1076326|17=ExecID_49|20=0|150=0|39=0|1=TestAccount|63=0|55=MSFT|54=1|38=100000|40=1|15=USD|59=0|32=0|31=0|151=100000|14=0|6=0|60=20120909-14:23:22|21=1|111=0|10=225|
8=FIX.4.2|9=263|35=8|49=Trading|56=Client|34=52|52=20120909-13:23:22.341|37=OrderID_142322|11=20120909-142322-1076326|17=ExecID_50|20=0|150=1|39=1|1=TestAccount|63=0|55=MSFT|54=1|38=100000|40=1|15=USD|59=0|32=50000|31=101|151=50000|14=50000|6=101|60=20120909-14:23:22|21=1|111=0|10=000|
8=FIX.4.2|9=252|35=8|49=Trading|56=Client|34=53|52=20120909-13:23:22.544|37=OrderID_142322|11=20120909-142322-3260330|17=ExecID_51|20=0|150=0|39=0|1=TestAccount|63=0|55=MSFT|54=1|38=100000|40=1|15=USD|59=0|32=0|31=0|151=100000|14=0|6=0|60=20120909-14:23:22|21=1|111=0|10=217|
8=FIX.4.2|9=263|35=8|49=Trading|56=Client|34=54|52=20120909-13:23:22.544|37=OrderID_142322|11=20120909-142322-3260330|17=ExecID_52|20=0|150=1|39=1|1=TestAccount|63=0|55=MSFT|54=1|38=100000|40=1|15=USD|59=0|32=50000|31=100|151=50000|14=50000|6=100|60=20120909-14:23:22|21=1|111=0|10=255|
8=FIX.4.2|9=252|35=8|49=Trading|56=Client|34=55|52=20120909-13:23:22.731|37=OrderID_142322|11=20120909-142322-5288334|17=ExecID_53|20=0|150=0|39=0|1=TestAccount|63=0|55=MSFT|54=1|38=100000|40=1|15=USD|59=0|32=0|31=0|151=100000|14=0|6=0|60=20120909-14:23:22|21=1|111=0|10=235|
8=FIX.4.2|9=267|35=8|49=Trading|56=Client|34=56|52=20120909-13:23:22.731|37=OrderID_142322|11=20120909-142322-5288334|17=ExecID_54|20=0|150=1|39=1|1=TestAccount|63=0|55=MSFT|54=1|38=100000|40=1|15=USD|59=0|32=50000|31=100.5|151=50000|14=50000|6=100.5|60=20120909-14:23:22|21=1|111=0|10=219|
8=FIX.4.2|9=252|35=8|49=Trading|56=Client|34=57|52=20120909-13:23:23.090|37=OrderID_142323|11=20120909-142322-7160337|17=ExecID_55|20=0|150=0|39=0|1=TestAccount|63=0|55=MSFT|54=1|38=100000|40=1|15=USD|59=0|32=0|31=0|151=100000|14=0|6=0|60=20120909-14:23:23|21=1|111=0|10=234|
8=FIX.4.2|9=267|35=8|49=Trading|56=Client|34=58|52=20120909-13:23:23.090|37=OrderID_142323|11=20120909-142322-7160337|17=ExecID_56|20=0|150=1|39=1|1=TestAccount|63=0|55=MSFT|54=1|38=100000|40=1|15=USD|59=0|32=50000|31=100.5|151=50000|14=50000|6=100.5|60=20120909-14:23:23|21=1|111=0|10=218|
8=FIX.4.2|9=252|35=8|49=Trading|56=Client|34=59|52=20120909-13:23:23.293|37=OrderID_142323|11=20120909-142323-0904344|17=ExecID_57|20=0|150=0|39=0|1=TestAccount|63=0|55=MSFT|54=1|38=100000|40=1|15=USD|59=0|32=0|31=0|151=100000|14=0|6=0|60=20120909-14:23:23|21=1|111=0|10=241|
8=FIX.4.2|9=267|35=8|49=Trading|56=Client|34=60|52=20120909-13:23:23.293|37=OrderID_142323|11=20120909-142323-0904344|17=ExecID_58|20=0|150=1|39=1|1=TestAccount|63=0|55=MSFT|54=1|38=100000|40=1|15=USD|59=0|32=50000|31=100.5|151=50000|14=50000|6=100.5|60=20120909-14:23:23|21=1|111=0|10=216|
8=FIX.4.2|9=252|35=8|49=Trading|56=Client|34=61|52=20120909-13:23:23.496|37=OrderID_142323|11=20120909-142323-2776347|17=ExecID_59|20=0|150=0|39=0|1=TestAccount|63=0|55=MSFT|54=1|38=100000|40=1|15=USD|59=0|32=0|31=0|151=100000|14=0|6=0|60=20120909-14:23:23|21=1|111=0|10=253|
8=FIX.4.2|9=263|35=8|49=Trading|56=Client|34=62|52=20120909-13:23:23.496|37=OrderID_142323|11=20120909-142323-2776347|17=ExecID_60|20=0|150=1|39=1|1=TestAccount|63=0|55=MSFT|54=1|38=100000|40=1|15=USD|59=0|32=50000|31=101|151=50000|14=50000|6=101|60=20120909-14:23:23|21=1|111=0|10=028|
8=FIX.4.2|9=252|35=8|49=Trading|56=Client|34=63|52=20120909-13:23:23.683|37=OrderID_142323|11=20120909-142323-4960351|17=ExecID_61|20=0|150=0|39=0|1=TestAccount|63=0|55=MSFT|54=1|38=100000|40=1|15=USD|59=0|32=0|31=0|151=100000|14=0|6=0|60=20120909-14:23:23|21=1|111=0|10=238|
8=FIX.4.2|9=263|35=8|49=Trading|56=Client|34=64|52=20120909-13:23:23.683|37=OrderID_142323|11=20120909-142323-4960351|17=ExecID_62|20=0|150=1|39=1|1=TestAccount|63=0|55=MSFT|54=1|38=100000|40=1|15=USD|59=0|32=50000|31=100|151=50000|14=50000|6=100|60=20120909-14:23:23|21=1|111=0|10=020|
8=FIX.4.2|9=252|35=8|49=Trading|56=Client|34=65|52=20120909-13:23:23.854|37=OrderID_142323|11=20120909-142323-6676354|17=ExecID_63|20=0|150=0|39=0|1=TestAccount|63=0|55=MSFT|54=1|38=100000|40=1|15=USD|59=0|32=0|31=0|151=100000|14=0|6=0|60=20120909-14:23:23|21=1|111=0|10=251|
8=FIX.4.2|9=263|35=8|49=Trading|56=Client|34=66|52=20120909-13:23:23.854|37=OrderID_142323|11=20120909-142323-6676354|17=ExecID_64|20=0|150=1|39=1|1=TestAccount|63=0|55=MSFT|54=1|38=100000|40=1|15=USD|59=0|32=50000|31=102|151=50000|14=50000|6=102|60=20120909-14:23:23|21=1|111=0|10=037|
8=FIX.4.2|9=252|35=8|49=Trading|56=Client|34=67|52=20120909-13:23:24.057|37=OrderID_142324|11=20120909-142323-8548357|17=ExecID_65|20=0|150=0|39=0|1=TestAccount|63=0|55=MSFT|54=1|38=100000|40=1|15=USD|59=0|32=0|31=0|151=100000|14=0|6=0|60=20120909-14:23:24|21=1|111=0|10=000|
8=FIX.4.2|9=263|35=8|49=Trading|56=Client|34=68|52=20120909-13:23:24.057|37=OrderID_142324|11=20120909-142323-8548357|17=ExecID_66|20=0|150=1|39=1|1=TestAccount|63=0|55=MSFT|54=1|38=100000|40=1|15=USD|59=0|32=50000|31=102|151=50000|14=50000|6=102|60=20120909-14:23:24|21=1|111=0|10=042|
8=FIX.4.2|9=252|35=8|49=Trading|56=Client|34=69|52=20120909-13:23:24.260|37=OrderID_142324|11=20120909-142324-0576361|17=ExecID_67|20=0|150=0|39=0|1=TestAccount|63=0|55=MSFT|54=1|38=100000|40=1|15=USD|59=0|32=0|31=0|151=100000|14=0|6=0|60=20120909-14:23:24|21=1|111=0|10=245|
8=FIX.4.2|9=263|35=8|49=Trading|56=Client|34=70|52=20120909-13:23:24.260|37=OrderID_142324|11=20120909-142324-0576361|17=ExecID_68|20=0|150=1|39=1|1=TestAccount|63=0|55=MSFT|54=1|38=100000|40=1|15=USD|59=0|32=50000|31=101|151=50000|14=50000|6=101|60=20120909-14:23:24|21=1|111=0|10=020|
8=FIX.4.2|9=252|35=8|49=Trading|56=Client|34=71|52=20120909-13:23:24.447|37=OrderID_142324|11=20120909-142324-2448364|17=ExecID_69|20=0|150=0|39=0|1=TestAccount|63=0|55=MSFT|54=1|38=100000|40=1|15=USD|59=0|32=0|31=0|151=100000|14=0|6=0|60=20120909-14:23:24|21=1|111=0|10=250|
8=FIX.4.2|9=267|35=8|49=Trading|56=Client|34=72|52=20120909-13:23:24.447|37=OrderID_142324|11=20120909-142324-2448364|17=ExecID_70|20=0|150=1|39=1|1=TestAccount|63=0|55=MSFT|54=1|38=100000|40=1|15=USD|59=0|32=50000|31=101.5|151=50000|14=50000|6=101.5|60=20120909-14:23:24|21=1|111=0|10=227|
8=FIX.4.2|9=252|35=8|49=Trading|56=Client|34=73|52=20120909-13:23:24.650|37=OrderID_142324|11=20120909-142324-4320367|17=ExecID_71|20=0|150=0|39=0|1=TestAccount|63=0|55=MSFT|54=1|38=100000|40=1|15=USD|59=0|32=0|31=0|151=100000|14=0|6=0|60=20120909-14:23:24|21=1|111=0|10=235|
8=FIX.4.2|9=267|35=8|49=Trading|56=Client|34=74|52=20120909-13:23:24.650|37=OrderID_142324|11=20120909-142324-4320367|17=ExecID_72|20=0|150=1|39=1|1=TestAccount|63=0|55=MSFT|54=1|38=100000|40=1|15=USD|59=0|32=50000|31=100.5|151=50000|14=50000|6=100.5|60=20120909-14:23:24|21=1|111=0|10=219|
8=FIX.4.2|9=252|35=8|49=Trading|56=Client|34=75|52=20120909-13:23:24.822|37=OrderID_142324|11=20120909-142324-6348371|17=ExecID_73|20=0|150=0|39=0|1=TestAccount|63=0|55=MSFT|54=1|38=100000|40=1|15=USD|59=0|32=0|31=0|151=100000|14=0|6=0|60=20120909-14:23:24|21=1|111=0|10=247|
8=FIX.4.2|9=263|35=8|49=Trading|56=Client|34=76|52=20120909-13:23:24.822|37=OrderID_142324|11=20120909-142324-6348371|17=ExecID_74|20=0|150=1|39=1|1=TestAccount|63=0|55=MSFT|54=1|38=100000|40=1|15=USD|59=0|32=50000|31=100|151=50000|14=50000|6=100|60=20120909-14:23:24|21=1|111=0|10=029|
8=FIX.4.2|9=252|35=8|49=Trading|56=Client|34=77|52=20120909-13:23:25.040|37=OrderID_142325|11=20120909-142324-8220374|17=ExecID_75|20=0|150=0|39=0|1=TestAccount|63=0|55=MSFT|54=1|38=100000|40=1|15=USD|59=0|32=0|31=0|151=100000|14=0|6=0|60=20120909-14:23:25|21=1|111=0|10=240|
8=FIX.4.2|9=263|35=8|49=Trading|56=Client|34=78|52=20120909-13:23:25.040|37=OrderID_142325|11=20120909-142324-8220374|17=ExecID_76|20=0|150=1|39=1|1=TestAccount|63=0|55=MSFT|54=1|38=100000|40=1|15=USD|59=0|32=50000|31=100|151=50000|14=50000|6=100|60=20120909-14:23:25|21=1|111=0|10=022|
8=FIX.4.2|9=252|35=8|49=Trading|56=Client|34=79|52=20120909-13:23:25.227|37=OrderID_142325|11=20120909-142325-0248378|17=ExecID_77|20=0|150=0|39=0|1=TestAccount|63=0|55=MSFT|54=1|38=100000|40=1|15=USD|59=0|32=0|31=0|151=100000|14=0|6=0|60=20120909-14:23:25|21=1|111=0|10=002|
8=FIX.4.2|9=267|35=8|49=Trading|56=Client|34=80|52=20120909-13:23:25.227|37=OrderID_142325|11=20120909-142325-0248378|17=ExecID_78|20=0|150=1|39=1|1=TestAccount|63=0|55=MSFT|54=1|38=100000|40=1|15=USD|59=0|32=50000|31=100.5|151=50000|14=50000|6=100.5|60=20120909-14:23:25|21=1|111=0|10=233|
8=FIX.4.2|9=252|35=8|49=Trading|56=Client|34=81|52=20120909-13:23:25.430|37=OrderID_142325|11=20120909-142325-2276381|17=ExecID_79|20=0|150=0|39=0|1=TestAccount|63=0|55=MSFT|54=1|38=100000|40=1|15=USD|59=0|32=0|31=0|151=100000|14=0|6=0|60=20120909-14:23:25|21=1|111=0|10=246|
8=FIX.4.2|9=267|35=8|49=Trading|56=Client|34=82|52=20120909-13:23:25.430|37=OrderID_142325|11=20120909-142325-2276381|17=ExecID_80|20=0|150=1|39=1|1=TestAccount|63=0|55=MSFT|54=1|38=100000|40=1|15=USD|59=0|32=50000|31=101.5|151=50000|14=50000|6=101.5|60=20120909-14:23:25|21=1|111=0|10=223|
8=FIX.4.2|9=252|35=8|49=Trading|56=Client|34=83|52=20120909-13:23:25.633|37=OrderID_142325|11=20120909-142325-4148385|17=ExecID_81|20=0|150=0|39=0|1=TestAccount|63=0|55=MSFT|54=1|38=100000|40=1|15=USD|59=0|32=0|31=0|151=100000|14=0|6=0|60=20120909-14:23:25|21=1|111=0|10=250|
8=FIX.4.2|9=267|35=8|49=Trading|56=Client|34=84|52=20120909-13:23:25.633|37=OrderID_142325|11=20120909-142325-4148385|17=ExecID_82|20=0|150=1|39=1|1=TestAccount|63=0|55=MSFT|54=1|38=100000|40=1|15=USD|59=0|32=50000|31=101.5|151=50000|14=50000|6=101.5|60=20120909-14:23:25|21=1|111=0|10=236|
8=FIX.4.2|9=252|35=8|49=Trading|56=Client|34=85|52=20120909-13:23:25.836|37=OrderID_142325|11=20120909-142325-6176388|17=ExecID_83|20=0|150=0|39=0|1=TestAccount|63=0|55=MSFT|54=1|38=100000|40=1|15=USD|59=0|32=0|31=0|151=100000|14=0|6=0|60=20120909-14:23:25|21=1|111=0|10=009|
8=FIX.4.2|9=267|35=8|49=Trading|56=Client|34=86|52=20120909-13:23:25.836|37=OrderID_142325|11=20120909-142325-6176388|17=ExecID_84|20=0|150=1|39=1|1=TestAccount|63=0|55=MSFT|54=1|38=100000|40=1|15=USD|59=0|32=50000|31=101.5|151=50000|14=50000|6=101.5|60=20120909-14:23:25|21=1|111=0|10=251|
8=FIX.4.2|9=252|35=8|49=Trading|56=Client|34=87|52=20120909-13:23:26.038|37=OrderID_142326|11=20120909-142325-8204392|17=ExecID_85|20=0|150=0|39=0|1=TestAccount|63=0|55=MSFT|54=1|38=100000|40=1|15=USD|59=0|32=0|31=0|151=100000|14=0|6=0|60=20120909-14:23:26|21=1|111=0|10=255|
8=FIX.4.2|9=263|35=8|49=Trading|56=Client|34=88|52=20120909-13:23:26.038|37=OrderID_142326|11=20120909-142325-8204392|17=ExecID_86|20=0|150=1|39=1|1=TestAccount|63=0|55=MSFT|54=1|38=100000|40=1|15=USD|59=0|32=50000|31=102|151=50000|14=50000|6=102|60=20120909-14:23:26|21=1|111=0|10=041|
8=FIX.4.2|9=252|35=8|49=Trading|56=Client|34=89|52=20120909-13:23:26.272|37=OrderID_142326|11=20120909-142326-0232395|17=ExecID_87|20=0|150=0|39=0|1=TestAccount|63=0|55=MSFT|54=1|38=100000|40=1|15=USD|59=0|32=0|31=0|151=100000|14=0|6=0|60=20120909-14:23:26|21=1|111=0|10=000|
8=FIX.4.2|9=267|35=8|49=Trading|56=Client|34=90|52=20120909-13:23:26.272|37=OrderID_142326|11=20120909-142326-0232395|17=ExecID_88|20=0|150=1|39=1|1=TestAccount|63=0|55=MSFT|54=1|38=100000|40=1|15=USD|59=0|32=50000|31=100.5|151=50000|14=50000|6=100.5|60=20120909-14:23:26|21=1|111=0|10=231|
8=FIX.4.2|9=252|35=8|49=Trading|56=Client|34=91|52=20120909-13:23:26.491|37=OrderID_142326|11=20120909-142326-2572399|17=ExecID_89|20=0|150=0|39=0|1=TestAccount|63=0|55=MSFT|54=1|38=100000|40=1|15=USD|59=0|32=0|31=0|151=100000|14=0|6=0|60=20120909-14:23:26|21=1|111=0|10=011|
8=FIX.4.2|9=263|35=8|49=Trading|56=Client|34=92|52=20120909-13:23:26.491|37=OrderID_142326|11=20120909-142326-2572399|17=ExecID_90|20=0|150=1|39=1|1=TestAccount|63=0|55=MSFT|54=1|38=100000|40=1|15=USD|59=0|32=50000|31=100|151=50000|14=50000|6=100|60=20120909-14:23:26|21=1|111=0|10=040|
8=FIX.4.2|9=252|35=8|49=Trading|56=Client|34=93|52=20120909-13:23:26.678|37=OrderID_142326|11=20120909-142326-4756403|17=ExecID_91|20=0|150=0|39=0|1=TestAccount|63=0|55=MSFT|54=1|38=100000|40=1|15=USD|59=0|32=0|31=0|151=100000|14=0|6=0|60=20120909-14:23:26|21=1|111=0|10=005|
8=FIX.4.2|9=267|35=8|49=Trading|56=Client|34=94|52=20120909-13:23:26.678|37=OrderID_142326|11=20120909-142326-4756403|17=ExecID_92|20=0|150=1|39=1|1=TestAccount|63=0|55=MSFT|54=1|38=100000|40=1|15=USD|59=0|32=50000|31=101.5|151=50000|14=50000|6=101.5|60=20120909-14:23:26|21=1|111=0|10=247|
8=FIX.4.2|9=252|35=8|49=Trading|56=Client|34=95|52=20120909-13:23:26.881|37=OrderID_142326|11=20120909-142326-6628406|17=ExecID_93|20=0|150=0|39=0|1=TestAccount|63=0|55=MSFT|54=1|38=100000|40=1|15=USD|59=0|32=0|31=0|151=100000|14=0|6=0|60=20120909-14:23:26|21=1|111=0|10=008|
8=FIX.4.2|9=267|35=8|49=Trading|56=Client|34=96|52=20120909-13:23:26.881|37=OrderID_142326|11=20120909-142326-6628406|17=ExecID_94|20=0|150=1|39=1|1=TestAccount|63=0|55=MSFT|54=1|38=100000|40=1|15=USD|59=0|32=50000|31=101.5|151=50000|14=50000|6=101.5|60=20120909-14:23:26|21=1|111=0|10=250|
8=FIX.4.2|9=252|35=8|49=Trading|56=Client|34=97|52=20120909-13:23:27.099|37=OrderID_142327|11=20120909-142326-8812410|17=ExecID_95|20=0|150=0|39=0|1=TestAccount|63=0|55=MSFT|54=1|38=100000|40=1|15=USD|59=0|32=0|31=0|151=100000|14=0|6=0|60=20120909-14:23:27|21=1|111=0|10=008|
8=FIX.4.2|9=267|35=8|49=Trading|56=Client|34=98|52=20120909-13:23:27.099|37=OrderID_142327|11=20120909-142326-8812410|17=ExecID_96|20=0|150=1|39=1|1=TestAccount|63=0|55=MSFT|54=1|38=100000|40=1|15=USD|59=0|32=50000|31=100.5|151=50000|14=50000|6=100.5|60=20120909-14:23:27|21=1|111=0|10=248|
8=FIX.4.2|9=252|35=8|49=Trading|56=Client|34=99|52=20120909-13:23:27.286|37=OrderID_142327|11=20120909-142327-0840414|17=ExecID_97|20=0|150=0|39=0|1=TestAccount|63=0|55=MSFT|54=1|38=100000|40=1|15=USD|59=0|32=0|31=0|151=100000|14=0|6=0|60=20120909-14:23:27|21=1|111=0|10=008|
8=FIX.4.2|9=264|35=8|49=Trading|56=Client|34=100|52=20120909-13:23:27.286|37=OrderID_142327|11=20120909-142327-0840414|17=ExecID_98|20=0|150=1|39=1|1=TestAccount|63=0|55=MSFT|54=1|38=100000|40=1|15=USD|59=0|32=50000|31=102|151=50000|14=50000|6=102|60=20120909-14:23:27|21=1|111=0|10=081|
8=FIX.4.2|9=253|35=8|49=Trading|56=Client|34=101|52=20120909-13:23:27.505|37=OrderID_142327|11=20120909-142327-2868417|17=ExecID_99|20=0|150=0|39=0|1=TestAccount|63=0|55=MSFT|54=1|38=100000|40=1|15=USD|59=0|32=0|31=0|151=100000|14=0|6=0|60=20120909-14:23:27|21=1|111=0|10=052|
8=FIX.4.2|9=269|35=8|49=Trading|56=Client|34=102|52=20120909-13:23:27.505|37=OrderID_142327|11=20120909-142327-2868417|17=ExecID_100|20=0|150=1|39=1|1=TestAccount|63=0|55=MSFT|54=1|38=100000|40=1|15=USD|59=0|32=50000|31=101.5|151=50000|14=50000|6=101.5|60=20120909-14:23:27|21=1|111=0|10=069|
8=FIX.4.2|9=254|35=8|49=Trading|56=Client|34=103|52=20120909-13:23:27.692|37=OrderID_142327|11=20120909-142327-4896421|17=ExecID_101|20=0|150=0|39=0|1=TestAccount|63=0|55=MSFT|54=1|38=100000|40=1|15=USD|59=0|32=0|31=0|151=100000|14=0|6=0|60=20120909-14:23:27|21=1|111=0|10=092|
8=FIX.4.2|9=265|35=8|49=Trading|56=Client|34=104|52=20120909-13:23:27.692|37=OrderID_142327|11=20120909-142327-4896421|17=ExecID_102|20=0|150=1|39=1|1=TestAccount|63=0|55=MSFT|54=1|38=100000|40=1|15=USD|59=0|32=50000|31=101|151=50000|14=50000|6=101|60=20120909-14:23:27|21=1|111=0|10=132|
8=FIX.4.2|9=254|35=8|49=Trading|56=Client|34=105|52=20120909-13:23:28.098|37=OrderID_142328|11=20120909-142327-6768424|17=ExecID_103|20=0|150=0|39=0|1=TestAccount|63=0|55=MSFT|54=1|38=100000|40=1|15=USD|59=0|32=0|31=0|151=100000|14=0|6=0|60=20120909-14:23:28|21=1|111=0|10=102|
8=FIX.4.2|9=265|35=8|49=Trading|56=Client|34=106|52=20120909-13:23:28.098|37=OrderID_142328|11=20120909-142327-6768424|17=ExecID_104|20=0|150=1|39=1|1=TestAccount|63=0|55=MSFT|54=1|38=100000|40=1|15=USD|59=0|32=50000|31=101|151=50000|14=50000|6=101|60=20120909-14:23:28|21=1|111=0|10=142|
8=FIX.4.2|9=254|35=8|49=Trading|56=Client|34=107|52=20120909-13:23:28.316|37=OrderID_142328|11=20120909-142328-0824431|17=ExecID_105|20=0|150=0|39=0|1=TestAccount|63=0|55=MSFT|54=1|38=100000|40=1|15=USD|59=0|32=0|31=0|151=100000|14=0|6=0|60=20120909-14:23:28|21=1|111=0|10=085|
8=FIX.4.2|9=265|35=8|49=Trading|56=Client|34=108|52=20120909-13:23:28.316|37=OrderID_142328|11=20120909-142328-0824431|17=ExecID_106|20=0|150=1|39=1|1=TestAccount|63=0|55=MSFT|54=1|38=100000|40=1|15=USD|59=0|32=50000|31=101|151=50000|14=50000|6=101|60=20120909-14:23:28|21=1|111=0|10=125|
8=FIX.4.2|9=254|35=8|49=Trading|56=Client|34=109|52=20120909-13:23:29.268|37=OrderID_142329|11=20120909-142328-3008435|17=ExecID_107|20=0|150=0|39=0|1=TestAccount|63=0|55=MSFT|54=1|38=100000|40=1|15=USD|59=0|32=0|31=0|151=100000|14=0|6=0|60=20120909-14:23:29|21=1|111=0|10=099|
8=FIX.4.2|9=269|35=8|49=Trading|56=Client|34=110|52=20120909-13:23:29.268|37=OrderID_142329|11=20120909-142328-3008435|17=ExecID_108|20=0|150=1|39=1|1=TestAccount|63=0|55=MSFT|54=1|38=100000|40=1|15=USD|59=0|32=50000|31=101.5|151=50000|14=50000|6=101.5|60=20120909-14:23:29|21=1|111=0|10=076|
8=FIX.4.2|9=254|35=8|49=Trading|56=Client|34=111|52=20120909-13:23:29.502|37=OrderID_142329|11=20120909-142329-2524452|17=ExecID_109|20=0|150=0|39=0|1=TestAccount|63=0|55=MSFT|54=1|38=100000|40=1|15=USD|59=0|32=0|31=0|151=100000|14=0|6=0|60=20120909-14:23:29|21=1|111=0|10=087|
8=FIX.4.2|9=265|35=8|49=Trading|56=Client|34=112|52=20120909-13:23:29.502|37=OrderID_142329|11=20120909-142329-2524452|17=ExecID_110|20=0|150=1|39=1|1=TestAccount|63=0|55=MSFT|54=1|38=100000|40=1|15=USD|59=0|32=50000|31=100|151=50000|14=50000|6=100|60=20120909-14:23:29|21=1|111=0|10=116|
8=FIX.4.2|9=254|35=8|49=Trading|56=Client|34=113|52=20120909-13:23:29.782|37=OrderID_142329|11=20120909-142329-5020456|17=ExecID_111|20=0|150=0|39=0|1=TestAccount|63=0|55=MSFT|54=1|38=100000|40=1|15=USD|59=0|32=0|31=0|151=100000|14=0|6=0|60=20120909-14:23:29|21=1|111=0|10=090|
8=FIX.4.2|9=269|35=8|49=Trading|56=Client|34=114|52=20120909-13:23:29.782|37=OrderID_142329|11=20120909-142329-5020456|17=ExecID_112|20=0|150=1|39=1|1=TestAccount|63=0|55=MSFT|54=1|38=100000|40=1|15=USD|59=0|32=50000|31=101.5|151=50000|14=50000|6=101.5|60=20120909-14:23:29|21=1|111=0|10=076|
8=FIX.4.2|9=254|35=8|49=Trading|56=Client|34=115|52=20120909-13:23:29.985|37=OrderID_142329|11=20120909-142329-7672461|17=ExecID_113|20=0|150=0|39=0|1=TestAccount|63=0|55=MSFT|54=1|38=100000|40=1|15=USD|59=0|32=0|31=0|151=100000|14=0|6=0|60=20120909-14:23:29|21=1|111=0|10=110|
8=FIX.4.2|9=265|35=8|49=Trading|56=Client|34=116|52=20120909-13:23:29.985|37=OrderID_142329|11=20120909-142329-7672461|17=ExecID_114|20=0|150=1|39=1|1=TestAccount|63=0|55=MSFT|54=1|38=100000|40=1|15=USD|59=0|32=50000|31=102|151=50000|14=50000|6=102|60=20120909-14:23:29|21=1|111=0|10=152|
8=FIX.4.2|9=254|35=8|49=Trading|56=Client|34=117|52=20120909-13:23:30.188|37=OrderID_142330|11=20120909-142329-9700465|17=ExecID_115|20=0|150=0|39=0|1=TestAccount|63=0|55=MSFT|54=1|38=100000|40=1|15=USD|59=0|32=0|31=0|151=100000|14=0|6=0|60=20120909-14:23:30|21=1|111=0|10=083|
8=FIX.4.2|9=265|35=8|49=Trading|56=Client|34=118|52=20120909-13:23:30.188|37=OrderID_142330|11=20120909-142329-9700465|17=ExecID_116|20=0|150=1|39=1|1=TestAccount|63=0|55=MSFT|54=1|38=100000|40=1|15=USD|59=0|32=50000|31=102|151=50000|14=50000|6=102|60=20120909-14:23:30|21=1|111=0|10=125|
8=FIX.4.2|9=254|35=8|49=Trading|56=Client|34=119|52=20120909-13:23:30.422|37=OrderID_142330|11=20120909-142330-1884468|17=ExecID_117|20=0|150=0|39=0|1=TestAccount|63=0|55=MSFT|54=1|38=100000|40=1|15=USD|59=0|32=0|31=0|151=100000|14=0|6=0|60=20120909-14:23:30|21=1|111=0|10=078|
8=FIX.4.2|9=269|35=8|49=Trading|56=Client|34=120|52=20120909-13:23:30.422|37=OrderID_142330|11=20120909-142330-1884468|17=ExecID_118|20=0|150=1|39=1|1=TestAccount|63=0|55=MSFT|54=1|38=100000|40=1|15=USD|59=0|32=50000|31=100.5|151=50000|14=50000|6=100.5|60=20120909-14:23:30|21=1|111=0|10=053|
8=FIX.4.2|9=254|35=8|49=Trading|56=Client|34=121|52=20120909-13:23:30.656|37=OrderID_142330|11=20120909-142330-4068472|17=ExecID_119|20=0|150=0|39=0|1=TestAccount|63=0|55=MSFT|54=1|38=100000|40=1|15=USD|59=0|32=0|31=0|151=100000|14=0|6=0|60=20120909-14:23:30|21=1|111=0|10=074|
8=FIX.4.2|9=265|35=8|49=Trading|56=Client|34=122|52=20120909-13:23:30.656|37=OrderID_142330|11=20120909-142330-4068472|17=ExecID_120|20=0|150=1|39=1|1=TestAccount|63=0|55=MSFT|54=1|38=100000|40=1|15=USD|59=0|32=50000|31=101|151=50000|14=50000|6=101|60=20120909-14:23:30|21=1|111=0|10=105|
8=FIX.4.2|9=254|35=8|49=Trading|56=Client|34=123|52=20120909-13:23:30.859|37=OrderID_142330|11=20120909-142330-6408476|17=ExecID_121|20=0|150=0|39=0|1=TestAccount|63=0|55=MSFT|54=1|38=100000|40=1|15=USD|59=0|32=0|31=0|151=100000|14=0|6=0|60=20120909-14:23:30|21=1|111=0|10=078|
8=FIX.4.2|9=265|35=8|49=Trading|56=Client|34=124|52=20120909-13:23:30.859|37=OrderID_142330|11=20120909-142330-6408476|17=ExecID_122|20=0|150=1|39=1|1=TestAccount|63=0|55=MSFT|54=1|38=100000|40=1|15=USD|59=0|32=50000|31=100|151=50000|14=50000|6=100|60=20120909-14:23:30|21=1|111=0|10=116|
8=FIX.4.2|9=254|35=8|49=Trading|56=Client|34=125|52=20120909-13:23:31.077|37=OrderID_142331|11=20120909-142330-8436480|17=ExecID_123|20=0|150=0|39=0|1=TestAccount|63=0|55=MSFT|54=1|38=100000|40=1|15=USD|59=0|32=0|31=0|151=100000|14=0|6=0|60=20120909-14:23:31|21=1|111=0|10=075|
8=FIX.4.2|9=265|35=8|49=Trading|56=Client|34=126|52=20120909-13:23:31.077|37=OrderID_142331|11=20120909-142330-8436480|17=ExecID_124|20=0|150=1|39=1|1=TestAccount|63=0|55=MSFT|54=1|38=100000|40=1|15=USD|59=0|32=50000|31=101|151=50000|14=50000|6=101|60=20120909-14:23:31|21=1|111=0|10=115|
8=FIX.4.2|9=254|35=8|49=Trading|56=Client|34=127|52=20120909-13:23:31.280|37=OrderID_142331|11=20120909-142331-0620484|17=ExecID_125|20=0|150=0|39=0|1=TestAccount|63=0|55=MSFT|54=1|38=100000|40=1|15=USD|59=0|32=0|31=0|151=100000|14=0|6=0|60=20120909-14:23:31|21=1|111=0|10=067|
8=FIX.4.2|9=265|35=8|49=Trading|56=Client|34=128|52=20120909-13:23:31.296|37=OrderID_142331|11=20120909-142331-0620484|17=ExecID_126|20=0|150=1|39=1|1=TestAccount|63=0|55=MSFT|54=1|38=100000|40=1|15=USD|59=0|32=50000|31=101|151=50000|14=50000|6=101|60=20120909-14:23:31|21=1|111=0|10=114|
8=FIX.4.2|9=254|35=8|49=Trading|56=Client|34=129|52=20120909-13:23:31.483|37=OrderID_142331|11=20120909-142331-2804488|17=ExecID_127|20=0|150=0|39=0|1=TestAccount|63=0|55=MSFT|54=1|38=100000|40=1|15=USD|59=0|32=0|31=0|151=100000|14=0|6=0|60=20120909-14:23:31|21=1|111=0|10=086|
8=FIX.4.2|9=265|35=8|49=Trading|56=Client|34=130|52=20120909-13:23:31.483|37=OrderID_142331|11=20120909-142331-2804488|17=ExecID_128|20=0|150=1|39=1|1=TestAccount|63=0|55=MSFT|54=1|38=100000|40=1|15=USD|59=0|32=50000|31=102|151=50000|14=50000|6=102|60=20120909-14:23:31|21=1|111=0|10=119|
8=FIX.4.2|9=254|35=8|49=Trading|56=Client|34=131|52=20120909-13:23:31.686|37=OrderID_142331|11=20120909-142331-4676491|17=ExecID_129|20=0|150=0|39=0|1=TestAccount|63=0|55=MSFT|54=1|38=100000|40=1|15=USD|59=0|32=0|31=0|151=100000|14=0|6=0|60=20120909-14:23:31|21=1|111=0|10=089|
8=FIX.4.2|9=265|35=8|49=Trading|56=Client|34=132|52=20120909-13:23:31.686|37=OrderID_142331|11=20120909-142331-4676491|17=ExecID_130|20=0|150=1|39=1|1=TestAccount|63=0|55=MSFT|54=1|38=100000|40=1|15=USD|59=0|32=50000|31=100|151=50000|14=50000|6=100|60=20120909-14:23:31|21=1|111=0|10=118|
8=FIX.4.2|9=254|35=8|49=Trading|56=Client|34=133|52=20120909-13:23:31.888|37=OrderID_142331|11=20120909-142331-6704494|17=ExecID_131|20=0|150=0|39=0|1=TestAccount|63=0|55=MSFT|54=1|38=100000|40=1|15=USD|59=0|32=0|31=0|151=100000|14=0|6=0|60=20120909-14:23:31|21=1|111=0|10=085|
8=FIX.4.2|9=265|35=8|49=Trading|56=Client|34=134|52=20120909-13:23:31.888|37=OrderID_142331|11=20120909-142331-6704494|17=ExecID_132|20=0|150=1|39=1|1=TestAccount|63=0|55=MSFT|54=1|38=100000|40=1|15=USD|59=0|32=50000|31=100|151=50000|14=50000|6=100|60=20120909-14:23:31|21=1|111=0|10=123|
8=FIX.4.2|9=254|35=8|49=Trading|56=Client|34=135|52=20120909-13:23:32.076|37=OrderID_142332|11=20120909-142331-8576498|17=ExecID_133|20=0|150=0|39=0|1=TestAccount|63=0|55=MSFT|54=1|38=100000|40=1|15=USD|59=0|32=0|31=0|151=100000|14=0|6=0|60=20120909-14:23:32|21=1|111=0|10=094|
8=FIX.4.2|9=269|35=8|49=Trading|56=Client|34=136|52=20120909-13:23:32.076|37=OrderID_142332|11=20120909-142331-8576498|17=ExecID_134|20=0|150=1|39=1|1=TestAccount|63=0|55=MSFT|54=1|38=100000|40=1|15=USD|59=0|32=50000|31=101.5|151=50000|14=50000|6=101.5|60=20120909-14:23:32|21=1|111=0|10=080|
8=FIX.4.2|9=254|35=8|49=Trading|56=Client|34=137|52=20120909-13:23:32.310|37=OrderID_142332|11=20120909-142332-0760502|17=ExecID_135|20=0|150=0|39=0|1=TestAccount|63=0|55=MSFT|54=1|38=100000|40=1|15=USD|59=0|32=0|31=0|151=100000|14=0|6=0|60=20120909-14:23:32|21=1|111=0|10=063|
8=FIX.4.2|9=265|35=8|49=Trading|56=Client|34=138|52=20120909-13:23:32.310|37=OrderID_142332|11=20120909-142332-0760502|17=ExecID_136|20=0|150=1|39=1|1=TestAccount|63=0|55=MSFT|54=1|38=100000|40=1|15=USD|59=0|32=50000|31=100|151=50000|14=50000|6=100|60=20120909-14:23:32|21=1|111=0|10=101|
8=FIX.4.2|9=254|35=8|49=Trading|56=Client|34=139|52=20120909-13:23:32.497|37=OrderID_142332|11=20120909-142332-2944505|17=ExecID_137|20=0|150=0|39=0|1=TestAccount|63=0|55=MSFT|54=1|38=100000|40=1|15=USD|59=0|32=0|31=0|151=100000|14=0|6=0|60=20120909-14:23:32|21=1|111=0|10=092|
8=FIX.4.2|9=269|35=8|49=Trading|56=Client|34=140|52=20120909-13:23:32.497|37=OrderID_142332|11=20120909-142332-2944505|17=ExecID_138|20=0|150=1|39=1|1=TestAccount|63=0|55=MSFT|54=1|38=100000|40=1|15=USD|59=0|32=50000|31=101.5|151=50000|14=50000|6=101.5|60=20120909-14:23:32|21=1|111=0|10=069|
8=FIX.4.2|9=254|35=8|49=Trading|56=Client|34=141|52=20120909-13:23:32.715|37=OrderID_142332|11=20120909-142332-4816509|17=ExecID_139|20=0|150=0|39=0|1=TestAccount|63=0|55=MSFT|54=1|38=100000|40=1|15=USD|59=0|32=0|31=0|151=100000|14=0|6=0|60=20120909-14:23:32|21=1|111=0|10=084|
8=FIX.4.2|9=269|35=8|49=Trading|56=Client|34=142|52=20120909-13:23:32.715|37=OrderID_142332|11=20120909-142332-4816509|17=ExecID_140|20=0|150=1|39=1|1=TestAccount|63=0|55=MSFT|54=1|38=100000|40=1|15=USD|59=0|32=50000|31=100.5|151=50000|14=50000|6=100.5|60=20120909-14:23:32|21=1|111=0|10=059|
8=FIX.4.2|9=254|35=8|49=Trading|56=Client|34=143|52=20120909-13:23:32.934|37=OrderID_142332|11=20120909-142332-7000513|17=ExecID_141|20=0|150=0|39=0|1=TestAccount|63=0|55=MSFT|54=1|38=100000|40=1|15=USD|59=0|32=0|31=0|151=100000|14=0|6=0|60=20120909-14:23:32|21=1|111=0|10=065|
8=FIX.4.2|9=265|35=8|49=Trading|56=Client|34=144|52=20120909-13:23:32.934|37=OrderID_142332|11=20120909-142332-7000513|17=ExecID_142|20=0|150=1|39=1|1=TestAccount|63=0|55=MSFT|54=1|38=100000|40=1|15=USD|59=0|32=50000|31=100|151=50000|14=50000|6=100|60=20120909-14:23:32|21=1|111=0|10=103|
8=FIX.4.2|9=254|35=8|49=Trading|56=Client|34=145|52=20120909-13:23:33.136|37=OrderID_142333|11=20120909-142332-9340517|17=ExecID_143|20=0|150=0|39=0|1=TestAccount|63=0|55=MSFT|54=1|38=100000|40=1|15=USD|59=0|32=0|31=0|151=100000|14=0|6=0|60=20120909-14:23:33|21=1|111=0|10=079|
8=FIX.4.2|9=265|35=8|49=Trading|56=Client|34=146|52=20120909-13:23:33.136|37=OrderID_142333|11=20120909-142332-9340517|17=ExecID_144|20=0|150=1|39=1|1=TestAccount|63=0|55=MSFT|54=1|38=100000|40=1|15=USD|59=0|32=50000|31=100|151=50000|14=50000|6=100|60=20120909-14:23:33|21=1|111=0|10=117|
8=FIX.4.2|9=254|35=8|49=Trading|56=Client|34=147|52=20120909-13:23:33.339|37=OrderID_142333|11=20120909-142333-1212520|17=ExecID_145|20=0|150=0|39=0|1=TestAccount|63=0|55=MSFT|54=1|38=100000|40=1|15=USD|59=0|32=0|31=0|151=100000|14=0|6=0|60=20120909-14:23:33|21=1|111=0|10=073|
8=FIX.4.2|9=269|35=8|49=Trading|56=Client|34=148|52=20120909-13:23:33.339|37=OrderID_142333|11=20120909-142333-1212520|17=ExecID_146|20=0|150=1|39=1|1=TestAccount|63=0|55=MSFT|54=1|38=100000|40=1|15=USD|59=0|32=50000|31=100.5|151=50000|14=50000|6=100.5|60=20120909-14:23:33|21=1|111=0|10=057|
8=FIX.4.2|9=254|35=8|49=Trading|56=Client|34=149|52=20120909-13:23:33.542|37=OrderID_142333|11=20120909-142333-3240523|17=ExecID_147|20=0|150=0|39=0|1=TestAccount|63=0|55=MSFT|54=1|38=100000|40=1|15=USD|59=0|32=0|31=0|151=100000|14=0|6=0|60=20120909-14:23:33|21=1|111=0|10=079|
8=FIX.4.2|9=269|35=8|49=Trading|56=Client|34=150|52=20120909-13:23:33.542|37=OrderID_142333|11=20120909-142333-3240523|17=ExecID_148|20=0|150=1|39=1|1=TestAccount|63=0|55=MSFT|54=1|38=100000|40=1|15=USD|59=0|32=50000|31=100.5|151=50000|14=50000|6=100.5|60=20120909-14:23:33|21=1|111=0|10=054|
8=FIX.4.2|9=254|35=8|49=Trading|56=Client|34=151|52=20120909-13:23:33.745|37=OrderID_142333|11=20120909-142333-5268527|17=ExecID_149|20=0|150=0|39=0|1=TestAccount|63=0|55=MSFT|54=1|38=100000|40=1|15=USD|59=0|32=0|31=0|151=100000|14=0|6=0|60=20120909-14:23:33|21=1|111=0|10=095|
8=FIX.4.2|9=269|35=8|49=Trading|56=Client|34=152|52=20120909-13:23:33.745|37=OrderID_142333|11=20120909-142333-5268527|17=ExecID_150|20=0|150=1|39=1|1=TestAccount|63=0|55=MSFT|54=1|38=100000|40=1|15=USD|59=0|32=50000|31=101.5|151=50000|14=50000|6=101.5|60=20120909-14:23:33|21=1|111=0|10=072|
8=FIX.4.2|9=254|35=8|49=Trading|56=Client|34=153|52=20120909-13:23:33.932|37=OrderID_142333|11=20120909-142333-7296531|17=ExecID_151|20=0|150=0|39=0|1=TestAccount|63=0|55=MSFT|54=1|38=100000|40=1|15=USD|59=0|32=0|31=0|151=100000|14=0|6=0|60=20120909-14:23:33|21=1|111=0|10=086|
8=FIX.4.2|9=265|35=8|49=Trading|56=Client|34=154|52=20120909-13:23:33.932|37=OrderID_142333|11=20120909-142333-7296531|17=ExecID_152|20=0|150=1|39=1|1=TestAccount|63=0|55=MSFT|54=1|38=100000|40=1|15=USD|59=0|32=50000|31=102|151=50000|14=50000|6=102|60=20120909-14:23:33|21=1|111=0|10=128|
8=FIX.4.2|9=254|35=8|49=Trading|56=Client|34=155|52=20120909-13:23:34.322|37=OrderID_142334|11=20120909-142333-9168534|17=ExecID_153|20=0|150=0|39=0|1=TestAccount|63=0|55=MSFT|54=1|38=100000|40=1|15=USD|59=0|32=0|31=0|151=100000|14=0|6=0|60=20120909-14:23:34|21=1|111=0|10=089|
8=FIX.4.2|9=269|35=8|49=Trading|56=Client|34=156|52=20120909-13:23:34.322|37=OrderID_142334|11=20120909-142333-9168534|17=ExecID_154|20=0|150=1|39=1|1=TestAccount|63=0|55=MSFT|54=1|38=100000|40=1|15=USD|59=0|32=50000|31=101.5|151=50000|14=50000|6=101.5|60=20120909-14:23:34|21=1|111=0|10=075|
8=FIX.4.2|9=254|35=8|49=Trading|56=Client|34=157|52=20120909-13:23:45.086|37=OrderID_142345|11=20120909-142334-3068541|17=ExecID_155|20=0|150=0|39=0|1=TestAccount|63=0|55=MSFT|54=1|38=100000|40=1|15=USD|59=0|32=0|31=0|151=100000|14=0|6=0|60=20120909-14:23:45|21=1|111=0|10=098|
8=FIX.4.2|9=265|35=8|49=Trading|56=Client|34=158|52=20120909-13:23:45.086|37=OrderID_142345|11=20120909-142334-3068541|17=ExecID_156|20=0|150=1|39=1|1=TestAccount|63=0|55=MSFT|54=1|38=100000|40=1|15=USD|59=0|32=50000|31=100|151=50000|14=50000|6=100|60=20120909-14:23:45|21=1|111=0|10=136|
8=FIX.4.2|9=254|35=8|49=Trading|56=Client|34=159|52=20120909-13:23:45.523|37=OrderID_142345|11=20120909-142345-0864730|17=ExecID_157|20=0|150=0|39=0|1=TestAccount|63=0|55=MSFT|54=1|38=100000|40=1|15=USD|59=0|32=0|31=0|151=100000|14=0|6=0|60=20120909-14:23:45|21=1|111=0|10=101|
8=FIX.4.2|9=269|35=8|49=Trading|56=Client|34=160|52=20120909-13:23:45.523|37=OrderID_142345|11=20120909-142345-0864730|17=ExecID_158|20=0|150=1|39=1|1=TestAccount|63=0|55=MSFT|54=1|38=100000|40=1|15=USD|59=0|32=50000|31=101.5|151=50000|14=50000|6=101.5|60=20120909-14:23:45|21=1|111=0|10=078|
8=FIX.4.2|9=254|35=8|49=Trading|56=Client|34=161|52=20120909-13:23:45.741|37=OrderID_142345|11=20120909-142345-5232738|17=ExecID_159|20=0|150=0|39=0|1=TestAccount|63=0|55=MSFT|54=1|38=100000|40=1|15=USD|59=0|32=0|31=0|151=100000|14=0|6=0|60=20120909-14:23:45|21=1|111=0|10=100|
8=FIX.4.2|9=269|35=8|49=Trading|56=Client|34=162|52=20120909-13:23:45.741|37=OrderID_142345|11=20120909-142345-5232738|17=ExecID_160|20=0|150=1|39=1|1=TestAccount|63=0|55=MSFT|54=1|38=100000|40=1|15=USD|59=0|32=50000|31=100.5|151=50000|14=50000|6=100.5|60=20120909-14:23:45|21=1|111=0|10=075|
8=FIX.4.2|9=254|35=8|49=Trading|56=Client|34=163|52=20120909-13:23:45.960|37=OrderID_142345|11=20120909-142345-7416742|17=ExecID_161|20=0|150=0|39=0|1=TestAccount|63=0|55=MSFT|54=1|38=100000|40=1|15=USD|59=0|32=0|31=0|151=100000|14=0|6=0|60=20120909-14:23:45|21=1|111=0|10=099|
8=FIX.4.2|9=269|35=8|49=Trading|56=Client|34=164|52=20120909-13:23:45.960|37=OrderID_142345|11=20120909-142345-7416742|17=ExecID_162|20=0|150=1|39=1|1=TestAccount|63=0|55=MSFT|54=1|38=100000|40=1|15=USD|59=0|32=50000|31=100.5|151=50000|14=50000|6=100.5|60=20120909-14:23:45|21=1|111=0|10=083|
8=FIX.4.2|9=254|35=8|49=Trading|56=Client|34=165|52=20120909-13:23:46.178|37=OrderID_142346|11=20120909-142345-9600745|17=ExecID_163|20=0|150=0|39=0|1=TestAccount|63=0|55=MSFT|54=1|38=100000|40=1|15=USD|59=0|32=0|31=0|151=100000|14=0|6=0|60=20120909-14:23:46|21=1|111=0|10=107|
8=FIX.4.2|9=265|35=8|49=Trading|56=Client|34=166|52=20120909-13:23:46.178|37=OrderID_142346|11=20120909-142345-9600745|17=ExecID_164|20=0|150=1|39=1|1=TestAccount|63=0|55=MSFT|54=1|38=100000|40=1|15=USD|59=0|32=50000|31=101|151=50000|14=50000|6=101|60=20120909-14:23:46|21=1|111=0|10=147|
8=FIX.4.2|9=254|35=8|49=Trading|56=Client|34=167|52=20120909-13:23:46.365|37=OrderID_142346|11=20120909-142346-1628749|17=ExecID_165|20=0|150=0|39=0|1=TestAccount|63=0|55=MSFT|54=1|38=100000|40=1|15=USD|59=0|32=0|31=0|151=100000|14=0|6=0|60=20120909-14:23:46|21=1|111=0|10=116|
8=FIX.4.2|9=269|35=8|49=Trading|56=Client|34=168|52=20120909-13:23:46.365|37=OrderID_142346|11=20120909-142346-1628749|17=ExecID_166|20=0|150=1|39=1|1=TestAccount|63=0|55=MSFT|54=1|38=100000|40=1|15=USD|59=0|32=50000|31=100.5|151=50000|14=50000|6=100.5|60=20120909-14:23:46|21=1|111=0|10=100|
8=FIX.4.2|9=254|35=8|49=Trading|56=Client|34=169|52=20120909-13:23:46.568|37=OrderID_142346|11=20120909-142346-3656753|17=ExecID_167|20=0|150=0|39=0|1=TestAccount|63=0|55=MSFT|54=1|38=100000|40=1|15=USD|59=0|32=0|31=0|151=100000|14=0|6=0|60=20120909-14:23:46|21=1|111=0|10=123|
8=FIX.4.2|9=269|35=8|49=Trading|56=Client|34=170|52=20120909-13:23:46.568|37=OrderID_142346|11=20120909-142346-3656753|17=ExecID_168|20=0|150=1|39=1|1=TestAccount|63=0|55=MSFT|54=1|38=100000|40=1|15=USD|59=0|32=50000|31=100.5|151=50000|14=50000|6=100.5|60=20120909-14:23:46|21=1|111=0|10=098|
8=FIX.4.2|9=254|35=8|49=Trading|56=Client|34=171|52=20120909-13:23:46.740|37=OrderID_142346|11=20120909-142346-5684756|17=ExecID_169|20=0|150=0|39=0|1=TestAccount|63=0|55=MSFT|54=1|38=100000|40=1|15=USD|59=0|32=0|31=0|151=100000|14=0|6=0|60=20120909-14:23:46|21=1|111=0|10=116|
8=FIX.4.2|9=269|35=8|49=Trading|56=Client|34=172|52=20120909-13:23:46.740|37=OrderID_142346|11=20120909-142346-5684756|17=ExecID_170|20=0|150=1|39=1|1=TestAccount|63=0|55=MSFT|54=1|38=100000|40=1|15=USD|59=0|32=50000|31=101.5|151=50000|14=50000|6=101.5|60=20120909-14:23:46|21=1|111=0|10=093|
8=FIX.4.2|9=254|35=8|49=Trading|56=Client|34=173|52=20120909-13:23:46.942|37=OrderID_142346|11=20120909-142346-7400759|17=ExecID_171|20=0|150=0|39=0|1=TestAccount|63=0|55=MSFT|54=1|38=100000|40=1|15=USD|59=0|32=0|31=0|151=100000|14=0|6=0|60=20120909-14:23:46|21=1|111=0|10=106|
8=FIX.4.2|9=269|35=8|49=Trading|56=Client|34=174|52=20120909-13:23:46.942|37=OrderID_142346|11=20120909-142346-7400759|17=ExecID_172|20=0|150=1|39=1|1=TestAccount|63=0|55=MSFT|54=1|38=100000|40=1|15=USD|59=0|32=50000|31=101.5|151=50000|14=50000|6=101.5|60=20120909-14:23:46|21=1|111=0|10=092|
8=FIX.4.2|9=254|35=8|49=Trading|56=Client|34=175|52=20120909-13:23:47.145|37=OrderID_142347|11=20120909-142346-9428763|17=ExecID_173|20=0|150=0|39=0|1=TestAccount|63=0|55=MSFT|54=1|38=100000|40=1|15=USD|59=0|32=0|31=0|151=100000|14=0|6=0|60=20120909-14:23:47|21=1|111=0|10=115|
8=FIX.4.2|9=269|35=8|49=Trading|56=Client|34=176|52=20120909-13:23:47.145|37=OrderID_142347|11=20120909-142346-9428763|17=ExecID_174|20=0|150=1|39=1|1=TestAccount|63=0|55=MSFT|54=1|38=100000|40=1|15=USD|59=0|32=50000|31=101.5|151=50000|14=50000|6=101.5|60=20120909-14:23:47|21=1|111=0|10=101|
8=FIX.4.2|9=254|35=8|49=Trading|56=Client|34=177|52=20120909-13:23:47.332|37=OrderID_142347|11=20120909-142347-1300766|17=ExecID_175|20=0|150=0|39=0|1=TestAccount|63=0|55=MSFT|54=1|38=100000|40=1|15=USD|59=0|32=0|31=0|151=100000|14=0|6=0|60=20120909-14:23:47|21=1|111=0|10=102|
8=FIX.4.2|9=265|35=8|49=Trading|56=Client|34=178|52=20120909-13:23:47.332|37=OrderID_142347|11=20120909-142347-1300766|17=ExecID_176|20=0|150=1|39=1|1=TestAccount|63=0|55=MSFT|54=1|38=100000|40=1|15=USD|59=0|32=50000|31=101|151=50000|14=50000|6=101|60=20120909-14:23:47|21=1|111=0|10=142|
8=FIX.4.2|9=254|35=8|49=Trading|56=Client|34=179|52=20120909-13:23:47.520|37=OrderID_142347|11=20120909-142347-3328770|17=ExecID_177|20=0|150=0|39=0|1=TestAccount|63=0|55=MSFT|54=1|38=100000|40=1|15=USD|59=0|32=0|31=0|151=100000|14=0|6=0|60=20120909-14:23:47|21=1|111=0|10=112|
8=FIX.4.2|9=269|35=8|49=Trading|56=Client|34=180|52=20120909-13:23:47.520|37=OrderID_142347|11=20120909-142347-3328770|17=ExecID_178|20=0|150=1|39=1|1=TestAccount|63=0|55=MSFT|54=1|38=100000|40=1|15=USD|59=0|32=50000|31=100.5|151=50000|14=50000|6=100.5|60=20120909-14:23:47|21=1|111=0|10=087|
8=FIX.4.2|9=254|35=8|49=Trading|56=Client|34=181|52=20120909-13:23:47.707|37=OrderID_142347|11=20120909-142347-5200773|17=ExecID_179|20=0|150=0|39=0|1=TestAccount|63=0|55=MSFT|54=1|38=100000|40=1|15=USD|59=0|32=0|31=0|151=100000|14=0|6=0|60=20120909-14:23:47|21=1|111=0|10=108|
8=FIX.4.2|9=269|35=8|49=Trading|56=Client|34=182|52=20120909-13:23:47.707|37=OrderID_142347|11=20120909-142347-5200773|17=ExecID_180|20=0|150=1|39=1|1=TestAccount|63=0|55=MSFT|54=1|38=100000|40=1|15=USD|59=0|32=50000|31=101.5|151=50000|14=50000|6=101.5|60=20120909-14:23:47|21=1|111=0|10=085|
8=FIX.4.2|9=254|35=8|49=Trading|56=Client|34=183|52=20120909-13:23:47.894|37=OrderID_142347|11=20120909-142347-6916776|17=ExecID_181|20=0|150=0|39=0|1=TestAccount|63=0|55=MSFT|54=1|38=100000|40=1|15=USD|59=0|32=0|31=0|151=100000|14=0|6=0|60=20120909-14:23:47|21=1|111=0|10=128|
8=FIX.4.2|9=265|35=8|49=Trading|56=Client|34=184|52=20120909-13:23:47.894|37=OrderID_142347|11=20120909-142347-6916776|17=ExecID_182|20=0|150=1|39=1|1=TestAccount|63=0|55=MSFT|54=1|38=100000|40=1|15=USD|59=0|32=50000|31=100|151=50000|14=50000|6=100|60=20120909-14:23:47|21=1|111=0|10=166|
8=FIX.4.2|9=254|35=8|49=Trading|56=Client|34=185|52=20120909-13:23:48.081|37=OrderID_142348|11=20120909-142347-8944779|17=ExecID_183|20=0|150=0|39=0|1=TestAccount|63=0|55=MSFT|54=1|38=100000|40=1|15=USD|59=0|32=0|31=0|151=100000|14=0|6=0|60=20120909-14:23:48|21=1|111=0|10=129|
8=FIX.4.2|9=269|35=8|49=Trading|56=Client|34=186|52=20120909-13:23:48.081|37=OrderID_142348|11=20120909-142347-8944779|17=ExecID_184|20=0|150=1|39=1|1=TestAccount|63=0|55=MSFT|54=1|38=100000|40=1|15=USD|59=0|32=50000|31=101.5|151=50000|14=50000|6=101.5|60=20120909-14:23:48|21=1|111=0|10=115|
8=FIX.4.2|9=254|35=8|49=Trading|56=Client|34=187|52=20120909-13:23:48.315|37=OrderID_142348|11=20120909-142348-0816783|17=ExecID_185|20=0|150=0|39=0|1=TestAccount|63=0|55=MSFT|54=1|38=100000|40=1|15=USD|59=0|32=0|31=0|151=100000|14=0|6=0|60=20120909-14:23:48|21=1|111=0|10=119|
8=FIX.4.2|9=265|35=8|49=Trading|56=Client|34=188|52=20120909-13:23:48.315|37=OrderID_142348|11=20120909-142348-0816783|17=ExecID_186|20=0|150=1|39=1|1=TestAccount|63=0|55=MSFT|54=1|38=100000|40=1|15=USD|59=0|32=50000|31=102|151=50000|14=50000|6=102|60=20120909-14:23:48|21=1|111=0|10=161|
8=FIX.4.2|9=254|35=8|49=Trading|56=Client|34=189|52=20120909-13:23:48.487|37=OrderID_142348|11=20120909-142348-3000787|17=ExecID_187|20=0|150=0|39=0|1=TestAccount|63=0|55=MSFT|54=1|38=100000|40=1|15=USD|59=0|32=0|31=0|151=100000|14=0|6=0|60=20120909-14:23:48|21=1|111=0|10=125|
8=FIX.4.2|9=269|35=8|49=Trading|56=Client|34=190|52=20120909-13:23:48.487|37=OrderID_142348|11=20120909-142348-3000787|17=ExecID_188|20=0|150=1|39=1|1=TestAccount|63=0|55=MSFT|54=1|38=100000|40=1|15=USD|59=0|32=50000|31=100.5|151=50000|14=50000|6=100.5|60=20120909-14:23:48|21=1|111=0|10=100|
8=FIX.4.2|9=254|35=8|49=Trading|56=Client|34=191|52=20120909-13:23:48.674|37=OrderID_142348|11=20120909-142348-4872790|17=ExecID_189|20=0|150=0|39=0|1=TestAccount|63=0|55=MSFT|54=1|38=100000|40=1|15=USD|59=0|32=0|31=0|151=100000|14=0|6=0|60=20120909-14:23:48|21=1|111=0|10=130|
8=FIX.4.2|9=265|35=8|49=Trading|56=Client|34=192|52=20120909-13:23:48.674|37=OrderID_142348|11=20120909-142348-4872790|17=ExecID_190|20=0|150=1|39=1|1=TestAccount|63=0|55=MSFT|54=1|38=100000|40=1|15=USD|59=0|32=50000|31=101|151=50000|14=50000|6=101|60=20120909-14:23:48|21=1|111=0|10=161|
8=FIX.4.2|9=254|35=8|49=Trading|56=Client|34=193|52=20120909-13:23:54.228|37=OrderID_142354|11=20120909-142348-6588793|17=ExecID_191|20=0|150=0|39=0|1=TestAccount|63=0|55=CSCO|54=1|38=100000|40=1|15=USD|59=0|32=0|31=0|151=100000|14=0|6=0|60=20120909-14:23:54|21=1|111=0|10=102|
8=FIX.4.2|9=265|35=8|49=Trading|56=Client|34=194|52=20120909-13:23:54.228|37=OrderID_142354|11=20120909-142348-6588793|17=ExecID_192|20=0|150=1|39=1|1=TestAccount|63=0|55=CSCO|54=1|38=100000|40=1|15=USD|59=0|32=50000|31=101|151=50000|14=50000|6=101|60=20120909-14:23:54|21=1|111=0|10=142|
8=FIX.4.2|9=254|35=8|49=Trading|56=Client|34=195|52=20120909-13:23:54.446|37=OrderID_142354|11=20120909-142354-2280142|17=ExecID_193|20=0|150=0|39=0|1=TestAccount|63=0|55=CSCO|54=1|38=100000|40=1|15=USD|59=0|32=0|31=0|151=100000|14=0|6=0|60=20120909-14:23:54|21=1|111=0|10=078|
8=FIX.4.2|9=265|35=8|49=Trading|56=Client|34=196|52=20120909-13:23:54.446|37=OrderID_142354|11=20120909-142354-2280142|17=ExecID_194|20=0|150=1|39=1|1=TestAccount|63=0|55=CSCO|54=1|38=100000|40=1|15=USD|59=0|32=50000|31=102|151=50000|14=50000|6=102|60=20120909-14:23:54|21=1|111=0|10=120|
8=FIX.4.2|9=254|35=8|49=Trading|56=Client|34=197|52=20120909-13:23:54.649|37=OrderID_142354|11=20120909-142354-4464114|17=ExecID_195|20=0|150=0|39=0|1=TestAccount|63=0|55=CSCO|54=1|38=100000|40=1|15=USD|59=0|32=0|31=0|151=100000|14=0|6=0|60=20120909-14:23:54|21=1|111=0|10=092|
8=FIX.4.2|9=265|35=8|49=Trading|56=Client|34=198|52=20120909-13:23:54.649|37=OrderID_142354|11=20120909-142354-4464114|17=ExecID_196|20=0|150=1|39=1|1=TestAccount|63=0|55=CSCO|54=1|38=100000|40=1|15=USD|59=0|32=50000|31=101|151=50000|14=50000|6=101|60=20120909-14:23:54|21=1|111=0|10=132|
8=FIX.4.2|9=254|35=8|49=Trading|56=Client|34=199|52=20120909-13:23:54.852|37=OrderID_142354|11=20120909-142354-6492088|17=ExecID_197|20=0|150=0|39=0|1=TestAccount|63=0|55=CSCO|54=1|38=100000|40=1|15=USD|59=0|32=0|31=0|151=100000|14=0|6=0|60=20120909-14:23:54|21=1|111=0|10=105|
8=FIX.4.2|9=265|35=8|49=Trading|56=Client|34=200|52=20120909-13:23:54.852|37=OrderID_142354|11=20120909-142354-6492088|17=ExecID_198|20=0|150=1|39=1|1=TestAccount|63=0|55=CSCO|54=1|38=100000|40=1|15=USD|59=0|32=50000|31=101|151=50000|14=50000|6=101|60=20120909-14:23:54|21=1|111=0|10=127|
8=FIX.4.2|9=254|35=8|49=Trading|56=Client|34=201|52=20120909-13:23:55.039|37=OrderID_142355|11=20120909-142354-8520062|17=ExecID_199|20=0|150=0|39=0|1=TestAccount|63=0|55=CSCO|54=1|38=100000|40=1|15=USD|59=0|32=0|31=0|151=100000|14=0|6=0|60=20120909-14:23:55|21=1|111=0|10=077|
8=FIX.4.2|9=269|35=8|49=Trading|56=Client|34=202|52=20120909-13:23:55.039|37=OrderID_142355|11=20120909-142354-8520062|17=ExecID_200|20=0|150=1|39=1|1=TestAccount|63=0|55=CSCO|54=1|38=100000|40=1|15=USD|59=0|32=50000|31=100.5|151=50000|14=50000|6=100.5|60=20120909-14:23:55|21=1|111=0|10=043|
8=FIX.4.2|9=254|35=8|49=Trading|56=Client|34=203|52=20120909-13:23:55.226|37=OrderID_142355|11=20120909-142355-0392038|17=ExecID_201|20=0|150=0|39=0|1=TestAccount|63=0|55=CSCO|54=1|38=100000|40=1|15=USD|59=0|32=0|31=0|151=100000|14=0|6=0|60=20120909-14:23:55|21=1|111=0|10=064|
8=FIX.4.2|9=265|35=8|49=Trading|56=Client|34=204|52=20120909-13:23:55.226|37=OrderID_142355|11=20120909-142355-0392038|17=ExecID_202|20=0|150=1|39=1|1=TestAccount|63=0|55=CSCO|54=1|38=100000|40=1|15=USD|59=0|32=50000|31=101|151=50000|14=50000|6=101|60=20120909-14:23:55|21=1|111=0|10=104|
8=FIX.4.2|9=254|35=8|49=Trading|56=Client|34=205|52=20120909-13:23:55.429|37=OrderID_142355|11=20120909-142355-2264014|17=ExecID_203|20=0|150=0|39=0|1=TestAccount|63=0|55=CSCO|54=1|38=100000|40=1|15=USD|59=0|32=0|31=0|151=100000|14=0|6=0|60=20120909-14:23:55|21=1|111=0|10=067|
8=FIX.4.2|9=265|35=8|49=Trading|56=Client|34=206|52=20120909-13:23:55.429|37=OrderID_142355|11=20120909-142355-2264014|17=ExecID_204|20=0|150=1|39=1|1=TestAccount|63=0|55=CSCO|54=1|38=100000|40=1|15=USD|59=0|32=50000|31=102|151=50000|14=50000|6=102|60=20120909-14:23:55|21=1|111=0|10=109|
8=FIX.4.2|9=254|35=8|49=Trading|56=Client|34=207|52=20120909-13:23:55.600|37=OrderID_142355|11=20120909-142355-4291988|17=ExecID_205|20=0|150=0|39=0|1=TestAccount|63=0|55=CSCO|54=1|38=100000|40=1|15=USD|59=0|32=0|31=0|151=100000|14=0|6=0|60=20120909-14:23:55|21=1|111=0|10=084|
8=FIX.4.2|9=269|35=8|49=Trading|56=Client|34=208|52=20120909-13:23:55.600|37=OrderID_142355|11=20120909-142355-4291988|17=ExecID_206|20=0|150=1|39=1|1=TestAccount|63=0|55=CSCO|54=1|38=100000|40=1|15=USD|59=0|32=50000|31=101.5|151=50000|14=50000|6=101.5|60=20120909-14:23:55|21=1|111=0|10=070|
8=FIX.4.2|9=254|35=8|49=Trading|56=Client|34=209|52=20120909-13:23:55.787|37=OrderID_142355|11=20120909-142355-6007966|17=ExecID_207|20=0|150=0|39=0|1=TestAccount|63=0|55=CSCO|54=1|38=100000|40=1|15=USD|59=0|32=0|31=0|151=100000|14=0|6=0|60=20120909-14:23:55|21=1|111=0|10=097|
8=FIX.4.2|9=265|35=8|49=Trading|56=Client|34=210|52=20120909-13:23:55.787|37=OrderID_142355|11=20120909-142355-6007966|17=ExecID_208|20=0|150=1|39=1|1=TestAccount|63=0|55=CSCO|54=1|38=100000|40=1|15=USD|59=0|32=50000|31=101|151=50000|14=50000|6=101|60=20120909-14:23:55|21=1|111=0|10=128|
8=FIX.4.2|9=254|35=8|49=Trading|56=Client|34=211|52=20120909-13:23:55.990|37=OrderID_142355|11=20120909-142355-7879942|17=ExecID_209|20=0|150=0|39=0|1=TestAccount|63=0|55=CSCO|54=1|38=100000|40=1|15=USD|59=0|32=0|31=0|151=100000|14=0|6=0|60=20120909-14:23:55|21=1|111=0|10=100|
8=FIX.4.2|9=265|35=8|49=Trading|56=Client|34=212|52=20120909-13:23:55.990|37=OrderID_142355|11=20120909-142355-7879942|17=ExecID_210|20=0|150=1|39=1|1=TestAccount|63=0|55=CSCO|54=1|38=100000|40=1|15=USD|59=0|32=50000|31=101|151=50000|14=50000|6=101|60=20120909-14:23:55|21=1|111=0|10=131|
8=FIX.4.2|9=254|35=8|49=Trading|56=Client|34=213|52=20120909-13:23:56.177|37=OrderID_142356|11=20120909-142355-9751918|17=ExecID_211|20=0|150=0|39=0|1=TestAccount|63=0|55=CSCO|54=1|38=100000|40=1|15=USD|59=0|32=0|31=0|151=100000|14=0|6=0|60=20120909-14:23:56|21=1|111=0|10=089|
8=FIX.4.2|9=269|35=8|49=Trading|56=Client|34=214|52=20120909-13:23:56.177|37=OrderID_142356|11=20120909-142355-9751918|17=ExecID_212|20=0|150=1|39=1|1=TestAccount|63=0|55=CSCO|54=1|38=100000|40=1|15=USD|59=0|32=50000|31=100.5|151=50000|14=50000|6=100.5|60=20120909-14:23:56|21=1|111=0|10=073|
8=FIX.4.2|9=254|35=8|49=Trading|56=Client|34=215|52=20120909-13:23:56.380|37=OrderID_142356|11=20120909-142356-1623894|17=ExecID_213|20=0|150=0|39=0|1=TestAccount|63=0|55=CSCO|54=1|38=100000|40=1|15=USD|59=0|32=0|31=0|151=100000|14=0|6=0|60=20120909-14:23:56|21=1|111=0|10=083|
8=FIX.4.2|9=269|35=8|49=Trading|56=Client|34=216|52=20120909-13:23:56.380|37=OrderID_142356|11=20120909-142356-1623894|17=ExecID_214|20=0|150=1|39=1|1=TestAccount|63=0|55=CSCO|54=1|38=100000|40=1|15=USD|59=0|32=50000|31=100.5|151=50000|14=50000|6=100.5|60=20120909-14:23:56|21=1|111=0|10=067|
8=FIX.4.2|9=254|35=8|49=Trading|56=Client|34=217|52=20120909-13:23:56.552|37=OrderID_142356|11=20120909-142356-3651868|17=ExecID_215|20=0|150=0|39=0|1=TestAccount|63=0|55=CSCO|54=1|38=100000|40=1|15=USD|59=0|32=0|31=0|151=100000|14=0|6=0|60=20120909-14:23:56|21=1|111=0|10=092|
8=FIX.4.2|9=269|35=8|49=Trading|56=Client|34=218|52=20120909-13:23:56.552|37=OrderID_142356|11=20120909-142356-3651868|17=ExecID_216|20=0|150=1|39=1|1=TestAccount|63=0|55=CSCO|54=1|38=100000|40=1|15=USD|59=0|32=50000|31=100.5|151=50000|14=50000|6=100.5|60=20120909-14:23:56|21=1|111=0|10=076|
8=FIX.4.2|9=254|35=8|49=Trading|56=Client|34=219|52=20120909-13:23:56.755|37=OrderID_142356|11=20120909-142356-5523844|17=ExecID_217|20=0|150=0|39=0|1=TestAccount|63=0|55=CSCO|54=1|38=100000|40=1|15=USD|59=0|32=0|31=0|151=100000|14=0|6=0|60=20120909-14:23:56|21=1|111=0|10=095|
8=FIX.4.2|9=269|35=8|49=Trading|56=Client|34=220|52=20120909-13:23:56.755|37=OrderID_142356|11=20120909-142356-5523844|17=ExecID_218|20=0|150=1|39=1|1=TestAccount|63=0|55=CSCO|54=1|38=100000|40=1|15=USD|59=0|32=50000|31=101.5|151=50000|14=50000|6=101.5|60=20120909-14:23:56|21=1|111=0|10=072|
8=FIX.4.2|9=254|35=8|49=Trading|56=Client|34=221|52=20120909-13:23:56.942|37=OrderID_142356|11=20120909-142356-7551818|17=ExecID_219|20=0|150=0|39=0|1=TestAccount|63=0|55=CSCO|54=1|38=100000|40=1|15=USD|59=0|32=0|31=0|151=100000|14=0|6=0|60=20120909-14:23:56|21=1|111=0|10=092|
8=FIX.4.2|9=265|35=8|49=Trading|56=Client|34=222|52=20120909-13:23:56.942|37=OrderID_142356|11=20120909-142356-7551818|17=ExecID_220|20=0|150=1|39=1|1=TestAccount|63=0|55=CSCO|54=1|38=100000|40=1|15=USD|59=0|32=50000|31=102|151=50000|14=50000|6=102|60=20120909-14:23:56|21=1|111=0|10=125|
8=FIX.4.2|9=254|35=8|49=Trading|56=Client|34=223|52=20120909-13:23:57.113|37=OrderID_142357|11=20120909-142356-9423794|17=ExecID_221|20=0|150=0|39=0|1=TestAccount|63=0|55=CSCO|54=1|38=100000|40=1|15=USD|59=0|32=0|31=0|151=100000|14=0|6=0|60=20120909-14:23:57|21=1|111=0|10=083|
8=FIX.4.2|9=269|35=8|49=Trading|56=Client|34=224|52=20120909-13:23:57.113|37=OrderID_142357|11=20120909-142356-9423794|17=ExecID_222|20=0|150=1|39=1|1=TestAccount|63=0|55=CSCO|54=1|38=100000|40=1|15=USD|59=0|32=50000|31=100.5|151=50000|14=50000|6=100.5|60=20120909-14:23:57|21=1|111=0|10=067|
8=FIX.4.2|9=254|35=8|49=Trading|56=Client|34=225|52=20120909-13:23:57.301|37=OrderID_142357|11=20120909-142357-1139772|17=ExecID_223|20=0|150=0|39=0|1=TestAccount|63=0|55=CSCO|54=1|38=100000|40=1|15=USD|59=0|32=0|31=0|151=100000|14=0|6=0|60=20120909-14:23:57|21=1|111=0|10=079|
8=FIX.4.2|9=265|35=8|49=Trading|56=Client|34=226|52=20120909-13:23:57.301|37=OrderID_142357|11=20120909-142357-1139772|17=ExecID_224|20=0|150=1|39=1|1=TestAccount|63=0|55=CSCO|54=1|38=100000|40=1|15=USD|59=0|32=50000|31=102|151=50000|14=50000|6=102|60=20120909-14:23:57|21=1|111=0|10=121|
8=FIX.4.2|9=254|35=8|49=Trading|56=Client|34=227|52=20120909-13:23:57.503|37=OrderID_142357|11=20120909-142357-3011748|17=ExecID_225|20=0|150=0|39=0|1=TestAccount|63=0|55=CSCO|54=1|38=100000|40=1|15=USD|59=0|32=0|31=0|151=100000|14=0|6=0|60=20120909-14:23:57|21=1|111=0|10=081|
8=FIX.4.2|9=265|35=8|49=Trading|56=Client|34=228|52=20120909-13:23:57.503|37=OrderID_142357|11=20120909-142357-3011748|17=ExecID_226|20=0|150=1|39=1|1=TestAccount|63=0|55=CSCO|54=1|38=100000|40=1|15=USD|59=0|32=50000|31=100|151=50000|14=50000|6=100|60=20120909-14:23:57|21=1|111=0|10=119|
8=FIX.4.2|9=254|35=8|49=Trading|56=Client|34=229|52=20120909-13:23:57.691|37=OrderID_142357|11=20120909-142357-5039722|17=ExecID_227|20=0|150=0|39=0|1=TestAccount|63=0|55=CSCO|54=1|38=100000|40=1|15=USD|59=0|32=0|31=0|151=100000|14=0|6=0|60=20120909-14:23:57|21=1|111=0|10=097|
8=FIX.4.2|9=269|35=8|49=Trading|56=Client|34=230|52=20120909-13:23:57.691|37=OrderID_142357|11=20120909-142357-5039722|17=ExecID_228|20=0|150=1|39=1|1=TestAccount|63=0|55=CSCO|54=1|38=100000|40=1|15=USD|59=0|32=50000|31=101.5|151=50000|14=50000|6=101.5|60=20120909-14:23:57|21=1|111=0|10=074|
8=FIX.4.2|9=254|35=8|49=Trading|56=Client|34=231|52=20120909-13:23:57.878|37=OrderID_142357|11=20120909-142357-6911698|17=ExecID_229|20=0|150=0|39=0|1=TestAccount|63=0|55=CSCO|54=1|38=100000|40=1|15=USD|59=0|32=0|31=0|151=100000|14=0|6=0|60=20120909-14:23:57|21=1|111=0|10=111|
8=FIX.4.2|9=265|35=8|49=Trading|56=Client|34=232|52=20120909-13:23:57.878|37=OrderID_142357|11=20120909-142357-6911698|17=ExecID_230|20=0|150=1|39=1|1=TestAccount|63=0|55=CSCO|54=1|38=100000|40=1|15=USD|59=0|32=50000|31=102|151=50000|14=50000|6=102|60=20120909-14:23:57|21=1|111=0|10=144|
8=FIX.4.2|9=254|35=8|49=Trading|56=Client|34=233|52=20120909-13:23:58.081|37=OrderID_142358|11=20120909-142357-8783674|17=ExecID_231|20=0|150=0|39=0|1=TestAccount|63=0|55=CSCO|54=1|38=100000|40=1|15=USD|59=0|32=0|31=0|151=100000|14=0|6=0|60=20120909-14:23:58|21=1|111=0|10=098|
8=FIX.4.2|9=265|35=8|49=Trading|56=Client|34=234|52=20120909-13:23:58.081|37=OrderID_142358|11=20120909-142357-8783674|17=ExecID_232|20=0|150=1|39=1|1=TestAccount|63=0|55=CSCO|54=1|38=100000|40=1|15=USD|59=0|32=50000|31=101|151=50000|14=50000|6=101|60=20120909-14:23:58|21=1|111=0|10=138|
8=FIX.4.2|9=254|35=8|49=Trading|56=Client|34=235|52=20120909-13:23:58.268|37=OrderID_142358|11=20120909-142358-0811648|17=ExecID_233|20=0|150=0|39=0|1=TestAccount|63=0|55=CSCO|54=1|38=100000|40=1|15=USD|59=0|32=0|31=0|151=100000|14=0|6=0|60=20120909-14:23:58|21=1|111=0|10=095|
8=FIX.4.2|9=269|35=8|49=Trading|56=Client|34=236|52=20120909-13:23:58.268|37=OrderID_142358|11=20120909-142358-0811648|17=ExecID_234|20=0|150=1|39=1|1=TestAccount|63=0|55=CSCO|54=1|38=100000|40=1|15=USD|59=0|32=50000|31=101.5|151=50000|14=50000|6=101.5|60=20120909-14:23:58|21=1|111=0|10=081|
8=FIX.4.2|9=254|35=8|49=Trading|56=Client|34=237|52=20120909-13:23:58.471|37=OrderID_142358|11=20120909-142358-2683624|17=ExecID_235|20=0|150=0|39=0|1=TestAccount|63=0|55=CSCO|54=1|38=100000|40=1|15=USD|59=0|32=0|31=0|151=100000|14=0|6=0|60=20120909-14:23:58|21=1|111=0|10=098|
8=FIX.4.2|9=269|35=8|49=Trading|56=Client|34=238|52=20120909-13:23:58.471|37=OrderID_142358|11=20120909-142358-2683624|17=ExecID_236|20=0|150=1|39=1|1=TestAccount|63=0|55=CSCO|54=1|38=100000|40=1|15=USD|59=0|32=50000|31=100.5|151=50000|14=50000|6=100.5|60=20120909-14:23:58|21=1|111=0|10=082|
8=FIX.4.2|9=254|35=8|49=Trading|56=Client|34=239|52=20120909-13:23:58.658|37=OrderID_142358|11=20120909-142358-4711598|17=ExecID_237|20=0|150=0|39=0|1=TestAccount|63=0|55=CSCO|54=1|38=100000|40=1|15=USD|59=0|32=0|31=0|151=100000|14=0|6=0|60=20120909-14:23:58|21=1|111=0|10=113|
8=FIX.4.2|9=265|35=8|49=Trading|56=Client|34=240|52=20120909-13:23:58.658|37=OrderID_142358|11=20120909-142358-4711598|17=ExecID_238|20=0|150=1|39=1|1=TestAccount|63=0|55=CSCO|54=1|38=100000|40=1|15=USD|59=0|32=50000|31=101|151=50000|14=50000|6=101|60=20120909-14:23:58|21=1|111=0|10=144|
8=FIX.4.2|9=254|35=8|49=Trading|56=Client|34=241|52=20120909-13:23:58.845|37=OrderID_142358|11=20120909-142358-6583574|17=ExecID_239|20=0|150=0|39=0|1=TestAccount|63=0|55=CSCO|54=1|38=100000|40=1|15=USD|59=0|32=0|31=0|151=100000|14=0|6=0|60=20120909-14:23:58|21=1|111=0|10=109|
8=FIX.4.2|9=265|35=8|49=Trading|56=Client|34=242|52=20120909-13:23:58.845|37=OrderID_142358|11=20120909-142358-6583574|17=ExecID_240|20=0|150=1|39=1|1=TestAccount|63=0|55=CSCO|54=1|38=100000|40=1|15=USD|59=0|32=50000|31=100|151=50000|14=50000|6=100|60=20120909-14:23:58|21=1|111=0|10=138|
8=FIX.4.2|9=254|35=8|49=Trading|56=Client|34=243|52=20120909-13:23:59.032|37=OrderID_142359|11=20120909-142358-8299552|17=ExecID_241|20=0|150=0|39=0|1=TestAccount|63=0|55=CSCO|54=1|38=100000|40=1|15=USD|59=0|32=0|31=0|151=100000|14=0|6=0|60=20120909-14:23:59|21=1|111=0|10=097|
8=FIX.4.2|9=269|35=8|49=Trading|56=Client|34=244|52=20120909-13:23:59.032|37=OrderID_142359|11=20120909-142358-8299552|17=ExecID_242|20=0|150=1|39=1|1=TestAccount|63=0|55=CSCO|54=1|38=100000|40=1|15=USD|59=0|32=50000|31=101.5|151=50000|14=50000|6=101.5|60=20120909-14:23:59|21=1|111=0|10=083|
8=FIX.4.2|9=254|35=8|49=Trading|56=Client|34=245|52=20120909-13:23:59.219|37=OrderID_142359|11=20120909-142359-0327526|17=ExecID_243|20=0|150=0|39=0|1=TestAccount|63=0|55=CSCO|54=1|38=100000|40=1|15=USD|59=0|32=0|31=0|151=100000|14=0|6=0|60=20120909-14:23:59|21=1|111=0|10=094|
8=FIX.4.2|9=265|35=8|49=Trading|56=Client|34=246|52=20120909-13:23:59.219|37=OrderID_142359|11=20120909-142359-0327526|17=ExecID_244|20=0|150=1|39=1|1=TestAccount|63=0|55=CSCO|54=1|38=100000|40=1|15=USD|59=0|32=50000|31=101|151=50000|14=50000|6=101|60=20120909-14:23:59|21=1|111=0|10=134|
8=FIX.4.2|9=254|35=8|49=Trading|56=Client|34=247|52=20120909-13:23:59.407|37=OrderID_142359|11=20120909-142359-2199502|17=ExecID_245|20=0|150=0|39=0|1=TestAccount|63=0|55=CSCO|54=1|38=100000|40=1|15=USD|59=0|32=0|31=0|151=100000|14=0|6=0|60=20120909-14:23:59|21=1|111=0|10=100|
8=FIX.4.2|9=269|35=8|49=Trading|56=Client|34=248|52=20120909-13:23:59.407|37=OrderID_142359|11=20120909-142359-2199502|17=ExecID_246|20=0|150=1|39=1|1=TestAccount|63=0|55=CSCO|54=1|38=100000|40=1|15=USD|59=0|32=50000|31=100.5|151=50000|14=50000|6=100.5|60=20120909-14:23:59|21=1|111=0|10=084|
8=FIX.4.2|9=254|35=8|49=Trading|56=Client|34=249|52=20120909-13:23:59.594|37=OrderID_142359|11=20120909-142359-3915480|17=ExecID_247|20=0|150=0|39=0|1=TestAccount|63=0|55=CSCO|54=1|38=100000|40=1|15=USD|59=0|32=0|31=0|151=100000|14=0|6=0|60=20120909-14:23:59|21=1|111=0|10=113|
8=FIX.4.2|9=265|35=8|49=Trading|56=Client|34=250|52=20120909-13:23:59.594|37=OrderID_142359|11=20120909-142359-3915480|17=ExecID_248|20=0|150=1|39=1|1=TestAccount|63=0|55=CSCO|54=1|38=100000|40=1|15=USD|59=0|32=50000|31=101|151=50000|14=50000|6=101|60=20120909-14:23:59|21=1|111=0|10=144|
8=FIX.4.2|9=254|35=8|49=Trading|56=Client|34=251|52=20120909-13:23:59.797|37=OrderID_142359|11=20120909-142359-5943454|17=ExecID_249|20=0|150=0|39=0|1=TestAccount|63=0|55=CSCO|54=1|38=100000|40=1|15=USD|59=0|32=0|31=0|151=100000|14=0|6=0|60=20120909-14:23:59|21=1|111=0|10=117|
8=FIX.4.2|9=265|35=8|49=Trading|56=Client|34=252|52=20120909-13:23:59.797|37=OrderID_142359|11=20120909-142359-5943454|17=ExecID_250|20=0|150=1|39=1|1=TestAccount|63=0|55=CSCO|54=1|38=100000|40=1|15=USD|59=0|32=50000|31=102|151=50000|14=50000|6=102|60=20120909-14:23:59|21=1|111=0|10=150|
8=FIX.4.2|9=254|35=8|49=Trading|56=Client|34=253|52=20120909-13:23:59.984|37=OrderID_142359|11=20120909-142359-7971428|17=ExecID_251|20=0|150=0|39=0|1=TestAccount|63=0|55=CSCO|54=1|38=100000|40=1|15=USD|59=0|32=0|31=0|151=100000|14=0|6=0|60=20120909-14:23:59|21=1|111=0|10=114|
8=FIX.4.2|9=269|35=8|49=Trading|56=Client|34=254|52=20120909-13:23:59.984|37=OrderID_142359|11=20120909-142359-7971428|17=ExecID_252|20=0|150=1|39=1|1=TestAccount|63=0|55=CSCO|54=1|38=100000|40=1|15=USD|59=0|32=50000|31=100.5|151=50000|14=50000|6=100.5|60=20120909-14:23:59|21=1|111=0|10=098|
8=FIX.4.2|9=254|35=8|49=Trading|56=Client|34=255|52=20120909-13:24:00.171|37=OrderID_142400|11=20120909-142359-9843404|17=ExecID_253|20=0|150=0|39=0|1=TestAccount|63=0|55=CSCO|54=1|38=100000|40=1|15=USD|59=0|32=0|31=0|151=100000|14=0|6=0|60=20120909-14:24:00|21=1|111=0|10=061|
8=FIX.4.2|9=269|35=8|49=Trading|56=Client|34=256|52=20120909-13:24:00.171|37=OrderID_142400|11=20120909-142359-9843404|17=ExecID_254|20=0|150=1|39=1|1=TestAccount|63=0|55=CSCO|54=1|38=100000|40=1|15=USD|59=0|32=50000|31=101.5|151=50000|14=50000|6=101.5|60=20120909-14:24:00|21=1|111=0|10=047|
8=FIX.4.2|9=254|35=8|49=Trading|56=Client|34=257|52=20120909-13:24:00.374|37=OrderID_142400|11=20120909-142400-1715380|17=ExecID_255|20=0|150=0|39=0|1=TestAccount|63=0|55=CSCO|54=1|38=100000|40=1|15=USD|59=0|32=0|31=0|151=100000|14=0|6=0|60=20120909-14:24:00|21=1|111=0|10=050|
8=FIX.4.2|9=265|35=8|49=Trading|56=Client|34=258|52=20120909-13:24:00.374|37=OrderID_142400|11=20120909-142400-1715380|17=ExecID_256|20=0|150=1|39=1|1=TestAccount|63=0|55=CSCO|54=1|38=100000|40=1|15=USD|59=0|32=50000|31=102|151=50000|14=50000|6=102|60=20120909-14:24:00|21=1|111=0|10=092|
8=FIX.4.2|9=254|35=8|49=Trading|56=Client|34=259|52=20120909-13:24:00.561|37=OrderID_142400|11=20120909-142400-3743354|17=ExecID_257|20=0|150=0|39=0|1=TestAccount|63=0|55=CSCO|54=1|38=100000|40=1|15=USD|59=0|32=0|31=0|151=100000|14=0|6=0|60=20120909-14:24:00|21=1|111=0|10=056|
8=FIX.4.2|9=265|35=8|49=Trading|56=Client|34=260|52=20120909-13:24:00.561|37=OrderID_142400|11=20120909-142400-3743354|17=ExecID_258|20=0|150=1|39=1|1=TestAccount|63=0|55=CSCO|54=1|38=100000|40=1|15=USD|59=0|32=50000|31=101|151=50000|14=50000|6=101|60=20120909-14:24:00|21=1|111=0|10=087|
8=FIX.4.2|9=254|35=8|49=Trading|56=Client|34=261|52=20120909-13:24:00.764|37=OrderID_142400|11=20120909-142400-5615330|17=ExecID_259|20=0|150=0|39=0|1=TestAccount|63=0|55=CSCO|54=1|38=100000|40=1|15=USD|59=0|32=0|31=0|151=100000|14=0|6=0|60=20120909-14:24:00|21=1|111=0|10=050|
8=FIX.4.2|9=269|35=8|49=Trading|56=Client|34=262|52=20120909-13:24:00.764|37=OrderID_142400|11=20120909-142400-5615330|17=ExecID_260|20=0|150=1|39=1|1=TestAccount|63=0|55=CSCO|54=1|38=100000|40=1|15=USD|59=0|32=50000|31=101.5|151=50000|14=50000|6=101.5|60=20120909-14:24:00|21=1|111=0|10=027|
8=FIX.4.2|9=254|35=8|49=Trading|56=Client|34=263|52=20120909-13:24:00.967|37=OrderID_142400|11=20120909-142400-7643304|17=ExecID_261|20=0|150=0|39=0|1=TestAccount|63=0|55=CSCO|54=1|38=100000|40=1|15=USD|59=0|32=0|31=0|151=100000|14=0|6=0|60=20120909-14:24:00|21=1|111=0|10=054|
8=FIX.4.2|9=269|35=8|49=Trading|56=Client|34=264|52=20120909-13:24:00.967|37=OrderID_142400|11=20120909-142400-7643304|17=ExecID_262|20=0|150=1|39=1|1=TestAccount|63=0|55=CSCO|54=1|38=100000|40=1|15=USD|59=0|32=50000|31=101.5|151=50000|14=50000|6=101.5|60=20120909-14:24:00|21=1|111=0|10=040|
8=FIX.4.2|9=254|35=8|49=Trading|56=Client|34=265|52=20120909-13:24:04.539|37=OrderID_142404|11=20120909-142400-9671278|17=ExecID_263|20=0|150=0|39=0|1=TestAccount|63=0|55=CSCO|54=2|38=100000|40=1|15=USD|59=0|32=0|31=0|151=100000|14=0|6=0|60=20120909-14:24:04|21=1|111=0|10=079|
8=FIX.4.2|9=269|35=8|49=Trading|56=Client|34=266|52=20120909-13:24:04.539|37=OrderID_142404|11=20120909-142400-9671278|17=ExecID_264|20=0|150=1|39=1|1=TestAccount|63=0|55=CSCO|54=2|38=100000|40=1|15=USD|59=0|32=50000|31=101.5|151=50000|14=50000|6=101.5|60=20120909-14:24:04|21=1|111=0|10=065|
8=FIX.4.2|9=254|35=8|49=Trading|56=Client|34=267|52=20120909-13:24:04.773|37=OrderID_142404|11=20120909-142404-5394820|17=ExecID_265|20=0|150=0|39=0|1=TestAccount|63=0|55=CSCO|54=2|38=100000|40=1|15=USD|59=0|32=0|31=0|151=100000|14=0|6=0|60=20120909-14:24:04|21=1|111=0|10=078|
8=FIX.4.2|9=265|35=8|49=Trading|56=Client|34=268|52=20120909-13:24:04.773|37=OrderID_142404|11=20120909-142404-5394820|17=ExecID_266|20=0|150=1|39=1|1=TestAccount|63=0|55=CSCO|54=2|38=100000|40=1|15=USD|59=0|32=50000|31=100|151=50000|14=50000|6=100|60=20120909-14:24:04|21=1|111=0|10=116|
8=FIX.4.2|9=254|35=8|49=Trading|56=Client|34=269|52=20120909-13:24:04.976|37=OrderID_142404|11=20120909-142404-7578792|17=ExecID_267|20=0|150=0|39=0|1=TestAccount|63=0|55=CSCO|54=2|38=100000|40=1|15=USD|59=0|32=0|31=0|151=100000|14=0|6=0|60=20120909-14:24:04|21=1|111=0|10=101|
8=FIX.4.2|9=265|35=8|49=Trading|56=Client|34=270|52=20120909-13:24:04.976|37=OrderID_142404|11=20120909-142404-7578792|17=ExecID_268|20=0|150=1|39=1|1=TestAccount|63=0|55=CSCO|54=2|38=100000|40=1|15=USD|59=0|32=50000|31=100|151=50000|14=50000|6=100|60=20120909-14:24:04|21=1|111=0|10=130|
8=FIX.4.2|9=254|35=8|49=Trading|56=Client|34=271|52=20120909-13:24:05.179|37=OrderID_142405|11=20120909-142404-9762764|17=ExecID_269|20=0|150=0|39=0|1=TestAccount|63=0|55=CSCO|54=2|38=100000|40=1|15=USD|59=0|32=0|31=0|151=100000|14=0|6=0|60=20120909-14:24:05|21=1|111=0|10=090|
8=FIX.4.2|9=269|35=8|49=Trading|56=Client|34=272|52=20120909-13:24:05.179|37=OrderID_142405|11=20120909-142404-9762764|17=ExecID_270|20=0|150=1|39=1|1=TestAccount|63=0|55=CSCO|54=2|38=100000|40=1|15=USD|59=0|32=50000|31=100.5|151=50000|14=50000|6=100.5|60=20120909-14:24:05|21=1|111=0|10=065|
8=FIX.4.2|9=254|35=8|49=Trading|56=Client|34=273|52=20120909-13:24:05.366|37=OrderID_142405|11=20120909-142405-1634740|17=ExecID_271|20=0|150=0|39=0|1=TestAccount|63=0|55=CSCO|54=2|38=100000|40=1|15=USD|59=0|32=0|31=0|151=100000|14=0|6=0|60=20120909-14:24:05|21=1|111=0|10=068|
8=FIX.4.2|9=269|35=8|49=Trading|56=Client|34=274|52=20120909-13:24:05.366|37=OrderID_142405|11=20120909-142405-1634740|17=ExecID_272|20=0|150=1|39=1|1=TestAccount|63=0|55=CSCO|54=2|38=100000|40=1|15=USD|59=0|32=50000|31=101.5|151=50000|14=50000|6=101.5|60=20120909-14:24:05|21=1|111=0|10=054|
8=FIX.4.2|9=254|35=8|49=Trading|56=Client|34=275|52=20120909-13:24:05.553|37=OrderID_142405|11=20120909-142405-3662714|17=ExecID_273|20=0|150=0|39=0|1=TestAccount|63=0|55=CSCO|54=2|38=100000|40=1|15=USD|59=0|32=0|31=0|151=100000|14=0|6=0|60=20120909-14:24:05|21=1|111=0|10=074|
8=FIX.4.2|9=265|35=8|49=Trading|56=Client|34=276|52=20120909-13:24:05.553|37=OrderID_142405|11=20120909-142405-3662714|17=ExecID_274|20=0|150=1|39=1|1=TestAccount|63=0|55=CSCO|54=2|38=100000|40=1|15=USD|59=0|32=50000|31=101|151=50000|14=50000|6=101|60=20120909-14:24:05|21=1|111=0|10=114|
8=FIX.4.2|9=254|35=8|49=Trading|56=Client|34=277|52=20120909-13:24:05.740|37=OrderID_142405|11=20120909-142405-5534690|17=ExecID_275|20=0|150=0|39=0|1=TestAccount|63=0|55=CSCO|54=2|38=100000|40=1|15=USD|59=0|32=0|31=0|151=100000|14=0|6=0|60=20120909-14:24:05|21=1|111=0|10=079|
8=FIX.4.2|9=269|35=8|49=Trading|56=Client|34=278|52=20120909-13:24:05.740|37=OrderID_142405|11=20120909-142405-5534690|17=ExecID_276|20=0|150=1|39=1|1=TestAccount|63=0|55=CSCO|54=2|38=100000|40=1|15=USD|59=0|32=50000|31=100.5|151=50000|14=50000|6=100.5|60=20120909-14:24:05|21=1|111=0|10=063|
8=FIX.4.2|9=254|35=8|49=Trading|56=Client|34=279|52=20120909-13:24:05.943|37=OrderID_142405|11=20120909-142405-7406666|17=ExecID_277|20=0|150=0|39=0|1=TestAccount|63=0|55=CSCO|54=2|38=100000|40=1|15=USD|59=0|32=0|31=0|151=100000|14=0|6=0|60=20120909-14:24:05|21=1|111=0|10=091|
8=FIX.4.2|9=269|35=8|49=Trading|56=Client|34=280|52=20120909-13:24:05.943|37=OrderID_142405|11=20120909-142405-7406666|17=ExecID_278|20=0|150=1|39=1|1=TestAccount|63=0|55=CSCO|54=2|38=100000|40=1|15=USD|59=0|32=50000|31=100.5|151=50000|14=50000|6=100.5|60=20120909-14:24:05|21=1|111=0|10=066|
8=FIX.4.2|9=254|35=8|49=Trading|56=Client|34=281|52=20120909-13:24:06.146|37=OrderID_142406|11=20120909-142405-9278642|17=ExecID_279|20=0|150=0|39=0|1=TestAccount|63=0|55=CSCO|54=2|38=100000|40=1|15=USD|59=0|32=0|31=0|151=100000|14=0|6=0|60=20120909-14:24:06|21=1|111=0|10=087|
8=FIX.4.2|9=269|35=8|49=Trading|56=Client|34=282|52=20120909-13:24:06.146|37=OrderID_142406|11=20120909-142405-9278642|17=ExecID_280|20=0|150=1|39=1|1=TestAccount|63=0|55=CSCO|54=2|38=100000|40=1|15=USD|59=0|32=50000|31=100.5|151=50000|14=50000|6=100.5|60=20120909-14:24:06|21=1|111=0|10=062|
8=FIX.4.2|9=254|35=8|49=Trading|56=Client|34=283|52=20120909-13:24:06.349|37=OrderID_142406|11=20120909-142406-1306616|17=ExecID_281|20=0|150=0|39=0|1=TestAccount|63=0|55=CSCO|54=2|38=100000|40=1|15=USD|59=0|32=0|31=0|151=100000|14=0|6=0|60=20120909-14:24:06|21=1|111=0|10=073|
8=FIX.4.2|9=265|35=8|49=Trading|56=Client|34=284|52=20120909-13:24:06.349|37=OrderID_142406|11=20120909-142406-1306616|17=ExecID_282|20=0|150=1|39=1|1=TestAccount|63=0|55=CSCO|54=2|38=100000|40=1|15=USD|59=0|32=50000|31=101|151=50000|14=50000|6=101|60=20120909-14:24:06|21=1|111=0|10=113|
8=FIX.4.2|9=254|35=8|49=Trading|56=Client|34=285|52=20120909-13:24:06.505|37=OrderID_142406|11=20120909-142406-3334590|17=ExecID_283|20=0|150=0|39=0|1=TestAccount|63=0|55=CSCO|54=2|38=100000|40=1|15=USD|59=0|32=0|31=0|151=100000|14=0|6=0|60=20120909-14:24:06|21=1|111=0|10=075|
8=FIX.4.2|9=265|35=8|49=Trading|56=Client|34=286|52=20120909-13:24:06.505|37=OrderID_142406|11=20120909-142406-3334590|17=ExecID_284|20=0|150=1|39=1|1=TestAccount|63=0|55=CSCO|54=2|38=100000|40=1|15=USD|59=0|32=50000|31=102|151=50000|14=50000|6=102|60=20120909-14:24:06|21=1|111=0|10=117|
8=FIX.4.2|9=254|35=8|49=Trading|56=Client|34=287|52=20120909-13:24:06.707|37=OrderID_142406|11=20120909-142406-5050568|17=ExecID_285|20=0|150=0|39=0|1=TestAccount|63=0|55=CSCO|54=2|38=100000|40=1|15=USD|59=0|32=0|31=0|151=100000|14=0|6=0|60=20120909-14:24:06|21=1|111=0|10=085|
8=FIX.4.2|9=265|35=8|49=Trading|56=Client|34=288|52=20120909-13:24:06.707|37=OrderID_142406|11=20120909-142406-5050568|17=ExecID_286|20=0|150=1|39=1|1=TestAccount|63=0|55=CSCO|54=2|38=100000|40=1|15=USD|59=0|32=50000|31=101|151=50000|14=50000|6=101|60=20120909-14:24:06|21=1|111=0|10=125|
8=FIX.4.2|9=254|35=8|49=Trading|56=Client|34=289|52=20120909-13:24:06.910|37=OrderID_142406|11=20120909-142406-6922544|17=ExecID_287|20=0|150=0|39=0|1=TestAccount|63=0|55=CSCO|54=2|38=100000|40=1|15=USD|59=0|32=0|31=0|151=100000|14=0|6=0|60=20120909-14:24:06|21=1|111=0|10=088|
8=FIX.4.2|9=265|35=8|49=Trading|56=Client|34=290|52=20120909-13:24:06.910|37=OrderID_142406|11=20120909-142406-6922544|17=ExecID_288|20=0|150=1|39=1|1=TestAccount|63=0|55=CSCO|54=2|38=100000|40=1|15=USD|59=0|32=50000|31=101|151=50000|14=50000|6=101|60=20120909-14:24:06|21=1|111=0|10=119|
8=FIX.4.2|9=254|35=8|49=Trading|56=Client|34=291|52=20120909-13:24:07.097|37=OrderID_142407|11=20120909-142406-8950518|17=ExecID_289|20=0|150=0|39=0|1=TestAccount|63=0|55=CSCO|54=2|38=100000|40=1|15=USD|59=0|32=0|31=0|151=100000|14=0|6=0|60=20120909-14:24:07|21=1|111=0|10=096|
8=FIX.4.2|9=269|35=8|49=Trading|56=Client|34=292|52=20120909-13:24:07.097|37=OrderID_142407|11=20120909-142406-8950518|17=ExecID_290|20=0|150=1|39=1|1=TestAccount|63=0|55=CSCO|54=2|38=100000|40=1|15=USD|59=0|32=50000|31=100.5|151=50000|14=50000|6=100.5|60=20120909-14:24:07|21=1|111=0|10=071|
8=FIX.4.2|9=254|35=8|49=Trading|56=Client|34=293|52=20120909-13:24:07.300|37=OrderID_142407|11=20120909-142407-0978492|17=ExecID_291|20=0|150=0|39=0|1=TestAccount|63=0|55=CSCO|54=2|38=100000|40=1|15=USD|59=0|32=0|31=0|151=100000|14=0|6=0|60=20120909-14:24:07|21=1|111=0|10=082|
8=FIX.4.2|9=269|35=8|49=Trading|56=Client|34=294|52=20120909-13:24:07.300|37=OrderID_142407|11=20120909-142407-0978492|17=ExecID_292|20=0|150=1|39=1|1=TestAccount|63=0|55=CSCO|54=2|38=100000|40=1|15=USD|59=0|32=50000|31=100.5|151=50000|14=50000|6=100.5|60=20120909-14:24:07|21=1|111=0|10=066|
8=FIX.4.2|9=254|35=8|49=Trading|56=Client|34=295|52=20120909-13:24:07.503|37=OrderID_142407|11=20120909-142407-3006466|17=ExecID_293|20=0|150=0|39=0|1=TestAccount|63=0|55=CSCO|54=2|38=100000|40=1|15=USD|59=0|32=0|31=0|151=100000|14=0|6=0|60=20120909-14:24:07|21=1|111=0|10=077|
8=FIX.4.2|9=269|35=8|49=Trading|56=Client|34=296|52=20120909-13:24:07.503|37=OrderID_142407|11=20120909-142407-3006466|17=ExecID_294|20=0|150=1|39=1|1=TestAccount|63=0|55=CSCO|54=2|38=100000|40=1|15=USD|59=0|32=50000|31=100.5|151=50000|14=50000|6=100.5|60=20120909-14:24:07|21=1|111=0|10=061|
8=FIX.4.2|9=254|35=8|49=Trading|56=Client|34=297|52=20120909-13:24:07.690|37=OrderID_142407|11=20120909-142407-5034440|17=ExecID_295|20=0|150=0|39=0|1=TestAccount|63=0|55=CSCO|54=2|38=100000|40=1|15=USD|59=0|32=0|31=0|151=100000|14=0|6=0|60=20120909-14:24:07|21=1|111=0|10=083|
8=FIX.4.2|9=265|35=8|49=Trading|56=Client|34=298|52=20120909-13:24:07.690|37=OrderID_142407|11=20120909-142407-5034440|17=ExecID_296|20=0|150=1|39=1|1=TestAccount|63=0|55=CSCO|54=2|38=100000|40=1|15=USD|59=0|32=50000|31=102|151=50000|14=50000|6=102|60=20120909-14:24:07|21=1|111=0|10=125|
8=FIX.4.2|9=254|35=8|49=Trading|56=Client|34=299|52=20120909-13:24:07.909|37=OrderID_142407|11=20120909-142407-6906416|17=ExecID_297|20=0|150=0|39=0|1=TestAccount|63=0|55=CSCO|54=2|38=100000|40=1|15=USD|59=0|32=0|31=0|151=100000|14=0|6=0|60=20120909-14:24:07|21=1|111=0|10=102|
8=FIX.4.2|9=265|35=8|49=Trading|56=Client|34=300|52=20120909-13:24:07.909|37=OrderID_142407|11=20120909-142407-6906416|17=ExecID_298|20=0|150=1|39=1|1=TestAccount|63=0|55=CSCO|54=2|38=100000|40=1|15=USD|59=0|32=50000|31=101|151=50000|14=50000|6=101|60=20120909-14:24:07|21=1|111=0|10=124|
8=FIX.4.2|9=254|35=8|49=Trading|56=Client|34=301|52=20120909-13:24:08.096|37=OrderID_142408|11=20120909-142407-9090388|17=ExecID_299|20=0|150=0|39=0|1=TestAccount|63=0|55=CSCO|54=2|38=100000|40=1|15=USD|59=0|32=0|31=0|151=100000|14=0|6=0|60=20120909-14:24:08|21=1|111=0|10=093|
8=FIX.4.2|9=265|35=8|49=Trading|56=Client|34=302|52=20120909-13:24:08.096|37=OrderID_142408|11=20120909-142407-9090388|17=ExecID_300|20=0|150=1|39=1|1=TestAccount|63=0|55=CSCO|54=2|38=100000|40=1|15=USD|59=0|32=50000|31=100|151=50000|14=50000|6=100|60=20120909-14:24:08|21=1|111=0|10=113|
8=FIX.4.2|9=254|35=8|49=Trading|56=Client|34=303|52=20120909-13:24:08.299|37=OrderID_142408|11=20120909-142408-0962364|17=ExecID_301|20=0|150=0|39=0|1=TestAccount|63=0|55=CSCO|54=2|38=100000|40=1|15=USD|59=0|32=0|31=0|151=100000|14=0|6=0|60=20120909-14:24:08|21=1|111=0|10=078|
8=FIX.4.2|9=269|35=8|49=Trading|56=Client|34=304|52=20120909-13:24:08.299|37=OrderID_142408|11=20120909-142408-0962364|17=ExecID_302|20=0|150=1|39=1|1=TestAccount|63=0|55=CSCO|54=2|38=100000|40=1|15=USD|59=0|32=50000|31=100.5|151=50000|14=50000|6=100.5|60=20120909-14:24:08|21=1|111=0|10=062|
8=FIX.4.2|9=254|35=8|49=Trading|56=Client|34=305|52=20120909-13:24:08.501|37=OrderID_142408|11=20120909-142408-2990338|17=ExecID_303|20=0|150=0|39=0|1=TestAccount|63=0|55=CSCO|54=2|38=100000|40=1|15=USD|59=0|32=0|31=0|151=100000|14=0|6=0|60=20120909-14:24:08|21=1|111=0|10=072|
8=FIX.4.2|9=269|35=8|49=Trading|56=Client|34=306|52=20120909-13:24:08.501|37=OrderID_142408|11=20120909-142408-2990338|17=ExecID_304|20=0|150=1|39=1|1=TestAccount|63=0|55=CSCO|54=2|38=100000|40=1|15=USD|59=0|32=50000|31=101.5|151=50000|14=50000|6=101.5|60=20120909-14:24:08|21=1|111=0|10=058|
8=FIX.4.2|9=254|35=8|49=Trading|56=Client|34=307|52=20120909-13:24:08.704|37=OrderID_142408|11=20120909-142408-5018312|17=ExecID_305|20=0|150=0|39=0|1=TestAccount|63=0|55=CSCO|54=2|38=100000|40=1|15=USD|59=0|32=0|31=0|151=100000|14=0|6=0|60=20120909-14:24:08|21=1|111=0|10=067|
8=FIX.4.2|9=269|35=8|49=Trading|56=Client|34=308|52=20120909-13:24:08.704|37=OrderID_142408|11=20120909-142408-5018312|17=ExecID_306|20=0|150=1|39=1|1=TestAccount|63=0|55=CSCO|54=2|38=100000|40=1|15=USD|59=0|32=50000|31=101.5|151=50000|14=50000|6=101.5|60=20120909-14:24:08|21=1|111=0|10=053|
8=FIX.4.2|9=254|35=8|49=Trading|56=Client|34=309|52=20120909-13:24:08.891|37=OrderID_142408|11=20120909-142408-7046286|17=ExecID_307|20=0|150=0|39=0|1=TestAccount|63=0|55=CSCO|54=2|38=100000|40=1|15=USD|59=0|32=0|31=0|151=100000|14=0|6=0|60=20120909-14:24:08|21=1|111=0|10=091|
8=FIX.4.2|9=265|35=8|49=Trading|56=Client|34=310|52=20120909-13:24:08.907|37=OrderID_142408|11=20120909-142408-7046286|17=ExecID_308|20=0|150=1|39=1|1=TestAccount|63=0|55=CSCO|54=2|38=100000|40=1|15=USD|59=0|32=50000|31=101|151=50000|14=50000|6=101|60=20120909-14:24:08|21=1|111=0|10=120|
8=FIX.4.2|9=254|35=8|49=Trading|56=Client|34=311|52=20120909-13:24:16.457|37=OrderID_142416|11=20120909-142408-8918262|17=ExecID_309|20=0|150=0|39=0|1=TestAccount|63=0|55=CSCO|54=2|38=100000|40=1|15=USD|59=0|32=0|31=0|151=100000|14=0|6=0|60=20120909-14:24:16|21=1|111=0|10=084|
8=FIX.4.2|9=265|35=8|49=Trading|56=Client|34=312|52=20120909-13:24:16.457|37=OrderID_142416|11=20120909-142408-8918262|17=ExecID_310|20=0|150=1|39=1|1=TestAccount|63=0|55=CSCO|54=2|38=100000|40=1|15=USD|59=0|32=50000|31=100|151=50000|14=50000|6=100|60=20120909-14:24:16|21=1|111=0|10=113|
8=FIX.4.2|9=254|35=8|49=Trading|56=Client|34=313|52=20120909-13:24:16.644|37=OrderID_142416|11=20120909-142416-4265296|17=ExecID_311|20=0|150=0|39=0|1=TestAccount|63=0|55=CSCO|54=2|38=100000|40=1|15=USD|59=0|32=0|31=0|151=100000|14=0|6=0|60=20120909-14:24:16|21=1|111=0|10=074|
8=FIX.4.2|9=269|35=8|49=Trading|56=Client|34=314|52=20120909-13:24:16.644|37=OrderID_142416|11=20120909-142416-4265296|17=ExecID_312|20=0|150=1|39=1|1=TestAccount|63=0|55=CSCO|54=2|38=100000|40=1|15=USD|59=0|32=50000|31=100.5|151=50000|14=50000|6=100.5|60=20120909-14:24:16|21=1|111=0|10=058|
8=FIX.4.2|9=254|35=8|49=Trading|56=Client|34=315|52=20120909-13:24:16.863|37=OrderID_142416|11=20120909-142416-6449268|17=ExecID_313|20=0|150=0|39=0|1=TestAccount|63=0|55=CSCO|54=2|38=100000|40=1|15=USD|59=0|32=0|31=0|151=100000|14=0|6=0|60=20120909-14:24:16|21=1|111=0|10=086|
8=FIX.4.2|9=269|35=8|49=Trading|56=Client|34=316|52=20120909-13:24:16.863|37=OrderID_142416|11=20120909-142416-6449268|17=ExecID_314|20=0|150=1|39=1|1=TestAccount|63=0|55=CSCO|54=2|38=100000|40=1|15=USD|59=0|32=50000|31=100.5|151=50000|14=50000|6=100.5|60=20120909-14:24:16|21=1|111=0|10=070|
8=FIX.4.2|9=254|35=8|49=Trading|56=Client|34=317|52=20120909-13:24:17.050|37=OrderID_142417|11=20120909-142416-8633240|17=ExecID_315|20=0|150=0|39=0|1=TestAccount|63=0|55=CSCO|54=2|38=100000|40=1|15=USD|59=0|32=0|31=0|151=100000|14=0|6=0|60=20120909-14:24:17|21=1|111=0|10=068|
8=FIX.4.2|9=269|35=8|49=Trading|56=Client|34=318|52=20120909-13:24:17.050|37=OrderID_142417|11=20120909-142416-8633240|17=ExecID_316|20=0|150=1|39=1|1=TestAccount|63=0|55=CSCO|54=2|38=100000|40=1|15=USD|59=0|32=50000|31=101.5|151=50000|14=50000|6=101.5|60=20120909-14:24:17|21=1|111=0|10=054|
8=FIX.4.2|9=254|35=8|49=Trading|56=Client|34=319|52=20120909-13:24:17.253|37=OrderID_142417|11=20120909-142417-0505216|17=ExecID_317|20=0|150=0|39=0|1=TestAccount|63=0|55=CSCO|54=2|38=100000|40=1|15=USD|59=0|32=0|31=0|151=100000|14=0|6=0|60=20120909-14:24:17|21=1|111=0|10=071|
8=FIX.4.2|9=265|35=8|49=Trading|56=Client|34=320|52=20120909-13:24:17.253|37=OrderID_142417|11=20120909-142417-0505216|17=ExecID_318|20=0|150=1|39=1|1=TestAccount|63=0|55=CSCO|54=2|38=100000|40=1|15=USD|59=0|32=50000|31=102|151=50000|14=50000|6=102|60=20120909-14:24:17|21=1|111=0|10=104|
8=FIX.4.2|9=254|35=8|49=Trading|56=Client|34=321|52=20120909-13:24:17.440|37=OrderID_142417|11=20120909-142417-2533190|17=ExecID_319|20=0|150=0|39=0|1=TestAccount|63=0|55=CSCO|54=2|38=100000|40=1|15=USD|59=0|32=0|31=0|151=100000|14=0|6=0|60=20120909-14:24:17|21=1|111=0|10=068|
8=FIX.4.2|9=265|35=8|49=Trading|56=Client|34=322|52=20120909-13:24:17.440|37=OrderID_142417|11=20120909-142417-2533190|17=ExecID_320|20=0|150=1|39=1|1=TestAccount|63=0|55=CSCO|54=2|38=100000|40=1|15=USD|59=0|32=50000|31=101|151=50000|14=50000|6=101|60=20120909-14:24:17|21=1|111=0|10=099|
8=FIX.4.2|9=254|35=8|49=Trading|56=Client|34=323|52=20120909-13:24:17.627|37=OrderID_142417|11=20120909-142417-4249168|17=ExecID_321|20=0|150=0|39=0|1=TestAccount|63=0|55=CSCO|54=2|38=100000|40=1|15=USD|59=0|32=0|31=0|151=100000|14=0|6=0|60=20120909-14:24:17|21=1|111=0|10=081|
8=FIX.4.2|9=269|35=8|49=Trading|56=Client|34=324|52=20120909-13:24:17.627|37=OrderID_142417|11=20120909-142417-4249168|17=ExecID_322|20=0|150=1|39=1|1=TestAccount|63=0|55=CSCO|54=2|38=100000|40=1|15=USD|59=0|32=50000|31=100.5|151=50000|14=50000|6=100.5|60=20120909-14:24:17|21=1|111=0|10=065|
8=FIX.4.2|9=253|35=8|49=Trading|56=Client|34=325|52=20120909-13:24:22.526|37=OrderID_142422|11=20120909-142417-6277142|17=ExecID_323|20=0|150=0|39=0|1=TestAccount|63=0|55=JPM|54=2|38=100000|40=1|15=USD|59=0|32=0|31=0|151=100000|14=0|6=0|60=20120909-14:24:22|21=1|111=0|10=000|
8=FIX.4.2|9=268|35=8|49=Trading|56=Client|34=326|52=20120909-13:24:22.526|37=OrderID_142422|11=20120909-142417-6277142|17=ExecID_324|20=0|150=1|39=1|1=TestAccount|63=0|55=JPM|54=2|38=100000|40=1|15=USD|59=0|32=50000|31=101.5|151=50000|14=50000|6=101.5|60=20120909-14:24:22|21=1|111=0|10=242|
8=FIX.4.2|9=253|35=8|49=Trading|56=Client|34=327|52=20120909-13:24:22.728|37=OrderID_142422|11=20120909-142422-5260514|17=ExecID_325|20=0|150=0|39=0|1=TestAccount|63=0|55=JPM|54=2|38=100000|40=1|15=USD|59=0|32=0|31=0|151=100000|14=0|6=0|60=20120909-14:24:22|21=1|111=0|10=254|
8=FIX.4.2|9=268|35=8|49=Trading|56=Client|34=328|52=20120909-13:24:22.728|37=OrderID_142422|11=20120909-142422-5260514|17=ExecID_326|20=0|150=1|39=1|1=TestAccount|63=0|55=JPM|54=2|38=100000|40=1|15=USD|59=0|32=50000|31=101.5|151=50000|14=50000|6=101.5|60=20120909-14:24:22|21=1|111=0|10=240|
8=FIX.4.2|9=253|35=8|49=Trading|56=Client|34=329|52=20120909-13:24:22.931|37=OrderID_142422|11=20120909-142422-7288488|17=ExecID_327|20=0|150=0|39=0|1=TestAccount|63=0|55=JPM|54=2|38=100000|40=1|15=USD|59=0|32=0|31=0|151=100000|14=0|6=0|60=20120909-14:24:22|21=1|111=0|10=020|
8=FIX.4.2|9=268|35=8|49=Trading|56=Client|34=330|52=20120909-13:24:22.931|37=OrderID_142422|11=20120909-142422-7288488|17=ExecID_328|20=0|150=1|39=1|1=TestAccount|63=0|55=JPM|54=2|38=100000|40=1|15=USD|59=0|32=50000|31=100.5|151=50000|14=50000|6=100.5|60=20120909-14:24:22|21=1|111=0|10=251|
8=FIX.4.2|9=253|35=8|49=Trading|56=Client|34=331|52=20120909-13:24:23.118|37=OrderID_142423|11=20120909-142422-9316462|17=ExecID_329|20=0|150=0|39=0|1=TestAccount|63=0|55=JPM|54=2|38=100000|40=1|15=USD|59=0|32=0|31=0|151=100000|14=0|6=0|60=20120909-14:24:23|21=1|111=0|10=001|
8=FIX.4.2|9=264|35=8|49=Trading|56=Client|34=332|52=20120909-13:24:23.118|37=OrderID_142423|11=20120909-142422-9316462|17=ExecID_330|20=0|150=1|39=1|1=TestAccount|63=0|55=JPM|54=2|38=100000|40=1|15=USD|59=0|32=50000|31=101|151=50000|14=50000|6=101|60=20120909-14:24:23|21=1|111=0|10=032|
8=FIX.4.2|9=253|35=8|49=Trading|56=Client|34=333|52=20120909-13:24:23.321|37=OrderID_142423|11=20120909-142423-1188438|17=ExecID_331|20=0|150=0|39=0|1=TestAccount|63=0|55=JPM|54=2|38=100000|40=1|15=USD|59=0|32=0|31=0|151=100000|14=0|6=0|60=20120909-14:24:23|21=1|111=0|10=251|
8=FIX.4.2|9=264|35=8|49=Trading|56=Client|34=334|52=20120909-13:24:23.321|37=OrderID_142423|11=20120909-142423-1188438|17=ExecID_332|20=0|150=1|39=1|1=TestAccount|63=0|55=JPM|54=2|38=100000|40=1|15=USD|59=0|32=50000|31=100|151=50000|14=50000|6=100|60=20120909-14:24:23|21=1|111=0|10=033|
8=FIX.4.2|9=253|35=8|49=Trading|56=Client|34=335|52=20120909-13:24:23.508|37=OrderID_142423|11=20120909-142423-3216412|17=ExecID_333|20=0|150=0|39=0|1=TestAccount|63=0|55=JPM|54=2|38=100000|40=1|15=USD|59=0|32=0|31=0|151=100000|14=0|6=0|60=20120909-14:24:23|21=1|111=0|10=248|
8=FIX.4.2|9=268|35=8|49=Trading|56=Client|34=336|52=20120909-13:24:23.508|37=OrderID_142423|11=20120909-142423-3216412|17=ExecID_334|20=0|150=1|39=1|1=TestAccount|63=0|55=JPM|54=2|38=100000|40=1|15=USD|59=0|32=50000|31=100.5|151=50000|14=50000|6=100.5|60=20120909-14:24:23|21=1|111=0|10=232|
8=FIX.4.2|9=253|35=8|49=Trading|56=Client|34=337|52=20120909-13:24:23.727|37=OrderID_142423|11=20120909-142423-5088388|17=ExecID_335|20=0|150=0|39=0|1=TestAccount|63=0|55=JPM|54=2|38=100000|40=1|15=USD|59=0|32=0|31=0|151=100000|14=0|6=0|60=20120909-14:24:23|21=1|111=0|10=020|
8=FIX.4.2|9=264|35=8|49=Trading|56=Client|34=338|52=20120909-13:24:23.727|37=OrderID_142423|11=20120909-142423-5088388|17=ExecID_336|20=0|150=1|39=1|1=TestAccount|63=0|55=JPM|54=2|38=100000|40=1|15=USD|59=0|32=50000|31=100|151=50000|14=50000|6=100|60=20120909-14:24:23|21=1|111=0|10=058|
8=FIX.4.2|9=253|35=8|49=Trading|56=Client|34=339|52=20120909-13:24:23.930|37=OrderID_142423|11=20120909-142423-7272360|17=ExecID_337|20=0|150=0|39=0|1=TestAccount|63=0|55=JPM|54=2|38=100000|40=1|15=USD|59=0|32=0|31=0|151=100000|14=0|6=0|60=20120909-14:24:23|21=1|111=0|10=007|
8=FIX.4.2|9=268|35=8|49=Trading|56=Client|34=340|52=20120909-13:24:23.930|37=OrderID_142423|11=20120909-142423-7272360|17=ExecID_338|20=0|150=1|39=1|1=TestAccount|63=0|55=JPM|54=2|38=100000|40=1|15=USD|59=0|32=50000|31=100.5|151=50000|14=50000|6=100.5|60=20120909-14:24:23|21=1|111=0|10=238|
8=FIX.4.2|9=253|35=8|49=Trading|56=Client|34=341|52=20120909-13:24:24.132|37=OrderID_142424|11=20120909-142423-9300334|17=ExecID_339|20=0|150=0|39=0|1=TestAccount|63=0|55=JPM|54=2|38=100000|40=1|15=USD|59=0|32=0|31=0|151=100000|14=0|6=0|60=20120909-14:24:24|21=1|111=0|10=250|
8=FIX.4.2|9=268|35=8|49=Trading|56=Client|34=342|52=20120909-13:24:24.132|37=OrderID_142424|11=20120909-142423-9300334|17=ExecID_340|20=0|150=1|39=1|1=TestAccount|63=0|55=JPM|54=2|38=100000|40=1|15=USD|59=0|32=50000|31=100.5|151=50000|14=50000|6=100.5|60=20120909-14:24:24|21=1|111=0|10=225|
8=FIX.4.2|9=253|35=8|49=Trading|56=Client|34=343|52=20120909-13:24:24.320|37=OrderID_142424|11=20120909-142424-1328308|17=ExecID_341|20=0|150=0|39=0|1=TestAccount|63=0|55=JPM|54=2|38=100000|40=1|15=USD|59=0|32=0|31=0|151=100000|14=0|6=0|60=20120909-14:24:24|21=1|111=0|10=248|
8=FIX.4.2|9=264|35=8|49=Trading|56=Client|34=344|52=20120909-13:24:24.320|37=OrderID_142424|11=20120909-142424-1328308|17=ExecID_342|20=0|150=1|39=1|1=TestAccount|63=0|55=JPM|54=2|38=100000|40=1|15=USD|59=0|32=50000|31=102|151=50000|14=50000|6=102|60=20120909-14:24:24|21=1|111=0|10=034|
8=FIX.4.2|9=253|35=8|49=Trading|56=Client|34=345|52=20120909-13:24:24.522|37=OrderID_142424|11=20120909-142424-3200284|17=ExecID_343|20=0|150=0|39=0|1=TestAccount|63=0|55=JPM|54=2|38=100000|40=1|15=USD|59=0|32=0|31=0|151=100000|14=0|6=0|60=20120909-14:24:24|21=1|111=0|10=250|
8=FIX.4.2|9=264|35=8|49=Trading|56=Client|34=346|52=20120909-13:24:24.522|37=OrderID_142424|11=20120909-142424-3200284|17=ExecID_344|20=0|150=1|39=1|1=TestAccount|63=0|55=JPM|54=2|38=100000|40=1|15=USD|59=0|32=50000|31=102|151=50000|14=50000|6=102|60=20120909-14:24:24|21=1|111=0|10=036|
8=FIX.4.2|9=253|35=8|49=Trading|56=Client|34=347|52=20120909-13:24:24.725|37=OrderID_142424|11=20120909-142424-5228258|17=ExecID_345|20=0|150=0|39=0|1=TestAccount|63=0|55=JPM|54=2|38=100000|40=1|15=USD|59=0|32=0|31=0|151=100000|14=0|6=0|60=20120909-14:24:24|21=1|111=0|10=016|
8=FIX.4.2|9=264|35=8|49=Trading|56=Client|34=348|52=20120909-13:24:24.725|37=OrderID_142424|11=20120909-142424-5228258|17=ExecID_346|20=0|150=1|39=1|1=TestAccount|63=0|55=JPM|54=2|38=100000|40=1|15=USD|59=0|32=50000|31=101|151=50000|14=50000|6=101|60=20120909-14:24:24|21=1|111=0|10=056|
8=FIX.4.2|9=253|35=8|49=Trading|56=Client|34=349|52=20120909-13:24:24.944|37=OrderID_142424|11=20120909-142424-7256232|17=ExecID_347|20=0|150=0|39=0|1=TestAccount|63=0|55=JPM|54=2|38=100000|40=1|15=USD|59=0|32=0|31=0|151=100000|14=0|6=0|60=20120909-14:24:24|21=1|111=0|10=018|
8=FIX.4.2|9=264|35=8|49=Trading|56=Client|34=350|52=20120909-13:24:24.944|37=OrderID_142424|11=20120909-142424-7256232|17=ExecID_348|20=0|150=1|39=1|1=TestAccount|63=0|55=JPM|54=2|38=100000|40=1|15=USD|59=0|32=50000|31=102|151=50000|14=50000|6=102|60=20120909-14:24:24|21=1|111=0|10=051|
8=FIX.4.2|9=253|35=8|49=Trading|56=Client|34=351|52=20120909-13:24:25.131|37=OrderID_142425|11=20120909-142424-9284206|17=ExecID_349|20=0|150=0|39=0|1=TestAccount|63=0|55=JPM|54=2|38=100000|40=1|15=USD|59=0|32=0|31=0|151=100000|14=0|6=0|60=20120909-14:24:25|21=1|111=0|10=008|
8=FIX.4.2|9=264|35=8|49=Trading|56=Client|34=352|52=20120909-13:24:25.131|37=OrderID_142425|11=20120909-142424-9284206|17=ExecID_350|20=0|150=1|39=1|1=TestAccount|63=0|55=JPM|54=2|38=100000|40=1|15=USD|59=0|32=50000|31=101|151=50000|14=50000|6=101|60=20120909-14:24:25|21=1|111=0|10=039|
8=FIX.4.2|9=253|35=8|49=Trading|56=Client|34=353|52=20120909-13:24:25.521|37=OrderID_142425|11=20120909-142425-1312180|17=ExecID_351|20=0|150=0|39=0|1=TestAccount|63=0|55=JPM|54=2|38=100000|40=1|15=USD|59=0|32=0|31=0|151=100000|14=0|6=0|60=20120909-14:24:25|21=1|111=0|10=248|
8=FIX.4.2|9=268|35=8|49=Trading|56=Client|34=354|52=20120909-13:24:25.521|37=OrderID_142425|11=20120909-142425-1312180|17=ExecID_352|20=0|150=1|39=1|1=TestAccount|63=0|55=JPM|54=2|38=100000|40=1|15=USD|59=0|32=50000|31=100.5|151=50000|14=50000|6=100.5|60=20120909-14:24:25|21=1|111=0|10=232|
