8=FIX.4.2|9=251|35=8|49=Trade|56=Client|34=1056|52=20120907-16:14:38.888|37=OrderID_171438|11=20120907-171406-1290161|17=ExecID_5|20=0|150=0|39=0|1=TestAccount|63=0|55=MSFT|54=1|38=100000|40=1|15=USD|59=0|32=0|31=0|151=100000|14=0|6=0|60=20120907-17:14:38|21=1|111=0|10=093|
8=FIX.4.2|9=266|35=8|49=Trade|56=Client|34=1057|52=20120907-16:14:38.888|37=OrderID_171438|11=20120907-171406-1290161|17=ExecID_6|20=0|150=1|39=1|1=TestAccount|63=0|55=MSFT|54=1|38=100000|40=1|15=USD|59=0|32=50000|31=101.5|151=50000|14=50000|6=101.5|60=20120907-17:14:38|21=1|111=0|10=079|
8=FIX.4.2|9=251|35=8|49=Trade|56=Client|34=1058|52=20120907-16:14:39.434|37=OrderID_171439|11=20120907-171438-8881761|17=ExecID_7|20=0|150=0|39=0|1=TestAccount|63=0|55=MSFT|54=1|38=100000|40=1|15=USD|59=0|32=0|31=0|151=100000|14=0|6=0|60=20120907-17:14:39|21=1|111=0|10=111|
8=FIX.4.2|9=262|35=8|49=Trade|56=Client|34=1059|52=20120907-16:14:39.434|37=OrderID_171439|11=20120907-171438-8881761|17=ExecID_8|20=0|150=1|39=1|1=TestAccount|63=0|55=MSFT|54=1|38=100000|40=1|15=USD|59=0|32=50000|31=100|151=50000|14=50000|6=100|60=20120907-17:14:39|21=1|111=0|10=149|
8=FIX.4.2|9=251|35=8|49=Trade|56=Client|34=1060|52=20120907-16:14:39.668|37=OrderID_171439|11=20120907-171439-4341645|17=ExecID_9|20=0|150=0|39=0|1=TestAccount|63=0|55=MSFT|54=1|38=100000|40=1|15=USD|59=0|32=0|31=0|151=100000|14=0|6=0|60=20120907-17:14:39|21=1|111=0|10=104|
8=FIX.4.2|9=267|35=8|49=Trade|56=Client|34=1061|52=20120907-16:14:39.668|37=OrderID_171439|11=20120907-171439-4341645|17=ExecID_10|20=0|150=1|39=1|1=TestAccount|63=0|55=MSFT|54=1|38=100000|40=1|15=USD|59=0|32=50000|31=100.5|151=50000|14=50000|6=100.5|60=20120907-17:14:39|21=1|111=0|10=128|
8=FIX.4.2|9=252|35=8|49=Trade|56=Client|34=1062|52=20120907-16:14:39.870|37=OrderID_171439|11=20120907-171439-6525673|17=ExecID_11|20=0|150=0|39=0|1=TestAccount|63=0|55=MSFT|54=1|38=100000|40=1|15=USD|59=0|32=0|31=0|151=100000|14=0|6=0|60=20120907-17:14:39|21=1|111=0|10=150|
8=FIX.4.2|9=263|35=8|49=Trade|56=Client|34=1063|52=20120907-16:14:39.870|37=OrderID_171439|11=20120907-171439-6525673|17=ExecID_12|20=0|150=1|39=1|1=TestAccount|63=0|55=MSFT|54=1|38=100000|40=1|15=USD|59=0|32=50000|31=101|151=50000|14=50000|6=101|60=20120907-17:14:39|21=1|111=0|10=190|
8=FIX.4.2|9=252|35=8|49=Trade|56=Client|34=1064|52=20120907-16:14:40.026|37=OrderID_171440|11=20120907-171439-8553699|17=ExecID_13|20=0|150=0|39=0|1=TestAccount|63=0|55=MSFT|54=1|38=100000|40=1|15=USD|59=0|32=0|31=0|151=100000|14=0|6=0|60=20120907-17:14:40|21=1|111=0|10=134|
8=FIX.4.2|9=263|35=8|49=Trade|56=Client|34=1065|52=20120907-16:14:40.042|37=OrderID_171440|11=20120907-171439-8553699|17=ExecID_14|20=0|150=1|39=1|1=TestAccount|63=0|55=MSFT|54=1|38=100000|40=1|15=USD|59=0|32=50000|31=102|151=50000|14=50000|6=102|60=20120907-17:14:40|21=1|111=0|10=174|
8=FIX.4.2|9=252|35=8|49=Trade|56=Client|34=1066|52=20120907-16:14:40.214|37=OrderID_171440|11=20120907-171440-0269721|17=ExecID_15|20=0|150=0|39=0|1=TestAccount|63=0|55=MSFT|54=1|38=100000|40=1|15=USD|59=0|32=0|31=0|151=100000|14=0|6=0|60=20120907-17:14:40|21=1|111=0|10=111|
8=FIX.4.2|9=263|35=8|49=Trade|56=Client|34=1067|52=20120907-16:14:40.229|37=OrderID_171440|11=20120907-171440-0269721|17=ExecID_16|20=0|150=1|39=1|1=TestAccount|63=0|55=MSFT|54=1|38=100000|40=1|15=USD|59=0|32=50000|31=101|151=50000|14=50000|6=101|60=20120907-17:14:40|21=1|111=0|10=157|
8=FIX.4.2|9=252|35=8|49=Trade|56=Client|34=1068|52=20120907-16:14:40.401|37=OrderID_171440|11=20120907-171440-2141745|17=ExecID_17|20=0|150=0|39=0|1=TestAccount|63=0|55=MSFT|54=1|38=100000|40=1|15=USD|59=0|32=0|31=0|151=100000|14=0|6=0|60=20120907-17:14:40|21=1|111=0|10=110|
8=FIX.4.2|9=267|35=8|49=Trade|56=Client|34=1069|52=20120907-16:14:40.401|37=OrderID_171440|11=20120907-171440-2141745|17=ExecID_18|20=0|150=1|39=1|1=TestAccount|63=0|55=MSFT|54=1|38=100000|40=1|15=USD|59=0|32=50000|31=101.5|151=50000|14=50000|6=101.5|60=20120907-17:14:40|21=1|111=0|10=096|
8=FIX.4.2|9=252|35=8|49=Trade|56=Client|34=1070|52=20120907-16:14:40.619|37=OrderID_171440|11=20120907-171440-4013769|17=ExecID_19|20=0|150=0|39=0|1=TestAccount|63=0|55=MSFT|54=1|38=100000|40=1|15=USD|59=0|32=0|31=0|151=100000|14=0|6=0|60=20120907-17:14:40|21=1|111=0|10=122|
8=FIX.4.2|9=267|35=8|49=Trade|56=Client|34=1071|52=20120907-16:14:40.619|37=OrderID_171440|11=20120907-171440-4013769|17=ExecID_20|20=0|150=1|39=1|1=TestAccount|63=0|55=MSFT|54=1|38=100000|40=1|15=USD|59=0|32=50000|31=101.5|151=50000|14=50000|6=101.5|60=20120907-17:14:40|21=1|111=0|10=099|
8=FIX.4.2|9=252|35=8|49=Trade|56=Client|34=1072|52=20120907-16:14:40.760|37=OrderID_171440|11=20120907-171440-5885793|17=ExecID_21|20=0|150=0|39=0|1=TestAccount|63=0|55=MSFT|54=1|38=100000|40=1|15=USD|59=0|32=0|31=0|151=100000|14=0|6=0|60=20120907-17:14:40|21=1|111=0|10=129|
8=FIX.4.2|9=267|35=8|49=Trade|56=Client|34=1073|52=20120907-16:14:40.775|37=OrderID_171440|11=20120907-171440-5885793|17=ExecID_22|20=0|150=1|39=1|1=TestAccount|63=0|55=MSFT|54=1|38=100000|40=1|15=USD|59=0|32=50000|31=101.5|151=50000|14=50000|6=101.5|60=20120907-17:14:40|21=1|111=0|10=121|
8=FIX.4.2|9=252|35=8|49=Trade|56=Client|34=1074|52=20120907-16:14:40.947|37=OrderID_171440|11=20120907-171440-7601815|17=ExecID_23|20=0|150=0|39=0|1=TestAccount|63=0|55=MSFT|54=1|38=100000|40=1|15=USD|59=0|32=0|31=0|151=100000|14=0|6=0|60=20120907-17:14:40|21=1|111=0|10=123|
8=FIX.4.2|9=263|35=8|49=Trade|56=Client|34=1075|52=20120907-16:14:40.962|37=OrderID_171440|11=20120907-171440-7601815|17=ExecID_24|20=0|150=1|39=1|1=TestAccount|63=0|55=MSFT|54=1|38=100000|40=1|15=USD|59=0|32=50000|31=100|151=50000|14=50000|6=100|60=20120907-17:14:40|21=1|111=0|10=158|
8=FIX.4.2|9=252|35=8|49=Trade|56=Client|34=1076|52=20120907-16:14:41.118|37=OrderID_171441|11=20120907-171440-9473839|17=ExecID_25|20=0|150=0|39=0|1=TestAccount|63=0|55=MSFT|54=1|38=100000|40=1|15=USD|59=0|32=0|31=0|151=100000|14=0|6=0|60=20120907-17:14:41|21=1|111=0|10=135|
8=FIX.4.2|9=263|35=8|49=Trade|56=Client|34=1077|52=20120907-16:14:41.134|37=OrderID_171441|11=20120907-171440-9473839|17=ExecID_26|20=0|150=1|39=1|1=TestAccount|63=0|55=MSFT|54=1|38=100000|40=1|15=USD|59=0|32=50000|31=101|151=50000|14=50000|6=101|60=20120907-17:14:41|21=1|111=0|10=173|
8=FIX.4.2|9=252|35=8|49=Trade|56=Client|34=1078|52=20120907-16:14:41.306|37=OrderID_171441|11=20120907-171441-1189861|17=ExecID_27|20=0|150=0|39=0|1=TestAccount|63=0|55=MSFT|54=1|38=100000|40=1|15=USD|59=0|32=0|31=0|151=100000|14=0|6=0|60=20120907-17:14:41|21=1|111=0|10=130|
8=FIX.4.2|9=263|35=8|49=Trade|56=Client|34=1079|52=20120907-16:14:41.306|37=OrderID_171441|11=20120907-171441-1189861|17=ExecID_28|20=0|150=1|39=1|1=TestAccount|63=0|55=MSFT|54=1|38=100000|40=1|15=USD|59=0|32=50000|31=100|151=50000|14=50000|6=100|60=20120907-17:14:41|21=1|111=0|10=168|
8=FIX.4.2|9=252|35=8|49=Trade|56=Client|34=1080|52=20120907-16:14:41.493|37=OrderID_171441|11=20120907-171441-3061885|17=ExecID_29|20=0|150=0|39=0|1=TestAccount|63=0|55=MSFT|54=1|38=100000|40=1|15=USD|59=0|32=0|31=0|151=100000|14=0|6=0|60=20120907-17:14:41|21=1|111=0|10=129|
8=FIX.4.2|9=267|35=8|49=Trade|56=Client|34=1081|52=20120907-16:14:41.493|37=OrderID_171441|11=20120907-171441-3061885|17=ExecID_30|20=0|150=1|39=1|1=TestAccount|63=0|55=MSFT|54=1|38=100000|40=1|15=USD|59=0|32=50000|31=100.5|151=50000|14=50000|6=100.5|60=20120907-17:14:41|21=1|111=0|10=104|
8=FIX.4.2|9=252|35=8|49=Trade|56=Client|34=1082|52=20120907-16:14:49.995|37=OrderID_171449|11=20120907-171441-4933909|17=ExecID_31|20=0|150=0|39=0|1=TestAccount|63=0|55=MSFT|54=1|38=100000|40=1|15=USD|59=0|32=0|31=0|151=100000|14=0|6=0|60=20120907-17:14:49|21=1|111=0|10=161|
8=FIX.4.2|9=263|35=8|49=Trade|56=Client|34=1083|52=20120907-16:14:49.995|37=OrderID_171449|11=20120907-171441-4933909|17=ExecID_32|20=0|150=1|39=1|1=TestAccount|63=0|55=MSFT|54=1|38=100000|40=1|15=USD|59=0|32=50000|31=102|151=50000|14=50000|6=102|60=20120907-17:14:49|21=1|111=0|10=203|
8=FIX.4.2|9=252|35=8|49=Trade|56=Client|34=1084|52=20120907-16:14:54.862|37=OrderID_171454|11=20120907-171449-9798997|17=ExecID_33|20=0|150=0|39=0|1=TestAccount|63=0|55=MSFT|54=2|38=100000|40=1|15=USD|59=0|32=0|31=0|151=100000|14=0|6=0|60=20120907-17:14:54|21=1|111=0|10=176|
8=FIX.4.2|9=263|35=8|49=Trade|56=Client|34=1085|52=20120907-16:14:54.862|37=OrderID_171454|11=20120907-171449-9798997|17=ExecID_34|20=0|150=1|39=1|1=TestAccount|63=0|55=MSFT|54=2|38=100000|40=1|15=USD|59=0|32=50000|31=101|151=50000|14=50000|6=101|60=20120907-17:14:54|21=1|111=0|10=216|
8=FIX.4.2|9=252|35=8|49=Trade|56=Client|34=1086|52=20120907-16:14:55.065|37=OrderID_171455|11=20120907-171454-8627623|17=ExecID_35|20=0|150=0|39=0|1=TestAccount|63=0|55=MSFT|54=2|38=100000|40=1|15=USD|59=0|32=0|31=0|151=100000|14=0|6=0|60=20120907-17:14:55|21=1|111=0|10=150|
8=FIX.4.2|9=267|35=8|49=Trade|56=Client|34=1087|52=20120907-16:14:55.065|37=OrderID_171455|11=20120907-171454-8627623|17=ExecID_36|20=0|150=1|39=1|1=TestAccount|63=0|55=MSFT|54=2|38=100000|40=1|15=USD|59=0|32=50000|31=101.5|151=50000|14=50000|6=101.5|60=20120907-17:14:55|21=1|111=0|10=136|
8=FIX.4.2|9=252|35=8|49=Trade|56=Client|34=1088|52=20120907-16:14:55.252|37=OrderID_171455|11=20120907-171455-0655649|17=ExecID_37|20=0|150=0|39=0|1=TestAccount|63=0|55=MSFT|54=2|38=100000|40=1|15=USD|59=0|32=0|31=0|151=100000|14=0|6=0|60=20120907-17:14:55|21=1|111=0|10=154|
8=FIX.4.2|9=267|35=8|49=Trade|56=Client|34=1089|52=20120907-16:14:55.252|37=OrderID_171455|11=20120907-171455-0655649|17=ExecID_38|20=0|150=1|39=1|1=TestAccount|63=0|55=MSFT|54=2|38=100000|40=1|15=USD|59=0|32=50000|31=100.5|151=50000|14=50000|6=100.5|60=20120907-17:14:55|21=1|111=0|10=138|
8=FIX.4.2|9=252|35=8|49=Trade|56=Client|34=1090|52=20120907-16:14:55.424|37=OrderID_171455|11=20120907-171455-2371671|17=ExecID_39|20=0|150=0|39=0|1=TestAccount|63=0|55=MSFT|54=2|38=100000|40=1|15=USD|59=0|32=0|31=0|151=100000|14=0|6=0|60=20120907-17:14:55|21=1|111=0|10=142|
8=FIX.4.2|9=267|35=8|49=Trade|56=Client|34=1091|52=20120907-16:14:55.424|37=OrderID_171455|11=20120907-171455-2371671|17=ExecID_40|20=0|150=1|39=1|1=TestAccount|63=0|55=MSFT|54=2|38=100000|40=1|15=USD|59=0|32=50000|31=101.5|151=50000|14=50000|6=101.5|60=20120907-17:14:55|21=1|111=0|10=119|
8=FIX.4.2|9=252|35=8|49=Trade|56=Client|34=1092|52=20120907-16:14:55.611|37=OrderID_171455|11=20120907-171455-4243695|17=ExecID_41|20=0|150=0|39=0|1=TestAccount|63=0|55=MSFT|54=2|38=100000|40=1|15=USD|59=0|32=0|31=0|151=100000|14=0|6=0|60=20120907-17:14:55|21=1|111=0|10=141|
8=FIX.4.2|9=263|35=8|49=Trade|56=Client|34=1093|52=20120907-16:14:55.611|37=OrderID_171455|11=20120907-171455-4243695|17=ExecID_42|20=0|150=1|39=1|1=TestAccount|63=0|55=MSFT|54=2|38=100000|40=1|15=USD|59=0|32=50000|31=102|151=50000|14=50000|6=102|60=20120907-17:14:55|21=1|111=0|10=183|
8=FIX.4.2|9=252|35=8|49=Trade|56=Client|34=1094|52=20120907-16:14:55.783|37=OrderID_171455|11=20120907-171455-5959717|17=ExecID_43|20=0|150=0|39=0|1=TestAccount|63=0|55=MSFT|54=2|38=100000|40=1|15=USD|59=0|32=0|31=0|151=100000|14=0|6=0|60=20120907-17:14:55|21=1|111=0|10=165|
8=FIX.4.2|9=267|35=8|49=Trade|56=Client|34=1095|52=20120907-16:14:55.783|37=OrderID_171455|11=20120907-171455-5959717|17=ExecID_44|20=0|150=1|39=1|1=TestAccount|63=0|55=MSFT|54=2|38=100000|40=1|15=USD|59=0|32=50000|31=100.5|151=50000|14=50000|6=100.5|60=20120907-17:14:55|21=1|111=0|10=149|
8=FIX.4.2|9=252|35=8|49=Trade|56=Client|34=1096|52=20120907-16:14:55.954|37=OrderID_171455|11=20120907-171455-7831741|17=ExecID_45|20=0|150=0|39=0|1=TestAccount|63=0|55=MSFT|54=2|38=100000|40=1|15=USD|59=0|32=0|31=0|151=100000|14=0|6=0|60=20120907-17:14:55|21=1|111=0|10=157|
8=FIX.4.2|9=263|35=8|49=Trade|56=Client|34=1097|52=20120907-16:14:55.954|37=OrderID_171455|11=20120907-171455-7831741|17=ExecID_46|20=0|150=1|39=1|1=TestAccount|63=0|55=MSFT|54=2|38=100000|40=1|15=USD|59=0|32=50000|31=100|151=50000|14=50000|6=100|60=20120907-17:14:55|21=1|111=0|10=195|
8=FIX.4.2|9=252|35=8|49=Trade|56=Client|34=1098|52=20120907-16:14:56.126|37=OrderID_171456|11=20120907-171455-9391761|17=ExecID_47|20=0|150=0|39=0|1=TestAccount|63=0|55=MSFT|54=2|38=100000|40=1|15=USD|59=0|32=0|31=0|151=100000|14=0|6=0|60=20120907-17:14:56|21=1|111=0|10=160|
8=FIX.4.2|9=263|35=8|49=Trade|56=Client|34=1099|52=20120907-16:14:56.126|37=OrderID_171456|11=20120907-171455-9391761|17=ExecID_48|20=0|150=1|39=1|1=TestAccount|63=0|55=MSFT|54=2|38=100000|40=1|15=USD|59=0|32=50000|31=101|151=50000|14=50000|6=101|60=20120907-17:14:56|21=1|111=0|10=200|
8=FIX.4.2|9=252|35=8|49=Trade|56=Client|34=1100|52=20120907-16:14:56.297|37=OrderID_171456|11=20120907-171456-1107783|17=ExecID_49|20=0|150=0|39=0|1=TestAccount|63=0|55=MSFT|54=2|38=100000|40=1|15=USD|59=0|32=0|31=0|151=100000|14=0|6=0|60=20120907-17:14:56|21=1|111=0|10=147|
8=FIX.4.2|9=267|35=8|49=Trade|56=Client|34=1101|52=20120907-16:14:56.297|37=OrderID_171456|11=20120907-171456-1107783|17=ExecID_50|20=0|150=1|39=1|1=TestAccount|63=0|55=MSFT|54=2|38=100000|40=1|15=USD|59=0|32=50000|31=100.5|151=50000|14=50000|6=100.5|60=20120907-17:14:56|21=1|111=0|10=122|
8=FIX.4.2|9=252|35=8|49=Trade|56=Client|34=1102|52=20120907-16:14:56.485|37=OrderID_171456|11=20120907-171456-2979807|17=ExecID_51|20=0|150=0|39=0|1=TestAccount|63=0|55=MSFT|54=2|38=100000|40=1|15=USD|59=0|32=0|31=0|151=100000|14=0|6=0|60=20120907-17:14:56|21=1|111=0|10=156|
8=FIX.4.2|9=263|35=8|49=Trade|56=Client|34=1103|52=20120907-16:14:56.485|37=OrderID_171456|11=20120907-171456-2979807|17=ExecID_52|20=0|150=1|39=1|1=TestAccount|63=0|55=MSFT|54=2|38=100000|40=1|15=USD|59=0|32=50000|31=102|151=50000|14=50000|6=102|60=20120907-17:14:56|21=1|111=0|10=198|
8=FIX.4.2|9=252|35=8|49=Trade|56=Client|34=1104|52=20120907-16:14:56.672|37=OrderID_171456|11=20120907-171456-4695829|17=ExecID_53|20=0|150=0|39=0|1=TestAccount|63=0|55=MSFT|54=2|38=100000|40=1|15=USD|59=0|32=0|31=0|151=100000|14=0|6=0|60=20120907-17:14:56|21=1|111=0|10=159|
8=FIX.4.2|9=267|35=8|49=Trade|56=Client|34=1105|52=20120907-16:14:56.672|37=OrderID_171456|11=20120907-171456-4695829|17=ExecID_54|20=0|150=1|39=1|1=TestAccount|63=0|55=MSFT|54=2|38=100000|40=1|15=USD|59=0|32=50000|31=101.5|151=50000|14=50000|6=101.5|60=20120907-17:14:56|21=1|111=0|10=145|
8=FIX.4.2|9=252|35=8|49=Trade|56=Client|34=1106|52=20120907-16:14:56.859|37=OrderID_171456|11=20120907-171456-6723855|17=ExecID_55|20=0|150=0|39=0|1=TestAccount|63=0|55=MSFT|54=2|38=100000|40=1|15=USD|59=0|32=0|31=0|151=100000|14=0|6=0|60=20120907-17:14:56|21=1|111=0|10=163|
8=FIX.4.2|9=263|35=8|49=Trade|56=Client|34=1107|52=20120907-16:14:56.859|37=OrderID_171456|11=20120907-171456-6723855|17=ExecID_56|20=0|150=1|39=1|1=TestAccount|63=0|55=MSFT|54=2|38=100000|40=1|15=USD|59=0|32=50000|31=102|151=50000|14=50000|6=102|60=20120907-17:14:56|21=1|111=0|10=205|
8=FIX.4.2|9=252|35=8|49=Trade|56=Client|34=1108|52=20120907-16:14:57.015|37=OrderID_171457|11=20120907-171456-8439877|17=ExecID_57|20=0|150=0|39=0|1=TestAccount|63=0|55=MSFT|54=2|38=100000|40=1|15=USD|59=0|32=0|31=0|151=100000|14=0|6=0|60=20120907-17:14:57|21=1|111=0|10=164|