8=FIX.4.2|9=257|35=8|49=TradingGateway|56=Client|34=4|52=20120601-09:36:26.713|37=OrderID_103626|11=20120601-103623-4844048|17=ExecID_1|20=0|150=0|39=0|1=TestAccount|63=0|55=MSFT|54=1|38=100000|40=1|15=USD|59=0|32=0|31=0|151=100000|14=0|6=0|60=20120601-10:36:26|21=1|111=0|10=073|